{"abi":[{"inputs":[{"internalType":"address","name":"_pool","type":"address"},{"internalType":"address","name":"_router","type":"address"},{"internalType":"uint256","name":"_protocolFee","type":"uint256"},{"internalType":"uint256","name":"_maxTotalSupply","type":"uint256"}],"stateMutability":"nonpayable","type":"constructor","name":"constructor"},{"anonymous":false,"inputs":[{"indexed":true,"internalType":"address","name":"owner","type":"address"},{"indexed":true,"internalType":"address","name":"spender","type":"address"},{"indexed":false,"internalType":"uint256","name":"value","type":"uint256"}],"name":"Approval","type":"event"},{"anonymous":false,"inputs":[{"indexed":false,"internalType":"uint256","name":"feesToVault0","type":"uint256"},{"indexed":false,"internalType":"uint256","name":"feesToVault1","type":"uint256"},{"indexed":false,"internalType":"uint256","name":"feesToProtocol0","type":"uint256"},{"indexed":false,"internalType":"uint256","name":"feesToProtocol1","type":"uint256"}],"name":"CollectFees","type":"event"},{"anonymous":false,"inputs":[{"indexed":true,"internalType":"address","name":"sender","type":"address"},{"indexed":true,"internalType":"address","name":"to","type":"address"},{"indexed":false,"internalType":"uint256","name":"shares","type":"uint256"},{"indexed":false,"internalType":"uint256","name":"amount0","type":"uint256"},{"indexed":false,"internalType":"uint256","name":"amount1","type":"uint256"}],"name":"Deposit","type":"event"},{"anonymous":false,"inputs":[{"indexed":false,"internalType":"int24","name":"tick","type":"int24"},{"indexed":false,"internalType":"uint256","name":"totalAmount0","type":"uint256"},{"indexed":false,"internalType":"uint256","name":"totalAmount1","type":"uint256"},{"indexed":false,"internalType":"uint256","name":"totalSupply","type":"uint256"}],"name":"Snapshot","type":"event"},{"anonymous":false,"inputs":[{"indexed":true,"internalType":"address","name":"from","type":"address"},{"indexed":true,"internalType":"address","name":"to","type":"address"},{"indexed":false,"internalType":"uint256","name":"value","type":"uint256"}],"name":"Transfer","type":"event"},{"anonymous":false,"inputs":[{"indexed":true,"internalType":"address","name":"sender","type":"address"},{"indexed":true,"internalType":"address","name":"to","type":"address"},{"indexed":false,"internalType":"uint256","name":"shares","type":"uint256"},{"indexed":false,"internalType":"uint256","name":"amount0","type":"uint256"},{"indexed":false,"internalType":"uint256","name":"amount1","type":"uint256"}],"name":"Withdraw","type":"event"},{"inputs":[],"name":"SharpeKeeper","outputs":[{"internalType":"address","name":"","type":"address"}],"stateMutability":"view","type":"function"},{"inputs":[],"name":"acceptGovernance","outputs":[],"stateMutability":"nonpayable","type":"function"},{"inputs":[],"name":"accruedProtocolFees0","outputs":[{"internalType":"uint256","name":"","type":"uint256"}],"stateMutability":"view","type":"function"},{"inputs":[],"name":"accruedProtocolFees1","outputs":[{"internalType":"uint256","name":"","type":"uint256"}],"stateMutability":"view","type":"function"},{"inputs":[{"internalType":"address","name":"owner","type":"address"},{"internalType":"address","name":"spender","type":"address"}],"name":"allowance","outputs":[{"internalType":"uint256","name":"","type":"uint256"}],"stateMutability":"view","type":"function"},{"inputs":[{"internalType":"address","name":"spender","type":"address"},{"internalType":"uint256","name":"amount","type":"uint256"}],"name":"approve","outputs":[{"internalType":"bool","name":"","type":"bool"}],"stateMutability":"nonpayable","type":"function"},{"inputs":[{"internalType":"address","name":"account","type":"address"}],"name":"balanceOf","outputs":[{"internalType":"uint256","name":"","type":"uint256"}],"stateMutability":"view","type":"function"},{"inputs":[],"name":"baseLower","outputs":[{"internalType":"int24","name":"","type":"int24"}],"stateMutability":"view","type":"function"},{"inputs":[],"name":"baseUpper","outputs":[{"internalType":"int24","name":"","type":"int24"}],"stateMutability":"view","type":"function"},{"inputs":[{"internalType":"uint256","name":"amount0","type":"uint256"},{"internalType":"uint256","name":"amount1","type":"uint256"},{"internalType":"address","name":"to","type":"address"}],"name":"collectProtocol","outputs":[],"stateMutability":"nonpayable","type":"function"},{"inputs":[],"name":"decimals","outputs":[{"internalType":"uint8","name":"","type":"uint8"}],"stateMutability":"view","type":"function"},{"inputs":[{"internalType":"address","name":"spender","type":"address"},{"internalType":"uint256","name":"subtractedValue","type":"uint256"}],"name":"decreaseAllowance","outputs":[{"internalType":"bool","name":"","type":"bool"}],"stateMutability":"nonpayable","type":"function"},{"inputs":[{"internalType":"uint256","name":"amount0Desired","type":"uint256"},{"internalType":"uint256","name":"amount1Desired","type":"uint256"},{"internalType":"uint256","name":"amount0Min","type":"uint256"},{"internalType":"uint256","name":"amount1Min","type":"uint256"},{"internalType":"address","name":"to","type":"address"}],"name":"deposit","outputs":[{"internalType":"uint256","name":"shares","type":"uint256"},{"internalType":"uint256","name":"amount0","type":"uint256"},{"internalType":"uint256","name":"amount1","type":"uint256"}],"stateMutability":"nonpayable","type":"function"},{"inputs":[{"internalType":"int24","name":"tickLower","type":"int24"},{"internalType":"int24","name":"tickUpper","type":"int24"},{"internalType":"uint128","name":"liquidity","type":"uint128"}],"name":"emergencyBurn","outputs":[],"stateMutability":"nonpayable","type":"function"},{"inputs":[],"name":"getBalance0","outputs":[{"internalType":"uint256","name":"","type":"uint256"}],"stateMutability":"view","type":"function"},{"inputs":[],"name":"getBalance1","outputs":[{"internalType":"uint256","name":"","type":"uint256"}],"stateMutability":"view","type":"function"},{"inputs":[{"internalType":"int24","name":"tickLower","type":"int24"},{"internalType":"int24","name":"tickUpper","type":"int24"}],"name":"getPositionAmounts","outputs":[{"internalType":"uint256","name":"amount0","type":"uint256"},{"internalType":"uint256","name":"amount1","type":"uint256"}],"stateMutability":"view","type":"function"},{"inputs":[],"name":"getTotalAmounts","outputs":[{"internalType":"uint256","name":"total0","type":"uint256"},{"internalType":"uint256","name":"total1","type":"uint256"}],"stateMutability":"view","type":"function"},{"inputs":[],"name":"governance","outputs":[{"internalType":"address","name":"","type":"address"}],"stateMutability":"view","type":"function"},{"inputs":[{"internalType":"address","name":"spender","type":"address"},{"internalType":"uint256","name":"addedValue","type":"uint256"}],"name":"increaseAllowance","outputs":[{"internalType":"bool","name":"","type":"bool"}],"stateMutability":"nonpayable","type":"function"},{"inputs":[],"name":"limitLower","outputs":[{"internalType":"int24","name":"","type":"int24"}],"stateMutability":"view","type":"function"},{"inputs":[],"name":"limitUpper","outputs":[{"internalType":"int24","name":"","type":"int24"}],"stateMutability":"view","type":"function"},{"inputs":[],"name":"maxTotalSupply","outputs":[{"internalType":"uint256","name":"","type":"uint256"}],"stateMutability":"view","type":"function"},{"inputs":[],"name":"name","outputs":[{"internalType":"string","name":"","type":"string"}],"stateMutability":"view","type":"function"},{"inputs":[],"name":"pendingGovernance","outputs":[{"internalType":"address","name":"","type":"address"}],"stateMutability":"view","type":"function"},{"inputs":[],"name":"pool","outputs":[{"internalType":"contract IUniswapV3Pool","name":"","type":"address"}],"stateMutability":"view","type":"function"},{"inputs":[],"name":"protocolFee","outputs":[{"internalType":"uint256","name":"","type":"uint256"}],"stateMutability":"view","type":"function"},{"inputs":[{"internalType":"int256","name":"swapAmount","type":"int256"},{"internalType":"uint160","name":"sqrtPriceLimitX96","type":"uint160"},{"internalType":"int24","name":"_baseLower","type":"int24"},{"internalType":"int24","name":"_baseUpper","type":"int24"},{"internalType":"int24","name":"_bidLower","type":"int24"},{"internalType":"int24","name":"_bidUpper","type":"int24"},{"internalType":"int24","name":"_askLower","type":"int24"},{"internalType":"int24","name":"_askUpper","type":"int24"}],"name":"rebalance","outputs":[],"stateMutability":"nonpayable","type":"function"},{"inputs":[],"name":"router","outputs":[{"internalType":"contract IUniswapV2Router02","name":"","type":"address"}],"stateMutability":"view","type":"function"},{"inputs":[],"name":"routerAddress","outputs":[{"internalType":"address","name":"","type":"address"}],"stateMutability":"view","type":"function"},{"inputs":[{"internalType":"address","name":"_governance","type":"address"}],"name":"setGovernance","outputs":[],"stateMutability":"nonpayable","type":"function"},{"inputs":[{"internalType":"uint256","name":"_maxTotalSupply","type":"uint256"}],"name":"setMaxTotalSupply","outputs":[],"stateMutability":"nonpayable","type":"function"},{"inputs":[{"internalType":"uint256","name":"_protocolFee","type":"uint256"}],"name":"setProtocolFee","outputs":[],"stateMutability":"nonpayable","type":"function"},{"inputs":[{"internalType":"address","name":"_SharpeKeeper","type":"address"}],"name":"setSharpeKeeper","outputs":[],"stateMutability":"nonpayable","type":"function"},{"inputs":[{"internalType":"contract IERC20","name":"token","type":"address"},{"internalType":"uint256","name":"amount","type":"uint256"},{"internalType":"address","name":"to","type":"address"}],"name":"sweep","outputs":[],"stateMutability":"nonpayable","type":"function"},{"inputs":[],"name":"symbol","outputs":[{"internalType":"string","name":"","type":"string"}],"stateMutability":"view","type":"function"},{"inputs":[],"name":"tickSpacing","outputs":[{"internalType":"int24","name":"","type":"int24"}],"stateMutability":"view","type":"function"},{"inputs":[],"name":"token0","outputs":[{"internalType":"contract IERC20","name":"","type":"address"}],"stateMutability":"view","type":"function"},{"inputs":[],"name":"token0Address","outputs":[{"internalType":"address","name":"","type":"address"}],"stateMutability":"view","type":"function"},{"inputs":[],"name":"token1","outputs":[{"internalType":"contract IERC20","name":"","type":"address"}],"stateMutability":"view","type":"function"},{"inputs":[],"name":"token1Address","outputs":[{"internalType":"address","name":"","type":"address"}],"stateMutability":"view","type":"function"},{"inputs":[],"name":"totalSupply","outputs":[{"internalType":"uint256","name":"","type":"uint256"}],"stateMutability":"view","type":"function"},{"inputs":[{"internalType":"address","name":"to","type":"address"},{"internalType":"uint256","name":"amount","type":"uint256"}],"name":"transfer","outputs":[{"internalType":"bool","name":"","type":"bool"}],"stateMutability":"nonpayable","type":"function"},{"inputs":[{"internalType":"address","name":"from","type":"address"},{"internalType":"address","name":"to","type":"address"},{"internalType":"uint256","name":"amount","type":"uint256"}],"name":"transferFrom","outputs":[{"internalType":"bool","name":"","type":"bool"}],"stateMutability":"nonpayable","type":"function"},{"inputs":[{"internalType":"uint256","name":"amount0","type":"uint256"},{"internalType":"uint256","name":"amount1","type":"uint256"},{"internalType":"bytes","name":"data","type":"bytes"}],"name":"uniswapV3MintCallback","outputs":[],"stateMutability":"nonpayable","type":"function"},{"inputs":[{"internalType":"int256","name":"amount0Delta","type":"int256"},{"internalType":"int256","name":"amount1Delta","type":"int256"},{"internalType":"bytes","name":"data","type":"bytes"}],"name":"uniswapV3SwapCallback","outputs":[],"stateMutability":"nonpayable","type":"function"},{"inputs":[{"internalType":"uint256","name":"shares","type":"uint256"},{"internalType":"uint256","name":"amount0Min","type":"uint256"},{"internalType":"uint256","name":"amount1Min","type":"uint256"},{"internalType":"address","name":"to","type":"address"},{"internalType":"bool","name":"swapToAmount0","type":"bool"},{"internalType":"bool","name":"swapToAmount1","type":"bool"}],"name":"withdraw","outputs":[{"internalType":"uint256","name":"amount0","type":"uint256"},{"internalType":"uint256","name":"amount1","type":"uint256"}],"stateMutability":"nonpayable","type":"function"}],"bytecode":"6101806040523480156200001257600080fd5b5060405162006008380380620060088339810160408190526200003591620004c9565b604080518082018252600681526553686172706560d01b6020808301918252835180850190945260048452630534852560e41b9084015281519192916200007f91600391620003e2565b50805162000095906004906020840190620003e2565b50506001600555506001600160601b0319606085811b821660805284901b1660a05260408051630dfe168160e01b815290516001600160a01b03861691630dfe1681916004808301926020929190829003018186803b158015620000f857600080fd5b505afa1580156200010d573d6000803e3d6000fd5b505050506040513d601f19601f82011682018060405250810190620001339190620004a5565b6001600160a01b031660c0816001600160a01b031660601b81525050836001600160a01b031663d21220a76040518163ffffffff1660e01b815260040160206040518083038186803b1580156200018957600080fd5b505afa1580156200019e573d6000803e3d6000fd5b505050506040513d601f19601f82011682018060405250810190620001c49190620004a5565b6001600160a01b031660e0816001600160a01b031660601b81525050836001600160a01b0316630dfe16816040518163ffffffff1660e01b815260040160206040518083038186803b1580156200021a57600080fd5b505afa1580156200022f573d6000803e3d6000fd5b505050506040513d601f19601f82011682018060405250810190620002559190620004a5565b6001600160a01b0316610120816001600160a01b031660601b81525050836001600160a01b031663d21220a76040518163ffffffff1660e01b815260040160206040518083038186803b158015620002ac57600080fd5b505afa158015620002c1573d6000803e3d6000fd5b505050506040513d601f19601f82011682018060405250810190620002e79190620004a5565b6001600160601b0319606091821b8116610140529084901b1661016052604080516334324e9f60e21b815290516001600160a01b0386169163d0c93a7c916004808301926020929190829003018186803b1580156200034557600080fd5b505afa1580156200035a573d6000803e3d6000fd5b505050506040513d601f19601f8201168201806040525081019062000380919062000510565b600290810b900b60e81b6101005260068290556007819055600980546001600160a01b03191633179055620f42408210620003d85760405162461bcd60e51b8152600401620003cf9062000533565b60405180910390fd5b5050505062000595565b828054620003f09062000558565b90600052602060002090601f0160209004810192826200041457600085556200045f565b82601f106200042f57805160ff19168380011785556200045f565b828001600101855582156200045f579182015b828111156200045f57825182559160200191906001019062000442565b506200046d92915062000471565b5090565b5b808211156200046d576000815560010162000472565b80516001600160a01b0381168114620004a057600080fd5b919050565b600060208284031215620004b7578081fd5b620004c28262000488565b9392505050565b60008060008060808587031215620004df578283fd5b620004ea8562000488565b9350620004fa6020860162000488565b6040860151606090960151949790965092505050565b60006020828403121562000522578081fd5b81518060020b8114620004c2578182fd5b6020808252600b908201526a70726f746f636f6c46656560a81b604082015260600190565b6002810460018216806200056d57607f821691505b602082108114156200058f57634e487b7160e01b600052602260045260246000fd5b50919050565b60805160601c60a05160601c60c05160601c60e05160601c6101005160e81c6101205160601c6101405160601c6101605160601c615851620007b7600039600081816107ce01528181610b9d0152818161127a015281816136ac015261392101526000818161096d01528181610c9f015281816110b20152818161131a015281816123780152818161374c0152613a230152600081816109cf01528181610c3d015281816110500152818161137c015281816119ef015281816137ae01526139c10152600081816122810152612ec301526000818161060401528181610f760152818161120e0152818161124d0152818161172301528181611865015281816122a501528181612349015281816124030152818161267601528181612772015281816128cd015261367f0152600081816105ca015281816106f701528181610b3101528181610b7001528181610ed9015281816116e8015281816119330152818161230f015281816123c60152818161259b015281816127380152818161289001526138f4015260008181610a3701528181610d070152818161111a015281816113e401528181612813015281816138160152613a8b01526000818161072b01528181611a8501528181611c7f015281816120670152818161210a015281816122d20152818161285001528181612bb101528181612fe4015281816130a80152818161313d015281816132ce015281816133b201526133f401526158516000f3fe608060405234801561001057600080fd5b50600436106102955760003560e01c806387e5e08311610167578063d0c93a7c116100ce578063e4292b5811610087578063e4292b581461051e578063eae989a214610531578063f39c38a014610539578063f887ea4014610541578063fa08274314610549578063fa461e331461055157610295565b8063d0c93a7c146104cd578063d21220a7146104d5578063d3487997146104dd578063d7cb416f146104f0578063dc2c256f146104f8578063dd62ed3e1461050b57610295565b8063a91ef6eb11610120578063a91ef6eb14610463578063ab033ea914610484578063abbffcb914610497578063b0e21e8a146104aa578063b3a3d00c146104b2578063c4a7761e146104c557610295565b806387e5e08314610412578063888a91341461042557806395d89b411461042d578063a00fa77f14610435578063a457c2d71461043d578063a9059cbb1461045057610295565b8063313ce5671161020b57806351e87af7116101c457806351e87af7146103cc5780635aa6e675146103d4578063629d9405146103dc57806370a08231146103e4578063787dce3d146103f75780637ff36fbe1461040a57610295565b8063313ce5671461035f5780633268cc5614610374578063365d0ed71461037c578063395093511461039e5780633f3e4c11146103b157806341aec538146103c457610295565b80630f35bcac1161025d5780630f35bcac1461030a57806316f0115b1461031f57806318160ddd14610327578063238efcbc1461033c57806323b872dd146103445780632ab4d0521461035757610295565b80630430c1301461029a57806306fdde03146102af578063095ea7b3146102cd5780630c42383a146102ed5780630dfe168114610302575b600080fd5b6102ad6102a8366004614b58565b610564565b005b6102b7610630565b6040516102c49190614e2f565b60405180910390f35b6102e06102db366004614742565b6106c2565b6040516102c49190614dc7565b6102f56106e6565b6040516102c49190614cbd565b6102f56106f5565b610312610719565b6040516102c49190614ddb565b6102f5610729565b61032f61074d565b6040516102c49190614dd2565b6102ad610753565b6102e0610352366004614702565b610791565b61032f6107c1565b6103676107c7565b6040516102c4919061561f565b6102f56107cc565b61038f61038a366004614beb565b6107f0565b6040516102c4939291906155e0565b6102e06103ac366004614742565b6117e0565b6102ad6103bf366004614b28565b61182c565b61032f61185b565b61031261190a565b6102f561191a565b61032f611929565b61032f6103f23660046146ae565b61197d565b6102ad610405366004614b28565b61199c565b6102f56119ed565b6102ad610420366004614964565b611a11565b610312611e9a565b6102b7611eaa565b61032f611eb9565b6102e061044b366004614742565b611ebf565b6102e061045e366004614742565b611f2b565b610476610471366004614884565b611f43565b6040516102c49291906155f6565b6102ad6104923660046146ae565b611fda565b6102ad6104a53660046148b1565b612026565b61032f6121a6565b6102ad6104c03660046146ae565b6121ac565b6104766121f8565b61031261227f565b6102f56122a3565b6102ad6104eb366004614913565b6122c7565b6102f5612376565b6102ad610506366004614843565b61239a565b61032f6105193660046146ca565b612468565b61047661052c366004614b85565b612493565b61032f6127fc565b6102f5612802565b6102f5612811565b610312612835565b6102ad61055f366004614913565b612845565b6009546001600160a01b031633146105975760405162461bcd60e51b815260040161058e90615265565b60405180910390fd5b600b546105a490846128f4565b600b55600c546105b490836128f4565b600c5582156105f1576105f16001600160a01b037f0000000000000000000000000000000000000000000000000000000000000000168285612900565b811561062b5761062b6001600160a01b037f0000000000000000000000000000000000000000000000000000000000000000168284612900565b505050565b60606003805461063f906156e3565b80601f016020809104026020016040519081016040528092919081815260200182805461066b906156e3565b80156106b85780601f1061068d576101008083540402835291602001916106b8565b820191906000526020600020905b81548152906001019060200180831161069b57829003601f168201915b5050505050905090565b6000806106cd612956565b90506106da81858561295a565b60019150505b92915050565b6008546001600160a01b031681565b7f000000000000000000000000000000000000000000000000000000000000000081565b600a54600160e81b900460020b81565b7f000000000000000000000000000000000000000000000000000000000000000081565b60025490565b600a546001600160a01b0316331461077d5760405162461bcd60e51b815260040161058e90615147565b600980546001600160a01b03191633179055565b60008061079c612956565b90506107a9858285612a0e565b6107b4858585612a52565b60019150505b9392505050565b60075481565b601290565b7f000000000000000000000000000000000000000000000000000000000000000081565b6000806000600260055414156108185760405162461bcd60e51b815260040161058e906154d8565b60026005558715158061082b5750600087115b6108475760405162461bcd60e51b815260040161058e90615112565b6001600160a01b0384161580159061086857506001600160a01b0384163014155b6108845760405162461bcd60e51b815260040161058e90614f0b565b600a546108a690600160a01b8104600290810b91600160b81b9004900b612b76565b600a546108c890600160d01b8104600290810b91600160e81b9004900b612b76565b6108d28888612c3c565b9194509250905082611675576000821180156108ec575080155b806109005750600081118015610900575081155b61091c5760405162461bcd60e51b815260040161058e90615172565b600061092661074d565b90506000806109336121f8565b91509150600085118015610945575083155b1561102d576040805160028082526060820183526000926020830190803683370190505090507f0000000000000000000000000000000000000000000000000000000000000000816000815181106109ad57634e487b7160e01b600052603260045260246000fd5b60200260200101906001600160a01b031690816001600160a01b0316815250507f000000000000000000000000000000000000000000000000000000000000000081600181518110610a0f57634e487b7160e01b600052603260045260246000fd5b6001600160a01b03928316602091820292909201015260405163d06ca61f60e01b81526000917f0000000000000000000000000000000000000000000000000000000000000000169063d06ca61f90610a6e908690869060040161558b565b60006040518083038186803b158015610a8657600080fd5b505afa158015610a9a573d6000803e3d6000fd5b505050506040513d6000823e601f3d908101601f19168201604052610ac2919081019061476d565b90506000610b14610b0483600181518110610aed57634e487b7160e01b600052603260045260246000fd5b602002602001015187612d9a90919063ffffffff16565b610b0e8a88612da6565b90612db2565b90506000610b2289836128f4565b9050610b596001600160a01b037f00000000000000000000000000000000000000000000000000000000000000001633308c612dbe565b60405163095ea7b360e01b81526001600160a01b037f0000000000000000000000000000000000000000000000000000000000000000169063095ea7b390610bc7907f0000000000000000000000000000000000000000000000000000000000000000908590600401614dae565b602060405180830381600087803b158015610be157600080fd5b505af1158015610bf5573d6000803e3d6000fd5b505050506040513d601f19601f82011682018060405250810190610c199190614827565b506040805160028082526060820183526000926020830190803683370190505090507f000000000000000000000000000000000000000000000000000000000000000081600081518110610c7d57634e487b7160e01b600052603260045260246000fd5b60200260200101906001600160a01b031690816001600160a01b0316815250507f000000000000000000000000000000000000000000000000000000000000000081600181518110610cdf57634e487b7160e01b600052603260045260246000fd5b6001600160a01b0392831660209182029290920101526040516338ed173960e01b81526000917f000000000000000000000000000000000000000000000000000000000000000016906338ed173990610d4490869085908790309042906004016155a4565b600060405180830381600087803b158015610d5e57600080fd5b505af1158015610d72573d6000803e3d6000fd5b505050506040513d6000823e601f3d908101601f19168201604052610d9a919081019061476d565b90506000610deb610dab868a612da6565b610de68b85600181518110610dd057634e487b7160e01b600052603260045260246000fd5b6020026020010151612da690919063ffffffff16565b612ddf565b905060008111610e0d5760405162461bcd60e51b815260040161058e9061519e565b610e266001610e208a610b0e85846128f4565b90612d9a565b9b50610e3b6001610e208b610b0e85846128f4565b9a50610e4d88610b0e8b81858f612da6565b9c508f8c1015610e6f5760405162461bcd60e51b815260040161058e90614ea5565b8e8b1015610e8f5760405162461bcd60e51b815260040161058e9061534e565b60008d11610eaf5760405162461bcd60e51b815260040161058e90614fcf565b6000610ebb868e6128f4565b1115610f0057610f008e610ecf878f6128f4565b6001600160a01b037f0000000000000000000000000000000000000000000000000000000000000000169190612900565b6000610f3d8c84600181518110610f2757634e487b7160e01b600052603260045260246000fd5b60200260200101516128f490919063ffffffff16565b1115610f9d57610f9d8e610f6c8d85600181518110610f2757634e487b7160e01b600052603260045260246000fd5b6001600160a01b037f0000000000000000000000000000000000000000000000000000000000000000169190612900565b610fa78e8e612df5565b8d6001600160a01b0316336001600160a01b03167f4e2ca0515ed1aef1395f66b5303bb5d6f1bf9d61a353fa53f73f8ac9973fa9f68f8f8f604051610fee939291906155e0565b60405180910390a36007546110038b8f612d9a565b11156110215760405162461bcd60e51b815260040161058e90615466565b5050505050505061166d565b6040805160028082526060820183526000926020830190803683370190505090507f00000000000000000000000000000000000000000000000000000000000000008160008151811061109057634e487b7160e01b600052603260045260246000fd5b60200260200101906001600160a01b031690816001600160a01b0316815250507f0000000000000000000000000000000000000000000000000000000000000000816001815181106110f257634e487b7160e01b600052603260045260246000fd5b6001600160a01b03928316602091820292909201015260405163d06ca61f60e01b81526000917f0000000000000000000000000000000000000000000000000000000000000000169063d06ca61f90611151908790869060040161558b565b60006040518083038186803b15801561116957600080fd5b505afa15801561117d573d6000803e3d6000fd5b505050506040513d6000823e601f3d908101601f191682016040526111a5919081019061476d565b905060006111f16111e7836001815181106111d057634e487b7160e01b600052603260045260246000fd5b602002602001015186612d9a90919063ffffffff16565b610b0e8987612da6565b905060006111ff88836128f4565b90506112366001600160a01b037f00000000000000000000000000000000000000000000000000000000000000001633308b612dbe565b60405163095ea7b360e01b81526001600160a01b037f0000000000000000000000000000000000000000000000000000000000000000169063095ea7b3906112a4907f0000000000000000000000000000000000000000000000000000000000000000908590600401614dae565b602060405180830381600087803b1580156112be57600080fd5b505af11580156112d2573d6000803e3d6000fd5b505050506040513d601f19601f820116820180604052508101906112f69190614827565b506040805160028082526060820183526000926020830190803683370190505090507f00000000000000000000000000000000000000000000000000000000000000008160008151811061135a57634e487b7160e01b600052603260045260246000fd5b60200260200101906001600160a01b031690816001600160a01b0316815250507f0000000000000000000000000000000000000000000000000000000000000000816001815181106113bc57634e487b7160e01b600052603260045260246000fd5b6001600160a01b0392831660209182029290920101526040516338ed173960e01b81526000917f000000000000000000000000000000000000000000000000000000000000000016906338ed17399061142190869085908790309042906004016155a4565b600060405180830381600087803b15801561143b57600080fd5b505af115801561144f573d6000803e3d6000fd5b505050506040513d6000823e601f3d908101601f19168201604052611477919081019061476d565b905060006114ad6114a38984600181518110610dd057634e487b7160e01b600052603260045260246000fd5b610de6878c612da6565b9050600081116114cf5760405162461bcd60e51b815260040161058e9061519e565b6114e26001610e208a610b0e85846128f4565b9b506114f76001610e208b610b0e85846128f4565b9a5061150988610b0e8b81858f612da6565b9c508f8c101561152b5760405162461bcd60e51b815260040161058e90614ea5565b8e8b101561154b5760405162461bcd60e51b815260040161058e9061534e565b60008d1161156b5760405162461bcd60e51b815260040161058e90614fcf565b60006115928d84600181518110610f2757634e487b7160e01b600052603260045260246000fd5b11156115c1576115c18e610ecf8e85600181518110610f2757634e487b7160e01b600052603260045260246000fd5b60006115cd868d6128f4565b11156115e1576115e18e610f6c878e6128f4565b6115eb8e8e612df5565b8d6001600160a01b0316336001600160a01b03167f4e2ca0515ed1aef1395f66b5303bb5d6f1bf9d61a353fa53f73f8ac9973fa9f68f8f8f604051611632939291906155e0565b60405180910390a36007546116478b8f612d9a565b11156116655760405162461bcd60e51b815260040161058e90615466565b505050505050505b5050506117cd565b858210156116955760405162461bcd60e51b815260040161058e90614ea5565b848110156116b55760405162461bcd60e51b815260040161058e9061534e565b600083116116d55760405162461bcd60e51b815260040161058e90615289565b8115611710576117106001600160a01b037f000000000000000000000000000000000000000000000000000000000000000016333085612dbe565b801561174b5761174b6001600160a01b037f000000000000000000000000000000000000000000000000000000000000000016333084612dbe565b6117558484612df5565b836001600160a01b0316336001600160a01b03167f4e2ca0515ed1aef1395f66b5303bb5d6f1bf9d61a353fa53f73f8ac9973fa9f685858560405161179c939291906155e0565b60405180910390a36007546117af61074d565b11156117cd5760405162461bcd60e51b815260040161058e90615466565b6001600581905550955095509592505050565b6000806117eb612956565b6001600160a01b038082166000908152600160209081526040808320938916835292905220549091506106da908290869061182790879061562d565b61295a565b6009546001600160a01b031633146118565760405162461bcd60e51b815260040161058e90615265565b600755565b6000611905600c547f00000000000000000000000000000000000000000000000000000000000000006001600160a01b03166370a08231306040518263ffffffff1660e01b81526004016118af9190614cbd565b60206040518083038186803b1580156118c757600080fd5b505afa1580156118db573d6000803e3d6000fd5b505050506040513d601f19601f820116820180604052508101906118ff9190614b40565b906128f4565b905090565b600a54600160d01b900460020b81565b6009546001600160a01b031681565b6000611905600b547f00000000000000000000000000000000000000000000000000000000000000006001600160a01b03166370a08231306040518263ffffffff1660e01b81526004016118af9190614cbd565b6001600160a01b0381166000908152602081905260409020545b919050565b6009546001600160a01b031633146119c65760405162461bcd60e51b815260040161058e90615265565b620f424081106119e85760405162461bcd60e51b815260040161058e906151c4565b600655565b7f000000000000000000000000000000000000000000000000000000000000000081565b60026005541415611a345760405162461bcd60e51b815260040161058e906154d8565b60026005556008546001600160a01b03163314611a635760405162461bcd60e51b815260040161058e9061523f565b611a6d8686612ec1565b611a778484612ec1565b611a818282612ec1565b60007f00000000000000000000000000000000000000000000000000000000000000006001600160a01b0316633850c7bd6040518163ffffffff1660e01b815260040160e06040518083038186803b158015611adc57600080fd5b505afa158015611af0573d6000803e3d6000fd5b505050506040513d601f19601f82011682018060405250810190611b149190614a92565b50505050509150508060020b8460020b1315611b425760405162461bcd60e51b815260040161058e906150aa565b8060020b8360020b13611b675760405162461bcd60e51b815260040161058e90615372565b600a54600090611b8c90600160a01b8104600290810b91600160b81b9004900b612fb6565b5050600a54929350600092611bb99250600160d01b8104600290810b9250600160e81b909104900b612fb6565b5050600a54929350611be592600160a01b8104600290810b9350600160b81b909104900b90508461307d565b5050600a54611c0d9250600160d01b8104600290810b9250600160e81b909104900b8361307d565b5050505050506000611c1d611929565b90506000611c2961185b565b90507f210f60adf1db7a02e9db9a49ec7c2eb2060c516cbcfd01a0c05288144738ee5d838383611c5761074d565b604051611c679493929190614e0f565b60405180910390a18a15611d46576001600160a01b037f00000000000000000000000000000000000000000000000000000000000000001663128acb083060008e1380611cbc57611cb78f615775565b611cbe565b8e5b8e6040518563ffffffff1660e01b8152600401611cde9493929190614cf5565b6040805180830381600087803b158015611cf757600080fd5b505af1158015611d0b573d6000803e3d6000fd5b505050506040513d601f19601f82011682018060405250810190611d2f91906148f0565b5050611d39611929565b9150611d4361185b565b90505b6000611d548a8a85856132c9565b9050611d618a8a8361338c565b600a805460028c810b62ffffff908116600160a01b0262ffffff60a01b19928e900b909116600160b81b0262ffffff60b81b199093169290921716179055611da7611929565b9250611db161185b565b91506000611dc1898986866132c9565b90506000611dd1888887876132c9565b9050806001600160801b0316826001600160801b03161115611e3b57611df88a8a8461338c565b600a805460028c810b62ffffff908116600160d01b0262ffffff60d01b19928e900b909116600160e81b026001600160e81b039093169290921716179055611e85565b611e4688888361338c565b600a805460028a810b62ffffff908116600160d01b0262ffffff60d01b19928c900b909116600160e81b026001600160e81b0390931692909217161790555b50506001600555505050505050505050505050565b600a54600160b81b900460020b81565b60606004805461063f906156e3565b600c5481565b600080611eca612956565b6001600160a01b0380821660009081526001602090815260408083209389168352929052205490915083811015611f135760405162461bcd60e51b815260040161058e9061550f565b611f20828686840361295a565b506001949350505050565b600080611f36612956565b90506106da818585612a52565b6000806000806000611f558787612fb6565b9450945050509250611f688787856133ed565b6006549196509450600090611f8190620f4240906128f4565b9050611fa7611fa0620f4240610b0e6001600160801b03871685612da6565b8790612d9a565b9550611fcd611fc6620f4240610b0e6001600160801b03861685612da6565b8690612d9a565b9450505050509250929050565b6009546001600160a01b031633146120045760405162461bcd60e51b815260040161058e90615265565b600a80546001600160a01b0319166001600160a01b0392909216919091179055565b6009546001600160a01b031633146120505760405162461bcd60e51b815260040161058e90615265565b60405163a34123a760e01b81526001600160a01b037f0000000000000000000000000000000000000000000000000000000000000000169063a34123a7906120a090869086908690600401614de9565b6040805180830381600087803b1580156120b957600080fd5b505af11580156120cd573d6000803e3d6000fd5b505050506040513d601f19601f820116820180604052508101906120f191906148f0565b50506040516309e3d67b60e31b81526001600160a01b037f00000000000000000000000000000000000000000000000000000000000000001690634f1eb3d89061214e903090879087906001600160801b03908190600401614d71565b6040805180830381600087803b15801561216757600080fd5b505af115801561217b573d6000803e3d6000fd5b505050506040513d601f19601f8201168201806040525081019061219f9190614a03565b5050505050565b60065481565b6009546001600160a01b031633146121d65760405162461bcd60e51b815260040161058e90615265565b600880546001600160a01b0319166001600160a01b0392909216919091179055565b600a5460009081908190819061222390600160a01b8104600290810b91600160b81b9004900b611f43565b600a549193509150600090819061224f90600160d01b8104600290810b91600160e81b9004900b611f43565b9150915061226382610e2086610e20611929565b955061227581610e2085610e2061185b565b9450505050509091565b7f000000000000000000000000000000000000000000000000000000000000000081565b7f000000000000000000000000000000000000000000000000000000000000000081565b336001600160a01b037f000000000000000000000000000000000000000000000000000000000000000016146122fc57600080fd5b8315612336576123366001600160a01b037f0000000000000000000000000000000000000000000000000000000000000000163386612900565b8215612370576123706001600160a01b037f0000000000000000000000000000000000000000000000000000000000000000163385612900565b50505050565b7f000000000000000000000000000000000000000000000000000000000000000081565b6009546001600160a01b031633146123c45760405162461bcd60e51b815260040161058e90615265565b7f00000000000000000000000000000000000000000000000000000000000000006001600160a01b0316836001600160a01b03161415801561243857507f00000000000000000000000000000000000000000000000000000000000000006001600160a01b0316836001600160a01b031614155b6124545760405162461bcd60e51b815260040161058e906151e9565b61062b6001600160a01b0384168284612900565b6001600160a01b03918216600090815260016020908152604080832093909416825291909152205490565b600080600260055414156124b95760405162461bcd60e51b815260040161058e906154d8565b6002600555876124db5760405162461bcd60e51b815260040161058e90615289565b6001600160a01b038516158015906124fc57506001600160a01b0385163014155b6125185760405162461bcd60e51b815260040161058e90614f0b565b600061252261074d565b905061252e338a6134b4565b61253889826135a5565b9093509150848015612548575083155b1561261857600061255a836001613660565b90506125668482612d9a565b9350888410156125885760405162461bcd60e51b815260040161058e90614ea5565b83156125c2576125c26001600160a01b037f0000000000000000000000000000000000000000000000000000000000000000168886612900565b866001600160a01b0316336001600160a01b03167febff2602b3f468259e1e99f613fed6691f3a6526effe6ef3e768ba7ae7a36c4f8c87600060405161260a939291906155e0565b60405180910390a3506127e9565b838015612623575084155b156126e5576000612635846000613660565b90506126418382612d9a565b9250878310156126635760405162461bcd60e51b815260040161058e9061534e565b821561269d5761269d6001600160a01b037f0000000000000000000000000000000000000000000000000000000000000000168885612900565b866001600160a01b0316336001600160a01b03167febff2602b3f468259e1e99f613fed6691f3a6526effe6ef3e768ba7ae7a36c4f8c60008760405161260a939291906155e0565b878310156127055760405162461bcd60e51b815260040161058e90614ea5565b868210156127255760405162461bcd60e51b815260040161058e9061534e565b821561275f5761275f6001600160a01b037f0000000000000000000000000000000000000000000000000000000000000000168785612900565b8115612799576127996001600160a01b037f0000000000000000000000000000000000000000000000000000000000000000168784612900565b856001600160a01b0316336001600160a01b03167febff2602b3f468259e1e99f613fed6691f3a6526effe6ef3e768ba7ae7a36c4f8b86866040516127e0939291906155e0565b60405180910390a35b5060016005559097909650945050505050565b600b5481565b600a546001600160a01b031681565b7f000000000000000000000000000000000000000000000000000000000000000081565b600a54600160a01b900460020b81565b336001600160a01b037f0000000000000000000000000000000000000000000000000000000000000000161461287a57600080fd5b60008413156128b7576128b76001600160a01b037f0000000000000000000000000000000000000000000000000000000000000000163386612900565b6000831315612370576123706001600160a01b037f0000000000000000000000000000000000000000000000000000000000000000163385612900565b60006107ba82846156a0565b61062b8363a9059cbb60e01b848460405160240161291f929190614dae565b60408051601f198184030181529190526020810180516001600160e01b03166001600160e01b031990931692909217909152613b53565b3390565b6001600160a01b0383166129805760405162461bcd60e51b815260040161058e906153bf565b6001600160a01b0382166129a65760405162461bcd60e51b815260040161058e90614f56565b6001600160a01b0380841660008181526001602090815260408083209487168084529490915290819020849055517f8c5be1e5ebec7d5bd14f71427d1e84f3dd0314c0f7b2291e5b200ac8c7c3b92590612a01908590614dd2565b60405180910390a3505050565b6000612a1a8484612468565b905060001981146123705781811015612a455760405162461bcd60e51b815260040161058e90614ff6565b612370848484840361295a565b6001600160a01b038316612a785760405162461bcd60e51b815260040161058e90615309565b6001600160a01b038216612a9e5760405162461bcd60e51b815260040161058e90614e62565b612aa983838361062b565b6001600160a01b03831660009081526020819052604090205481811015612ae25760405162461bcd60e51b815260040161058e90615064565b6001600160a01b03808516600090815260208190526040808220858503905591851681529081208054849290612b1990849061562d565b92505081905550826001600160a01b0316846001600160a01b03167fddf252ad1be2c89b69c2b068fc378daa952ba7f163c4a11628f55a4df523b3ef84604051612b639190614dd2565b60405180910390a361237084848461062b565b6000612b828383612fb6565b5050505090506000816001600160801b0316111561062b5760405163a34123a760e01b81526001600160a01b037f0000000000000000000000000000000000000000000000000000000000000000169063a34123a790612beb9086908690600090600401614de9565b6040805180830381600087803b158015612c0457600080fd5b505af1158015612c18573d6000803e3d6000fd5b505050506040513d601f19601f8201168201806040525081019061219f91906148f0565b600080600080612c4a61074d565b9050600080612c576121f8565b915091508260001480612c6a5750600082115b80612c755750600081115b612c8f57634e487b7160e01b600052600160045260246000fd5b82612cab57879450869350612ca48585613be2565b9550612d90565b81612cc157869350612ca481610b0e8686612da6565b80612cd757879450612ca482610b0e8786612da6565b6000881180612ce65750600087115b612d025760405162461bcd60e51b815260040161058e90615208565b6000612d1b612d118a84612da6565b610de68a86612da6565b905080612d315788955087945060009650612d8e565b60008111612d515760405162461bcd60e51b815260040161058e906152ea565b612d646001610e2084610b0e85846128f4565b9550612d796001610e2085610b0e85846128f4565b9450612d8b82610b0e85818589612da6565b96505b505b5050509250925092565b60006107ba828461562d565b60006107ba8284615659565b60006107ba8284615645565b612370846323b872dd60e01b85858560405160240161291f93929190614cd1565b6000818310612dee57816107ba565b5090919050565b6001600160a01b038216612e1b5760405162461bcd60e51b815260040161058e90615554565b612e276000838361062b565b8060026000828254612e39919061562d565b90915550506001600160a01b03821660009081526020819052604081208054839290612e6690849061562d565b90915550506040516001600160a01b038316906000907fddf252ad1be2c89b69c2b068fc378daa952ba7f163c4a11628f55a4df523b3ef90612ea9908590614dd2565b60405180910390a3612ebd6000838361062b565b5050565b7f0000000000000000000000000000000000000000000000000000000000000000600282810b9084900b12612f085760405162461bcd60e51b815260040161058e90614f27565b620d89e719600284900b1215612f305760405162461bcd60e51b815260040161058e90615394565b612f3d620d89e719615754565b60020b8260020b1315612f625760405162461bcd60e51b815260040161058e90615403565b612f6c818461571e565b60020b15612f8c5760405162461bcd60e51b815260040161058e90614f98565b612f96818361571e565b60020b1561062b5760405162461bcd60e51b815260040161058e9061502d565b600080600080600080612fca308989613bf2565b60405163514ea4bf60e01b81529091506001600160a01b037f0000000000000000000000000000000000000000000000000000000000000000169063514ea4bf90613019908490600401614dd2565b60a06040518083038186803b15801561303157600080fd5b505afa158015613045573d6000803e3d6000fd5b505050506040513d601f19601f820116820180604052508101906130699190614a31565b939c929b5090995097509095509350505050565b60008080806001600160801b038516156131385760405163a34123a760e01b81526001600160a01b037f0000000000000000000000000000000000000000000000000000000000000000169063a34123a7906130e1908a908a908a90600401614de9565b6040805180830381600087803b1580156130fa57600080fd5b505af115801561310e573d6000803e3d6000fd5b505050506040513d601f19601f8201168201806040525081019061313291906148f0565b90945092505b6000807f00000000000000000000000000000000000000000000000000000000000000006001600160a01b0316634f1eb3d8308b8b6001600160801b03806040518663ffffffff1660e01b8152600401613196959493929190614d71565b6040805180830381600087803b1580156131af57600080fd5b505af11580156131c3573d6000803e3d6000fd5b505050506040513d601f19601f820116820180604052508101906131e79190614a03565b6001600160801b03918216935016905061320182876128f4565b935061320d81866128f4565b6006549093506000908190801561327e5761322f620f4240610b0e8984612da6565b9250613242620f4240610b0e8884612da6565b915061324e87846128f4565b965061325a86836128f4565b600b5490965061326a9084612d9a565b600b55600c5461327a9083612d9a565b600c555b7f1ac56d7e866e3f5ea9aa92aa11758ead39a0a5f013f3fefb0f47cb9d008edd27878785856040516132b39493929190615604565b60405180910390a1505050505093509350935093565b6000807f00000000000000000000000000000000000000000000000000000000000000006001600160a01b0316633850c7bd6040518163ffffffff1660e01b815260040160e06040518083038186803b15801561332557600080fd5b505afa158015613339573d6000803e3d6000fd5b505050506040513d601f19601f8201168201806040525081019061335d9190614a92565b50505050505090506133828161337288613c28565b61337b88613c28565b8787614002565b9695505050505050565b6001600160801b0381161561062b57604051633c8a7d8d60e01b81526001600160a01b037f00000000000000000000000000000000000000000000000000000000000000001690633c8a7d8d90612beb903090879087908790600401614d2f565b60008060007f00000000000000000000000000000000000000000000000000000000000000006001600160a01b0316633850c7bd6040518163ffffffff1660e01b815260040160e06040518083038186803b15801561344b57600080fd5b505afa15801561345f573d6000803e3d6000fd5b505050506040513d601f19601f820116820180604052508101906134839190614a92565b50505050505090506134a78161349888613c28565b6134a188613c28565b876140c6565b9250925050935093915050565b6001600160a01b0382166134da5760405162461bcd60e51b815260040161058e906152a9565b6134e68260008361062b565b6001600160a01b0382166000908152602081905260409020548181101561351f5760405162461bcd60e51b815260040161058e90614ec9565b6001600160a01b038316600090815260208190526040812083830390556002805484929061354e9084906156a0565b90915550506040516000906001600160a01b038516907fddf252ad1be2c89b69c2b068fc378daa952ba7f163c4a11628f55a4df523b3ef90613591908690614dd2565b60405180910390a361062b8360008461062b565b60008060006135c084610b0e876135ba611929565b90612da6565b905060006135d485610b0e886135ba61185b565b600a54909150600090819061360090600160a01b8104600290810b91600160b81b9004900b8a8a614162565b600a549193509150600090819061362e90600160d01b8104600290810b91600160e81b9004900b8c8c614162565b909250905061364182610e208887612d9a565b975061365181610e208786612d9a565b96505050505050509250929050565b600081156138dd5760405163095ea7b360e01b81526001600160a01b037f0000000000000000000000000000000000000000000000000000000000000000169063095ea7b3906136d6907f0000000000000000000000000000000000000000000000000000000000000000908790600401614dae565b602060405180830381600087803b1580156136f057600080fd5b505af1158015613704573d6000803e3d6000fd5b505050506040513d601f19601f820116820180604052508101906137289190614827565b506040805160028082526060820183526000926020830190803683370190505090507f00000000000000000000000000000000000000000000000000000000000000008160008151811061378c57634e487b7160e01b600052603260045260246000fd5b60200260200101906001600160a01b031690816001600160a01b0316815250507f0000000000000000000000000000000000000000000000000000000000000000816001815181106137ee57634e487b7160e01b600052603260045260246000fd5b6001600160a01b0392831660209182029290920101526040516338ed173960e01b81526000917f000000000000000000000000000000000000000000000000000000000000000016906338ed17399061385390889085908790309042906004016155a4565b600060405180830381600087803b15801561386d57600080fd5b505af1158015613881573d6000803e3d6000fd5b505050506040513d6000823e601f3d908101601f191682016040526138a9919081019061476d565b9050806001815181106138cc57634e487b7160e01b600052603260045260246000fd5b6020026020010151925050506106e0565b60405163095ea7b360e01b81526001600160a01b037f0000000000000000000000000000000000000000000000000000000000000000169063095ea7b39061394b907f0000000000000000000000000000000000000000000000000000000000000000908790600401614dae565b602060405180830381600087803b15801561396557600080fd5b505af1158015613979573d6000803e3d6000fd5b505050506040513d601f19601f8201168201806040525081019061399d9190614827565b506040805160028082526060820183526000926020830190803683370190505090507f000000000000000000000000000000000000000000000000000000000000000081600081518110613a0157634e487b7160e01b600052603260045260246000fd5b60200260200101906001600160a01b031690816001600160a01b0316815250507f000000000000000000000000000000000000000000000000000000000000000081600181518110613a6357634e487b7160e01b600052603260045260246000fd5b6001600160a01b0392831660209182029290920101526040516338ed173960e01b81526000917f000000000000000000000000000000000000000000000000000000000000000016906338ed173990613ac890889085908790309042906004016155a4565b600060405180830381600087803b158015613ae257600080fd5b505af1158015613af6573d6000803e3d6000fd5b505050506040513d6000823e601f3d908101601f19168201604052613b1e919081019061476d565b905080600181518110613b4157634e487b7160e01b600052603260045260246000fd5b60200260200101519250505092915050565b6000613ba8826040518060400160405280602081526020017f5361666545524332303a206c6f772d6c6576656c2063616c6c206661696c6564815250856001600160a01b03166142089092919063ffffffff16565b80519091501561062b5780806020019051810190613bc69190614827565b61062b5760405162461bcd60e51b815260040161058e9061548e565b600081831015612dee57816107ba565b6000838383604051602001613c0993929190614c6c565b6040516020818303038152906040528051906020012090509392505050565b60008060008360020b12613c3f578260020b613c4c565b8260020b613c4c90615775565b9050600060018216613c6257600160801b613c74565b6ffffcb933bd6fad37aa2d162d1a5940015b70ffffffffffffffffffffffffffffffffff1690506002821615613cb3576080613cae826ffff97272373d413259a46990580e213a615659565b901c90505b6004821615613cdd576080613cd8826ffff2e50f5f656932ef12357cf3c7fdcc615659565b901c90505b6008821615613d07576080613d02826fffe5caca7e10e4e61c3624eaa0941cd0615659565b901c90505b6010821615613d31576080613d2c826fffcb9843d60f6159c9db58835c926644615659565b901c90505b6020821615613d5b576080613d56826fff973b41fa98c081472e6896dfb254c0615659565b901c90505b6040821615613d85576080613d80826fff2ea16466c96a3843ec78b326b52861615659565b901c90505b6080821615613daf576080613daa826ffe5dee046a99a2a811c461f1969c3053615659565b901c90505b610100821615613dda576080613dd5826ffcbe86c7900a88aedcffc83b479aa3a4615659565b901c90505b610200821615613e05576080613e00826ff987a7253ac413176f2b074cf7815e54615659565b901c90505b610400821615613e30576080613e2b826ff3392b0822b70005940c7a398e4b70f3615659565b901c90505b610800821615613e5b576080613e56826fe7159475a2c29b7443b29c7fa6e889d9615659565b901c90505b611000821615613e86576080613e81826fd097f3bdfd2022b8845ad8f792aa5825615659565b901c90505b612000821615613eb1576080613eac826fa9f746462d870fdf8a65dc1f90e061e5615659565b901c90505b614000821615613edc576080613ed7826f70d869a156d2a1b890bb3df62baf32f7615659565b901c90505b618000821615613f07576080613f02826f31be135f97d08fd981231505542fcfa6615659565b901c90505b62010000821615613f33576080613f2e826f09aa508b5b7a84e1c677de54f3e99bc9615659565b901c90505b62020000821615613f5e576080613f59826e5d6af8dedb81196699c329225ee604615659565b901c90505b62040000821615613f88576080613f83826d2216e584f5fa1ea926041bedfe98615659565b901c90505b62080000821615613fb0576080613fab826b048a170391f7dc42444e8fa2615659565b901c90505b60008460020b1315613fcb57613fc881600019615645565b90505b613fda64010000000082615740565b15613fe6576001613fe9565b60005b613ffa9060ff16602083901c61562d565b949350505050565b6000836001600160a01b0316856001600160a01b03161115614022579293925b846001600160a01b0316866001600160a01b03161161404d57614046858585614217565b90506140bd565b836001600160a01b0316866001600160a01b031610156140af576000614074878686614217565b90506000614083878986614281565b9050806001600160801b0316826001600160801b0316106140a457806140a6565b815b925050506140bd565b6140ba858584614281565b90505b95945050505050565b600080836001600160a01b0316856001600160a01b031611156140e7579293925b846001600160a01b0316866001600160a01b0316116141125761410b8585856142b7565b9150614159565b836001600160a01b0316866001600160a01b0316101561414b576141378685856142b7565b915061414485878561432a565b9050614159565b61415685858561432a565b90505b94509492505050565b60008060006141718787612fb6565b505050509050600061419985610b0e88856001600160801b0316612da690919063ffffffff16565b905080156141fd576000806000806141ba8c8c6141b588614374565b61307d565b929650909450925090506141dc6141d58a610b0e858e612da6565b8590612d9a565b97506141f66141ef8a610b0e848e612da6565b8490612d9a565b9650505050505b505094509492505050565b6060613ffa848460008561439f565b6000826001600160a01b0316846001600160a01b03161115614237579192915b600061425a856001600160a01b0316856001600160a01b0316600160601b61445f565b90506140bd61427c848361426e8989615678565b6001600160a01b031661445f565b6145d5565b6000826001600160a01b0316846001600160a01b031611156142a1579192915b613ffa61427c83600160601b61426e8888615678565b6000826001600160a01b0316846001600160a01b031611156142d7579192915b6001600160a01b0384166143206fffffffffffffffffffffffffffffffff60601b606085901b166143088787615678565b6001600160a01b0316866001600160a01b031661445f565b613ffa9190615645565b6000826001600160a01b0316846001600160a01b0316111561434a579192915b613ffa6001600160801b0383166143618686615678565b6001600160a01b0316600160601b61445f565b60006001600160801b0382111561439b57634e487b7160e01b600052600160045260246000fd5b5090565b6060824710156143c15760405162461bcd60e51b815260040161058e906150cc565b6143ca856145eb565b6143e65760405162461bcd60e51b815260040161058e9061542f565b600080866001600160a01b031685876040516144029190614ca1565b60006040518083038185875af1925050503d806000811461443f576040519150601f19603f3d011682016040523d82523d6000602084013e614444565b606091505b509150915061445482828661461c565b979650505050505050565b6000808060001985870986860292508281109083900303905080614495576000841161448a57600080fd5b5082900490506107ba565b8084116144a157600080fd5b60008486880980840393811190920391905060006144c18619600161562d565b86169586900495938490049360008190030460010190506144e28184615659565b9093179260006144f3876003615659565b60021890506145028188615659565b61450d9060026156a0565b6145179082615659565b90506145238188615659565b61452e9060026156a0565b6145389082615659565b90506145448188615659565b61454f9060026156a0565b6145599082615659565b90506145658188615659565b6145709060026156a0565b61457a9082615659565b90506145868188615659565b6145919060026156a0565b61459b9082615659565b90506145a78188615659565b6145b29060026156a0565b6145bc9082615659565b90506145c88186615659565b9998505050505050505050565b806001600160801b038116811461199757600080fd5b600080826001600160a01b0316803b806020016040519081016040528181526000908060200190933c511192915050565b6060831561462b5750816107ba565b82511561463b5782518084602001fd5b8160405162461bcd60e51b815260040161058e9190614e2f565b60008083601f840112614666578182fd5b50813567ffffffffffffffff81111561467d578182fd5b60208301915083602082850101111561469557600080fd5b9250929050565b805161ffff8116811461199757600080fd5b6000602082840312156146bf578081fd5b81356107ba816157d1565b600080604083850312156146dc578081fd5b82356146e7816157d1565b915060208301356146f7816157d1565b809150509250929050565b600080600060608486031215614716578081fd5b8335614721816157d1565b92506020840135614731816157d1565b929592945050506040919091013590565b60008060408385031215614754578182fd5b823561475f816157d1565b946020939093013593505050565b6000602080838503121561477f578182fd5b825167ffffffffffffffff80821115614796578384fd5b818501915085601f8301126147a9578384fd5b8151818111156147bb576147bb6157bb565b838102604051858282010181811085821117156147da576147da6157bb565b604052828152858101935084860182860187018a10156147f8578788fd5b8795505b8386101561481a5780518552600195909501949386019386016147fc565b5098975050505050505050565b600060208284031215614838578081fd5b81516107ba816157e9565b600080600060608486031215614857578283fd5b8335614862816157d1565b9250602084013591506040840135614879816157d1565b809150509250925092565b60008060408385031215614896578182fd5b82356148a1816157f7565b915060208301356146f7816157f7565b6000806000606084860312156148c5578081fd5b83356148d0816157f7565b925060208401356148e0816157f7565b9150604084013561487981615806565b60008060408385031215614902578182fd5b505080516020909101519092909150565b60008060008060608587031215614928578182fd5b8435935060208501359250604085013567ffffffffffffffff81111561494c578283fd5b61495887828801614655565b95989497509550505050565b600080600080600080600080610100898b031215614980578586fd5b883597506020890135614992816157d1565b965060408901356149a2816157f7565b955060608901356149b2816157f7565b945060808901356149c2816157f7565b935060a08901356149d2816157f7565b925060c08901356149e2816157f7565b915060e08901356149f2816157f7565b809150509295985092959890939650565b60008060408385031215614a15578182fd5b8251614a2081615806565b60208401519092506146f781615806565b600080600080600060a08688031215614a48578283fd5b8551614a5381615806565b8095505060208601519350604086015192506060860151614a7381615806565b6080870151909250614a8481615806565b809150509295509295909350565b600080600080600080600060e0888a031215614aac578081fd5b8751614ab7816157d1565b6020890151909750614ac8816157f7565b9550614ad66040890161469c565b9450614ae46060890161469c565b9350614af26080890161469c565b925060a088015160ff81168114614b07578182fd5b60c0890151909250614b18816157e9565b8091505092959891949750929550565b600060208284031215614b39578081fd5b5035919050565b600060208284031215614b51578081fd5b5051919050565b600080600060608486031215614b6c578081fd5b83359250602084013591506040840135614879816157d1565b60008060008060008060c08789031215614b9d578384fd5b8635955060208701359450604087013593506060870135614bbd816157d1565b92506080870135614bcd816157e9565b915060a0870135614bdd816157e9565b809150509295509295509295565b600080600080600060a08688031215614c02578283fd5b853594506020860135935060408601359250606086013591506080860135614a84816157d1565b6000815180845260208085019450808401835b83811015614c615781516001600160a01b031687529582019590820190600101614c3c565b509495945050505050565b60609390931b6bffffffffffffffffffffffff19168352600291820b60e890811b6014850152910b901b6017820152601a0190565b60008251614cb38184602087016156b7565b9190910192915050565b6001600160a01b0391909116815260200190565b6001600160a01b039384168152919092166020820152604081019190915260600190565b6001600160a01b03948516815292151560208401526040830191909152909116606082015260a06080820181905260009082015260c00190565b6001600160a01b03949094168452600292830b6020850152910b60408301526001600160801b0316606082015260a06080820181905260009082015260c00190565b6001600160a01b03959095168552600293840b60208601529190920b60408401526001600160801b03918216606084015216608082015260a00190565b6001600160a01b03929092168252602082015260400190565b901515815260200190565b90815260200190565b60029190910b815260200190565b600293840b81529190920b60208201526001600160801b03909116604082015260600190565b60029490940b845260208401929092526040830152606082015260800190565b6000602082528251806020840152614e4e8160408501602087016156b7565b601f01601f19169190910160400192915050565b60208082526023908201527f45524332303a207472616e7366657220746f20746865207a65726f206164647260408201526265737360e81b606082015260800190565b6020808252600a908201526930b6b7bab73a1826b4b760b11b604082015260600190565b60208082526022908201527f45524332303a206275726e20616d6f756e7420657863656564732062616c616e604082015261636560f01b606082015260800190565b602080825260029082015261746f60f01b604082015260600190565b6020808252601590820152743a34b1b5a637bbb2b9101e103a34b1b5aab83832b960591b604082015260600190565b60208082526022908201527f45524332303a20617070726f766520746f20746865207a65726f206164647265604082015261737360f01b606082015260800190565b60208082526017908201527f7469636b4c6f7765722025207469636b53706163696e67000000000000000000604082015260600190565b6020808252600d908201526c7377617070656453686172657360981b604082015260600190565b6020808252601d908201527f45524332303a20696e73756666696369656e7420616c6c6f77616e6365000000604082015260600190565b60208082526017908201527f7469636b55707065722025207469636b53706163696e67000000000000000000604082015260600190565b60208082526026908201527f45524332303a207472616e7366657220616d6f756e7420657863656564732062604082015265616c616e636560d01b606082015260800190565b6020808252600890820152673134b22ab83832b960c11b604082015260600190565b60208082526026908201527f416464726573733a20696e73756666696369656e742062616c616e636520666f6040820152651c8818d85b1b60d21b606082015260800190565b6020808252818101527f616d6f756e743044657369726564206f7220616d6f756e743144657369726564604082015260600190565b60208082526011908201527070656e64696e67476f7665726e616e636560781b604082015260600190565b602080825260129082015271616d6f756e7430206f7220616d6f756e743160701b604082015260600190565b6020808252600c908201526b7377617070656443726f737360a01b604082015260600190565b6020808252600b908201526a70726f746f636f6c46656560a81b604082015260600190565b6020808252600590820152643a37b5b2b760d91b604082015260600190565b6020808252601b908201527f61746c65617374206f6e6520746f6b656e206973206e65656465640000000000604082015260600190565b6020808252600c908201526b29b430b93832a5b2b2b832b960a11b604082015260600190565b6020808252600a9082015269676f7665726e616e636560b01b604082015260600190565b60208082526006908201526573686172657360d01b604082015260600190565b60208082526021908201527f45524332303a206275726e2066726f6d20746865207a65726f206164647265736040820152607360f81b606082015260800190565b60208082526005908201526463726f737360d81b604082015260600190565b60208082526025908201527f45524332303a207472616e736665722066726f6d20746865207a65726f206164604082015264647265737360d81b606082015260800190565b6020808252600a908201526930b6b7bab73a18a6b4b760b11b604082015260600190565b60208082526008908201526730b9b5a637bbb2b960c11b604082015260600190565b6020808252601190820152707469636b4c6f77657220746f6f206c6f7760781b604082015260600190565b60208082526024908201527f45524332303a20617070726f76652066726f6d20746865207a65726f206164646040820152637265737360e01b606082015260800190565b6020808252601290820152710e8d2c6d6aae0e0cae440e8dede40d0d2ced60731b604082015260600190565b6020808252601d908201527f416464726573733a2063616c6c20746f206e6f6e2d636f6e7472616374000000604082015260600190565b6020808252600e908201526d6d6178546f74616c537570706c7960901b604082015260600190565b6020808252602a908201527f5361666545524332303a204552433230206f7065726174696f6e20646964206e6040820152691bdd081cdd58d8d9595960b21b606082015260800190565b6020808252601f908201527f5265656e7472616e637947756172643a207265656e7472616e742063616c6c00604082015260600190565b60208082526025908201527f45524332303a2064656372656173656420616c6c6f77616e63652062656c6f77604082015264207a65726f60d81b606082015260800190565b6020808252601f908201527f45524332303a206d696e7420746f20746865207a65726f206164647265737300604082015260600190565b600083825260406020830152613ffa6040830184614c29565b600086825285602083015260a060408301526155c360a0830186614c29565b6001600160a01b0394909416606083015250608001529392505050565b9283526020830191909152604082015260600190565b918252602082015260400190565b93845260208401929092526040830152606082015260800190565b60ff91909116815260200190565b600082198211156156405761564061578f565b500190565b600082615654576156546157a5565b500490565b60008160001904831182151516156156735761567361578f565b500290565b60006001600160a01b03838116908316818110156156985761569861578f565b039392505050565b6000828210156156b2576156b261578f565b500390565b60005b838110156156d25781810151838201526020016156ba565b838111156123705750506000910152565b6002810460018216806156f757607f821691505b6020821081141561571857634e487b7160e01b600052602260045260246000fd5b50919050565b60008260020b80615731576157316157a5565b808360020b0791505092915050565b60008261574f5761574f6157a5565b500690565b60008160020b627fffff1981141561576e5761576e61578f565b9003919050565b6000600160ff1b82141561578b5761578b61578f565b0390565b634e487b7160e01b600052601160045260246000fd5b634e487b7160e01b600052601260045260246000fd5b634e487b7160e01b600052604160045260246000fd5b6001600160a01b03811681146157e657600080fd5b50565b80151581146157e657600080fd5b8060020b81146157e657600080fd5b6001600160801b03811681146157e657600080fdfea2646970667358221220dafffb033fadf57015843630bc66b644f496b7c436d0bae8756cd2a0e2b16a9764736f6c63430008000033","bytecodeSha1":"fabd32c5ccd0c75c62a47d857f6f94dbcd2478e3","compiler":{"evm_version":"istanbul","optimizer":{"enabled":true,"runs":200},"version":"0.8.0+commit.c7dfd78e"},"contractName":"Sharpe","language":"Solidity","natspec":{"kind":"dev","methods":{"acceptGovernance()":{"notice":"`setGovernance()` should be called by the existing governance address prior to calling this function."},"allowance(address,address)":{"details":"See {IERC20-allowance}."},"approve(address,uint256)":{"details":"See {IERC20-approve}. NOTE: If `amount` is the maximum `uint256`, the allowance is not updated on `transferFrom`. This is semantically equivalent to an infinite approval. Requirements: - `spender` cannot be the zero address."},"balanceOf(address)":{"details":"See {IERC20-balanceOf}."},"collectProtocol(uint256,uint256,address)":{"notice":"Used to collect accumulated protocol fees."},"constructor":{"notice":"This vault is mainly for stablecoin pairs dev After deploying, strategy needs to be set by offchain devs param _pool Underlying Uniswap V3 pool param _router Underlying Uniswap V2 router param _protocolFee Protocol fee expressed as multiple of 1e-6 param _maxTotalSupply Cap on total supply"},"decimals()":{"details":"Returns the number of decimals used to get its user representation. For example, if `decimals` equals `2`, a balance of `505` tokens should be displayed to a user as `5.05` (`505 / 10 ** 2`). Tokens usually opt for a value of 18, imitating the relationship between Ether and Wei. This is the value {ERC20} uses, unless this function is overridden; NOTE: This information is only used for _display_ purposes: it in no way affects any of the arithmetic of the contract, including {IERC20-balanceOf} and {IERC20-transfer}."},"decreaseAllowance(address,uint256)":{"details":"Atomically decreases the allowance granted to `spender` by the caller. This is an alternative to {approve} that can be used as a mitigation for problems described in {IERC20-approve}. Emits an {Approval} event indicating the updated allowance. Requirements: - `spender` cannot be the zero address. - `spender` must have allowance for the caller of at least `subtractedValue`."},"deposit(uint256,uint256,uint256,uint256,address)":{"details":"These tokens sit in the vault and are not used for liquidity on Uniswap until the next rebalance. Also note it's not necessary to check if user manipulated price to deposit cheaper, as the value of range orders can only by manipulated higher. In a scenario where user has only one of each tokens the vault performs a swap on their behalf at point of deposit.","notice":"Deposits tokens in proportion to the vault's current holdings.","params":{"amount0Desired":"Max amount of token0 to deposit","amount0Min":"Revert if resulting `amount0` is less than this","amount1Desired":"Max amount of token1 to deposit","amount1Min":"Revert if resulting `amount1` is less than this","to":"Recipient of shares"},"returns":{"amount0":"Amount of token0 deposited","amount1":"Amount of token1 deposited","shares":"Number of shares minted"}},"emergencyBurn(int24,int24,uint128)":{"notice":"Removes liquidity in case of emergency."},"getBalance0()":{"notice":"Balance of token0 in vault not used in any position."},"getBalance1()":{"notice":"Balance of token1 in vault not used in any position."},"getPositionAmounts(int24,int24)":{"notice":"Amounts of token0 and token1 held in vault's position. Includes owed fees but excludes the proportion of fees that will be paid to the protocol. Doesn't include fees accrued since last poke."},"getTotalAmounts()":{"notice":"Calculates the vault's total holdings of token0 and token1 - in other words, how much of each token the vault would hold if it withdrew all its liquidity from Uniswap."},"increaseAllowance(address,uint256)":{"details":"Atomically increases the allowance granted to `spender` by the caller. This is an alternative to {approve} that can be used as a mitigation for problems described in {IERC20-approve}. Emits an {Approval} event indicating the updated allowance. Requirements: - `spender` cannot be the zero address."},"name()":{"details":"Returns the name of the token."},"rebalance(int256,uint160,int24,int24,int24,int24,int24,int24)":{"details":"Two orders are placed - a base order and a limit order. The base order is placed first with as much liquidity as possible. This order should use up all of one token, leaving only the other one. This excess amount is then placed as a single-sided bid or ask order.","notice":"Updates vault's positions. Can only be called by the strategy/sharpeKeeper."},"setGovernance(address)":{"notice":"Governance address is not updated until the new governance address has called `acceptGovernance()` to accept this responsibility."},"setMaxTotalSupply(uint256)":{"notice":"Used to change deposit cap for a guarded launch or to ensure vault doesn't  grow too large relative to the pool. Cap is on total supply rather than amounts  of token0 and token1 as those amounts fluctuate naturally over time."},"setProtocolFee(uint256)":{"notice":"Used to change the protocol fee charged on pool fees earned from Uniswap, expressed as multiple of 1e-6."},"setSharpeKeeper(address)":{"notice":"set SharpeKeeper Used to set the strategy contract that determines the position ranges and calls rebalance(). Must be called after this vault is deployed."},"sweep(address,uint256,address)":{"notice":"Removes tokens accidentally sent to this vault."},"symbol()":{"details":"Returns the symbol of the token, usually a shorter version of the name."},"totalSupply()":{"details":"See {IERC20-totalSupply}."},"transfer(address,uint256)":{"details":"See {IERC20-transfer}. Requirements: - `to` cannot be the zero address. - the caller must have a balance of at least `amount`."},"transferFrom(address,address,uint256)":{"details":"See {IERC20-transferFrom}. Emits an {Approval} event indicating the updated allowance. This is not required by the EIP. See the note at the beginning of {ERC20}. NOTE: Does not update the allowance if the current allowance is the maximum `uint256`. Requirements: - `from` and `to` cannot be the zero address. - `from` must have a balance of at least `amount`. - the caller must have allowance for ``from``'s tokens of at least `amount`."},"uniswapV3MintCallback(uint256,uint256,bytes)":{"details":"Callback for Uniswap V3 pool."},"uniswapV3SwapCallback(int256,int256,bytes)":{"details":"Callback for Uniswap V3 pool."},"withdraw(uint256,uint256,uint256,address,bool,bool)":{"notice":"Withdraws tokens in proportion to the vault's holdings.","params":{"amount0Min":"Revert if resulting `amount0` is smaller than this","amount1Min":"Revert if resulting `amount1` is smaller than this","shares":"Shares burned by sender","to":"Recipient of tokens"},"returns":{"amount0":"Amount of token0 sent to recipient","amount1":"Amount of token1 sent to recipient"}}},"version":1},"opcodes":"PUSH1 0x80 PUSH1 0x40 MSTORE CALLVALUE DUP1 ISZERO PUSH2 0x10 JUMPI PUSH1 0x0 DUP1 REVERT JUMPDEST POP PUSH1 0x4 CALLDATASIZE LT PUSH2 0x295 JUMPI PUSH1 0x0 CALLDATALOAD PUSH1 0xE0 SHR DUP1 PUSH4 0x87E5E083 GT PUSH2 0x167 JUMPI DUP1 PUSH4 0xD0C93A7C GT PUSH2 0xCE JUMPI DUP1 PUSH4 0xE4292B58 GT PUSH2 0x87 JUMPI DUP1 PUSH4 0xE4292B58 EQ PUSH2 0x51E JUMPI DUP1 PUSH4 0xEAE989A2 EQ PUSH2 0x531 JUMPI DUP1 PUSH4 0xF39C38A0 EQ PUSH2 0x539 JUMPI DUP1 PUSH4 0xF887EA40 EQ PUSH2 0x541 JUMPI DUP1 PUSH4 0xFA082743 EQ PUSH2 0x549 JUMPI DUP1 PUSH4 0xFA461E33 EQ PUSH2 0x551 JUMPI PUSH2 0x295 JUMP JUMPDEST DUP1 PUSH4 0xD0C93A7C EQ PUSH2 0x4CD JUMPI DUP1 PUSH4 0xD21220A7 EQ PUSH2 0x4D5 JUMPI DUP1 PUSH4 0xD3487997 EQ PUSH2 0x4DD JUMPI DUP1 PUSH4 0xD7CB416F EQ PUSH2 0x4F0 JUMPI DUP1 PUSH4 0xDC2C256F EQ PUSH2 0x4F8 JUMPI DUP1 PUSH4 0xDD62ED3E EQ PUSH2 0x50B JUMPI PUSH2 0x295 JUMP JUMPDEST DUP1 PUSH4 0xA91EF6EB GT PUSH2 0x120 JUMPI DUP1 PUSH4 0xA91EF6EB EQ PUSH2 0x463 JUMPI DUP1 PUSH4 0xAB033EA9 EQ PUSH2 0x484 JUMPI DUP1 PUSH4 0xABBFFCB9 EQ PUSH2 0x497 JUMPI DUP1 PUSH4 0xB0E21E8A EQ PUSH2 0x4AA JUMPI DUP1 PUSH4 0xB3A3D00C EQ PUSH2 0x4B2 JUMPI DUP1 PUSH4 0xC4A7761E EQ PUSH2 0x4C5 JUMPI PUSH2 0x295 JUMP JUMPDEST DUP1 PUSH4 0x87E5E083 EQ PUSH2 0x412 JUMPI DUP1 PUSH4 0x888A9134 EQ PUSH2 0x425 JUMPI DUP1 PUSH4 0x95D89B41 EQ PUSH2 0x42D JUMPI DUP1 PUSH4 0xA00FA77F EQ PUSH2 0x435 JUMPI DUP1 PUSH4 0xA457C2D7 EQ PUSH2 0x43D JUMPI DUP1 PUSH4 0xA9059CBB EQ PUSH2 0x450 JUMPI PUSH2 0x295 JUMP JUMPDEST DUP1 PUSH4 0x313CE567 GT PUSH2 0x20B JUMPI DUP1 PUSH4 0x51E87AF7 GT PUSH2 0x1C4 JUMPI DUP1 PUSH4 0x51E87AF7 EQ PUSH2 0x3CC JUMPI DUP1 PUSH4 0x5AA6E675 EQ PUSH2 0x3D4 JUMPI DUP1 PUSH4 0x629D9405 EQ PUSH2 0x3DC JUMPI DUP1 PUSH4 0x70A08231 EQ PUSH2 0x3E4 JUMPI DUP1 PUSH4 0x787DCE3D EQ PUSH2 0x3F7 JUMPI DUP1 PUSH4 0x7FF36FBE EQ PUSH2 0x40A JUMPI PUSH2 0x295 JUMP JUMPDEST DUP1 PUSH4 0x313CE567 EQ PUSH2 0x35F JUMPI DUP1 PUSH4 0x3268CC56 EQ PUSH2 0x374 JUMPI DUP1 PUSH4 0x365D0ED7 EQ PUSH2 0x37C JUMPI DUP1 PUSH4 0x39509351 EQ PUSH2 0x39E JUMPI DUP1 PUSH4 0x3F3E4C11 EQ PUSH2 0x3B1 JUMPI DUP1 PUSH4 0x41AEC538 EQ PUSH2 0x3C4 JUMPI PUSH2 0x295 JUMP JUMPDEST DUP1 PUSH4 0xF35BCAC GT PUSH2 0x25D JUMPI DUP1 PUSH4 0xF35BCAC EQ PUSH2 0x30A JUMPI DUP1 PUSH4 0x16F0115B EQ PUSH2 0x31F JUMPI DUP1 PUSH4 0x18160DDD EQ PUSH2 0x327 JUMPI DUP1 PUSH4 0x238EFCBC EQ PUSH2 0x33C JUMPI DUP1 PUSH4 0x23B872DD EQ PUSH2 0x344 JUMPI DUP1 PUSH4 0x2AB4D052 EQ PUSH2 0x357 JUMPI PUSH2 0x295 JUMP JUMPDEST DUP1 PUSH4 0x430C130 EQ PUSH2 0x29A JUMPI DUP1 PUSH4 0x6FDDE03 EQ PUSH2 0x2AF JUMPI DUP1 PUSH4 0x95EA7B3 EQ PUSH2 0x2CD JUMPI DUP1 PUSH4 0xC42383A EQ PUSH2 0x2ED JUMPI DUP1 PUSH4 0xDFE1681 EQ PUSH2 0x302 JUMPI JUMPDEST PUSH1 0x0 DUP1 REVERT JUMPDEST PUSH2 0x2AD PUSH2 0x2A8 CALLDATASIZE PUSH1 0x4 PUSH2 0x4B58 JUMP JUMPDEST PUSH2 0x564 JUMP JUMPDEST STOP JUMPDEST PUSH2 0x2B7 PUSH2 0x630 JUMP JUMPDEST PUSH1 0x40 MLOAD PUSH2 0x2C4 SWAP2 SWAP1 PUSH2 0x4E2F JUMP JUMPDEST PUSH1 0x40 MLOAD DUP1 SWAP2 SUB SWAP1 RETURN JUMPDEST PUSH2 0x2E0 PUSH2 0x2DB CALLDATASIZE PUSH1 0x4 PUSH2 0x4742 JUMP JUMPDEST PUSH2 0x6C2 JUMP JUMPDEST PUSH1 0x40 MLOAD PUSH2 0x2C4 SWAP2 SWAP1 PUSH2 0x4DC7 JUMP JUMPDEST PUSH2 0x2F5 PUSH2 0x6E6 JUMP JUMPDEST PUSH1 0x40 MLOAD PUSH2 0x2C4 SWAP2 SWAP1 PUSH2 0x4CBD JUMP JUMPDEST PUSH2 0x2F5 PUSH2 0x6F5 JUMP JUMPDEST PUSH2 0x312 PUSH2 0x719 JUMP JUMPDEST PUSH1 0x40 MLOAD PUSH2 0x2C4 SWAP2 SWAP1 PUSH2 0x4DDB JUMP JUMPDEST PUSH2 0x2F5 PUSH2 0x729 JUMP JUMPDEST PUSH2 0x32F PUSH2 0x74D JUMP JUMPDEST PUSH1 0x40 MLOAD PUSH2 0x2C4 SWAP2 SWAP1 PUSH2 0x4DD2 JUMP JUMPDEST PUSH2 0x2AD PUSH2 0x753 JUMP JUMPDEST PUSH2 0x2E0 PUSH2 0x352 CALLDATASIZE PUSH1 0x4 PUSH2 0x4702 JUMP JUMPDEST PUSH2 0x791 JUMP JUMPDEST PUSH2 0x32F PUSH2 0x7C1 JUMP JUMPDEST PUSH2 0x367 PUSH2 0x7C7 JUMP JUMPDEST PUSH1 0x40 MLOAD PUSH2 0x2C4 SWAP2 SWAP1 PUSH2 0x561F JUMP JUMPDEST PUSH2 0x2F5 PUSH2 0x7CC JUMP JUMPDEST PUSH2 0x38F PUSH2 0x38A CALLDATASIZE PUSH1 0x4 PUSH2 0x4BEB JUMP JUMPDEST PUSH2 0x7F0 JUMP JUMPDEST PUSH1 0x40 MLOAD PUSH2 0x2C4 SWAP4 SWAP3 SWAP2 SWAP1 PUSH2 0x55E0 JUMP JUMPDEST PUSH2 0x2E0 PUSH2 0x3AC CALLDATASIZE PUSH1 0x4 PUSH2 0x4742 JUMP JUMPDEST PUSH2 0x17E0 JUMP JUMPDEST PUSH2 0x2AD PUSH2 0x3BF CALLDATASIZE PUSH1 0x4 PUSH2 0x4B28 JUMP JUMPDEST PUSH2 0x182C JUMP JUMPDEST PUSH2 0x32F PUSH2 0x185B JUMP JUMPDEST PUSH2 0x312 PUSH2 0x190A JUMP JUMPDEST PUSH2 0x2F5 PUSH2 0x191A JUMP JUMPDEST PUSH2 0x32F PUSH2 0x1929 JUMP JUMPDEST PUSH2 0x32F PUSH2 0x3F2 CALLDATASIZE PUSH1 0x4 PUSH2 0x46AE JUMP JUMPDEST PUSH2 0x197D JUMP JUMPDEST PUSH2 0x2AD PUSH2 0x405 CALLDATASIZE PUSH1 0x4 PUSH2 0x4B28 JUMP JUMPDEST PUSH2 0x199C JUMP JUMPDEST PUSH2 0x2F5 PUSH2 0x19ED JUMP JUMPDEST PUSH2 0x2AD PUSH2 0x420 CALLDATASIZE PUSH1 0x4 PUSH2 0x4964 JUMP JUMPDEST PUSH2 0x1A11 JUMP JUMPDEST PUSH2 0x312 PUSH2 0x1E9A JUMP JUMPDEST PUSH2 0x2B7 PUSH2 0x1EAA JUMP JUMPDEST PUSH2 0x32F PUSH2 0x1EB9 JUMP JUMPDEST PUSH2 0x2E0 PUSH2 0x44B CALLDATASIZE PUSH1 0x4 PUSH2 0x4742 JUMP JUMPDEST PUSH2 0x1EBF JUMP JUMPDEST PUSH2 0x2E0 PUSH2 0x45E CALLDATASIZE PUSH1 0x4 PUSH2 0x4742 JUMP JUMPDEST PUSH2 0x1F2B JUMP JUMPDEST PUSH2 0x476 PUSH2 0x471 CALLDATASIZE PUSH1 0x4 PUSH2 0x4884 JUMP JUMPDEST PUSH2 0x1F43 JUMP JUMPDEST PUSH1 0x40 MLOAD PUSH2 0x2C4 SWAP3 SWAP2 SWAP1 PUSH2 0x55F6 JUMP JUMPDEST PUSH2 0x2AD PUSH2 0x492 CALLDATASIZE PUSH1 0x4 PUSH2 0x46AE JUMP JUMPDEST PUSH2 0x1FDA JUMP JUMPDEST PUSH2 0x2AD PUSH2 0x4A5 CALLDATASIZE PUSH1 0x4 PUSH2 0x48B1 JUMP JUMPDEST PUSH2 0x2026 JUMP JUMPDEST PUSH2 0x32F PUSH2 0x21A6 JUMP JUMPDEST PUSH2 0x2AD PUSH2 0x4C0 CALLDATASIZE PUSH1 0x4 PUSH2 0x46AE JUMP JUMPDEST PUSH2 0x21AC JUMP JUMPDEST PUSH2 0x476 PUSH2 0x21F8 JUMP JUMPDEST PUSH2 0x312 PUSH2 0x227F JUMP JUMPDEST PUSH2 0x2F5 PUSH2 0x22A3 JUMP JUMPDEST PUSH2 0x2AD PUSH2 0x4EB CALLDATASIZE PUSH1 0x4 PUSH2 0x4913 JUMP JUMPDEST PUSH2 0x22C7 JUMP JUMPDEST PUSH2 0x2F5 PUSH2 0x2376 JUMP JUMPDEST PUSH2 0x2AD PUSH2 0x506 CALLDATASIZE PUSH1 0x4 PUSH2 0x4843 JUMP JUMPDEST PUSH2 0x239A JUMP JUMPDEST PUSH2 0x32F PUSH2 0x519 CALLDATASIZE PUSH1 0x4 PUSH2 0x46CA JUMP JUMPDEST PUSH2 0x2468 JUMP JUMPDEST PUSH2 0x476 PUSH2 0x52C CALLDATASIZE PUSH1 0x4 PUSH2 0x4B85 JUMP JUMPDEST PUSH2 0x2493 JUMP JUMPDEST PUSH2 0x32F PUSH2 0x27FC JUMP JUMPDEST PUSH2 0x2F5 PUSH2 0x2802 JUMP JUMPDEST PUSH2 0x2F5 PUSH2 0x2811 JUMP JUMPDEST PUSH2 0x312 PUSH2 0x2835 JUMP JUMPDEST PUSH2 0x2AD PUSH2 0x55F CALLDATASIZE PUSH1 0x4 PUSH2 0x4913 JUMP JUMPDEST PUSH2 0x2845 JUMP JUMPDEST PUSH1 0x9 SLOAD PUSH1 0x1 PUSH1 0x1 PUSH1 0xA0 SHL SUB AND CALLER EQ PUSH2 0x597 JUMPI PUSH1 0x40 MLOAD PUSH3 0x461BCD PUSH1 0xE5 SHL DUP2 MSTORE PUSH1 0x4 ADD PUSH2 0x58E SWAP1 PUSH2 0x5265 JUMP JUMPDEST PUSH1 0x40 MLOAD DUP1 SWAP2 SUB SWAP1 REVERT JUMPDEST PUSH1 0xB SLOAD PUSH2 0x5A4 SWAP1 DUP5 PUSH2 0x28F4 JUMP JUMPDEST PUSH1 0xB SSTORE PUSH1 0xC SLOAD PUSH2 0x5B4 SWAP1 DUP4 PUSH2 0x28F4 JUMP JUMPDEST PUSH1 0xC SSTORE DUP3 ISZERO PUSH2 0x5F1 JUMPI PUSH2 0x5F1 PUSH1 0x1 PUSH1 0x1 PUSH1 0xA0 SHL SUB PUSH32 0x0 AND DUP3 DUP6 PUSH2 0x2900 JUMP JUMPDEST DUP2 ISZERO PUSH2 0x62B JUMPI PUSH2 0x62B PUSH1 0x1 PUSH1 0x1 PUSH1 0xA0 SHL SUB PUSH32 0x0 AND DUP3 DUP5 PUSH2 0x2900 JUMP JUMPDEST POP POP POP JUMP JUMPDEST PUSH1 0x60 PUSH1 0x3 DUP1 SLOAD PUSH2 0x63F SWAP1 PUSH2 0x56E3 JUMP JUMPDEST DUP1 PUSH1 0x1F ADD PUSH1 0x20 DUP1 SWAP2 DIV MUL PUSH1 0x20 ADD PUSH1 0x40 MLOAD SWAP1 DUP2 ADD PUSH1 0x40 MSTORE DUP1 SWAP3 SWAP2 SWAP1 DUP2 DUP2 MSTORE PUSH1 0x20 ADD DUP3 DUP1 SLOAD PUSH2 0x66B SWAP1 PUSH2 0x56E3 JUMP JUMPDEST DUP1 ISZERO PUSH2 0x6B8 JUMPI DUP1 PUSH1 0x1F LT PUSH2 0x68D JUMPI PUSH2 0x100 DUP1 DUP4 SLOAD DIV MUL DUP4 MSTORE SWAP2 PUSH1 0x20 ADD SWAP2 PUSH2 0x6B8 JUMP JUMPDEST DUP3 ADD SWAP2 SWAP1 PUSH1 0x0 MSTORE PUSH1 0x20 PUSH1 0x0 KECCAK256 SWAP1 JUMPDEST DUP2 SLOAD DUP2 MSTORE SWAP1 PUSH1 0x1 ADD SWAP1 PUSH1 0x20 ADD DUP1 DUP4 GT PUSH2 0x69B JUMPI DUP3 SWAP1 SUB PUSH1 0x1F AND DUP3 ADD SWAP2 JUMPDEST POP POP POP POP POP SWAP1 POP SWAP1 JUMP JUMPDEST PUSH1 0x0 DUP1 PUSH2 0x6CD PUSH2 0x2956 JUMP JUMPDEST SWAP1 POP PUSH2 0x6DA DUP2 DUP6 DUP6 PUSH2 0x295A JUMP JUMPDEST PUSH1 0x1 SWAP2 POP POP JUMPDEST SWAP3 SWAP2 POP POP JUMP JUMPDEST PUSH1 0x8 SLOAD PUSH1 0x1 PUSH1 0x1 PUSH1 0xA0 SHL SUB AND DUP2 JUMP JUMPDEST PUSH32 0x0 DUP2 JUMP JUMPDEST PUSH1 0xA SLOAD PUSH1 0x1 PUSH1 0xE8 SHL SWAP1 DIV PUSH1 0x2 SIGNEXTEND DUP2 JUMP JUMPDEST PUSH32 0x0 DUP2 JUMP JUMPDEST PUSH1 0x2 SLOAD SWAP1 JUMP JUMPDEST PUSH1 0xA SLOAD PUSH1 0x1 PUSH1 0x1 PUSH1 0xA0 SHL SUB AND CALLER EQ PUSH2 0x77D JUMPI PUSH1 0x40 MLOAD PUSH3 0x461BCD PUSH1 0xE5 SHL DUP2 MSTORE PUSH1 0x4 ADD PUSH2 0x58E SWAP1 PUSH2 0x5147 JUMP JUMPDEST PUSH1 0x9 DUP1 SLOAD PUSH1 0x1 PUSH1 0x1 PUSH1 0xA0 SHL SUB NOT AND CALLER OR SWAP1 SSTORE JUMP JUMPDEST PUSH1 0x0 DUP1 PUSH2 0x79C PUSH2 0x2956 JUMP JUMPDEST SWAP1 POP PUSH2 0x7A9 DUP6 DUP3 DUP6 PUSH2 0x2A0E JUMP JUMPDEST PUSH2 0x7B4 DUP6 DUP6 DUP6 PUSH2 0x2A52 JUMP JUMPDEST PUSH1 0x1 SWAP2 POP POP JUMPDEST SWAP4 SWAP3 POP POP POP JUMP JUMPDEST PUSH1 0x7 SLOAD DUP2 JUMP JUMPDEST PUSH1 0x12 SWAP1 JUMP JUMPDEST PUSH32 0x0 DUP2 JUMP JUMPDEST PUSH1 0x0 DUP1 PUSH1 0x0 PUSH1 0x2 PUSH1 0x5 SLOAD EQ ISZERO PUSH2 0x818 JUMPI PUSH1 0x40 MLOAD PUSH3 0x461BCD PUSH1 0xE5 SHL DUP2 MSTORE PUSH1 0x4 ADD PUSH2 0x58E SWAP1 PUSH2 0x54D8 JUMP JUMPDEST PUSH1 0x2 PUSH1 0x5 SSTORE DUP8 ISZERO ISZERO DUP1 PUSH2 0x82B JUMPI POP PUSH1 0x0 DUP8 GT JUMPDEST PUSH2 0x847 JUMPI PUSH1 0x40 MLOAD PUSH3 0x461BCD PUSH1 0xE5 SHL DUP2 MSTORE PUSH1 0x4 ADD PUSH2 0x58E SWAP1 PUSH2 0x5112 JUMP JUMPDEST PUSH1 0x1 PUSH1 0x1 PUSH1 0xA0 SHL SUB DUP5 AND ISZERO DUP1 ISZERO SWAP1 PUSH2 0x868 JUMPI POP PUSH1 0x1 PUSH1 0x1 PUSH1 0xA0 SHL SUB DUP5 AND ADDRESS EQ ISZERO JUMPDEST PUSH2 0x884 JUMPI PUSH1 0x40 MLOAD PUSH3 0x461BCD PUSH1 0xE5 SHL DUP2 MSTORE PUSH1 0x4 ADD PUSH2 0x58E SWAP1 PUSH2 0x4F0B JUMP JUMPDEST PUSH1 0xA SLOAD PUSH2 0x8A6 SWAP1 PUSH1 0x1 PUSH1 0xA0 SHL DUP2 DIV PUSH1 0x2 SWAP1 DUP2 SIGNEXTEND SWAP2 PUSH1 0x1 PUSH1 0xB8 SHL SWAP1 DIV SWAP1 SIGNEXTEND PUSH2 0x2B76 JUMP JUMPDEST PUSH1 0xA SLOAD PUSH2 0x8C8 SWAP1 PUSH1 0x1 PUSH1 0xD0 SHL DUP2 DIV PUSH1 0x2 SWAP1 DUP2 SIGNEXTEND SWAP2 PUSH1 0x1 PUSH1 0xE8 SHL SWAP1 DIV SWAP1 SIGNEXTEND PUSH2 0x2B76 JUMP JUMPDEST PUSH2 0x8D2 DUP9 DUP9 PUSH2 0x2C3C JUMP JUMPDEST SWAP2 SWAP5 POP SWAP3 POP SWAP1 POP DUP3 PUSH2 0x1675 JUMPI PUSH1 0x0 DUP3 GT DUP1 ISZERO PUSH2 0x8EC JUMPI POP DUP1 ISZERO JUMPDEST DUP1 PUSH2 0x900 JUMPI POP PUSH1 0x0 DUP2 GT DUP1 ISZERO PUSH2 0x900 JUMPI POP DUP2 ISZERO JUMPDEST PUSH2 0x91C JUMPI PUSH1 0x40 MLOAD PUSH3 0x461BCD PUSH1 0xE5 SHL DUP2 MSTORE PUSH1 0x4 ADD PUSH2 0x58E SWAP1 PUSH2 0x5172 JUMP JUMPDEST PUSH1 0x0 PUSH2 0x926 PUSH2 0x74D JUMP JUMPDEST SWAP1 POP PUSH1 0x0 DUP1 PUSH2 0x933 PUSH2 0x21F8 JUMP JUMPDEST SWAP2 POP SWAP2 POP PUSH1 0x0 DUP6 GT DUP1 ISZERO PUSH2 0x945 JUMPI POP DUP4 ISZERO JUMPDEST ISZERO PUSH2 0x102D JUMPI PUSH1 0x40 DUP1 MLOAD PUSH1 0x2 DUP1 DUP3 MSTORE PUSH1 0x60 DUP3 ADD DUP4 MSTORE PUSH1 0x0 SWAP3 PUSH1 0x20 DUP4 ADD SWAP1 DUP1 CALLDATASIZE DUP4 CALLDATACOPY ADD SWAP1 POP POP SWAP1 POP PUSH32 0x0 DUP2 PUSH1 0x0 DUP2 MLOAD DUP2 LT PUSH2 0x9AD JUMPI PUSH4 0x4E487B71 PUSH1 0xE0 SHL PUSH1 0x0 MSTORE PUSH1 0x32 PUSH1 0x4 MSTORE PUSH1 0x24 PUSH1 0x0 REVERT JUMPDEST PUSH1 0x20 MUL PUSH1 0x20 ADD ADD SWAP1 PUSH1 0x1 PUSH1 0x1 PUSH1 0xA0 SHL SUB AND SWAP1 DUP2 PUSH1 0x1 PUSH1 0x1 PUSH1 0xA0 SHL SUB AND DUP2 MSTORE POP POP PUSH32 0x0 DUP2 PUSH1 0x1 DUP2 MLOAD DUP2 LT PUSH2 0xA0F JUMPI PUSH4 0x4E487B71 PUSH1 0xE0 SHL PUSH1 0x0 MSTORE PUSH1 0x32 PUSH1 0x4 MSTORE PUSH1 0x24 PUSH1 0x0 REVERT JUMPDEST PUSH1 0x1 PUSH1 0x1 PUSH1 0xA0 SHL SUB SWAP3 DUP4 AND PUSH1 0x20 SWAP2 DUP3 MUL SWAP3 SWAP1 SWAP3 ADD ADD MSTORE PUSH1 0x40 MLOAD PUSH4 0xD06CA61F PUSH1 0xE0 SHL DUP2 MSTORE PUSH1 0x0 SWAP2 PUSH32 0x0 AND SWAP1 PUSH4 0xD06CA61F SWAP1 PUSH2 0xA6E SWAP1 DUP7 SWAP1 DUP7 SWAP1 PUSH1 0x4 ADD PUSH2 0x558B JUMP JUMPDEST PUSH1 0x0 PUSH1 0x40 MLOAD DUP1 DUP4 SUB DUP2 DUP7 DUP1 EXTCODESIZE ISZERO DUP1 ISZERO PUSH2 0xA86 JUMPI PUSH1 0x0 DUP1 REVERT JUMPDEST POP GAS STATICCALL ISZERO DUP1 ISZERO PUSH2 0xA9A JUMPI RETURNDATASIZE PUSH1 0x0 DUP1 RETURNDATACOPY RETURNDATASIZE PUSH1 0x0 REVERT JUMPDEST POP POP POP POP PUSH1 0x40 MLOAD RETURNDATASIZE PUSH1 0x0 DUP3 RETURNDATACOPY PUSH1 0x1F RETURNDATASIZE SWAP1 DUP2 ADD PUSH1 0x1F NOT AND DUP3 ADD PUSH1 0x40 MSTORE PUSH2 0xAC2 SWAP2 SWAP1 DUP2 ADD SWAP1 PUSH2 0x476D JUMP JUMPDEST SWAP1 POP PUSH1 0x0 PUSH2 0xB14 PUSH2 0xB04 DUP4 PUSH1 0x1 DUP2 MLOAD DUP2 LT PUSH2 0xAED JUMPI PUSH4 0x4E487B71 PUSH1 0xE0 SHL PUSH1 0x0 MSTORE PUSH1 0x32 PUSH1 0x4 MSTORE PUSH1 0x24 PUSH1 0x0 REVERT JUMPDEST PUSH1 0x20 MUL PUSH1 0x20 ADD ADD MLOAD DUP8 PUSH2 0x2D9A SWAP1 SWAP2 SWAP1 PUSH4 0xFFFFFFFF AND JUMP JUMPDEST PUSH2 0xB0E DUP11 DUP9 PUSH2 0x2DA6 JUMP JUMPDEST SWAP1 PUSH2 0x2DB2 JUMP JUMPDEST SWAP1 POP PUSH1 0x0 PUSH2 0xB22 DUP10 DUP4 PUSH2 0x28F4 JUMP JUMPDEST SWAP1 POP PUSH2 0xB59 PUSH1 0x1 PUSH1 0x1 PUSH1 0xA0 SHL SUB PUSH32 0x0 AND CALLER ADDRESS DUP13 PUSH2 0x2DBE JUMP JUMPDEST PUSH1 0x40 MLOAD PUSH4 0x95EA7B3 PUSH1 0xE0 SHL DUP2 MSTORE PUSH1 0x1 PUSH1 0x1 PUSH1 0xA0 SHL SUB PUSH32 0x0 AND SWAP1 PUSH4 0x95EA7B3 SWAP1 PUSH2 0xBC7 SWAP1 PUSH32 0x0 SWAP1 DUP6 SWAP1 PUSH1 0x4 ADD PUSH2 0x4DAE JUMP JUMPDEST PUSH1 0x20 PUSH1 0x40 MLOAD DUP1 DUP4 SUB DUP2 PUSH1 0x0 DUP8 DUP1 EXTCODESIZE ISZERO DUP1 ISZERO PUSH2 0xBE1 JUMPI PUSH1 0x0 DUP1 REVERT JUMPDEST POP GAS CALL ISZERO DUP1 ISZERO PUSH2 0xBF5 JUMPI RETURNDATASIZE PUSH1 0x0 DUP1 RETURNDATACOPY RETURNDATASIZE PUSH1 0x0 REVERT JUMPDEST POP POP POP POP PUSH1 0x40 MLOAD RETURNDATASIZE PUSH1 0x1F NOT PUSH1 0x1F DUP3 ADD AND DUP3 ADD DUP1 PUSH1 0x40 MSTORE POP DUP2 ADD SWAP1 PUSH2 0xC19 SWAP2 SWAP1 PUSH2 0x4827 JUMP JUMPDEST POP PUSH1 0x40 DUP1 MLOAD PUSH1 0x2 DUP1 DUP3 MSTORE PUSH1 0x60 DUP3 ADD DUP4 MSTORE PUSH1 0x0 SWAP3 PUSH1 0x20 DUP4 ADD SWAP1 DUP1 CALLDATASIZE DUP4 CALLDATACOPY ADD SWAP1 POP POP SWAP1 POP PUSH32 0x0 DUP2 PUSH1 0x0 DUP2 MLOAD DUP2 LT PUSH2 0xC7D JUMPI PUSH4 0x4E487B71 PUSH1 0xE0 SHL PUSH1 0x0 MSTORE PUSH1 0x32 PUSH1 0x4 MSTORE PUSH1 0x24 PUSH1 0x0 REVERT JUMPDEST PUSH1 0x20 MUL PUSH1 0x20 ADD ADD SWAP1 PUSH1 0x1 PUSH1 0x1 PUSH1 0xA0 SHL SUB AND SWAP1 DUP2 PUSH1 0x1 PUSH1 0x1 PUSH1 0xA0 SHL SUB AND DUP2 MSTORE POP POP PUSH32 0x0 DUP2 PUSH1 0x1 DUP2 MLOAD DUP2 LT PUSH2 0xCDF JUMPI PUSH4 0x4E487B71 PUSH1 0xE0 SHL PUSH1 0x0 MSTORE PUSH1 0x32 PUSH1 0x4 MSTORE PUSH1 0x24 PUSH1 0x0 REVERT JUMPDEST PUSH1 0x1 PUSH1 0x1 PUSH1 0xA0 SHL SUB SWAP3 DUP4 AND PUSH1 0x20 SWAP2 DUP3 MUL SWAP3 SWAP1 SWAP3 ADD ADD MSTORE PUSH1 0x40 MLOAD PUSH4 0x38ED1739 PUSH1 0xE0 SHL DUP2 MSTORE PUSH1 0x0 SWAP2 PUSH32 0x0 AND SWAP1 PUSH4 0x38ED1739 SWAP1 PUSH2 0xD44 SWAP1 DUP7 SWAP1 DUP6 SWAP1 DUP8 SWAP1 ADDRESS SWAP1 TIMESTAMP SWAP1 PUSH1 0x4 ADD PUSH2 0x55A4 JUMP JUMPDEST PUSH1 0x0 PUSH1 0x40 MLOAD DUP1 DUP4 SUB DUP2 PUSH1 0x0 DUP8 DUP1 EXTCODESIZE ISZERO DUP1 ISZERO PUSH2 0xD5E JUMPI PUSH1 0x0 DUP1 REVERT JUMPDEST POP GAS CALL ISZERO DUP1 ISZERO PUSH2 0xD72 JUMPI RETURNDATASIZE PUSH1 0x0 DUP1 RETURNDATACOPY RETURNDATASIZE PUSH1 0x0 REVERT JUMPDEST POP POP POP POP PUSH1 0x40 MLOAD RETURNDATASIZE PUSH1 0x0 DUP3 RETURNDATACOPY PUSH1 0x1F RETURNDATASIZE SWAP1 DUP2 ADD PUSH1 0x1F NOT AND DUP3 ADD PUSH1 0x40 MSTORE PUSH2 0xD9A SWAP2 SWAP1 DUP2 ADD SWAP1 PUSH2 0x476D JUMP JUMPDEST SWAP1 POP PUSH1 0x0 PUSH2 0xDEB PUSH2 0xDAB DUP7 DUP11 PUSH2 0x2DA6 JUMP JUMPDEST PUSH2 0xDE6 DUP12 DUP6 PUSH1 0x1 DUP2 MLOAD DUP2 LT PUSH2 0xDD0 JUMPI PUSH4 0x4E487B71 PUSH1 0xE0 SHL PUSH1 0x0 MSTORE PUSH1 0x32 PUSH1 0x4 MSTORE PUSH1 0x24 PUSH1 0x0 REVERT JUMPDEST PUSH1 0x20 MUL PUSH1 0x20 ADD ADD MLOAD PUSH2 0x2DA6 SWAP1 SWAP2 SWAP1 PUSH4 0xFFFFFFFF AND JUMP JUMPDEST PUSH2 0x2DDF JUMP JUMPDEST SWAP1 POP PUSH1 0x0 DUP2 GT PUSH2 0xE0D JUMPI PUSH1 0x40 MLOAD PUSH3 0x461BCD PUSH1 0xE5 SHL DUP2 MSTORE PUSH1 0x4 ADD PUSH2 0x58E SWAP1 PUSH2 0x519E JUMP JUMPDEST PUSH2 0xE26 PUSH1 0x1 PUSH2 0xE20 DUP11 PUSH2 0xB0E DUP6 DUP5 PUSH2 0x28F4 JUMP JUMPDEST SWAP1 PUSH2 0x2D9A JUMP JUMPDEST SWAP12 POP PUSH2 0xE3B PUSH1 0x1 PUSH2 0xE20 DUP12 PUSH2 0xB0E DUP6 DUP5 PUSH2 0x28F4 JUMP JUMPDEST SWAP11 POP PUSH2 0xE4D DUP9 PUSH2 0xB0E DUP12 DUP2 DUP6 DUP16 PUSH2 0x2DA6 JUMP JUMPDEST SWAP13 POP DUP16 DUP13 LT ISZERO PUSH2 0xE6F JUMPI PUSH1 0x40 MLOAD PUSH3 0x461BCD PUSH1 0xE5 SHL DUP2 MSTORE PUSH1 0x4 ADD PUSH2 0x58E SWAP1 PUSH2 0x4EA5 JUMP JUMPDEST DUP15 DUP12 LT ISZERO PUSH2 0xE8F JUMPI PUSH1 0x40 MLOAD PUSH3 0x461BCD PUSH1 0xE5 SHL DUP2 MSTORE PUSH1 0x4 ADD PUSH2 0x58E SWAP1 PUSH2 0x534E JUMP JUMPDEST PUSH1 0x0 DUP14 GT PUSH2 0xEAF JUMPI PUSH1 0x40 MLOAD PUSH3 0x461BCD PUSH1 0xE5 SHL DUP2 MSTORE PUSH1 0x4 ADD PUSH2 0x58E SWAP1 PUSH2 0x4FCF JUMP JUMPDEST PUSH1 0x0 PUSH2 0xEBB DUP7 DUP15 PUSH2 0x28F4 JUMP JUMPDEST GT ISZERO PUSH2 0xF00 JUMPI PUSH2 0xF00 DUP15 PUSH2 0xECF DUP8 DUP16 PUSH2 0x28F4 JUMP JUMPDEST PUSH1 0x1 PUSH1 0x1 PUSH1 0xA0 SHL SUB PUSH32 0x0 AND SWAP2 SWAP1 PUSH2 0x2900 JUMP JUMPDEST PUSH1 0x0 PUSH2 0xF3D DUP13 DUP5 PUSH1 0x1 DUP2 MLOAD DUP2 LT PUSH2 0xF27 JUMPI PUSH4 0x4E487B71 PUSH1 0xE0 SHL PUSH1 0x0 MSTORE PUSH1 0x32 PUSH1 0x4 MSTORE PUSH1 0x24 PUSH1 0x0 REVERT JUMPDEST PUSH1 0x20 MUL PUSH1 0x20 ADD ADD MLOAD PUSH2 0x28F4 SWAP1 SWAP2 SWAP1 PUSH4 0xFFFFFFFF AND JUMP JUMPDEST GT ISZERO PUSH2 0xF9D JUMPI PUSH2 0xF9D DUP15 PUSH2 0xF6C DUP14 DUP6 PUSH1 0x1 DUP2 MLOAD DUP2 LT PUSH2 0xF27 JUMPI PUSH4 0x4E487B71 PUSH1 0xE0 SHL PUSH1 0x0 MSTORE PUSH1 0x32 PUSH1 0x4 MSTORE PUSH1 0x24 PUSH1 0x0 REVERT JUMPDEST PUSH1 0x1 PUSH1 0x1 PUSH1 0xA0 SHL SUB PUSH32 0x0 AND SWAP2 SWAP1 PUSH2 0x2900 JUMP JUMPDEST PUSH2 0xFA7 DUP15 DUP15 PUSH2 0x2DF5 JUMP JUMPDEST DUP14 PUSH1 0x1 PUSH1 0x1 PUSH1 0xA0 SHL SUB AND CALLER PUSH1 0x1 PUSH1 0x1 PUSH1 0xA0 SHL SUB AND PUSH32 0x4E2CA0515ED1AEF1395F66B5303BB5D6F1BF9D61A353FA53F73F8AC9973FA9F6 DUP16 DUP16 DUP16 PUSH1 0x40 MLOAD PUSH2 0xFEE SWAP4 SWAP3 SWAP2 SWAP1 PUSH2 0x55E0 JUMP JUMPDEST PUSH1 0x40 MLOAD DUP1 SWAP2 SUB SWAP1 LOG3 PUSH1 0x7 SLOAD PUSH2 0x1003 DUP12 DUP16 PUSH2 0x2D9A JUMP JUMPDEST GT ISZERO PUSH2 0x1021 JUMPI PUSH1 0x40 MLOAD PUSH3 0x461BCD PUSH1 0xE5 SHL DUP2 MSTORE PUSH1 0x4 ADD PUSH2 0x58E SWAP1 PUSH2 0x5466 JUMP JUMPDEST POP POP POP POP POP POP POP PUSH2 0x166D JUMP JUMPDEST PUSH1 0x40 DUP1 MLOAD PUSH1 0x2 DUP1 DUP3 MSTORE PUSH1 0x60 DUP3 ADD DUP4 MSTORE PUSH1 0x0 SWAP3 PUSH1 0x20 DUP4 ADD SWAP1 DUP1 CALLDATASIZE DUP4 CALLDATACOPY ADD SWAP1 POP POP SWAP1 POP PUSH32 0x0 DUP2 PUSH1 0x0 DUP2 MLOAD DUP2 LT PUSH2 0x1090 JUMPI PUSH4 0x4E487B71 PUSH1 0xE0 SHL PUSH1 0x0 MSTORE PUSH1 0x32 PUSH1 0x4 MSTORE PUSH1 0x24 PUSH1 0x0 REVERT JUMPDEST PUSH1 0x20 MUL PUSH1 0x20 ADD ADD SWAP1 PUSH1 0x1 PUSH1 0x1 PUSH1 0xA0 SHL SUB AND SWAP1 DUP2 PUSH1 0x1 PUSH1 0x1 PUSH1 0xA0 SHL SUB AND DUP2 MSTORE POP POP PUSH32 0x0 DUP2 PUSH1 0x1 DUP2 MLOAD DUP2 LT PUSH2 0x10F2 JUMPI PUSH4 0x4E487B71 PUSH1 0xE0 SHL PUSH1 0x0 MSTORE PUSH1 0x32 PUSH1 0x4 MSTORE PUSH1 0x24 PUSH1 0x0 REVERT JUMPDEST PUSH1 0x1 PUSH1 0x1 PUSH1 0xA0 SHL SUB SWAP3 DUP4 AND PUSH1 0x20 SWAP2 DUP3 MUL SWAP3 SWAP1 SWAP3 ADD ADD MSTORE PUSH1 0x40 MLOAD PUSH4 0xD06CA61F PUSH1 0xE0 SHL DUP2 MSTORE PUSH1 0x0 SWAP2 PUSH32 0x0 AND SWAP1 PUSH4 0xD06CA61F SWAP1 PUSH2 0x1151 SWAP1 DUP8 SWAP1 DUP7 SWAP1 PUSH1 0x4 ADD PUSH2 0x558B JUMP JUMPDEST PUSH1 0x0 PUSH1 0x40 MLOAD DUP1 DUP4 SUB DUP2 DUP7 DUP1 EXTCODESIZE ISZERO DUP1 ISZERO PUSH2 0x1169 JUMPI PUSH1 0x0 DUP1 REVERT JUMPDEST POP GAS STATICCALL ISZERO DUP1 ISZERO PUSH2 0x117D JUMPI RETURNDATASIZE PUSH1 0x0 DUP1 RETURNDATACOPY RETURNDATASIZE PUSH1 0x0 REVERT JUMPDEST POP POP POP POP PUSH1 0x40 MLOAD RETURNDATASIZE PUSH1 0x0 DUP3 RETURNDATACOPY PUSH1 0x1F RETURNDATASIZE SWAP1 DUP2 ADD PUSH1 0x1F NOT AND DUP3 ADD PUSH1 0x40 MSTORE PUSH2 0x11A5 SWAP2 SWAP1 DUP2 ADD SWAP1 PUSH2 0x476D JUMP JUMPDEST SWAP1 POP PUSH1 0x0 PUSH2 0x11F1 PUSH2 0x11E7 DUP4 PUSH1 0x1 DUP2 MLOAD DUP2 LT PUSH2 0x11D0 JUMPI PUSH4 0x4E487B71 PUSH1 0xE0 SHL PUSH1 0x0 MSTORE PUSH1 0x32 PUSH1 0x4 MSTORE PUSH1 0x24 PUSH1 0x0 REVERT JUMPDEST PUSH1 0x20 MUL PUSH1 0x20 ADD ADD MLOAD DUP7 PUSH2 0x2D9A SWAP1 SWAP2 SWAP1 PUSH4 0xFFFFFFFF AND JUMP JUMPDEST PUSH2 0xB0E DUP10 DUP8 PUSH2 0x2DA6 JUMP JUMPDEST SWAP1 POP PUSH1 0x0 PUSH2 0x11FF DUP9 DUP4 PUSH2 0x28F4 JUMP JUMPDEST SWAP1 POP PUSH2 0x1236 PUSH1 0x1 PUSH1 0x1 PUSH1 0xA0 SHL SUB PUSH32 0x0 AND CALLER ADDRESS DUP12 PUSH2 0x2DBE JUMP JUMPDEST PUSH1 0x40 MLOAD PUSH4 0x95EA7B3 PUSH1 0xE0 SHL DUP2 MSTORE PUSH1 0x1 PUSH1 0x1 PUSH1 0xA0 SHL SUB PUSH32 0x0 AND SWAP1 PUSH4 0x95EA7B3 SWAP1 PUSH2 0x12A4 SWAP1 PUSH32 0x0 SWAP1 DUP6 SWAP1 PUSH1 0x4 ADD PUSH2 0x4DAE JUMP JUMPDEST PUSH1 0x20 PUSH1 0x40 MLOAD DUP1 DUP4 SUB DUP2 PUSH1 0x0 DUP8 DUP1 EXTCODESIZE ISZERO DUP1 ISZERO PUSH2 0x12BE JUMPI PUSH1 0x0 DUP1 REVERT JUMPDEST POP GAS CALL ISZERO DUP1 ISZERO PUSH2 0x12D2 JUMPI RETURNDATASIZE PUSH1 0x0 DUP1 RETURNDATACOPY RETURNDATASIZE PUSH1 0x0 REVERT JUMPDEST POP POP POP POP PUSH1 0x40 MLOAD RETURNDATASIZE PUSH1 0x1F NOT PUSH1 0x1F DUP3 ADD AND DUP3 ADD DUP1 PUSH1 0x40 MSTORE POP DUP2 ADD SWAP1 PUSH2 0x12F6 SWAP2 SWAP1 PUSH2 0x4827 JUMP JUMPDEST POP PUSH1 0x40 DUP1 MLOAD PUSH1 0x2 DUP1 DUP3 MSTORE PUSH1 0x60 DUP3 ADD DUP4 MSTORE PUSH1 0x0 SWAP3 PUSH1 0x20 DUP4 ADD SWAP1 DUP1 CALLDATASIZE DUP4 CALLDATACOPY ADD SWAP1 POP POP SWAP1 POP PUSH32 0x0 DUP2 PUSH1 0x0 DUP2 MLOAD DUP2 LT PUSH2 0x135A JUMPI PUSH4 0x4E487B71 PUSH1 0xE0 SHL PUSH1 0x0 MSTORE PUSH1 0x32 PUSH1 0x4 MSTORE PUSH1 0x24 PUSH1 0x0 REVERT JUMPDEST PUSH1 0x20 MUL PUSH1 0x20 ADD ADD SWAP1 PUSH1 0x1 PUSH1 0x1 PUSH1 0xA0 SHL SUB AND SWAP1 DUP2 PUSH1 0x1 PUSH1 0x1 PUSH1 0xA0 SHL SUB AND DUP2 MSTORE POP POP PUSH32 0x0 DUP2 PUSH1 0x1 DUP2 MLOAD DUP2 LT PUSH2 0x13BC JUMPI PUSH4 0x4E487B71 PUSH1 0xE0 SHL PUSH1 0x0 MSTORE PUSH1 0x32 PUSH1 0x4 MSTORE PUSH1 0x24 PUSH1 0x0 REVERT JUMPDEST PUSH1 0x1 PUSH1 0x1 PUSH1 0xA0 SHL SUB SWAP3 DUP4 AND PUSH1 0x20 SWAP2 DUP3 MUL SWAP3 SWAP1 SWAP3 ADD ADD MSTORE PUSH1 0x40 MLOAD PUSH4 0x38ED1739 PUSH1 0xE0 SHL DUP2 MSTORE PUSH1 0x0 SWAP2 PUSH32 0x0 AND SWAP1 PUSH4 0x38ED1739 SWAP1 PUSH2 0x1421 SWAP1 DUP7 SWAP1 DUP6 SWAP1 DUP8 SWAP1 ADDRESS SWAP1 TIMESTAMP SWAP1 PUSH1 0x4 ADD PUSH2 0x55A4 JUMP JUMPDEST PUSH1 0x0 PUSH1 0x40 MLOAD DUP1 DUP4 SUB DUP2 PUSH1 0x0 DUP8 DUP1 EXTCODESIZE ISZERO DUP1 ISZERO PUSH2 0x143B JUMPI PUSH1 0x0 DUP1 REVERT JUMPDEST POP GAS CALL ISZERO DUP1 ISZERO PUSH2 0x144F JUMPI RETURNDATASIZE PUSH1 0x0 DUP1 RETURNDATACOPY RETURNDATASIZE PUSH1 0x0 REVERT JUMPDEST POP POP POP POP PUSH1 0x40 MLOAD RETURNDATASIZE PUSH1 0x0 DUP3 RETURNDATACOPY PUSH1 0x1F RETURNDATASIZE SWAP1 DUP2 ADD PUSH1 0x1F NOT AND DUP3 ADD PUSH1 0x40 MSTORE PUSH2 0x1477 SWAP2 SWAP1 DUP2 ADD SWAP1 PUSH2 0x476D JUMP JUMPDEST SWAP1 POP PUSH1 0x0 PUSH2 0x14AD PUSH2 0x14A3 DUP10 DUP5 PUSH1 0x1 DUP2 MLOAD DUP2 LT PUSH2 0xDD0 JUMPI PUSH4 0x4E487B71 PUSH1 0xE0 SHL PUSH1 0x0 MSTORE PUSH1 0x32 PUSH1 0x4 MSTORE PUSH1 0x24 PUSH1 0x0 REVERT JUMPDEST PUSH2 0xDE6 DUP8 DUP13 PUSH2 0x2DA6 JUMP JUMPDEST SWAP1 POP PUSH1 0x0 DUP2 GT PUSH2 0x14CF JUMPI PUSH1 0x40 MLOAD PUSH3 0x461BCD PUSH1 0xE5 SHL DUP2 MSTORE PUSH1 0x4 ADD PUSH2 0x58E SWAP1 PUSH2 0x519E JUMP JUMPDEST PUSH2 0x14E2 PUSH1 0x1 PUSH2 0xE20 DUP11 PUSH2 0xB0E DUP6 DUP5 PUSH2 0x28F4 JUMP JUMPDEST SWAP12 POP PUSH2 0x14F7 PUSH1 0x1 PUSH2 0xE20 DUP12 PUSH2 0xB0E DUP6 DUP5 PUSH2 0x28F4 JUMP JUMPDEST SWAP11 POP PUSH2 0x1509 DUP9 PUSH2 0xB0E DUP12 DUP2 DUP6 DUP16 PUSH2 0x2DA6 JUMP JUMPDEST SWAP13 POP DUP16 DUP13 LT ISZERO PUSH2 0x152B JUMPI PUSH1 0x40 MLOAD PUSH3 0x461BCD PUSH1 0xE5 SHL DUP2 MSTORE PUSH1 0x4 ADD PUSH2 0x58E SWAP1 PUSH2 0x4EA5 JUMP JUMPDEST DUP15 DUP12 LT ISZERO PUSH2 0x154B JUMPI PUSH1 0x40 MLOAD PUSH3 0x461BCD PUSH1 0xE5 SHL DUP2 MSTORE PUSH1 0x4 ADD PUSH2 0x58E SWAP1 PUSH2 0x534E JUMP JUMPDEST PUSH1 0x0 DUP14 GT PUSH2 0x156B JUMPI PUSH1 0x40 MLOAD PUSH3 0x461BCD PUSH1 0xE5 SHL DUP2 MSTORE PUSH1 0x4 ADD PUSH2 0x58E SWAP1 PUSH2 0x4FCF JUMP JUMPDEST PUSH1 0x0 PUSH2 0x1592 DUP14 DUP5 PUSH1 0x1 DUP2 MLOAD DUP2 LT PUSH2 0xF27 JUMPI PUSH4 0x4E487B71 PUSH1 0xE0 SHL PUSH1 0x0 MSTORE PUSH1 0x32 PUSH1 0x4 MSTORE PUSH1 0x24 PUSH1 0x0 REVERT JUMPDEST GT ISZERO PUSH2 0x15C1 JUMPI PUSH2 0x15C1 DUP15 PUSH2 0xECF DUP15 DUP6 PUSH1 0x1 DUP2 MLOAD DUP2 LT PUSH2 0xF27 JUMPI PUSH4 0x4E487B71 PUSH1 0xE0 SHL PUSH1 0x0 MSTORE PUSH1 0x32 PUSH1 0x4 MSTORE PUSH1 0x24 PUSH1 0x0 REVERT JUMPDEST PUSH1 0x0 PUSH2 0x15CD DUP7 DUP14 PUSH2 0x28F4 JUMP JUMPDEST GT ISZERO PUSH2 0x15E1 JUMPI PUSH2 0x15E1 DUP15 PUSH2 0xF6C DUP8 DUP15 PUSH2 0x28F4 JUMP JUMPDEST PUSH2 0x15EB DUP15 DUP15 PUSH2 0x2DF5 JUMP JUMPDEST DUP14 PUSH1 0x1 PUSH1 0x1 PUSH1 0xA0 SHL SUB AND CALLER PUSH1 0x1 PUSH1 0x1 PUSH1 0xA0 SHL SUB AND PUSH32 0x4E2CA0515ED1AEF1395F66B5303BB5D6F1BF9D61A353FA53F73F8AC9973FA9F6 DUP16 DUP16 DUP16 PUSH1 0x40 MLOAD PUSH2 0x1632 SWAP4 SWAP3 SWAP2 SWAP1 PUSH2 0x55E0 JUMP JUMPDEST PUSH1 0x40 MLOAD DUP1 SWAP2 SUB SWAP1 LOG3 PUSH1 0x7 SLOAD PUSH2 0x1647 DUP12 DUP16 PUSH2 0x2D9A JUMP JUMPDEST GT ISZERO PUSH2 0x1665 JUMPI PUSH1 0x40 MLOAD PUSH3 0x461BCD PUSH1 0xE5 SHL DUP2 MSTORE PUSH1 0x4 ADD PUSH2 0x58E SWAP1 PUSH2 0x5466 JUMP JUMPDEST POP POP POP POP POP POP POP JUMPDEST POP POP POP PUSH2 0x17CD JUMP JUMPDEST DUP6 DUP3 LT ISZERO PUSH2 0x1695 JUMPI PUSH1 0x40 MLOAD PUSH3 0x461BCD PUSH1 0xE5 SHL DUP2 MSTORE PUSH1 0x4 ADD PUSH2 0x58E SWAP1 PUSH2 0x4EA5 JUMP JUMPDEST DUP5 DUP2 LT ISZERO PUSH2 0x16B5 JUMPI PUSH1 0x40 MLOAD PUSH3 0x461BCD PUSH1 0xE5 SHL DUP2 MSTORE PUSH1 0x4 ADD PUSH2 0x58E SWAP1 PUSH2 0x534E JUMP JUMPDEST PUSH1 0x0 DUP4 GT PUSH2 0x16D5 JUMPI PUSH1 0x40 MLOAD PUSH3 0x461BCD PUSH1 0xE5 SHL DUP2 MSTORE PUSH1 0x4 ADD PUSH2 0x58E SWAP1 PUSH2 0x5289 JUMP JUMPDEST DUP2 ISZERO PUSH2 0x1710 JUMPI PUSH2 0x1710 PUSH1 0x1 PUSH1 0x1 PUSH1 0xA0 SHL SUB PUSH32 0x0 AND CALLER ADDRESS DUP6 PUSH2 0x2DBE JUMP JUMPDEST DUP1 ISZERO PUSH2 0x174B JUMPI PUSH2 0x174B PUSH1 0x1 PUSH1 0x1 PUSH1 0xA0 SHL SUB PUSH32 0x0 AND CALLER ADDRESS DUP5 PUSH2 0x2DBE JUMP JUMPDEST PUSH2 0x1755 DUP5 DUP5 PUSH2 0x2DF5 JUMP JUMPDEST DUP4 PUSH1 0x1 PUSH1 0x1 PUSH1 0xA0 SHL SUB AND CALLER PUSH1 0x1 PUSH1 0x1 PUSH1 0xA0 SHL SUB AND PUSH32 0x4E2CA0515ED1AEF1395F66B5303BB5D6F1BF9D61A353FA53F73F8AC9973FA9F6 DUP6 DUP6 DUP6 PUSH1 0x40 MLOAD PUSH2 0x179C SWAP4 SWAP3 SWAP2 SWAP1 PUSH2 0x55E0 JUMP JUMPDEST PUSH1 0x40 MLOAD DUP1 SWAP2 SUB SWAP1 LOG3 PUSH1 0x7 SLOAD PUSH2 0x17AF PUSH2 0x74D JUMP JUMPDEST GT ISZERO PUSH2 0x17CD JUMPI PUSH1 0x40 MLOAD PUSH3 0x461BCD PUSH1 0xE5 SHL DUP2 MSTORE PUSH1 0x4 ADD PUSH2 0x58E SWAP1 PUSH2 0x5466 JUMP JUMPDEST PUSH1 0x1 PUSH1 0x5 DUP2 SWAP1 SSTORE POP SWAP6 POP SWAP6 POP SWAP6 SWAP3 POP POP POP JUMP JUMPDEST PUSH1 0x0 DUP1 PUSH2 0x17EB PUSH2 0x2956 JUMP JUMPDEST PUSH1 0x1 PUSH1 0x1 PUSH1 0xA0 SHL SUB DUP1 DUP3 AND PUSH1 0x0 SWAP1 DUP2 MSTORE PUSH1 0x1 PUSH1 0x20 SWAP1 DUP2 MSTORE PUSH1 0x40 DUP1 DUP4 KECCAK256 SWAP4 DUP10 AND DUP4 MSTORE SWAP3 SWAP1 MSTORE KECCAK256 SLOAD SWAP1 SWAP2 POP PUSH2 0x6DA SWAP1 DUP3 SWAP1 DUP7 SWAP1 PUSH2 0x1827 SWAP1 DUP8 SWAP1 PUSH2 0x562D JUMP JUMPDEST PUSH2 0x295A JUMP JUMPDEST PUSH1 0x9 SLOAD PUSH1 0x1 PUSH1 0x1 PUSH1 0xA0 SHL SUB AND CALLER EQ PUSH2 0x1856 JUMPI PUSH1 0x40 MLOAD PUSH3 0x461BCD PUSH1 0xE5 SHL DUP2 MSTORE PUSH1 0x4 ADD PUSH2 0x58E SWAP1 PUSH2 0x5265 JUMP JUMPDEST PUSH1 0x7 SSTORE JUMP JUMPDEST PUSH1 0x0 PUSH2 0x1905 PUSH1 0xC SLOAD PUSH32 0x0 PUSH1 0x1 PUSH1 0x1 PUSH1 0xA0 SHL SUB AND PUSH4 0x70A08231 ADDRESS PUSH1 0x40 MLOAD DUP3 PUSH4 0xFFFFFFFF AND PUSH1 0xE0 SHL DUP2 MSTORE PUSH1 0x4 ADD PUSH2 0x18AF SWAP2 SWAP1 PUSH2 0x4CBD JUMP JUMPDEST PUSH1 0x20 PUSH1 0x40 MLOAD DUP1 DUP4 SUB DUP2 DUP7 DUP1 EXTCODESIZE ISZERO DUP1 ISZERO PUSH2 0x18C7 JUMPI PUSH1 0x0 DUP1 REVERT JUMPDEST POP GAS STATICCALL ISZERO DUP1 ISZERO PUSH2 0x18DB JUMPI RETURNDATASIZE PUSH1 0x0 DUP1 RETURNDATACOPY RETURNDATASIZE PUSH1 0x0 REVERT JUMPDEST POP POP POP POP PUSH1 0x40 MLOAD RETURNDATASIZE PUSH1 0x1F NOT PUSH1 0x1F DUP3 ADD AND DUP3 ADD DUP1 PUSH1 0x40 MSTORE POP DUP2 ADD SWAP1 PUSH2 0x18FF SWAP2 SWAP1 PUSH2 0x4B40 JUMP JUMPDEST SWAP1 PUSH2 0x28F4 JUMP JUMPDEST SWAP1 POP SWAP1 JUMP JUMPDEST PUSH1 0xA SLOAD PUSH1 0x1 PUSH1 0xD0 SHL SWAP1 DIV PUSH1 0x2 SIGNEXTEND DUP2 JUMP JUMPDEST PUSH1 0x9 SLOAD PUSH1 0x1 PUSH1 0x1 PUSH1 0xA0 SHL SUB AND DUP2 JUMP JUMPDEST PUSH1 0x0 PUSH2 0x1905 PUSH1 0xB SLOAD PUSH32 0x0 PUSH1 0x1 PUSH1 0x1 PUSH1 0xA0 SHL SUB AND PUSH4 0x70A08231 ADDRESS PUSH1 0x40 MLOAD DUP3 PUSH4 0xFFFFFFFF AND PUSH1 0xE0 SHL DUP2 MSTORE PUSH1 0x4 ADD PUSH2 0x18AF SWAP2 SWAP1 PUSH2 0x4CBD JUMP JUMPDEST PUSH1 0x1 PUSH1 0x1 PUSH1 0xA0 SHL SUB DUP2 AND PUSH1 0x0 SWAP1 DUP2 MSTORE PUSH1 0x20 DUP2 SWAP1 MSTORE PUSH1 0x40 SWAP1 KECCAK256 SLOAD JUMPDEST SWAP2 SWAP1 POP JUMP JUMPDEST PUSH1 0x9 SLOAD PUSH1 0x1 PUSH1 0x1 PUSH1 0xA0 SHL SUB AND CALLER EQ PUSH2 0x19C6 JUMPI PUSH1 0x40 MLOAD PUSH3 0x461BCD PUSH1 0xE5 SHL DUP2 MSTORE PUSH1 0x4 ADD PUSH2 0x58E SWAP1 PUSH2 0x5265 JUMP JUMPDEST PUSH3 0xF4240 DUP2 LT PUSH2 0x19E8 JUMPI PUSH1 0x40 MLOAD PUSH3 0x461BCD PUSH1 0xE5 SHL DUP2 MSTORE PUSH1 0x4 ADD PUSH2 0x58E SWAP1 PUSH2 0x51C4 JUMP JUMPDEST PUSH1 0x6 SSTORE JUMP JUMPDEST PUSH32 0x0 DUP2 JUMP JUMPDEST PUSH1 0x2 PUSH1 0x5 SLOAD EQ ISZERO PUSH2 0x1A34 JUMPI PUSH1 0x40 MLOAD PUSH3 0x461BCD PUSH1 0xE5 SHL DUP2 MSTORE PUSH1 0x4 ADD PUSH2 0x58E SWAP1 PUSH2 0x54D8 JUMP JUMPDEST PUSH1 0x2 PUSH1 0x5 SSTORE PUSH1 0x8 SLOAD PUSH1 0x1 PUSH1 0x1 PUSH1 0xA0 SHL SUB AND CALLER EQ PUSH2 0x1A63 JUMPI PUSH1 0x40 MLOAD PUSH3 0x461BCD PUSH1 0xE5 SHL DUP2 MSTORE PUSH1 0x4 ADD PUSH2 0x58E SWAP1 PUSH2 0x523F JUMP JUMPDEST PUSH2 0x1A6D DUP7 DUP7 PUSH2 0x2EC1 JUMP JUMPDEST PUSH2 0x1A77 DUP5 DUP5 PUSH2 0x2EC1 JUMP JUMPDEST PUSH2 0x1A81 DUP3 DUP3 PUSH2 0x2EC1 JUMP JUMPDEST PUSH1 0x0 PUSH32 0x0 PUSH1 0x1 PUSH1 0x1 PUSH1 0xA0 SHL SUB AND PUSH4 0x3850C7BD PUSH1 0x40 MLOAD DUP2 PUSH4 0xFFFFFFFF AND PUSH1 0xE0 SHL DUP2 MSTORE PUSH1 0x4 ADD PUSH1 0xE0 PUSH1 0x40 MLOAD DUP1 DUP4 SUB DUP2 DUP7 DUP1 EXTCODESIZE ISZERO DUP1 ISZERO PUSH2 0x1ADC JUMPI PUSH1 0x0 DUP1 REVERT JUMPDEST POP GAS STATICCALL ISZERO DUP1 ISZERO PUSH2 0x1AF0 JUMPI RETURNDATASIZE PUSH1 0x0 DUP1 RETURNDATACOPY RETURNDATASIZE PUSH1 0x0 REVERT JUMPDEST POP POP POP POP PUSH1 0x40 MLOAD RETURNDATASIZE PUSH1 0x1F NOT PUSH1 0x1F DUP3 ADD AND DUP3 ADD DUP1 PUSH1 0x40 MSTORE POP DUP2 ADD SWAP1 PUSH2 0x1B14 SWAP2 SWAP1 PUSH2 0x4A92 JUMP JUMPDEST POP POP POP POP POP SWAP2 POP POP DUP1 PUSH1 0x2 SIGNEXTEND DUP5 PUSH1 0x2 SIGNEXTEND SGT ISZERO PUSH2 0x1B42 JUMPI PUSH1 0x40 MLOAD PUSH3 0x461BCD PUSH1 0xE5 SHL DUP2 MSTORE PUSH1 0x4 ADD PUSH2 0x58E SWAP1 PUSH2 0x50AA JUMP JUMPDEST DUP1 PUSH1 0x2 SIGNEXTEND DUP4 PUSH1 0x2 SIGNEXTEND SGT PUSH2 0x1B67 JUMPI PUSH1 0x40 MLOAD PUSH3 0x461BCD PUSH1 0xE5 SHL DUP2 MSTORE PUSH1 0x4 ADD PUSH2 0x58E SWAP1 PUSH2 0x5372 JUMP JUMPDEST PUSH1 0xA SLOAD PUSH1 0x0 SWAP1 PUSH2 0x1B8C SWAP1 PUSH1 0x1 PUSH1 0xA0 SHL DUP2 DIV PUSH1 0x2 SWAP1 DUP2 SIGNEXTEND SWAP2 PUSH1 0x1 PUSH1 0xB8 SHL SWAP1 DIV SWAP1 SIGNEXTEND PUSH2 0x2FB6 JUMP JUMPDEST POP POP PUSH1 0xA SLOAD SWAP3 SWAP4 POP PUSH1 0x0 SWAP3 PUSH2 0x1BB9 SWAP3 POP PUSH1 0x1 PUSH1 0xD0 SHL DUP2 DIV PUSH1 0x2 SWAP1 DUP2 SIGNEXTEND SWAP3 POP PUSH1 0x1 PUSH1 0xE8 SHL SWAP1 SWAP2 DIV SWAP1 SIGNEXTEND PUSH2 0x2FB6 JUMP JUMPDEST POP POP PUSH1 0xA SLOAD SWAP3 SWAP4 POP PUSH2 0x1BE5 SWAP3 PUSH1 0x1 PUSH1 0xA0 SHL DUP2 DIV PUSH1 0x2 SWAP1 DUP2 SIGNEXTEND SWAP4 POP PUSH1 0x1 PUSH1 0xB8 SHL SWAP1 SWAP2 DIV SWAP1 SIGNEXTEND SWAP1 POP DUP5 PUSH2 0x307D JUMP JUMPDEST POP POP PUSH1 0xA SLOAD PUSH2 0x1C0D SWAP3 POP PUSH1 0x1 PUSH1 0xD0 SHL DUP2 DIV PUSH1 0x2 SWAP1 DUP2 SIGNEXTEND SWAP3 POP PUSH1 0x1 PUSH1 0xE8 SHL SWAP1 SWAP2 DIV SWAP1 SIGNEXTEND DUP4 PUSH2 0x307D JUMP JUMPDEST POP POP POP POP POP POP PUSH1 0x0 PUSH2 0x1C1D PUSH2 0x1929 JUMP JUMPDEST SWAP1 POP PUSH1 0x0 PUSH2 0x1C29 PUSH2 0x185B JUMP JUMPDEST SWAP1 POP PUSH32 0x210F60ADF1DB7A02E9DB9A49EC7C2EB2060C516CBCFD01A0C05288144738EE5D DUP4 DUP4 DUP4 PUSH2 0x1C57 PUSH2 0x74D JUMP JUMPDEST PUSH1 0x40 MLOAD PUSH2 0x1C67 SWAP5 SWAP4 SWAP3 SWAP2 SWAP1 PUSH2 0x4E0F JUMP JUMPDEST PUSH1 0x40 MLOAD DUP1 SWAP2 SUB SWAP1 LOG1 DUP11 ISZERO PUSH2 0x1D46 JUMPI PUSH1 0x1 PUSH1 0x1 PUSH1 0xA0 SHL SUB PUSH32 0x0 AND PUSH4 0x128ACB08 ADDRESS PUSH1 0x0 DUP15 SGT DUP1 PUSH2 0x1CBC JUMPI PUSH2 0x1CB7 DUP16 PUSH2 0x5775 JUMP JUMPDEST PUSH2 0x1CBE JUMP JUMPDEST DUP15 JUMPDEST DUP15 PUSH1 0x40 MLOAD DUP6 PUSH4 0xFFFFFFFF AND PUSH1 0xE0 SHL DUP2 MSTORE PUSH1 0x4 ADD PUSH2 0x1CDE SWAP5 SWAP4 SWAP3 SWAP2 SWAP1 PUSH2 0x4CF5 JUMP JUMPDEST PUSH1 0x40 DUP1 MLOAD DUP1 DUP4 SUB DUP2 PUSH1 0x0 DUP8 DUP1 EXTCODESIZE ISZERO DUP1 ISZERO PUSH2 0x1CF7 JUMPI PUSH1 0x0 DUP1 REVERT JUMPDEST POP GAS CALL ISZERO DUP1 ISZERO PUSH2 0x1D0B JUMPI RETURNDATASIZE PUSH1 0x0 DUP1 RETURNDATACOPY RETURNDATASIZE PUSH1 0x0 REVERT JUMPDEST POP POP POP POP PUSH1 0x40 MLOAD RETURNDATASIZE PUSH1 0x1F NOT PUSH1 0x1F DUP3 ADD AND DUP3 ADD DUP1 PUSH1 0x40 MSTORE POP DUP2 ADD SWAP1 PUSH2 0x1D2F SWAP2 SWAP1 PUSH2 0x48F0 JUMP JUMPDEST POP POP PUSH2 0x1D39 PUSH2 0x1929 JUMP JUMPDEST SWAP2 POP PUSH2 0x1D43 PUSH2 0x185B JUMP JUMPDEST SWAP1 POP JUMPDEST PUSH1 0x0 PUSH2 0x1D54 DUP11 DUP11 DUP6 DUP6 PUSH2 0x32C9 JUMP JUMPDEST SWAP1 POP PUSH2 0x1D61 DUP11 DUP11 DUP4 PUSH2 0x338C JUMP JUMPDEST PUSH1 0xA DUP1 SLOAD PUSH1 0x2 DUP13 DUP2 SIGNEXTEND PUSH3 0xFFFFFF SWAP1 DUP2 AND PUSH1 0x1 PUSH1 0xA0 SHL MUL PUSH3 0xFFFFFF PUSH1 0xA0 SHL NOT SWAP3 DUP15 SWAP1 SIGNEXTEND SWAP1 SWAP2 AND PUSH1 0x1 PUSH1 0xB8 SHL MUL PUSH3 0xFFFFFF PUSH1 0xB8 SHL NOT SWAP1 SWAP4 AND SWAP3 SWAP1 SWAP3 OR AND OR SWAP1 SSTORE PUSH2 0x1DA7 PUSH2 0x1929 JUMP JUMPDEST SWAP3 POP PUSH2 0x1DB1 PUSH2 0x185B JUMP JUMPDEST SWAP2 POP PUSH1 0x0 PUSH2 0x1DC1 DUP10 DUP10 DUP7 DUP7 PUSH2 0x32C9 JUMP JUMPDEST SWAP1 POP PUSH1 0x0 PUSH2 0x1DD1 DUP9 DUP9 DUP8 DUP8 PUSH2 0x32C9 JUMP JUMPDEST SWAP1 POP DUP1 PUSH1 0x1 PUSH1 0x1 PUSH1 0x80 SHL SUB AND DUP3 PUSH1 0x1 PUSH1 0x1 PUSH1 0x80 SHL SUB AND GT ISZERO PUSH2 0x1E3B JUMPI PUSH2 0x1DF8 DUP11 DUP11 DUP5 PUSH2 0x338C JUMP JUMPDEST PUSH1 0xA DUP1 SLOAD PUSH1 0x2 DUP13 DUP2 SIGNEXTEND PUSH3 0xFFFFFF SWAP1 DUP2 AND PUSH1 0x1 PUSH1 0xD0 SHL MUL PUSH3 0xFFFFFF PUSH1 0xD0 SHL NOT SWAP3 DUP15 SWAP1 SIGNEXTEND SWAP1 SWAP2 AND PUSH1 0x1 PUSH1 0xE8 SHL MUL PUSH1 0x1 PUSH1 0x1 PUSH1 0xE8 SHL SUB SWAP1 SWAP4 AND SWAP3 SWAP1 SWAP3 OR AND OR SWAP1 SSTORE PUSH2 0x1E85 JUMP JUMPDEST PUSH2 0x1E46 DUP9 DUP9 DUP4 PUSH2 0x338C JUMP JUMPDEST PUSH1 0xA DUP1 SLOAD PUSH1 0x2 DUP11 DUP2 SIGNEXTEND PUSH3 0xFFFFFF SWAP1 DUP2 AND PUSH1 0x1 PUSH1 0xD0 SHL MUL PUSH3 0xFFFFFF PUSH1 0xD0 SHL NOT SWAP3 DUP13 SWAP1 SIGNEXTEND SWAP1 SWAP2 AND PUSH1 0x1 PUSH1 0xE8 SHL MUL PUSH1 0x1 PUSH1 0x1 PUSH1 0xE8 SHL SUB SWAP1 SWAP4 AND SWAP3 SWAP1 SWAP3 OR AND OR SWAP1 SSTORE JUMPDEST POP POP PUSH1 0x1 PUSH1 0x5 SSTORE POP POP POP POP POP POP POP POP POP POP POP POP JUMP JUMPDEST PUSH1 0xA SLOAD PUSH1 0x1 PUSH1 0xB8 SHL SWAP1 DIV PUSH1 0x2 SIGNEXTEND DUP2 JUMP JUMPDEST PUSH1 0x60 PUSH1 0x4 DUP1 SLOAD PUSH2 0x63F SWAP1 PUSH2 0x56E3 JUMP JUMPDEST PUSH1 0xC SLOAD DUP2 JUMP JUMPDEST PUSH1 0x0 DUP1 PUSH2 0x1ECA PUSH2 0x2956 JUMP JUMPDEST PUSH1 0x1 PUSH1 0x1 PUSH1 0xA0 SHL SUB DUP1 DUP3 AND PUSH1 0x0 SWAP1 DUP2 MSTORE PUSH1 0x1 PUSH1 0x20 SWAP1 DUP2 MSTORE PUSH1 0x40 DUP1 DUP4 KECCAK256 SWAP4 DUP10 AND DUP4 MSTORE SWAP3 SWAP1 MSTORE KECCAK256 SLOAD SWAP1 SWAP2 POP DUP4 DUP2 LT ISZERO PUSH2 0x1F13 JUMPI PUSH1 0x40 MLOAD PUSH3 0x461BCD PUSH1 0xE5 SHL DUP2 MSTORE PUSH1 0x4 ADD PUSH2 0x58E SWAP1 PUSH2 0x550F JUMP JUMPDEST PUSH2 0x1F20 DUP3 DUP7 DUP7 DUP5 SUB PUSH2 0x295A JUMP JUMPDEST POP PUSH1 0x1 SWAP5 SWAP4 POP POP POP POP JUMP JUMPDEST PUSH1 0x0 DUP1 PUSH2 0x1F36 PUSH2 0x2956 JUMP JUMPDEST SWAP1 POP PUSH2 0x6DA DUP2 DUP6 DUP6 PUSH2 0x2A52 JUMP JUMPDEST PUSH1 0x0 DUP1 PUSH1 0x0 DUP1 PUSH1 0x0 PUSH2 0x1F55 DUP8 DUP8 PUSH2 0x2FB6 JUMP JUMPDEST SWAP5 POP SWAP5 POP POP POP SWAP3 POP PUSH2 0x1F68 DUP8 DUP8 DUP6 PUSH2 0x33ED JUMP JUMPDEST PUSH1 0x6 SLOAD SWAP2 SWAP7 POP SWAP5 POP PUSH1 0x0 SWAP1 PUSH2 0x1F81 SWAP1 PUSH3 0xF4240 SWAP1 PUSH2 0x28F4 JUMP JUMPDEST SWAP1 POP PUSH2 0x1FA7 PUSH2 0x1FA0 PUSH3 0xF4240 PUSH2 0xB0E PUSH1 0x1 PUSH1 0x1 PUSH1 0x80 SHL SUB DUP8 AND DUP6 PUSH2 0x2DA6 JUMP JUMPDEST DUP8 SWAP1 PUSH2 0x2D9A JUMP JUMPDEST SWAP6 POP PUSH2 0x1FCD PUSH2 0x1FC6 PUSH3 0xF4240 PUSH2 0xB0E PUSH1 0x1 PUSH1 0x1 PUSH1 0x80 SHL SUB DUP7 AND DUP6 PUSH2 0x2DA6 JUMP JUMPDEST DUP7 SWAP1 PUSH2 0x2D9A JUMP JUMPDEST SWAP5 POP POP POP POP POP SWAP3 POP SWAP3 SWAP1 POP JUMP JUMPDEST PUSH1 0x9 SLOAD PUSH1 0x1 PUSH1 0x1 PUSH1 0xA0 SHL SUB AND CALLER EQ PUSH2 0x2004 JUMPI PUSH1 0x40 MLOAD PUSH3 0x461BCD PUSH1 0xE5 SHL DUP2 MSTORE PUSH1 0x4 ADD PUSH2 0x58E SWAP1 PUSH2 0x5265 JUMP JUMPDEST PUSH1 0xA DUP1 SLOAD PUSH1 0x1 PUSH1 0x1 PUSH1 0xA0 SHL SUB NOT AND PUSH1 0x1 PUSH1 0x1 PUSH1 0xA0 SHL SUB SWAP3 SWAP1 SWAP3 AND SWAP2 SWAP1 SWAP2 OR SWAP1 SSTORE JUMP JUMPDEST PUSH1 0x9 SLOAD PUSH1 0x1 PUSH1 0x1 PUSH1 0xA0 SHL SUB AND CALLER EQ PUSH2 0x2050 JUMPI PUSH1 0x40 MLOAD PUSH3 0x461BCD PUSH1 0xE5 SHL DUP2 MSTORE PUSH1 0x4 ADD PUSH2 0x58E SWAP1 PUSH2 0x5265 JUMP JUMPDEST PUSH1 0x40 MLOAD PUSH4 0xA34123A7 PUSH1 0xE0 SHL DUP2 MSTORE PUSH1 0x1 PUSH1 0x1 PUSH1 0xA0 SHL SUB PUSH32 0x0 AND SWAP1 PUSH4 0xA34123A7 SWAP1 PUSH2 0x20A0 SWAP1 DUP7 SWAP1 DUP7 SWAP1 DUP7 SWAP1 PUSH1 0x4 ADD PUSH2 0x4DE9 JUMP JUMPDEST PUSH1 0x40 DUP1 MLOAD DUP1 DUP4 SUB DUP2 PUSH1 0x0 DUP8 DUP1 EXTCODESIZE ISZERO DUP1 ISZERO PUSH2 0x20B9 JUMPI PUSH1 0x0 DUP1 REVERT JUMPDEST POP GAS CALL ISZERO DUP1 ISZERO PUSH2 0x20CD JUMPI RETURNDATASIZE PUSH1 0x0 DUP1 RETURNDATACOPY RETURNDATASIZE PUSH1 0x0 REVERT JUMPDEST POP POP POP POP PUSH1 0x40 MLOAD RETURNDATASIZE PUSH1 0x1F NOT PUSH1 0x1F DUP3 ADD AND DUP3 ADD DUP1 PUSH1 0x40 MSTORE POP DUP2 ADD SWAP1 PUSH2 0x20F1 SWAP2 SWAP1 PUSH2 0x48F0 JUMP JUMPDEST POP POP PUSH1 0x40 MLOAD PUSH4 0x9E3D67B PUSH1 0xE3 SHL DUP2 MSTORE PUSH1 0x1 PUSH1 0x1 PUSH1 0xA0 SHL SUB PUSH32 0x0 AND SWAP1 PUSH4 0x4F1EB3D8 SWAP1 PUSH2 0x214E SWAP1 ADDRESS SWAP1 DUP8 SWAP1 DUP8 SWAP1 PUSH1 0x1 PUSH1 0x1 PUSH1 0x80 SHL SUB SWAP1 DUP2 SWAP1 PUSH1 0x4 ADD PUSH2 0x4D71 JUMP JUMPDEST PUSH1 0x40 DUP1 MLOAD DUP1 DUP4 SUB DUP2 PUSH1 0x0 DUP8 DUP1 EXTCODESIZE ISZERO DUP1 ISZERO PUSH2 0x2167 JUMPI PUSH1 0x0 DUP1 REVERT JUMPDEST POP GAS CALL ISZERO DUP1 ISZERO PUSH2 0x217B JUMPI RETURNDATASIZE PUSH1 0x0 DUP1 RETURNDATACOPY RETURNDATASIZE PUSH1 0x0 REVERT JUMPDEST POP POP POP POP PUSH1 0x40 MLOAD RETURNDATASIZE PUSH1 0x1F NOT PUSH1 0x1F DUP3 ADD AND DUP3 ADD DUP1 PUSH1 0x40 MSTORE POP DUP2 ADD SWAP1 PUSH2 0x219F SWAP2 SWAP1 PUSH2 0x4A03 JUMP JUMPDEST POP POP POP POP POP JUMP JUMPDEST PUSH1 0x6 SLOAD DUP2 JUMP JUMPDEST PUSH1 0x9 SLOAD PUSH1 0x1 PUSH1 0x1 PUSH1 0xA0 SHL SUB AND CALLER EQ PUSH2 0x21D6 JUMPI PUSH1 0x40 MLOAD PUSH3 0x461BCD PUSH1 0xE5 SHL DUP2 MSTORE PUSH1 0x4 ADD PUSH2 0x58E SWAP1 PUSH2 0x5265 JUMP JUMPDEST PUSH1 0x8 DUP1 SLOAD PUSH1 0x1 PUSH1 0x1 PUSH1 0xA0 SHL SUB NOT AND PUSH1 0x1 PUSH1 0x1 PUSH1 0xA0 SHL SUB SWAP3 SWAP1 SWAP3 AND SWAP2 SWAP1 SWAP2 OR SWAP1 SSTORE JUMP JUMPDEST PUSH1 0xA SLOAD PUSH1 0x0 SWAP1 DUP2 SWAP1 DUP2 SWAP1 DUP2 SWAP1 PUSH2 0x2223 SWAP1 PUSH1 0x1 PUSH1 0xA0 SHL DUP2 DIV PUSH1 0x2 SWAP1 DUP2 SIGNEXTEND SWAP2 PUSH1 0x1 PUSH1 0xB8 SHL SWAP1 DIV SWAP1 SIGNEXTEND PUSH2 0x1F43 JUMP JUMPDEST PUSH1 0xA SLOAD SWAP2 SWAP4 POP SWAP2 POP PUSH1 0x0 SWAP1 DUP2 SWAP1 PUSH2 0x224F SWAP1 PUSH1 0x1 PUSH1 0xD0 SHL DUP2 DIV PUSH1 0x2 SWAP1 DUP2 SIGNEXTEND SWAP2 PUSH1 0x1 PUSH1 0xE8 SHL SWAP1 DIV SWAP1 SIGNEXTEND PUSH2 0x1F43 JUMP JUMPDEST SWAP2 POP SWAP2 POP PUSH2 0x2263 DUP3 PUSH2 0xE20 DUP7 PUSH2 0xE20 PUSH2 0x1929 JUMP JUMPDEST SWAP6 POP PUSH2 0x2275 DUP2 PUSH2 0xE20 DUP6 PUSH2 0xE20 PUSH2 0x185B JUMP JUMPDEST SWAP5 POP POP POP POP POP SWAP1 SWAP2 JUMP JUMPDEST PUSH32 0x0 DUP2 JUMP JUMPDEST PUSH32 0x0 DUP2 JUMP JUMPDEST CALLER PUSH1 0x1 PUSH1 0x1 PUSH1 0xA0 SHL SUB PUSH32 0x0 AND EQ PUSH2 0x22FC JUMPI PUSH1 0x0 DUP1 REVERT JUMPDEST DUP4 ISZERO PUSH2 0x2336 JUMPI PUSH2 0x2336 PUSH1 0x1 PUSH1 0x1 PUSH1 0xA0 SHL SUB PUSH32 0x0 AND CALLER DUP7 PUSH2 0x2900 JUMP JUMPDEST DUP3 ISZERO PUSH2 0x2370 JUMPI PUSH2 0x2370 PUSH1 0x1 PUSH1 0x1 PUSH1 0xA0 SHL SUB PUSH32 0x0 AND CALLER DUP6 PUSH2 0x2900 JUMP JUMPDEST POP POP POP POP JUMP JUMPDEST PUSH32 0x0 DUP2 JUMP JUMPDEST PUSH1 0x9 SLOAD PUSH1 0x1 PUSH1 0x1 PUSH1 0xA0 SHL SUB AND CALLER EQ PUSH2 0x23C4 JUMPI PUSH1 0x40 MLOAD PUSH3 0x461BCD PUSH1 0xE5 SHL DUP2 MSTORE PUSH1 0x4 ADD PUSH2 0x58E SWAP1 PUSH2 0x5265 JUMP JUMPDEST PUSH32 0x0 PUSH1 0x1 PUSH1 0x1 PUSH1 0xA0 SHL SUB AND DUP4 PUSH1 0x1 PUSH1 0x1 PUSH1 0xA0 SHL SUB AND EQ ISZERO DUP1 ISZERO PUSH2 0x2438 JUMPI POP PUSH32 0x0 PUSH1 0x1 PUSH1 0x1 PUSH1 0xA0 SHL SUB AND DUP4 PUSH1 0x1 PUSH1 0x1 PUSH1 0xA0 SHL SUB AND EQ ISZERO JUMPDEST PUSH2 0x2454 JUMPI PUSH1 0x40 MLOAD PUSH3 0x461BCD PUSH1 0xE5 SHL DUP2 MSTORE PUSH1 0x4 ADD PUSH2 0x58E SWAP1 PUSH2 0x51E9 JUMP JUMPDEST PUSH2 0x62B PUSH1 0x1 PUSH1 0x1 PUSH1 0xA0 SHL SUB DUP5 AND DUP3 DUP5 PUSH2 0x2900 JUMP JUMPDEST PUSH1 0x1 PUSH1 0x1 PUSH1 0xA0 SHL SUB SWAP2 DUP3 AND PUSH1 0x0 SWAP1 DUP2 MSTORE PUSH1 0x1 PUSH1 0x20 SWAP1 DUP2 MSTORE PUSH1 0x40 DUP1 DUP4 KECCAK256 SWAP4 SWAP1 SWAP5 AND DUP3 MSTORE SWAP2 SWAP1 SWAP2 MSTORE KECCAK256 SLOAD SWAP1 JUMP JUMPDEST PUSH1 0x0 DUP1 PUSH1 0x2 PUSH1 0x5 SLOAD EQ ISZERO PUSH2 0x24B9 JUMPI PUSH1 0x40 MLOAD PUSH3 0x461BCD PUSH1 0xE5 SHL DUP2 MSTORE PUSH1 0x4 ADD PUSH2 0x58E SWAP1 PUSH2 0x54D8 JUMP JUMPDEST PUSH1 0x2 PUSH1 0x5 SSTORE DUP8 PUSH2 0x24DB JUMPI PUSH1 0x40 MLOAD PUSH3 0x461BCD PUSH1 0xE5 SHL DUP2 MSTORE PUSH1 0x4 ADD PUSH2 0x58E SWAP1 PUSH2 0x5289 JUMP JUMPDEST PUSH1 0x1 PUSH1 0x1 PUSH1 0xA0 SHL SUB DUP6 AND ISZERO DUP1 ISZERO SWAP1 PUSH2 0x24FC JUMPI POP PUSH1 0x1 PUSH1 0x1 PUSH1 0xA0 SHL SUB DUP6 AND ADDRESS EQ ISZERO JUMPDEST PUSH2 0x2518 JUMPI PUSH1 0x40 MLOAD PUSH3 0x461BCD PUSH1 0xE5 SHL DUP2 MSTORE PUSH1 0x4 ADD PUSH2 0x58E SWAP1 PUSH2 0x4F0B JUMP JUMPDEST PUSH1 0x0 PUSH2 0x2522 PUSH2 0x74D JUMP JUMPDEST SWAP1 POP PUSH2 0x252E CALLER DUP11 PUSH2 0x34B4 JUMP JUMPDEST PUSH2 0x2538 DUP10 DUP3 PUSH2 0x35A5 JUMP JUMPDEST SWAP1 SWAP4 POP SWAP2 POP DUP5 DUP1 ISZERO PUSH2 0x2548 JUMPI POP DUP4 ISZERO JUMPDEST ISZERO PUSH2 0x2618 JUMPI PUSH1 0x0 PUSH2 0x255A DUP4 PUSH1 0x1 PUSH2 0x3660 JUMP JUMPDEST SWAP1 POP PUSH2 0x2566 DUP5 DUP3 PUSH2 0x2D9A JUMP JUMPDEST SWAP4 POP DUP9 DUP5 LT ISZERO PUSH2 0x2588 JUMPI PUSH1 0x40 MLOAD PUSH3 0x461BCD PUSH1 0xE5 SHL DUP2 MSTORE PUSH1 0x4 ADD PUSH2 0x58E SWAP1 PUSH2 0x4EA5 JUMP JUMPDEST DUP4 ISZERO PUSH2 0x25C2 JUMPI PUSH2 0x25C2 PUSH1 0x1 PUSH1 0x1 PUSH1 0xA0 SHL SUB PUSH32 0x0 AND DUP9 DUP7 PUSH2 0x2900 JUMP JUMPDEST DUP7 PUSH1 0x1 PUSH1 0x1 PUSH1 0xA0 SHL SUB AND CALLER PUSH1 0x1 PUSH1 0x1 PUSH1 0xA0 SHL SUB AND PUSH32 0xEBFF2602B3F468259E1E99F613FED6691F3A6526EFFE6EF3E768BA7AE7A36C4F DUP13 DUP8 PUSH1 0x0 PUSH1 0x40 MLOAD PUSH2 0x260A SWAP4 SWAP3 SWAP2 SWAP1 PUSH2 0x55E0 JUMP JUMPDEST PUSH1 0x40 MLOAD DUP1 SWAP2 SUB SWAP1 LOG3 POP PUSH2 0x27E9 JUMP JUMPDEST DUP4 DUP1 ISZERO PUSH2 0x2623 JUMPI POP DUP5 ISZERO JUMPDEST ISZERO PUSH2 0x26E5 JUMPI PUSH1 0x0 PUSH2 0x2635 DUP5 PUSH1 0x0 PUSH2 0x3660 JUMP JUMPDEST SWAP1 POP PUSH2 0x2641 DUP4 DUP3 PUSH2 0x2D9A JUMP JUMPDEST SWAP3 POP DUP8 DUP4 LT ISZERO PUSH2 0x2663 JUMPI PUSH1 0x40 MLOAD PUSH3 0x461BCD PUSH1 0xE5 SHL DUP2 MSTORE PUSH1 0x4 ADD PUSH2 0x58E SWAP1 PUSH2 0x534E JUMP JUMPDEST DUP3 ISZERO PUSH2 0x269D JUMPI PUSH2 0x269D PUSH1 0x1 PUSH1 0x1 PUSH1 0xA0 SHL SUB PUSH32 0x0 AND DUP9 DUP6 PUSH2 0x2900 JUMP JUMPDEST DUP7 PUSH1 0x1 PUSH1 0x1 PUSH1 0xA0 SHL SUB AND CALLER PUSH1 0x1 PUSH1 0x1 PUSH1 0xA0 SHL SUB AND PUSH32 0xEBFF2602B3F468259E1E99F613FED6691F3A6526EFFE6EF3E768BA7AE7A36C4F DUP13 PUSH1 0x0 DUP8 PUSH1 0x40 MLOAD PUSH2 0x260A SWAP4 SWAP3 SWAP2 SWAP1 PUSH2 0x55E0 JUMP JUMPDEST DUP8 DUP4 LT ISZERO PUSH2 0x2705 JUMPI PUSH1 0x40 MLOAD PUSH3 0x461BCD PUSH1 0xE5 SHL DUP2 MSTORE PUSH1 0x4 ADD PUSH2 0x58E SWAP1 PUSH2 0x4EA5 JUMP JUMPDEST DUP7 DUP3 LT ISZERO PUSH2 0x2725 JUMPI PUSH1 0x40 MLOAD PUSH3 0x461BCD PUSH1 0xE5 SHL DUP2 MSTORE PUSH1 0x4 ADD PUSH2 0x58E SWAP1 PUSH2 0x534E JUMP JUMPDEST DUP3 ISZERO PUSH2 0x275F JUMPI PUSH2 0x275F PUSH1 0x1 PUSH1 0x1 PUSH1 0xA0 SHL SUB PUSH32 0x0 AND DUP8 DUP6 PUSH2 0x2900 JUMP JUMPDEST DUP2 ISZERO PUSH2 0x2799 JUMPI PUSH2 0x2799 PUSH1 0x1 PUSH1 0x1 PUSH1 0xA0 SHL SUB PUSH32 0x0 AND DUP8 DUP5 PUSH2 0x2900 JUMP JUMPDEST DUP6 PUSH1 0x1 PUSH1 0x1 PUSH1 0xA0 SHL SUB AND CALLER PUSH1 0x1 PUSH1 0x1 PUSH1 0xA0 SHL SUB AND PUSH32 0xEBFF2602B3F468259E1E99F613FED6691F3A6526EFFE6EF3E768BA7AE7A36C4F DUP12 DUP7 DUP7 PUSH1 0x40 MLOAD PUSH2 0x27E0 SWAP4 SWAP3 SWAP2 SWAP1 PUSH2 0x55E0 JUMP JUMPDEST PUSH1 0x40 MLOAD DUP1 SWAP2 SUB SWAP1 LOG3 JUMPDEST POP PUSH1 0x1 PUSH1 0x5 SSTORE SWAP1 SWAP8 SWAP1 SWAP7 POP SWAP5 POP POP POP POP POP JUMP JUMPDEST PUSH1 0xB SLOAD DUP2 JUMP JUMPDEST PUSH1 0xA SLOAD PUSH1 0x1 PUSH1 0x1 PUSH1 0xA0 SHL SUB AND DUP2 JUMP JUMPDEST PUSH32 0x0 DUP2 JUMP JUMPDEST PUSH1 0xA SLOAD PUSH1 0x1 PUSH1 0xA0 SHL SWAP1 DIV PUSH1 0x2 SIGNEXTEND DUP2 JUMP JUMPDEST CALLER PUSH1 0x1 PUSH1 0x1 PUSH1 0xA0 SHL SUB PUSH32 0x0 AND EQ PUSH2 0x287A JUMPI PUSH1 0x0 DUP1 REVERT JUMPDEST PUSH1 0x0 DUP5 SGT ISZERO PUSH2 0x28B7 JUMPI PUSH2 0x28B7 PUSH1 0x1 PUSH1 0x1 PUSH1 0xA0 SHL SUB PUSH32 0x0 AND CALLER DUP7 PUSH2 0x2900 JUMP JUMPDEST PUSH1 0x0 DUP4 SGT ISZERO PUSH2 0x2370 JUMPI PUSH2 0x2370 PUSH1 0x1 PUSH1 0x1 PUSH1 0xA0 SHL SUB PUSH32 0x0 AND CALLER DUP6 PUSH2 0x2900 JUMP JUMPDEST PUSH1 0x0 PUSH2 0x7BA DUP3 DUP5 PUSH2 0x56A0 JUMP JUMPDEST PUSH2 0x62B DUP4 PUSH4 0xA9059CBB PUSH1 0xE0 SHL DUP5 DUP5 PUSH1 0x40 MLOAD PUSH1 0x24 ADD PUSH2 0x291F SWAP3 SWAP2 SWAP1 PUSH2 0x4DAE JUMP JUMPDEST PUSH1 0x40 DUP1 MLOAD PUSH1 0x1F NOT DUP2 DUP5 SUB ADD DUP2 MSTORE SWAP2 SWAP1 MSTORE PUSH1 0x20 DUP2 ADD DUP1 MLOAD PUSH1 0x1 PUSH1 0x1 PUSH1 0xE0 SHL SUB AND PUSH1 0x1 PUSH1 0x1 PUSH1 0xE0 SHL SUB NOT SWAP1 SWAP4 AND SWAP3 SWAP1 SWAP3 OR SWAP1 SWAP2 MSTORE PUSH2 0x3B53 JUMP JUMPDEST CALLER SWAP1 JUMP JUMPDEST PUSH1 0x1 PUSH1 0x1 PUSH1 0xA0 SHL SUB DUP4 AND PUSH2 0x2980 JUMPI PUSH1 0x40 MLOAD PUSH3 0x461BCD PUSH1 0xE5 SHL DUP2 MSTORE PUSH1 0x4 ADD PUSH2 0x58E SWAP1 PUSH2 0x53BF JUMP JUMPDEST PUSH1 0x1 PUSH1 0x1 PUSH1 0xA0 SHL SUB DUP3 AND PUSH2 0x29A6 JUMPI PUSH1 0x40 MLOAD PUSH3 0x461BCD PUSH1 0xE5 SHL DUP2 MSTORE PUSH1 0x4 ADD PUSH2 0x58E SWAP1 PUSH2 0x4F56 JUMP JUMPDEST PUSH1 0x1 PUSH1 0x1 PUSH1 0xA0 SHL SUB DUP1 DUP5 AND PUSH1 0x0 DUP2 DUP2 MSTORE PUSH1 0x1 PUSH1 0x20 SWAP1 DUP2 MSTORE PUSH1 0x40 DUP1 DUP4 KECCAK256 SWAP5 DUP8 AND DUP1 DUP5 MSTORE SWAP5 SWAP1 SWAP2 MSTORE SWAP1 DUP2 SWAP1 KECCAK256 DUP5 SWAP1 SSTORE MLOAD PUSH32 0x8C5BE1E5EBEC7D5BD14F71427D1E84F3DD0314C0F7B2291E5B200AC8C7C3B925 SWAP1 PUSH2 0x2A01 SWAP1 DUP6 SWAP1 PUSH2 0x4DD2 JUMP JUMPDEST PUSH1 0x40 MLOAD DUP1 SWAP2 SUB SWAP1 LOG3 POP POP POP JUMP JUMPDEST PUSH1 0x0 PUSH2 0x2A1A DUP5 DUP5 PUSH2 0x2468 JUMP JUMPDEST SWAP1 POP PUSH1 0x0 NOT DUP2 EQ PUSH2 0x2370 JUMPI DUP2 DUP2 LT ISZERO PUSH2 0x2A45 JUMPI PUSH1 0x40 MLOAD PUSH3 0x461BCD PUSH1 0xE5 SHL DUP2 MSTORE PUSH1 0x4 ADD PUSH2 0x58E SWAP1 PUSH2 0x4FF6 JUMP JUMPDEST PUSH2 0x2370 DUP5 DUP5 DUP5 DUP5 SUB PUSH2 0x295A JUMP JUMPDEST PUSH1 0x1 PUSH1 0x1 PUSH1 0xA0 SHL SUB DUP4 AND PUSH2 0x2A78 JUMPI PUSH1 0x40 MLOAD PUSH3 0x461BCD PUSH1 0xE5 SHL DUP2 MSTORE PUSH1 0x4 ADD PUSH2 0x58E SWAP1 PUSH2 0x5309 JUMP JUMPDEST PUSH1 0x1 PUSH1 0x1 PUSH1 0xA0 SHL SUB DUP3 AND PUSH2 0x2A9E JUMPI PUSH1 0x40 MLOAD PUSH3 0x461BCD PUSH1 0xE5 SHL DUP2 MSTORE PUSH1 0x4 ADD PUSH2 0x58E SWAP1 PUSH2 0x4E62 JUMP JUMPDEST PUSH2 0x2AA9 DUP4 DUP4 DUP4 PUSH2 0x62B JUMP JUMPDEST PUSH1 0x1 PUSH1 0x1 PUSH1 0xA0 SHL SUB DUP4 AND PUSH1 0x0 SWAP1 DUP2 MSTORE PUSH1 0x20 DUP2 SWAP1 MSTORE PUSH1 0x40 SWAP1 KECCAK256 SLOAD DUP2 DUP2 LT ISZERO PUSH2 0x2AE2 JUMPI PUSH1 0x40 MLOAD PUSH3 0x461BCD PUSH1 0xE5 SHL DUP2 MSTORE PUSH1 0x4 ADD PUSH2 0x58E SWAP1 PUSH2 0x5064 JUMP JUMPDEST PUSH1 0x1 PUSH1 0x1 PUSH1 0xA0 SHL SUB DUP1 DUP6 AND PUSH1 0x0 SWAP1 DUP2 MSTORE PUSH1 0x20 DUP2 SWAP1 MSTORE PUSH1 0x40 DUP1 DUP3 KECCAK256 DUP6 DUP6 SUB SWAP1 SSTORE SWAP2 DUP6 AND DUP2 MSTORE SWAP1 DUP2 KECCAK256 DUP1 SLOAD DUP5 SWAP3 SWAP1 PUSH2 0x2B19 SWAP1 DUP5 SWAP1 PUSH2 0x562D JUMP JUMPDEST SWAP3 POP POP DUP2 SWAP1 SSTORE POP DUP3 PUSH1 0x1 PUSH1 0x1 PUSH1 0xA0 SHL SUB AND DUP5 PUSH1 0x1 PUSH1 0x1 PUSH1 0xA0 SHL SUB AND PUSH32 0xDDF252AD1BE2C89B69C2B068FC378DAA952BA7F163C4A11628F55A4DF523B3EF DUP5 PUSH1 0x40 MLOAD PUSH2 0x2B63 SWAP2 SWAP1 PUSH2 0x4DD2 JUMP JUMPDEST PUSH1 0x40 MLOAD DUP1 SWAP2 SUB SWAP1 LOG3 PUSH2 0x2370 DUP5 DUP5 DUP5 PUSH2 0x62B JUMP JUMPDEST PUSH1 0x0 PUSH2 0x2B82 DUP4 DUP4 PUSH2 0x2FB6 JUMP JUMPDEST POP POP POP POP SWAP1 POP PUSH1 0x0 DUP2 PUSH1 0x1 PUSH1 0x1 PUSH1 0x80 SHL SUB AND GT ISZERO PUSH2 0x62B JUMPI PUSH1 0x40 MLOAD PUSH4 0xA34123A7 PUSH1 0xE0 SHL DUP2 MSTORE PUSH1 0x1 PUSH1 0x1 PUSH1 0xA0 SHL SUB PUSH32 0x0 AND SWAP1 PUSH4 0xA34123A7 SWAP1 PUSH2 0x2BEB SWAP1 DUP7 SWAP1 DUP7 SWAP1 PUSH1 0x0 SWAP1 PUSH1 0x4 ADD PUSH2 0x4DE9 JUMP JUMPDEST PUSH1 0x40 DUP1 MLOAD DUP1 DUP4 SUB DUP2 PUSH1 0x0 DUP8 DUP1 EXTCODESIZE ISZERO DUP1 ISZERO PUSH2 0x2C04 JUMPI PUSH1 0x0 DUP1 REVERT JUMPDEST POP GAS CALL ISZERO DUP1 ISZERO PUSH2 0x2C18 JUMPI RETURNDATASIZE PUSH1 0x0 DUP1 RETURNDATACOPY RETURNDATASIZE PUSH1 0x0 REVERT JUMPDEST POP POP POP POP PUSH1 0x40 MLOAD RETURNDATASIZE PUSH1 0x1F NOT PUSH1 0x1F DUP3 ADD AND DUP3 ADD DUP1 PUSH1 0x40 MSTORE POP DUP2 ADD SWAP1 PUSH2 0x219F SWAP2 SWAP1 PUSH2 0x48F0 JUMP JUMPDEST PUSH1 0x0 DUP1 PUSH1 0x0 DUP1 PUSH2 0x2C4A PUSH2 0x74D JUMP JUMPDEST SWAP1 POP PUSH1 0x0 DUP1 PUSH2 0x2C57 PUSH2 0x21F8 JUMP JUMPDEST SWAP2 POP SWAP2 POP DUP3 PUSH1 0x0 EQ DUP1 PUSH2 0x2C6A JUMPI POP PUSH1 0x0 DUP3 GT JUMPDEST DUP1 PUSH2 0x2C75 JUMPI POP PUSH1 0x0 DUP2 GT JUMPDEST PUSH2 0x2C8F JUMPI PUSH4 0x4E487B71 PUSH1 0xE0 SHL PUSH1 0x0 MSTORE PUSH1 0x1 PUSH1 0x4 MSTORE PUSH1 0x24 PUSH1 0x0 REVERT JUMPDEST DUP3 PUSH2 0x2CAB JUMPI DUP8 SWAP5 POP DUP7 SWAP4 POP PUSH2 0x2CA4 DUP6 DUP6 PUSH2 0x3BE2 JUMP JUMPDEST SWAP6 POP PUSH2 0x2D90 JUMP JUMPDEST DUP2 PUSH2 0x2CC1 JUMPI DUP7 SWAP4 POP PUSH2 0x2CA4 DUP2 PUSH2 0xB0E DUP7 DUP7 PUSH2 0x2DA6 JUMP JUMPDEST DUP1 PUSH2 0x2CD7 JUMPI DUP8 SWAP5 POP PUSH2 0x2CA4 DUP3 PUSH2 0xB0E DUP8 DUP7 PUSH2 0x2DA6 JUMP JUMPDEST PUSH1 0x0 DUP9 GT DUP1 PUSH2 0x2CE6 JUMPI POP PUSH1 0x0 DUP8 GT JUMPDEST PUSH2 0x2D02 JUMPI PUSH1 0x40 MLOAD PUSH3 0x461BCD PUSH1 0xE5 SHL DUP2 MSTORE PUSH1 0x4 ADD PUSH2 0x58E SWAP1 PUSH2 0x5208 JUMP JUMPDEST PUSH1 0x0 PUSH2 0x2D1B PUSH2 0x2D11 DUP11 DUP5 PUSH2 0x2DA6 JUMP JUMPDEST PUSH2 0xDE6 DUP11 DUP7 PUSH2 0x2DA6 JUMP JUMPDEST SWAP1 POP DUP1 PUSH2 0x2D31 JUMPI DUP9 SWAP6 POP DUP8 SWAP5 POP PUSH1 0x0 SWAP7 POP PUSH2 0x2D8E JUMP JUMPDEST PUSH1 0x0 DUP2 GT PUSH2 0x2D51 JUMPI PUSH1 0x40 MLOAD PUSH3 0x461BCD PUSH1 0xE5 SHL DUP2 MSTORE PUSH1 0x4 ADD PUSH2 0x58E SWAP1 PUSH2 0x52EA JUMP JUMPDEST PUSH2 0x2D64 PUSH1 0x1 PUSH2 0xE20 DUP5 PUSH2 0xB0E DUP6 DUP5 PUSH2 0x28F4 JUMP JUMPDEST SWAP6 POP PUSH2 0x2D79 PUSH1 0x1 PUSH2 0xE20 DUP6 PUSH2 0xB0E DUP6 DUP5 PUSH2 0x28F4 JUMP JUMPDEST SWAP5 POP PUSH2 0x2D8B DUP3 PUSH2 0xB0E DUP6 DUP2 DUP6 DUP10 PUSH2 0x2DA6 JUMP JUMPDEST SWAP7 POP JUMPDEST POP JUMPDEST POP POP POP SWAP3 POP SWAP3 POP SWAP3 JUMP JUMPDEST PUSH1 0x0 PUSH2 0x7BA DUP3 DUP5 PUSH2 0x562D JUMP JUMPDEST PUSH1 0x0 PUSH2 0x7BA DUP3 DUP5 PUSH2 0x5659 JUMP JUMPDEST PUSH1 0x0 PUSH2 0x7BA DUP3 DUP5 PUSH2 0x5645 JUMP JUMPDEST PUSH2 0x2370 DUP5 PUSH4 0x23B872DD PUSH1 0xE0 SHL DUP6 DUP6 DUP6 PUSH1 0x40 MLOAD PUSH1 0x24 ADD PUSH2 0x291F SWAP4 SWAP3 SWAP2 SWAP1 PUSH2 0x4CD1 JUMP JUMPDEST PUSH1 0x0 DUP2 DUP4 LT PUSH2 0x2DEE JUMPI DUP2 PUSH2 0x7BA JUMP JUMPDEST POP SWAP1 SWAP2 SWAP1 POP JUMP JUMPDEST PUSH1 0x1 PUSH1 0x1 PUSH1 0xA0 SHL SUB DUP3 AND PUSH2 0x2E1B JUMPI PUSH1 0x40 MLOAD PUSH3 0x461BCD PUSH1 0xE5 SHL DUP2 MSTORE PUSH1 0x4 ADD PUSH2 0x58E SWAP1 PUSH2 0x5554 JUMP JUMPDEST PUSH2 0x2E27 PUSH1 0x0 DUP4 DUP4 PUSH2 0x62B JUMP JUMPDEST DUP1 PUSH1 0x2 PUSH1 0x0 DUP3 DUP3 SLOAD PUSH2 0x2E39 SWAP2 SWAP1 PUSH2 0x562D JUMP JUMPDEST SWAP1 SWAP2 SSTORE POP POP PUSH1 0x1 PUSH1 0x1 PUSH1 0xA0 SHL SUB DUP3 AND PUSH1 0x0 SWAP1 DUP2 MSTORE PUSH1 0x20 DUP2 SWAP1 MSTORE PUSH1 0x40 DUP2 KECCAK256 DUP1 SLOAD DUP4 SWAP3 SWAP1 PUSH2 0x2E66 SWAP1 DUP5 SWAP1 PUSH2 0x562D JUMP JUMPDEST SWAP1 SWAP2 SSTORE POP POP PUSH1 0x40 MLOAD PUSH1 0x1 PUSH1 0x1 PUSH1 0xA0 SHL SUB DUP4 AND SWAP1 PUSH1 0x0 SWAP1 PUSH32 0xDDF252AD1BE2C89B69C2B068FC378DAA952BA7F163C4A11628F55A4DF523B3EF SWAP1 PUSH2 0x2EA9 SWAP1 DUP6 SWAP1 PUSH2 0x4DD2 JUMP JUMPDEST PUSH1 0x40 MLOAD DUP1 SWAP2 SUB SWAP1 LOG3 PUSH2 0x2EBD PUSH1 0x0 DUP4 DUP4 PUSH2 0x62B JUMP JUMPDEST POP POP JUMP JUMPDEST PUSH32 0x0 PUSH1 0x2 DUP3 DUP2 SIGNEXTEND SWAP1 DUP5 SWAP1 SIGNEXTEND SLT PUSH2 0x2F08 JUMPI PUSH1 0x40 MLOAD PUSH3 0x461BCD PUSH1 0xE5 SHL DUP2 MSTORE PUSH1 0x4 ADD PUSH2 0x58E SWAP1 PUSH2 0x4F27 JUMP JUMPDEST PUSH3 0xD89E7 NOT PUSH1 0x2 DUP5 SWAP1 SIGNEXTEND SLT ISZERO PUSH2 0x2F30 JUMPI PUSH1 0x40 MLOAD PUSH3 0x461BCD PUSH1 0xE5 SHL DUP2 MSTORE PUSH1 0x4 ADD PUSH2 0x58E SWAP1 PUSH2 0x5394 JUMP JUMPDEST PUSH2 0x2F3D PUSH3 0xD89E7 NOT PUSH2 0x5754 JUMP JUMPDEST PUSH1 0x2 SIGNEXTEND DUP3 PUSH1 0x2 SIGNEXTEND SGT ISZERO PUSH2 0x2F62 JUMPI PUSH1 0x40 MLOAD PUSH3 0x461BCD PUSH1 0xE5 SHL DUP2 MSTORE PUSH1 0x4 ADD PUSH2 0x58E SWAP1 PUSH2 0x5403 JUMP JUMPDEST PUSH2 0x2F6C DUP2 DUP5 PUSH2 0x571E JUMP JUMPDEST PUSH1 0x2 SIGNEXTEND ISZERO PUSH2 0x2F8C JUMPI PUSH1 0x40 MLOAD PUSH3 0x461BCD PUSH1 0xE5 SHL DUP2 MSTORE PUSH1 0x4 ADD PUSH2 0x58E SWAP1 PUSH2 0x4F98 JUMP JUMPDEST PUSH2 0x2F96 DUP2 DUP4 PUSH2 0x571E JUMP JUMPDEST PUSH1 0x2 SIGNEXTEND ISZERO PUSH2 0x62B JUMPI PUSH1 0x40 MLOAD PUSH3 0x461BCD PUSH1 0xE5 SHL DUP2 MSTORE PUSH1 0x4 ADD PUSH2 0x58E SWAP1 PUSH2 0x502D JUMP JUMPDEST PUSH1 0x0 DUP1 PUSH1 0x0 DUP1 PUSH1 0x0 DUP1 PUSH2 0x2FCA ADDRESS DUP10 DUP10 PUSH2 0x3BF2 JUMP JUMPDEST PUSH1 0x40 MLOAD PUSH4 0x514EA4BF PUSH1 0xE0 SHL DUP2 MSTORE SWAP1 SWAP2 POP PUSH1 0x1 PUSH1 0x1 PUSH1 0xA0 SHL SUB PUSH32 0x0 AND SWAP1 PUSH4 0x514EA4BF SWAP1 PUSH2 0x3019 SWAP1 DUP5 SWAP1 PUSH1 0x4 ADD PUSH2 0x4DD2 JUMP JUMPDEST PUSH1 0xA0 PUSH1 0x40 MLOAD DUP1 DUP4 SUB DUP2 DUP7 DUP1 EXTCODESIZE ISZERO DUP1 ISZERO PUSH2 0x3031 JUMPI PUSH1 0x0 DUP1 REVERT JUMPDEST POP GAS STATICCALL ISZERO DUP1 ISZERO PUSH2 0x3045 JUMPI RETURNDATASIZE PUSH1 0x0 DUP1 RETURNDATACOPY RETURNDATASIZE PUSH1 0x0 REVERT JUMPDEST POP POP POP POP PUSH1 0x40 MLOAD RETURNDATASIZE PUSH1 0x1F NOT PUSH1 0x1F DUP3 ADD AND DUP3 ADD DUP1 PUSH1 0x40 MSTORE POP DUP2 ADD SWAP1 PUSH2 0x3069 SWAP2 SWAP1 PUSH2 0x4A31 JUMP JUMPDEST SWAP4 SWAP13 SWAP3 SWAP12 POP SWAP1 SWAP10 POP SWAP8 POP SWAP1 SWAP6 POP SWAP4 POP POP POP POP JUMP JUMPDEST PUSH1 0x0 DUP1 DUP1 DUP1 PUSH1 0x1 PUSH1 0x1 PUSH1 0x80 SHL SUB DUP6 AND ISZERO PUSH2 0x3138 JUMPI PUSH1 0x40 MLOAD PUSH4 0xA34123A7 PUSH1 0xE0 SHL DUP2 MSTORE PUSH1 0x1 PUSH1 0x1 PUSH1 0xA0 SHL SUB PUSH32 0x0 AND SWAP1 PUSH4 0xA34123A7 SWAP1 PUSH2 0x30E1 SWAP1 DUP11 SWAP1 DUP11 SWAP1 DUP11 SWAP1 PUSH1 0x4 ADD PUSH2 0x4DE9 JUMP JUMPDEST PUSH1 0x40 DUP1 MLOAD DUP1 DUP4 SUB DUP2 PUSH1 0x0 DUP8 DUP1 EXTCODESIZE ISZERO DUP1 ISZERO PUSH2 0x30FA JUMPI PUSH1 0x0 DUP1 REVERT JUMPDEST POP GAS CALL ISZERO DUP1 ISZERO PUSH2 0x310E JUMPI RETURNDATASIZE PUSH1 0x0 DUP1 RETURNDATACOPY RETURNDATASIZE PUSH1 0x0 REVERT JUMPDEST POP POP POP POP PUSH1 0x40 MLOAD RETURNDATASIZE PUSH1 0x1F NOT PUSH1 0x1F DUP3 ADD AND DUP3 ADD DUP1 PUSH1 0x40 MSTORE POP DUP2 ADD SWAP1 PUSH2 0x3132 SWAP2 SWAP1 PUSH2 0x48F0 JUMP JUMPDEST SWAP1 SWAP5 POP SWAP3 POP JUMPDEST PUSH1 0x0 DUP1 PUSH32 0x0 PUSH1 0x1 PUSH1 0x1 PUSH1 0xA0 SHL SUB AND PUSH4 0x4F1EB3D8 ADDRESS DUP12 DUP12 PUSH1 0x1 PUSH1 0x1 PUSH1 0x80 SHL SUB DUP1 PUSH1 0x40 MLOAD DUP7 PUSH4 0xFFFFFFFF AND PUSH1 0xE0 SHL DUP2 MSTORE PUSH1 0x4 ADD PUSH2 0x3196 SWAP6 SWAP5 SWAP4 SWAP3 SWAP2 SWAP1 PUSH2 0x4D71 JUMP JUMPDEST PUSH1 0x40 DUP1 MLOAD DUP1 DUP4 SUB DUP2 PUSH1 0x0 DUP8 DUP1 EXTCODESIZE ISZERO DUP1 ISZERO PUSH2 0x31AF JUMPI PUSH1 0x0 DUP1 REVERT JUMPDEST POP GAS CALL ISZERO DUP1 ISZERO PUSH2 0x31C3 JUMPI RETURNDATASIZE PUSH1 0x0 DUP1 RETURNDATACOPY RETURNDATASIZE PUSH1 0x0 REVERT JUMPDEST POP POP POP POP PUSH1 0x40 MLOAD RETURNDATASIZE PUSH1 0x1F NOT PUSH1 0x1F DUP3 ADD AND DUP3 ADD DUP1 PUSH1 0x40 MSTORE POP DUP2 ADD SWAP1 PUSH2 0x31E7 SWAP2 SWAP1 PUSH2 0x4A03 JUMP JUMPDEST PUSH1 0x1 PUSH1 0x1 PUSH1 0x80 SHL SUB SWAP2 DUP3 AND SWAP4 POP AND SWAP1 POP PUSH2 0x3201 DUP3 DUP8 PUSH2 0x28F4 JUMP JUMPDEST SWAP4 POP PUSH2 0x320D DUP2 DUP7 PUSH2 0x28F4 JUMP JUMPDEST PUSH1 0x6 SLOAD SWAP1 SWAP4 POP PUSH1 0x0 SWAP1 DUP2 SWAP1 DUP1 ISZERO PUSH2 0x327E JUMPI PUSH2 0x322F PUSH3 0xF4240 PUSH2 0xB0E DUP10 DUP5 PUSH2 0x2DA6 JUMP JUMPDEST SWAP3 POP PUSH2 0x3242 PUSH3 0xF4240 PUSH2 0xB0E DUP9 DUP5 PUSH2 0x2DA6 JUMP JUMPDEST SWAP2 POP PUSH2 0x324E DUP8 DUP5 PUSH2 0x28F4 JUMP JUMPDEST SWAP7 POP PUSH2 0x325A DUP7 DUP4 PUSH2 0x28F4 JUMP JUMPDEST PUSH1 0xB SLOAD SWAP1 SWAP7 POP PUSH2 0x326A SWAP1 DUP5 PUSH2 0x2D9A JUMP JUMPDEST PUSH1 0xB SSTORE PUSH1 0xC SLOAD PUSH2 0x327A SWAP1 DUP4 PUSH2 0x2D9A JUMP JUMPDEST PUSH1 0xC SSTORE JUMPDEST PUSH32 0x1AC56D7E866E3F5EA9AA92AA11758EAD39A0A5F013F3FEFB0F47CB9D008EDD27 DUP8 DUP8 DUP6 DUP6 PUSH1 0x40 MLOAD PUSH2 0x32B3 SWAP5 SWAP4 SWAP3 SWAP2 SWAP1 PUSH2 0x5604 JUMP JUMPDEST PUSH1 0x40 MLOAD DUP1 SWAP2 SUB SWAP1 LOG1 POP POP POP POP POP SWAP4 POP SWAP4 POP SWAP4 POP SWAP4 JUMP JUMPDEST PUSH1 0x0 DUP1 PUSH32 0x0 PUSH1 0x1 PUSH1 0x1 PUSH1 0xA0 SHL SUB AND PUSH4 0x3850C7BD PUSH1 0x40 MLOAD DUP2 PUSH4 0xFFFFFFFF AND PUSH1 0xE0 SHL DUP2 MSTORE PUSH1 0x4 ADD PUSH1 0xE0 PUSH1 0x40 MLOAD DUP1 DUP4 SUB DUP2 DUP7 DUP1 EXTCODESIZE ISZERO DUP1 ISZERO PUSH2 0x3325 JUMPI PUSH1 0x0 DUP1 REVERT JUMPDEST POP GAS STATICCALL ISZERO DUP1 ISZERO PUSH2 0x3339 JUMPI RETURNDATASIZE PUSH1 0x0 DUP1 RETURNDATACOPY RETURNDATASIZE PUSH1 0x0 REVERT JUMPDEST POP POP POP POP PUSH1 0x40 MLOAD RETURNDATASIZE PUSH1 0x1F NOT PUSH1 0x1F DUP3 ADD AND DUP3 ADD DUP1 PUSH1 0x40 MSTORE POP DUP2 ADD SWAP1 PUSH2 0x335D SWAP2 SWAP1 PUSH2 0x4A92 JUMP JUMPDEST POP POP POP POP POP POP SWAP1 POP PUSH2 0x3382 DUP2 PUSH2 0x3372 DUP9 PUSH2 0x3C28 JUMP JUMPDEST PUSH2 0x337B DUP9 PUSH2 0x3C28 JUMP JUMPDEST DUP8 DUP8 PUSH2 0x4002 JUMP JUMPDEST SWAP7 SWAP6 POP POP POP POP POP POP JUMP JUMPDEST PUSH1 0x1 PUSH1 0x1 PUSH1 0x80 SHL SUB DUP2 AND ISZERO PUSH2 0x62B JUMPI PUSH1 0x40 MLOAD PUSH4 0x3C8A7D8D PUSH1 0xE0 SHL DUP2 MSTORE PUSH1 0x1 PUSH1 0x1 PUSH1 0xA0 SHL SUB PUSH32 0x0 AND SWAP1 PUSH4 0x3C8A7D8D SWAP1 PUSH2 0x2BEB SWAP1 ADDRESS SWAP1 DUP8 SWAP1 DUP8 SWAP1 DUP8 SWAP1 PUSH1 0x4 ADD PUSH2 0x4D2F JUMP JUMPDEST PUSH1 0x0 DUP1 PUSH1 0x0 PUSH32 0x0 PUSH1 0x1 PUSH1 0x1 PUSH1 0xA0 SHL SUB AND PUSH4 0x3850C7BD PUSH1 0x40 MLOAD DUP2 PUSH4 0xFFFFFFFF AND PUSH1 0xE0 SHL DUP2 MSTORE PUSH1 0x4 ADD PUSH1 0xE0 PUSH1 0x40 MLOAD DUP1 DUP4 SUB DUP2 DUP7 DUP1 EXTCODESIZE ISZERO DUP1 ISZERO PUSH2 0x344B JUMPI PUSH1 0x0 DUP1 REVERT JUMPDEST POP GAS STATICCALL ISZERO DUP1 ISZERO PUSH2 0x345F JUMPI RETURNDATASIZE PUSH1 0x0 DUP1 RETURNDATACOPY RETURNDATASIZE PUSH1 0x0 REVERT JUMPDEST POP POP POP POP PUSH1 0x40 MLOAD RETURNDATASIZE PUSH1 0x1F NOT PUSH1 0x1F DUP3 ADD AND DUP3 ADD DUP1 PUSH1 0x40 MSTORE POP DUP2 ADD SWAP1 PUSH2 0x3483 SWAP2 SWAP1 PUSH2 0x4A92 JUMP JUMPDEST POP POP POP POP POP POP SWAP1 POP PUSH2 0x34A7 DUP2 PUSH2 0x3498 DUP9 PUSH2 0x3C28 JUMP JUMPDEST PUSH2 0x34A1 DUP9 PUSH2 0x3C28 JUMP JUMPDEST DUP8 PUSH2 0x40C6 JUMP JUMPDEST SWAP3 POP SWAP3 POP POP SWAP4 POP SWAP4 SWAP2 POP POP JUMP JUMPDEST PUSH1 0x1 PUSH1 0x1 PUSH1 0xA0 SHL SUB DUP3 AND PUSH2 0x34DA JUMPI PUSH1 0x40 MLOAD PUSH3 0x461BCD PUSH1 0xE5 SHL DUP2 MSTORE PUSH1 0x4 ADD PUSH2 0x58E SWAP1 PUSH2 0x52A9 JUMP JUMPDEST PUSH2 0x34E6 DUP3 PUSH1 0x0 DUP4 PUSH2 0x62B JUMP JUMPDEST PUSH1 0x1 PUSH1 0x1 PUSH1 0xA0 SHL SUB DUP3 AND PUSH1 0x0 SWAP1 DUP2 MSTORE PUSH1 0x20 DUP2 SWAP1 MSTORE PUSH1 0x40 SWAP1 KECCAK256 SLOAD DUP2 DUP2 LT ISZERO PUSH2 0x351F JUMPI PUSH1 0x40 MLOAD PUSH3 0x461BCD PUSH1 0xE5 SHL DUP2 MSTORE PUSH1 0x4 ADD PUSH2 0x58E SWAP1 PUSH2 0x4EC9 JUMP JUMPDEST PUSH1 0x1 PUSH1 0x1 PUSH1 0xA0 SHL SUB DUP4 AND PUSH1 0x0 SWAP1 DUP2 MSTORE PUSH1 0x20 DUP2 SWAP1 MSTORE PUSH1 0x40 DUP2 KECCAK256 DUP4 DUP4 SUB SWAP1 SSTORE PUSH1 0x2 DUP1 SLOAD DUP5 SWAP3 SWAP1 PUSH2 0x354E SWAP1 DUP5 SWAP1 PUSH2 0x56A0 JUMP JUMPDEST SWAP1 SWAP2 SSTORE POP POP PUSH1 0x40 MLOAD PUSH1 0x0 SWAP1 PUSH1 0x1 PUSH1 0x1 PUSH1 0xA0 SHL SUB DUP6 AND SWAP1 PUSH32 0xDDF252AD1BE2C89B69C2B068FC378DAA952BA7F163C4A11628F55A4DF523B3EF SWAP1 PUSH2 0x3591 SWAP1 DUP7 SWAP1 PUSH2 0x4DD2 JUMP JUMPDEST PUSH1 0x40 MLOAD DUP1 SWAP2 SUB SWAP1 LOG3 PUSH2 0x62B DUP4 PUSH1 0x0 DUP5 PUSH2 0x62B JUMP JUMPDEST PUSH1 0x0 DUP1 PUSH1 0x0 PUSH2 0x35C0 DUP5 PUSH2 0xB0E DUP8 PUSH2 0x35BA PUSH2 0x1929 JUMP JUMPDEST SWAP1 PUSH2 0x2DA6 JUMP JUMPDEST SWAP1 POP PUSH1 0x0 PUSH2 0x35D4 DUP6 PUSH2 0xB0E DUP9 PUSH2 0x35BA PUSH2 0x185B JUMP JUMPDEST PUSH1 0xA SLOAD SWAP1 SWAP2 POP PUSH1 0x0 SWAP1 DUP2 SWAP1 PUSH2 0x3600 SWAP1 PUSH1 0x1 PUSH1 0xA0 SHL DUP2 DIV PUSH1 0x2 SWAP1 DUP2 SIGNEXTEND SWAP2 PUSH1 0x1 PUSH1 0xB8 SHL SWAP1 DIV SWAP1 SIGNEXTEND DUP11 DUP11 PUSH2 0x4162 JUMP JUMPDEST PUSH1 0xA SLOAD SWAP2 SWAP4 POP SWAP2 POP PUSH1 0x0 SWAP1 DUP2 SWAP1 PUSH2 0x362E SWAP1 PUSH1 0x1 PUSH1 0xD0 SHL DUP2 DIV PUSH1 0x2 SWAP1 DUP2 SIGNEXTEND SWAP2 PUSH1 0x1 PUSH1 0xE8 SHL SWAP1 DIV SWAP1 SIGNEXTEND DUP13 DUP13 PUSH2 0x4162 JUMP JUMPDEST SWAP1 SWAP3 POP SWAP1 POP PUSH2 0x3641 DUP3 PUSH2 0xE20 DUP9 DUP8 PUSH2 0x2D9A JUMP JUMPDEST SWAP8 POP PUSH2 0x3651 DUP2 PUSH2 0xE20 DUP8 DUP7 PUSH2 0x2D9A JUMP JUMPDEST SWAP7 POP POP POP POP POP POP POP SWAP3 POP SWAP3 SWAP1 POP JUMP JUMPDEST PUSH1 0x0 DUP2 ISZERO PUSH2 0x38DD JUMPI PUSH1 0x40 MLOAD PUSH4 0x95EA7B3 PUSH1 0xE0 SHL DUP2 MSTORE PUSH1 0x1 PUSH1 0x1 PUSH1 0xA0 SHL SUB PUSH32 0x0 AND SWAP1 PUSH4 0x95EA7B3 SWAP1 PUSH2 0x36D6 SWAP1 PUSH32 0x0 SWAP1 DUP8 SWAP1 PUSH1 0x4 ADD PUSH2 0x4DAE JUMP JUMPDEST PUSH1 0x20 PUSH1 0x40 MLOAD DUP1 DUP4 SUB DUP2 PUSH1 0x0 DUP8 DUP1 EXTCODESIZE ISZERO DUP1 ISZERO PUSH2 0x36F0 JUMPI PUSH1 0x0 DUP1 REVERT JUMPDEST POP GAS CALL ISZERO DUP1 ISZERO PUSH2 0x3704 JUMPI RETURNDATASIZE PUSH1 0x0 DUP1 RETURNDATACOPY RETURNDATASIZE PUSH1 0x0 REVERT JUMPDEST POP POP POP POP PUSH1 0x40 MLOAD RETURNDATASIZE PUSH1 0x1F NOT PUSH1 0x1F DUP3 ADD AND DUP3 ADD DUP1 PUSH1 0x40 MSTORE POP DUP2 ADD SWAP1 PUSH2 0x3728 SWAP2 SWAP1 PUSH2 0x4827 JUMP JUMPDEST POP PUSH1 0x40 DUP1 MLOAD PUSH1 0x2 DUP1 DUP3 MSTORE PUSH1 0x60 DUP3 ADD DUP4 MSTORE PUSH1 0x0 SWAP3 PUSH1 0x20 DUP4 ADD SWAP1 DUP1 CALLDATASIZE DUP4 CALLDATACOPY ADD SWAP1 POP POP SWAP1 POP PUSH32 0x0 DUP2 PUSH1 0x0 DUP2 MLOAD DUP2 LT PUSH2 0x378C JUMPI PUSH4 0x4E487B71 PUSH1 0xE0 SHL PUSH1 0x0 MSTORE PUSH1 0x32 PUSH1 0x4 MSTORE PUSH1 0x24 PUSH1 0x0 REVERT JUMPDEST PUSH1 0x20 MUL PUSH1 0x20 ADD ADD SWAP1 PUSH1 0x1 PUSH1 0x1 PUSH1 0xA0 SHL SUB AND SWAP1 DUP2 PUSH1 0x1 PUSH1 0x1 PUSH1 0xA0 SHL SUB AND DUP2 MSTORE POP POP PUSH32 0x0 DUP2 PUSH1 0x1 DUP2 MLOAD DUP2 LT PUSH2 0x37EE JUMPI PUSH4 0x4E487B71 PUSH1 0xE0 SHL PUSH1 0x0 MSTORE PUSH1 0x32 PUSH1 0x4 MSTORE PUSH1 0x24 PUSH1 0x0 REVERT JUMPDEST PUSH1 0x1 PUSH1 0x1 PUSH1 0xA0 SHL SUB SWAP3 DUP4 AND PUSH1 0x20 SWAP2 DUP3 MUL SWAP3 SWAP1 SWAP3 ADD ADD MSTORE PUSH1 0x40 MLOAD PUSH4 0x38ED1739 PUSH1 0xE0 SHL DUP2 MSTORE PUSH1 0x0 SWAP2 PUSH32 0x0 AND SWAP1 PUSH4 0x38ED1739 SWAP1 PUSH2 0x3853 SWAP1 DUP9 SWAP1 DUP6 SWAP1 DUP8 SWAP1 ADDRESS SWAP1 TIMESTAMP SWAP1 PUSH1 0x4 ADD PUSH2 0x55A4 JUMP JUMPDEST PUSH1 0x0 PUSH1 0x40 MLOAD DUP1 DUP4 SUB DUP2 PUSH1 0x0 DUP8 DUP1 EXTCODESIZE ISZERO DUP1 ISZERO PUSH2 0x386D JUMPI PUSH1 0x0 DUP1 REVERT JUMPDEST POP GAS CALL ISZERO DUP1 ISZERO PUSH2 0x3881 JUMPI RETURNDATASIZE PUSH1 0x0 DUP1 RETURNDATACOPY RETURNDATASIZE PUSH1 0x0 REVERT JUMPDEST POP POP POP POP PUSH1 0x40 MLOAD RETURNDATASIZE PUSH1 0x0 DUP3 RETURNDATACOPY PUSH1 0x1F RETURNDATASIZE SWAP1 DUP2 ADD PUSH1 0x1F NOT AND DUP3 ADD PUSH1 0x40 MSTORE PUSH2 0x38A9 SWAP2 SWAP1 DUP2 ADD SWAP1 PUSH2 0x476D JUMP JUMPDEST SWAP1 POP DUP1 PUSH1 0x1 DUP2 MLOAD DUP2 LT PUSH2 0x38CC JUMPI PUSH4 0x4E487B71 PUSH1 0xE0 SHL PUSH1 0x0 MSTORE PUSH1 0x32 PUSH1 0x4 MSTORE PUSH1 0x24 PUSH1 0x0 REVERT JUMPDEST PUSH1 0x20 MUL PUSH1 0x20 ADD ADD MLOAD SWAP3 POP POP POP PUSH2 0x6E0 JUMP JUMPDEST PUSH1 0x40 MLOAD PUSH4 0x95EA7B3 PUSH1 0xE0 SHL DUP2 MSTORE PUSH1 0x1 PUSH1 0x1 PUSH1 0xA0 SHL SUB PUSH32 0x0 AND SWAP1 PUSH4 0x95EA7B3 SWAP1 PUSH2 0x394B SWAP1 PUSH32 0x0 SWAP1 DUP8 SWAP1 PUSH1 0x4 ADD PUSH2 0x4DAE JUMP JUMPDEST PUSH1 0x20 PUSH1 0x40 MLOAD DUP1 DUP4 SUB DUP2 PUSH1 0x0 DUP8 DUP1 EXTCODESIZE ISZERO DUP1 ISZERO PUSH2 0x3965 JUMPI PUSH1 0x0 DUP1 REVERT JUMPDEST POP GAS CALL ISZERO DUP1 ISZERO PUSH2 0x3979 JUMPI RETURNDATASIZE PUSH1 0x0 DUP1 RETURNDATACOPY RETURNDATASIZE PUSH1 0x0 REVERT JUMPDEST POP POP POP POP PUSH1 0x40 MLOAD RETURNDATASIZE PUSH1 0x1F NOT PUSH1 0x1F DUP3 ADD AND DUP3 ADD DUP1 PUSH1 0x40 MSTORE POP DUP2 ADD SWAP1 PUSH2 0x399D SWAP2 SWAP1 PUSH2 0x4827 JUMP JUMPDEST POP PUSH1 0x40 DUP1 MLOAD PUSH1 0x2 DUP1 DUP3 MSTORE PUSH1 0x60 DUP3 ADD DUP4 MSTORE PUSH1 0x0 SWAP3 PUSH1 0x20 DUP4 ADD SWAP1 DUP1 CALLDATASIZE DUP4 CALLDATACOPY ADD SWAP1 POP POP SWAP1 POP PUSH32 0x0 DUP2 PUSH1 0x0 DUP2 MLOAD DUP2 LT PUSH2 0x3A01 JUMPI PUSH4 0x4E487B71 PUSH1 0xE0 SHL PUSH1 0x0 MSTORE PUSH1 0x32 PUSH1 0x4 MSTORE PUSH1 0x24 PUSH1 0x0 REVERT JUMPDEST PUSH1 0x20 MUL PUSH1 0x20 ADD ADD SWAP1 PUSH1 0x1 PUSH1 0x1 PUSH1 0xA0 SHL SUB AND SWAP1 DUP2 PUSH1 0x1 PUSH1 0x1 PUSH1 0xA0 SHL SUB AND DUP2 MSTORE POP POP PUSH32 0x0 DUP2 PUSH1 0x1 DUP2 MLOAD DUP2 LT PUSH2 0x3A63 JUMPI PUSH4 0x4E487B71 PUSH1 0xE0 SHL PUSH1 0x0 MSTORE PUSH1 0x32 PUSH1 0x4 MSTORE PUSH1 0x24 PUSH1 0x0 REVERT JUMPDEST PUSH1 0x1 PUSH1 0x1 PUSH1 0xA0 SHL SUB SWAP3 DUP4 AND PUSH1 0x20 SWAP2 DUP3 MUL SWAP3 SWAP1 SWAP3 ADD ADD MSTORE PUSH1 0x40 MLOAD PUSH4 0x38ED1739 PUSH1 0xE0 SHL DUP2 MSTORE PUSH1 0x0 SWAP2 PUSH32 0x0 AND SWAP1 PUSH4 0x38ED1739 SWAP1 PUSH2 0x3AC8 SWAP1 DUP9 SWAP1 DUP6 SWAP1 DUP8 SWAP1 ADDRESS SWAP1 TIMESTAMP SWAP1 PUSH1 0x4 ADD PUSH2 0x55A4 JUMP JUMPDEST PUSH1 0x0 PUSH1 0x40 MLOAD DUP1 DUP4 SUB DUP2 PUSH1 0x0 DUP8 DUP1 EXTCODESIZE ISZERO DUP1 ISZERO PUSH2 0x3AE2 JUMPI PUSH1 0x0 DUP1 REVERT JUMPDEST POP GAS CALL ISZERO DUP1 ISZERO PUSH2 0x3AF6 JUMPI RETURNDATASIZE PUSH1 0x0 DUP1 RETURNDATACOPY RETURNDATASIZE PUSH1 0x0 REVERT JUMPDEST POP POP POP POP PUSH1 0x40 MLOAD RETURNDATASIZE PUSH1 0x0 DUP3 RETURNDATACOPY PUSH1 0x1F RETURNDATASIZE SWAP1 DUP2 ADD PUSH1 0x1F NOT AND DUP3 ADD PUSH1 0x40 MSTORE PUSH2 0x3B1E SWAP2 SWAP1 DUP2 ADD SWAP1 PUSH2 0x476D JUMP JUMPDEST SWAP1 POP DUP1 PUSH1 0x1 DUP2 MLOAD DUP2 LT PUSH2 0x3B41 JUMPI PUSH4 0x4E487B71 PUSH1 0xE0 SHL PUSH1 0x0 MSTORE PUSH1 0x32 PUSH1 0x4 MSTORE PUSH1 0x24 PUSH1 0x0 REVERT JUMPDEST PUSH1 0x20 MUL PUSH1 0x20 ADD ADD MLOAD SWAP3 POP POP POP SWAP3 SWAP2 POP POP JUMP JUMPDEST PUSH1 0x0 PUSH2 0x3BA8 DUP3 PUSH1 0x40 MLOAD DUP1 PUSH1 0x40 ADD PUSH1 0x40 MSTORE DUP1 PUSH1 0x20 DUP2 MSTORE PUSH1 0x20 ADD PUSH32 0x5361666545524332303A206C6F772D6C6576656C2063616C6C206661696C6564 DUP2 MSTORE POP DUP6 PUSH1 0x1 PUSH1 0x1 PUSH1 0xA0 SHL SUB AND PUSH2 0x4208 SWAP1 SWAP3 SWAP2 SWAP1 PUSH4 0xFFFFFFFF AND JUMP JUMPDEST DUP1 MLOAD SWAP1 SWAP2 POP ISZERO PUSH2 0x62B JUMPI DUP1 DUP1 PUSH1 0x20 ADD SWAP1 MLOAD DUP2 ADD SWAP1 PUSH2 0x3BC6 SWAP2 SWAP1 PUSH2 0x4827 JUMP JUMPDEST PUSH2 0x62B JUMPI PUSH1 0x40 MLOAD PUSH3 0x461BCD PUSH1 0xE5 SHL DUP2 MSTORE PUSH1 0x4 ADD PUSH2 0x58E SWAP1 PUSH2 0x548E JUMP JUMPDEST PUSH1 0x0 DUP2 DUP4 LT ISZERO PUSH2 0x2DEE JUMPI DUP2 PUSH2 0x7BA JUMP JUMPDEST PUSH1 0x0 DUP4 DUP4 DUP4 PUSH1 0x40 MLOAD PUSH1 0x20 ADD PUSH2 0x3C09 SWAP4 SWAP3 SWAP2 SWAP1 PUSH2 0x4C6C JUMP JUMPDEST PUSH1 0x40 MLOAD PUSH1 0x20 DUP2 DUP4 SUB SUB DUP2 MSTORE SWAP1 PUSH1 0x40 MSTORE DUP1 MLOAD SWAP1 PUSH1 0x20 ADD KECCAK256 SWAP1 POP SWAP4 SWAP3 POP POP POP JUMP JUMPDEST PUSH1 0x0 DUP1 PUSH1 0x0 DUP4 PUSH1 0x2 SIGNEXTEND SLT PUSH2 0x3C3F JUMPI DUP3 PUSH1 0x2 SIGNEXTEND PUSH2 0x3C4C JUMP JUMPDEST DUP3 PUSH1 0x2 SIGNEXTEND PUSH2 0x3C4C SWAP1 PUSH2 0x5775 JUMP JUMPDEST SWAP1 POP PUSH1 0x0 PUSH1 0x1 DUP3 AND PUSH2 0x3C62 JUMPI PUSH1 0x1 PUSH1 0x80 SHL PUSH2 0x3C74 JUMP JUMPDEST PUSH16 0xFFFCB933BD6FAD37AA2D162D1A594001 JUMPDEST PUSH17 0xFFFFFFFFFFFFFFFFFFFFFFFFFFFFFFFFFF AND SWAP1 POP PUSH1 0x2 DUP3 AND ISZERO PUSH2 0x3CB3 JUMPI PUSH1 0x80 PUSH2 0x3CAE DUP3 PUSH16 0xFFF97272373D413259A46990580E213A PUSH2 0x5659 JUMP JUMPDEST SWAP1 SHR SWAP1 POP JUMPDEST PUSH1 0x4 DUP3 AND ISZERO PUSH2 0x3CDD JUMPI PUSH1 0x80 PUSH2 0x3CD8 DUP3 PUSH16 0xFFF2E50F5F656932EF12357CF3C7FDCC PUSH2 0x5659 JUMP JUMPDEST SWAP1 SHR SWAP1 POP JUMPDEST PUSH1 0x8 DUP3 AND ISZERO PUSH2 0x3D07 JUMPI PUSH1 0x80 PUSH2 0x3D02 DUP3 PUSH16 0xFFE5CACA7E10E4E61C3624EAA0941CD0 PUSH2 0x5659 JUMP JUMPDEST SWAP1 SHR SWAP1 POP JUMPDEST PUSH1 0x10 DUP3 AND ISZERO PUSH2 0x3D31 JUMPI PUSH1 0x80 PUSH2 0x3D2C DUP3 PUSH16 0xFFCB9843D60F6159C9DB58835C926644 PUSH2 0x5659 JUMP JUMPDEST SWAP1 SHR SWAP1 POP JUMPDEST PUSH1 0x20 DUP3 AND ISZERO PUSH2 0x3D5B JUMPI PUSH1 0x80 PUSH2 0x3D56 DUP3 PUSH16 0xFF973B41FA98C081472E6896DFB254C0 PUSH2 0x5659 JUMP JUMPDEST SWAP1 SHR SWAP1 POP JUMPDEST PUSH1 0x40 DUP3 AND ISZERO PUSH2 0x3D85 JUMPI PUSH1 0x80 PUSH2 0x3D80 DUP3 PUSH16 0xFF2EA16466C96A3843EC78B326B52861 PUSH2 0x5659 JUMP JUMPDEST SWAP1 SHR SWAP1 POP JUMPDEST PUSH1 0x80 DUP3 AND ISZERO PUSH2 0x3DAF JUMPI PUSH1 0x80 PUSH2 0x3DAA DUP3 PUSH16 0xFE5DEE046A99A2A811C461F1969C3053 PUSH2 0x5659 JUMP JUMPDEST SWAP1 SHR SWAP1 POP JUMPDEST PUSH2 0x100 DUP3 AND ISZERO PUSH2 0x3DDA JUMPI PUSH1 0x80 PUSH2 0x3DD5 DUP3 PUSH16 0xFCBE86C7900A88AEDCFFC83B479AA3A4 PUSH2 0x5659 JUMP JUMPDEST SWAP1 SHR SWAP1 POP JUMPDEST PUSH2 0x200 DUP3 AND ISZERO PUSH2 0x3E05 JUMPI PUSH1 0x80 PUSH2 0x3E00 DUP3 PUSH16 0xF987A7253AC413176F2B074CF7815E54 PUSH2 0x5659 JUMP JUMPDEST SWAP1 SHR SWAP1 POP JUMPDEST PUSH2 0x400 DUP3 AND ISZERO PUSH2 0x3E30 JUMPI PUSH1 0x80 PUSH2 0x3E2B DUP3 PUSH16 0xF3392B0822B70005940C7A398E4B70F3 PUSH2 0x5659 JUMP JUMPDEST SWAP1 SHR SWAP1 POP JUMPDEST PUSH2 0x800 DUP3 AND ISZERO PUSH2 0x3E5B JUMPI PUSH1 0x80 PUSH2 0x3E56 DUP3 PUSH16 0xE7159475A2C29B7443B29C7FA6E889D9 PUSH2 0x5659 JUMP JUMPDEST SWAP1 SHR SWAP1 POP JUMPDEST PUSH2 0x1000 DUP3 AND ISZERO PUSH2 0x3E86 JUMPI PUSH1 0x80 PUSH2 0x3E81 DUP3 PUSH16 0xD097F3BDFD2022B8845AD8F792AA5825 PUSH2 0x5659 JUMP JUMPDEST SWAP1 SHR SWAP1 POP JUMPDEST PUSH2 0x2000 DUP3 AND ISZERO PUSH2 0x3EB1 JUMPI PUSH1 0x80 PUSH2 0x3EAC DUP3 PUSH16 0xA9F746462D870FDF8A65DC1F90E061E5 PUSH2 0x5659 JUMP JUMPDEST SWAP1 SHR SWAP1 POP JUMPDEST PUSH2 0x4000 DUP3 AND ISZERO PUSH2 0x3EDC JUMPI PUSH1 0x80 PUSH2 0x3ED7 DUP3 PUSH16 0x70D869A156D2A1B890BB3DF62BAF32F7 PUSH2 0x5659 JUMP JUMPDEST SWAP1 SHR SWAP1 POP JUMPDEST PUSH2 0x8000 DUP3 AND ISZERO PUSH2 0x3F07 JUMPI PUSH1 0x80 PUSH2 0x3F02 DUP3 PUSH16 0x31BE135F97D08FD981231505542FCFA6 PUSH2 0x5659 JUMP JUMPDEST SWAP1 SHR SWAP1 POP JUMPDEST PUSH3 0x10000 DUP3 AND ISZERO PUSH2 0x3F33 JUMPI PUSH1 0x80 PUSH2 0x3F2E DUP3 PUSH16 0x9AA508B5B7A84E1C677DE54F3E99BC9 PUSH2 0x5659 JUMP JUMPDEST SWAP1 SHR SWAP1 POP JUMPDEST PUSH3 0x20000 DUP3 AND ISZERO PUSH2 0x3F5E JUMPI PUSH1 0x80 PUSH2 0x3F59 DUP3 PUSH15 0x5D6AF8DEDB81196699C329225EE604 PUSH2 0x5659 JUMP JUMPDEST SWAP1 SHR SWAP1 POP JUMPDEST PUSH3 0x40000 DUP3 AND ISZERO PUSH2 0x3F88 JUMPI PUSH1 0x80 PUSH2 0x3F83 DUP3 PUSH14 0x2216E584F5FA1EA926041BEDFE98 PUSH2 0x5659 JUMP JUMPDEST SWAP1 SHR SWAP1 POP JUMPDEST PUSH3 0x80000 DUP3 AND ISZERO PUSH2 0x3FB0 JUMPI PUSH1 0x80 PUSH2 0x3FAB DUP3 PUSH12 0x48A170391F7DC42444E8FA2 PUSH2 0x5659 JUMP JUMPDEST SWAP1 SHR SWAP1 POP JUMPDEST PUSH1 0x0 DUP5 PUSH1 0x2 SIGNEXTEND SGT ISZERO PUSH2 0x3FCB JUMPI PUSH2 0x3FC8 DUP2 PUSH1 0x0 NOT PUSH2 0x5645 JUMP JUMPDEST SWAP1 POP JUMPDEST PUSH2 0x3FDA PUSH5 0x100000000 DUP3 PUSH2 0x5740 JUMP JUMPDEST ISZERO PUSH2 0x3FE6 JUMPI PUSH1 0x1 PUSH2 0x3FE9 JUMP JUMPDEST PUSH1 0x0 JUMPDEST PUSH2 0x3FFA SWAP1 PUSH1 0xFF AND PUSH1 0x20 DUP4 SWAP1 SHR PUSH2 0x562D JUMP JUMPDEST SWAP5 SWAP4 POP POP POP POP JUMP JUMPDEST PUSH1 0x0 DUP4 PUSH1 0x1 PUSH1 0x1 PUSH1 0xA0 SHL SUB AND DUP6 PUSH1 0x1 PUSH1 0x1 PUSH1 0xA0 SHL SUB AND GT ISZERO PUSH2 0x4022 JUMPI SWAP3 SWAP4 SWAP3 JUMPDEST DUP5 PUSH1 0x1 PUSH1 0x1 PUSH1 0xA0 SHL SUB AND DUP7 PUSH1 0x1 PUSH1 0x1 PUSH1 0xA0 SHL SUB AND GT PUSH2 0x404D JUMPI PUSH2 0x4046 DUP6 DUP6 DUP6 PUSH2 0x4217 JUMP JUMPDEST SWAP1 POP PUSH2 0x40BD JUMP JUMPDEST DUP4 PUSH1 0x1 PUSH1 0x1 PUSH1 0xA0 SHL SUB AND DUP7 PUSH1 0x1 PUSH1 0x1 PUSH1 0xA0 SHL SUB AND LT ISZERO PUSH2 0x40AF JUMPI PUSH1 0x0 PUSH2 0x4074 DUP8 DUP7 DUP7 PUSH2 0x4217 JUMP JUMPDEST SWAP1 POP PUSH1 0x0 PUSH2 0x4083 DUP8 DUP10 DUP7 PUSH2 0x4281 JUMP JUMPDEST SWAP1 POP DUP1 PUSH1 0x1 PUSH1 0x1 PUSH1 0x80 SHL SUB AND DUP3 PUSH1 0x1 PUSH1 0x1 PUSH1 0x80 SHL SUB AND LT PUSH2 0x40A4 JUMPI DUP1 PUSH2 0x40A6 JUMP JUMPDEST DUP2 JUMPDEST SWAP3 POP POP POP PUSH2 0x40BD JUMP JUMPDEST PUSH2 0x40BA DUP6 DUP6 DUP5 PUSH2 0x4281 JUMP JUMPDEST SWAP1 POP JUMPDEST SWAP6 SWAP5 POP POP POP POP POP JUMP JUMPDEST PUSH1 0x0 DUP1 DUP4 PUSH1 0x1 PUSH1 0x1 PUSH1 0xA0 SHL SUB AND DUP6 PUSH1 0x1 PUSH1 0x1 PUSH1 0xA0 SHL SUB AND GT ISZERO PUSH2 0x40E7 JUMPI SWAP3 SWAP4 SWAP3 JUMPDEST DUP5 PUSH1 0x1 PUSH1 0x1 PUSH1 0xA0 SHL SUB AND DUP7 PUSH1 0x1 PUSH1 0x1 PUSH1 0xA0 SHL SUB AND GT PUSH2 0x4112 JUMPI PUSH2 0x410B DUP6 DUP6 DUP6 PUSH2 0x42B7 JUMP JUMPDEST SWAP2 POP PUSH2 0x4159 JUMP JUMPDEST DUP4 PUSH1 0x1 PUSH1 0x1 PUSH1 0xA0 SHL SUB AND DUP7 PUSH1 0x1 PUSH1 0x1 PUSH1 0xA0 SHL SUB AND LT ISZERO PUSH2 0x414B JUMPI PUSH2 0x4137 DUP7 DUP6 DUP6 PUSH2 0x42B7 JUMP JUMPDEST SWAP2 POP PUSH2 0x4144 DUP6 DUP8 DUP6 PUSH2 0x432A JUMP JUMPDEST SWAP1 POP PUSH2 0x4159 JUMP JUMPDEST PUSH2 0x4156 DUP6 DUP6 DUP6 PUSH2 0x432A JUMP JUMPDEST SWAP1 POP JUMPDEST SWAP5 POP SWAP5 SWAP3 POP POP POP JUMP JUMPDEST PUSH1 0x0 DUP1 PUSH1 0x0 PUSH2 0x4171 DUP8 DUP8 PUSH2 0x2FB6 JUMP JUMPDEST POP POP POP POP SWAP1 POP PUSH1 0x0 PUSH2 0x4199 DUP6 PUSH2 0xB0E DUP9 DUP6 PUSH1 0x1 PUSH1 0x1 PUSH1 0x80 SHL SUB AND PUSH2 0x2DA6 SWAP1 SWAP2 SWAP1 PUSH4 0xFFFFFFFF AND JUMP JUMPDEST SWAP1 POP DUP1 ISZERO PUSH2 0x41FD JUMPI PUSH1 0x0 DUP1 PUSH1 0x0 DUP1 PUSH2 0x41BA DUP13 DUP13 PUSH2 0x41B5 DUP9 PUSH2 0x4374 JUMP JUMPDEST PUSH2 0x307D JUMP JUMPDEST SWAP3 SWAP7 POP SWAP1 SWAP5 POP SWAP3 POP SWAP1 POP PUSH2 0x41DC PUSH2 0x41D5 DUP11 PUSH2 0xB0E DUP6 DUP15 PUSH2 0x2DA6 JUMP JUMPDEST DUP6 SWAP1 PUSH2 0x2D9A JUMP JUMPDEST SWAP8 POP PUSH2 0x41F6 PUSH2 0x41EF DUP11 PUSH2 0xB0E DUP5 DUP15 PUSH2 0x2DA6 JUMP JUMPDEST DUP5 SWAP1 PUSH2 0x2D9A JUMP JUMPDEST SWAP7 POP POP POP POP POP JUMPDEST POP POP SWAP5 POP SWAP5 SWAP3 POP POP POP JUMP JUMPDEST PUSH1 0x60 PUSH2 0x3FFA DUP5 DUP5 PUSH1 0x0 DUP6 PUSH2 0x439F JUMP JUMPDEST PUSH1 0x0 DUP3 PUSH1 0x1 PUSH1 0x1 PUSH1 0xA0 SHL SUB AND DUP5 PUSH1 0x1 PUSH1 0x1 PUSH1 0xA0 SHL SUB AND GT ISZERO PUSH2 0x4237 JUMPI SWAP2 SWAP3 SWAP2 JUMPDEST PUSH1 0x0 PUSH2 0x425A DUP6 PUSH1 0x1 PUSH1 0x1 PUSH1 0xA0 SHL SUB AND DUP6 PUSH1 0x1 PUSH1 0x1 PUSH1 0xA0 SHL SUB AND PUSH1 0x1 PUSH1 0x60 SHL PUSH2 0x445F JUMP JUMPDEST SWAP1 POP PUSH2 0x40BD PUSH2 0x427C DUP5 DUP4 PUSH2 0x426E DUP10 DUP10 PUSH2 0x5678 JUMP JUMPDEST PUSH1 0x1 PUSH1 0x1 PUSH1 0xA0 SHL SUB AND PUSH2 0x445F JUMP JUMPDEST PUSH2 0x45D5 JUMP JUMPDEST PUSH1 0x0 DUP3 PUSH1 0x1 PUSH1 0x1 PUSH1 0xA0 SHL SUB AND DUP5 PUSH1 0x1 PUSH1 0x1 PUSH1 0xA0 SHL SUB AND GT ISZERO PUSH2 0x42A1 JUMPI SWAP2 SWAP3 SWAP2 JUMPDEST PUSH2 0x3FFA PUSH2 0x427C DUP4 PUSH1 0x1 PUSH1 0x60 SHL PUSH2 0x426E DUP9 DUP9 PUSH2 0x5678 JUMP JUMPDEST PUSH1 0x0 DUP3 PUSH1 0x1 PUSH1 0x1 PUSH1 0xA0 SHL SUB AND DUP5 PUSH1 0x1 PUSH1 0x1 PUSH1 0xA0 SHL SUB AND GT ISZERO PUSH2 0x42D7 JUMPI SWAP2 SWAP3 SWAP2 JUMPDEST PUSH1 0x1 PUSH1 0x1 PUSH1 0xA0 SHL SUB DUP5 AND PUSH2 0x4320 PUSH16 0xFFFFFFFFFFFFFFFFFFFFFFFFFFFFFFFF PUSH1 0x60 SHL PUSH1 0x60 DUP6 SWAP1 SHL AND PUSH2 0x4308 DUP8 DUP8 PUSH2 0x5678 JUMP JUMPDEST PUSH1 0x1 PUSH1 0x1 PUSH1 0xA0 SHL SUB AND DUP7 PUSH1 0x1 PUSH1 0x1 PUSH1 0xA0 SHL SUB AND PUSH2 0x445F JUMP JUMPDEST PUSH2 0x3FFA SWAP2 SWAP1 PUSH2 0x5645 JUMP JUMPDEST PUSH1 0x0 DUP3 PUSH1 0x1 PUSH1 0x1 PUSH1 0xA0 SHL SUB AND DUP5 PUSH1 0x1 PUSH1 0x1 PUSH1 0xA0 SHL SUB AND GT ISZERO PUSH2 0x434A JUMPI SWAP2 SWAP3 SWAP2 JUMPDEST PUSH2 0x3FFA PUSH1 0x1 PUSH1 0x1 PUSH1 0x80 SHL SUB DUP4 AND PUSH2 0x4361 DUP7 DUP7 PUSH2 0x5678 JUMP JUMPDEST PUSH1 0x1 PUSH1 0x1 PUSH1 0xA0 SHL SUB AND PUSH1 0x1 PUSH1 0x60 SHL PUSH2 0x445F JUMP JUMPDEST PUSH1 0x0 PUSH1 0x1 PUSH1 0x1 PUSH1 0x80 SHL SUB DUP3 GT ISZERO PUSH2 0x439B JUMPI PUSH4 0x4E487B71 PUSH1 0xE0 SHL PUSH1 0x0 MSTORE PUSH1 0x1 PUSH1 0x4 MSTORE PUSH1 0x24 PUSH1 0x0 REVERT JUMPDEST POP SWAP1 JUMP JUMPDEST PUSH1 0x60 DUP3 SELFBALANCE LT ISZERO PUSH2 0x43C1 JUMPI PUSH1 0x40 MLOAD PUSH3 0x461BCD PUSH1 0xE5 SHL DUP2 MSTORE PUSH1 0x4 ADD PUSH2 0x58E SWAP1 PUSH2 0x50CC JUMP JUMPDEST PUSH2 0x43CA DUP6 PUSH2 0x45EB JUMP JUMPDEST PUSH2 0x43E6 JUMPI PUSH1 0x40 MLOAD PUSH3 0x461BCD PUSH1 0xE5 SHL DUP2 MSTORE PUSH1 0x4 ADD PUSH2 0x58E SWAP1 PUSH2 0x542F JUMP JUMPDEST PUSH1 0x0 DUP1 DUP7 PUSH1 0x1 PUSH1 0x1 PUSH1 0xA0 SHL SUB AND DUP6 DUP8 PUSH1 0x40 MLOAD PUSH2 0x4402 SWAP2 SWAP1 PUSH2 0x4CA1 JUMP JUMPDEST PUSH1 0x0 PUSH1 0x40 MLOAD DUP1 DUP4 SUB DUP2 DUP6 DUP8 GAS CALL SWAP3 POP POP POP RETURNDATASIZE DUP1 PUSH1 0x0 DUP2 EQ PUSH2 0x443F JUMPI PUSH1 0x40 MLOAD SWAP2 POP PUSH1 0x1F NOT PUSH1 0x3F RETURNDATASIZE ADD AND DUP3 ADD PUSH1 0x40 MSTORE RETURNDATASIZE DUP3 MSTORE RETURNDATASIZE PUSH1 0x0 PUSH1 0x20 DUP5 ADD RETURNDATACOPY PUSH2 0x4444 JUMP JUMPDEST PUSH1 0x60 SWAP2 POP JUMPDEST POP SWAP2 POP SWAP2 POP PUSH2 0x4454 DUP3 DUP3 DUP7 PUSH2 0x461C JUMP JUMPDEST SWAP8 SWAP7 POP POP POP POP POP POP POP JUMP JUMPDEST PUSH1 0x0 DUP1 DUP1 PUSH1 0x0 NOT DUP6 DUP8 MULMOD DUP7 DUP7 MUL SWAP3 POP DUP3 DUP2 LT SWAP1 DUP4 SWAP1 SUB SUB SWAP1 POP DUP1 PUSH2 0x4495 JUMPI PUSH1 0x0 DUP5 GT PUSH2 0x448A JUMPI PUSH1 0x0 DUP1 REVERT JUMPDEST POP DUP3 SWAP1 DIV SWAP1 POP PUSH2 0x7BA JUMP JUMPDEST DUP1 DUP5 GT PUSH2 0x44A1 JUMPI PUSH1 0x0 DUP1 REVERT JUMPDEST PUSH1 0x0 DUP5 DUP7 DUP9 MULMOD DUP1 DUP5 SUB SWAP4 DUP2 GT SWAP1 SWAP3 SUB SWAP2 SWAP1 POP PUSH1 0x0 PUSH2 0x44C1 DUP7 NOT PUSH1 0x1 PUSH2 0x562D JUMP JUMPDEST DUP7 AND SWAP6 DUP7 SWAP1 DIV SWAP6 SWAP4 DUP5 SWAP1 DIV SWAP4 PUSH1 0x0 DUP2 SWAP1 SUB DIV PUSH1 0x1 ADD SWAP1 POP PUSH2 0x44E2 DUP2 DUP5 PUSH2 0x5659 JUMP JUMPDEST SWAP1 SWAP4 OR SWAP3 PUSH1 0x0 PUSH2 0x44F3 DUP8 PUSH1 0x3 PUSH2 0x5659 JUMP JUMPDEST PUSH1 0x2 XOR SWAP1 POP PUSH2 0x4502 DUP2 DUP9 PUSH2 0x5659 JUMP JUMPDEST PUSH2 0x450D SWAP1 PUSH1 0x2 PUSH2 0x56A0 JUMP JUMPDEST PUSH2 0x4517 SWAP1 DUP3 PUSH2 0x5659 JUMP JUMPDEST SWAP1 POP PUSH2 0x4523 DUP2 DUP9 PUSH2 0x5659 JUMP JUMPDEST PUSH2 0x452E SWAP1 PUSH1 0x2 PUSH2 0x56A0 JUMP JUMPDEST PUSH2 0x4538 SWAP1 DUP3 PUSH2 0x5659 JUMP JUMPDEST SWAP1 POP PUSH2 0x4544 DUP2 DUP9 PUSH2 0x5659 JUMP JUMPDEST PUSH2 0x454F SWAP1 PUSH1 0x2 PUSH2 0x56A0 JUMP JUMPDEST PUSH2 0x4559 SWAP1 DUP3 PUSH2 0x5659 JUMP JUMPDEST SWAP1 POP PUSH2 0x4565 DUP2 DUP9 PUSH2 0x5659 JUMP JUMPDEST PUSH2 0x4570 SWAP1 PUSH1 0x2 PUSH2 0x56A0 JUMP JUMPDEST PUSH2 0x457A SWAP1 DUP3 PUSH2 0x5659 JUMP JUMPDEST SWAP1 POP PUSH2 0x4586 DUP2 DUP9 PUSH2 0x5659 JUMP JUMPDEST PUSH2 0x4591 SWAP1 PUSH1 0x2 PUSH2 0x56A0 JUMP JUMPDEST PUSH2 0x459B SWAP1 DUP3 PUSH2 0x5659 JUMP JUMPDEST SWAP1 POP PUSH2 0x45A7 DUP2 DUP9 PUSH2 0x5659 JUMP JUMPDEST PUSH2 0x45B2 SWAP1 PUSH1 0x2 PUSH2 0x56A0 JUMP JUMPDEST PUSH2 0x45BC SWAP1 DUP3 PUSH2 0x5659 JUMP JUMPDEST SWAP1 POP PUSH2 0x45C8 DUP2 DUP7 PUSH2 0x5659 JUMP JUMPDEST SWAP10 SWAP9 POP POP POP POP POP POP POP POP POP JUMP JUMPDEST DUP1 PUSH1 0x1 PUSH1 0x1 PUSH1 0x80 SHL SUB DUP2 AND DUP2 EQ PUSH2 0x1997 JUMPI PUSH1 0x0 DUP1 REVERT JUMPDEST PUSH1 0x0 DUP1 DUP3 PUSH1 0x1 PUSH1 0x1 PUSH1 0xA0 SHL SUB AND DUP1 EXTCODESIZE DUP1 PUSH1 0x20 ADD PUSH1 0x40 MLOAD SWAP1 DUP2 ADD PUSH1 0x40 MSTORE DUP2 DUP2 MSTORE PUSH1 0x0 SWAP1 DUP1 PUSH1 0x20 ADD SWAP1 SWAP4 EXTCODECOPY MLOAD GT SWAP3 SWAP2 POP POP JUMP JUMPDEST PUSH1 0x60 DUP4 ISZERO PUSH2 0x462B JUMPI POP DUP2 PUSH2 0x7BA JUMP JUMPDEST DUP3 MLOAD ISZERO PUSH2 0x463B JUMPI DUP3 MLOAD DUP1 DUP5 PUSH1 0x20 ADD REVERT JUMPDEST DUP2 PUSH1 0x40 MLOAD PUSH3 0x461BCD PUSH1 0xE5 SHL DUP2 MSTORE PUSH1 0x4 ADD PUSH2 0x58E SWAP2 SWAP1 PUSH2 0x4E2F JUMP JUMPDEST PUSH1 0x0 DUP1 DUP4 PUSH1 0x1F DUP5 ADD SLT PUSH2 0x4666 JUMPI DUP2 DUP3 REVERT JUMPDEST POP DUP2 CALLDATALOAD PUSH8 0xFFFFFFFFFFFFFFFF DUP2 GT ISZERO PUSH2 0x467D JUMPI DUP2 DUP3 REVERT JUMPDEST PUSH1 0x20 DUP4 ADD SWAP2 POP DUP4 PUSH1 0x20 DUP3 DUP6 ADD ADD GT ISZERO PUSH2 0x4695 JUMPI PUSH1 0x0 DUP1 REVERT JUMPDEST SWAP3 POP SWAP3 SWAP1 POP JUMP JUMPDEST DUP1 MLOAD PUSH2 0xFFFF DUP2 AND DUP2 EQ PUSH2 0x1997 JUMPI PUSH1 0x0 DUP1 REVERT JUMPDEST PUSH1 0x0 PUSH1 0x20 DUP3 DUP5 SUB SLT ISZERO PUSH2 0x46BF JUMPI DUP1 DUP2 REVERT JUMPDEST DUP2 CALLDATALOAD PUSH2 0x7BA DUP2 PUSH2 0x57D1 JUMP JUMPDEST PUSH1 0x0 DUP1 PUSH1 0x40 DUP4 DUP6 SUB SLT ISZERO PUSH2 0x46DC JUMPI DUP1 DUP2 REVERT JUMPDEST DUP3 CALLDATALOAD PUSH2 0x46E7 DUP2 PUSH2 0x57D1 JUMP JUMPDEST SWAP2 POP PUSH1 0x20 DUP4 ADD CALLDATALOAD PUSH2 0x46F7 DUP2 PUSH2 0x57D1 JUMP JUMPDEST DUP1 SWAP2 POP POP SWAP3 POP SWAP3 SWAP1 POP JUMP JUMPDEST PUSH1 0x0 DUP1 PUSH1 0x0 PUSH1 0x60 DUP5 DUP7 SUB SLT ISZERO PUSH2 0x4716 JUMPI DUP1 DUP2 REVERT JUMPDEST DUP4 CALLDATALOAD PUSH2 0x4721 DUP2 PUSH2 0x57D1 JUMP JUMPDEST SWAP3 POP PUSH1 0x20 DUP5 ADD CALLDATALOAD PUSH2 0x4731 DUP2 PUSH2 0x57D1 JUMP JUMPDEST SWAP3 SWAP6 SWAP3 SWAP5 POP POP POP PUSH1 0x40 SWAP2 SWAP1 SWAP2 ADD CALLDATALOAD SWAP1 JUMP JUMPDEST PUSH1 0x0 DUP1 PUSH1 0x40 DUP4 DUP6 SUB SLT ISZERO PUSH2 0x4754 JUMPI DUP2 DUP3 REVERT JUMPDEST DUP3 CALLDATALOAD PUSH2 0x475F DUP2 PUSH2 0x57D1 JUMP JUMPDEST SWAP5 PUSH1 0x20 SWAP4 SWAP1 SWAP4 ADD CALLDATALOAD SWAP4 POP POP POP JUMP JUMPDEST PUSH1 0x0 PUSH1 0x20 DUP1 DUP4 DUP6 SUB SLT ISZERO PUSH2 0x477F JUMPI DUP2 DUP3 REVERT JUMPDEST DUP3 MLOAD PUSH8 0xFFFFFFFFFFFFFFFF DUP1 DUP3 GT ISZERO PUSH2 0x4796 JUMPI DUP4 DUP5 REVERT JUMPDEST DUP2 DUP6 ADD SWAP2 POP DUP6 PUSH1 0x1F DUP4 ADD SLT PUSH2 0x47A9 JUMPI DUP4 DUP5 REVERT JUMPDEST DUP2 MLOAD DUP2 DUP2 GT ISZERO PUSH2 0x47BB JUMPI PUSH2 0x47BB PUSH2 0x57BB JUMP JUMPDEST DUP4 DUP2 MUL PUSH1 0x40 MLOAD DUP6 DUP3 DUP3 ADD ADD DUP2 DUP2 LT DUP6 DUP3 GT OR ISZERO PUSH2 0x47DA JUMPI PUSH2 0x47DA PUSH2 0x57BB JUMP JUMPDEST PUSH1 0x40 MSTORE DUP3 DUP2 MSTORE DUP6 DUP2 ADD SWAP4 POP DUP5 DUP7 ADD DUP3 DUP7 ADD DUP8 ADD DUP11 LT ISZERO PUSH2 0x47F8 JUMPI DUP8 DUP9 REVERT JUMPDEST DUP8 SWAP6 POP JUMPDEST DUP4 DUP7 LT ISZERO PUSH2 0x481A JUMPI DUP1 MLOAD DUP6 MSTORE PUSH1 0x1 SWAP6 SWAP1 SWAP6 ADD SWAP5 SWAP4 DUP7 ADD SWAP4 DUP7 ADD PUSH2 0x47FC JUMP JUMPDEST POP SWAP9 SWAP8 POP POP POP POP POP POP POP POP JUMP JUMPDEST PUSH1 0x0 PUSH1 0x20 DUP3 DUP5 SUB SLT ISZERO PUSH2 0x4838 JUMPI DUP1 DUP2 REVERT JUMPDEST DUP2 MLOAD PUSH2 0x7BA DUP2 PUSH2 0x57E9 JUMP JUMPDEST PUSH1 0x0 DUP1 PUSH1 0x0 PUSH1 0x60 DUP5 DUP7 SUB SLT ISZERO PUSH2 0x4857 JUMPI DUP3 DUP4 REVERT JUMPDEST DUP4 CALLDATALOAD PUSH2 0x4862 DUP2 PUSH2 0x57D1 JUMP JUMPDEST SWAP3 POP PUSH1 0x20 DUP5 ADD CALLDATALOAD SWAP2 POP PUSH1 0x40 DUP5 ADD CALLDATALOAD PUSH2 0x4879 DUP2 PUSH2 0x57D1 JUMP JUMPDEST DUP1 SWAP2 POP POP SWAP3 POP SWAP3 POP SWAP3 JUMP JUMPDEST PUSH1 0x0 DUP1 PUSH1 0x40 DUP4 DUP6 SUB SLT ISZERO PUSH2 0x4896 JUMPI DUP2 DUP3 REVERT JUMPDEST DUP3 CALLDATALOAD PUSH2 0x48A1 DUP2 PUSH2 0x57F7 JUMP JUMPDEST SWAP2 POP PUSH1 0x20 DUP4 ADD CALLDATALOAD PUSH2 0x46F7 DUP2 PUSH2 0x57F7 JUMP JUMPDEST PUSH1 0x0 DUP1 PUSH1 0x0 PUSH1 0x60 DUP5 DUP7 SUB SLT ISZERO PUSH2 0x48C5 JUMPI DUP1 DUP2 REVERT JUMPDEST DUP4 CALLDATALOAD PUSH2 0x48D0 DUP2 PUSH2 0x57F7 JUMP JUMPDEST SWAP3 POP PUSH1 0x20 DUP5 ADD CALLDATALOAD PUSH2 0x48E0 DUP2 PUSH2 0x57F7 JUMP JUMPDEST SWAP2 POP PUSH1 0x40 DUP5 ADD CALLDATALOAD PUSH2 0x4879 DUP2 PUSH2 0x5806 JUMP JUMPDEST PUSH1 0x0 DUP1 PUSH1 0x40 DUP4 DUP6 SUB SLT ISZERO PUSH2 0x4902 JUMPI DUP2 DUP3 REVERT JUMPDEST POP POP DUP1 MLOAD PUSH1 0x20 SWAP1 SWAP2 ADD MLOAD SWAP1 SWAP3 SWAP1 SWAP2 POP JUMP JUMPDEST PUSH1 0x0 DUP1 PUSH1 0x0 DUP1 PUSH1 0x60 DUP6 DUP8 SUB SLT ISZERO PUSH2 0x4928 JUMPI DUP2 DUP3 REVERT JUMPDEST DUP5 CALLDATALOAD SWAP4 POP PUSH1 0x20 DUP6 ADD CALLDATALOAD SWAP3 POP PUSH1 0x40 DUP6 ADD CALLDATALOAD PUSH8 0xFFFFFFFFFFFFFFFF DUP2 GT ISZERO PUSH2 0x494C JUMPI DUP3 DUP4 REVERT JUMPDEST PUSH2 0x4958 DUP8 DUP3 DUP9 ADD PUSH2 0x4655 JUMP JUMPDEST SWAP6 SWAP9 SWAP5 SWAP8 POP SWAP6 POP POP POP POP JUMP JUMPDEST PUSH1 0x0 DUP1 PUSH1 0x0 DUP1 PUSH1 0x0 DUP1 PUSH1 0x0 DUP1 PUSH2 0x100 DUP10 DUP12 SUB SLT ISZERO PUSH2 0x4980 JUMPI DUP6 DUP7 REVERT JUMPDEST DUP9 CALLDATALOAD SWAP8 POP PUSH1 0x20 DUP10 ADD CALLDATALOAD PUSH2 0x4992 DUP2 PUSH2 0x57D1 JUMP JUMPDEST SWAP7 POP PUSH1 0x40 DUP10 ADD CALLDATALOAD PUSH2 0x49A2 DUP2 PUSH2 0x57F7 JUMP JUMPDEST SWAP6 POP PUSH1 0x60 DUP10 ADD CALLDATALOAD PUSH2 0x49B2 DUP2 PUSH2 0x57F7 JUMP JUMPDEST SWAP5 POP PUSH1 0x80 DUP10 ADD CALLDATALOAD PUSH2 0x49C2 DUP2 PUSH2 0x57F7 JUMP JUMPDEST SWAP4 POP PUSH1 0xA0 DUP10 ADD CALLDATALOAD PUSH2 0x49D2 DUP2 PUSH2 0x57F7 JUMP JUMPDEST SWAP3 POP PUSH1 0xC0 DUP10 ADD CALLDATALOAD PUSH2 0x49E2 DUP2 PUSH2 0x57F7 JUMP JUMPDEST SWAP2 POP PUSH1 0xE0 DUP10 ADD CALLDATALOAD PUSH2 0x49F2 DUP2 PUSH2 0x57F7 JUMP JUMPDEST DUP1 SWAP2 POP POP SWAP3 SWAP6 SWAP9 POP SWAP3 SWAP6 SWAP9 SWAP1 SWAP4 SWAP7 POP JUMP JUMPDEST PUSH1 0x0 DUP1 PUSH1 0x40 DUP4 DUP6 SUB SLT ISZERO PUSH2 0x4A15 JUMPI DUP2 DUP3 REVERT JUMPDEST DUP3 MLOAD PUSH2 0x4A20 DUP2 PUSH2 0x5806 JUMP JUMPDEST PUSH1 0x20 DUP5 ADD MLOAD SWAP1 SWAP3 POP PUSH2 0x46F7 DUP2 PUSH2 0x5806 JUMP JUMPDEST PUSH1 0x0 DUP1 PUSH1 0x0 DUP1 PUSH1 0x0 PUSH1 0xA0 DUP7 DUP9 SUB SLT ISZERO PUSH2 0x4A48 JUMPI DUP3 DUP4 REVERT JUMPDEST DUP6 MLOAD PUSH2 0x4A53 DUP2 PUSH2 0x5806 JUMP JUMPDEST DUP1 SWAP6 POP POP PUSH1 0x20 DUP7 ADD MLOAD SWAP4 POP PUSH1 0x40 DUP7 ADD MLOAD SWAP3 POP PUSH1 0x60 DUP7 ADD MLOAD PUSH2 0x4A73 DUP2 PUSH2 0x5806 JUMP JUMPDEST PUSH1 0x80 DUP8 ADD MLOAD SWAP1 SWAP3 POP PUSH2 0x4A84 DUP2 PUSH2 0x5806 JUMP JUMPDEST DUP1 SWAP2 POP POP SWAP3 SWAP6 POP SWAP3 SWAP6 SWAP1 SWAP4 POP JUMP JUMPDEST PUSH1 0x0 DUP1 PUSH1 0x0 DUP1 PUSH1 0x0 DUP1 PUSH1 0x0 PUSH1 0xE0 DUP9 DUP11 SUB SLT ISZERO PUSH2 0x4AAC JUMPI DUP1 DUP2 REVERT JUMPDEST DUP8 MLOAD PUSH2 0x4AB7 DUP2 PUSH2 0x57D1 JUMP JUMPDEST PUSH1 0x20 DUP10 ADD MLOAD SWAP1 SWAP8 POP PUSH2 0x4AC8 DUP2 PUSH2 0x57F7 JUMP JUMPDEST SWAP6 POP PUSH2 0x4AD6 PUSH1 0x40 DUP10 ADD PUSH2 0x469C JUMP JUMPDEST SWAP5 POP PUSH2 0x4AE4 PUSH1 0x60 DUP10 ADD PUSH2 0x469C JUMP JUMPDEST SWAP4 POP PUSH2 0x4AF2 PUSH1 0x80 DUP10 ADD PUSH2 0x469C JUMP JUMPDEST SWAP3 POP PUSH1 0xA0 DUP9 ADD MLOAD PUSH1 0xFF DUP2 AND DUP2 EQ PUSH2 0x4B07 JUMPI DUP2 DUP3 REVERT JUMPDEST PUSH1 0xC0 DUP10 ADD MLOAD SWAP1 SWAP3 POP PUSH2 0x4B18 DUP2 PUSH2 0x57E9 JUMP JUMPDEST DUP1 SWAP2 POP POP SWAP3 SWAP6 SWAP9 SWAP2 SWAP5 SWAP8 POP SWAP3 SWAP6 POP JUMP JUMPDEST PUSH1 0x0 PUSH1 0x20 DUP3 DUP5 SUB SLT ISZERO PUSH2 0x4B39 JUMPI DUP1 DUP2 REVERT JUMPDEST POP CALLDATALOAD SWAP2 SWAP1 POP JUMP JUMPDEST PUSH1 0x0 PUSH1 0x20 DUP3 DUP5 SUB SLT ISZERO PUSH2 0x4B51 JUMPI DUP1 DUP2 REVERT JUMPDEST POP MLOAD SWAP2 SWAP1 POP JUMP JUMPDEST PUSH1 0x0 DUP1 PUSH1 0x0 PUSH1 0x60 DUP5 DUP7 SUB SLT ISZERO PUSH2 0x4B6C JUMPI DUP1 DUP2 REVERT JUMPDEST DUP4 CALLDATALOAD SWAP3 POP PUSH1 0x20 DUP5 ADD CALLDATALOAD SWAP2 POP PUSH1 0x40 DUP5 ADD CALLDATALOAD PUSH2 0x4879 DUP2 PUSH2 0x57D1 JUMP JUMPDEST PUSH1 0x0 DUP1 PUSH1 0x0 DUP1 PUSH1 0x0 DUP1 PUSH1 0xC0 DUP8 DUP10 SUB SLT ISZERO PUSH2 0x4B9D JUMPI DUP4 DUP5 REVERT JUMPDEST DUP7 CALLDATALOAD SWAP6 POP PUSH1 0x20 DUP8 ADD CALLDATALOAD SWAP5 POP PUSH1 0x40 DUP8 ADD CALLDATALOAD SWAP4 POP PUSH1 0x60 DUP8 ADD CALLDATALOAD PUSH2 0x4BBD DUP2 PUSH2 0x57D1 JUMP JUMPDEST SWAP3 POP PUSH1 0x80 DUP8 ADD CALLDATALOAD PUSH2 0x4BCD DUP2 PUSH2 0x57E9 JUMP JUMPDEST SWAP2 POP PUSH1 0xA0 DUP8 ADD CALLDATALOAD PUSH2 0x4BDD DUP2 PUSH2 0x57E9 JUMP JUMPDEST DUP1 SWAP2 POP POP SWAP3 SWAP6 POP SWAP3 SWAP6 POP SWAP3 SWAP6 JUMP JUMPDEST PUSH1 0x0 DUP1 PUSH1 0x0 DUP1 PUSH1 0x0 PUSH1 0xA0 DUP7 DUP9 SUB SLT ISZERO PUSH2 0x4C02 JUMPI DUP3 DUP4 REVERT JUMPDEST DUP6 CALLDATALOAD SWAP5 POP PUSH1 0x20 DUP7 ADD CALLDATALOAD SWAP4 POP PUSH1 0x40 DUP7 ADD CALLDATALOAD SWAP3 POP PUSH1 0x60 DUP7 ADD CALLDATALOAD SWAP2 POP PUSH1 0x80 DUP7 ADD CALLDATALOAD PUSH2 0x4A84 DUP2 PUSH2 0x57D1 JUMP JUMPDEST PUSH1 0x0 DUP2 MLOAD DUP1 DUP5 MSTORE PUSH1 0x20 DUP1 DUP6 ADD SWAP5 POP DUP1 DUP5 ADD DUP4 JUMPDEST DUP4 DUP2 LT ISZERO PUSH2 0x4C61 JUMPI DUP2 MLOAD PUSH1 0x1 PUSH1 0x1 PUSH1 0xA0 SHL SUB AND DUP8 MSTORE SWAP6 DUP3 ADD SWAP6 SWAP1 DUP3 ADD SWAP1 PUSH1 0x1 ADD PUSH2 0x4C3C JUMP JUMPDEST POP SWAP5 SWAP6 SWAP5 POP POP POP POP POP JUMP JUMPDEST PUSH1 0x60 SWAP4 SWAP1 SWAP4 SHL PUSH12 0xFFFFFFFFFFFFFFFFFFFFFFFF NOT AND DUP4 MSTORE PUSH1 0x2 SWAP2 DUP3 SIGNEXTEND PUSH1 0xE8 SWAP1 DUP2 SHL PUSH1 0x14 DUP6 ADD MSTORE SWAP2 SIGNEXTEND SWAP1 SHL PUSH1 0x17 DUP3 ADD MSTORE PUSH1 0x1A ADD SWAP1 JUMP JUMPDEST PUSH1 0x0 DUP3 MLOAD PUSH2 0x4CB3 DUP2 DUP5 PUSH1 0x20 DUP8 ADD PUSH2 0x56B7 JUMP JUMPDEST SWAP2 SWAP1 SWAP2 ADD SWAP3 SWAP2 POP POP JUMP JUMPDEST PUSH1 0x1 PUSH1 0x1 PUSH1 0xA0 SHL SUB SWAP2 SWAP1 SWAP2 AND DUP2 MSTORE PUSH1 0x20 ADD SWAP1 JUMP JUMPDEST PUSH1 0x1 PUSH1 0x1 PUSH1 0xA0 SHL SUB SWAP4 DUP5 AND DUP2 MSTORE SWAP2 SWAP1 SWAP3 AND PUSH1 0x20 DUP3 ADD MSTORE PUSH1 0x40 DUP2 ADD SWAP2 SWAP1 SWAP2 MSTORE PUSH1 0x60 ADD SWAP1 JUMP JUMPDEST PUSH1 0x1 PUSH1 0x1 PUSH1 0xA0 SHL SUB SWAP5 DUP6 AND DUP2 MSTORE SWAP3 ISZERO ISZERO PUSH1 0x20 DUP5 ADD MSTORE PUSH1 0x40 DUP4 ADD SWAP2 SWAP1 SWAP2 MSTORE SWAP1 SWAP2 AND PUSH1 0x60 DUP3 ADD MSTORE PUSH1 0xA0 PUSH1 0x80 DUP3 ADD DUP2 SWAP1 MSTORE PUSH1 0x0 SWAP1 DUP3 ADD MSTORE PUSH1 0xC0 ADD SWAP1 JUMP JUMPDEST PUSH1 0x1 PUSH1 0x1 PUSH1 0xA0 SHL SUB SWAP5 SWAP1 SWAP5 AND DUP5 MSTORE PUSH1 0x2 SWAP3 DUP4 SIGNEXTEND PUSH1 0x20 DUP6 ADD MSTORE SWAP2 SIGNEXTEND PUSH1 0x40 DUP4 ADD MSTORE PUSH1 0x1 PUSH1 0x1 PUSH1 0x80 SHL SUB AND PUSH1 0x60 DUP3 ADD MSTORE PUSH1 0xA0 PUSH1 0x80 DUP3 ADD DUP2 SWAP1 MSTORE PUSH1 0x0 SWAP1 DUP3 ADD MSTORE PUSH1 0xC0 ADD SWAP1 JUMP JUMPDEST PUSH1 0x1 PUSH1 0x1 PUSH1 0xA0 SHL SUB SWAP6 SWAP1 SWAP6 AND DUP6 MSTORE PUSH1 0x2 SWAP4 DUP5 SIGNEXTEND PUSH1 0x20 DUP7 ADD MSTORE SWAP2 SWAP1 SWAP3 SIGNEXTEND PUSH1 0x40 DUP5 ADD MSTORE PUSH1 0x1 PUSH1 0x1 PUSH1 0x80 SHL SUB SWAP2 DUP3 AND PUSH1 0x60 DUP5 ADD MSTORE AND PUSH1 0x80 DUP3 ADD MSTORE PUSH1 0xA0 ADD SWAP1 JUMP JUMPDEST PUSH1 0x1 PUSH1 0x1 PUSH1 0xA0 SHL SUB SWAP3 SWAP1 SWAP3 AND DUP3 MSTORE PUSH1 0x20 DUP3 ADD MSTORE PUSH1 0x40 ADD SWAP1 JUMP JUMPDEST SWAP1 ISZERO ISZERO DUP2 MSTORE PUSH1 0x20 ADD SWAP1 JUMP JUMPDEST SWAP1 DUP2 MSTORE PUSH1 0x20 ADD SWAP1 JUMP JUMPDEST PUSH1 0x2 SWAP2 SWAP1 SWAP2 SIGNEXTEND DUP2 MSTORE PUSH1 0x20 ADD SWAP1 JUMP JUMPDEST PUSH1 0x2 SWAP4 DUP5 SIGNEXTEND DUP2 MSTORE SWAP2 SWAP1 SWAP3 SIGNEXTEND PUSH1 0x20 DUP3 ADD MSTORE PUSH1 0x1 PUSH1 0x1 PUSH1 0x80 SHL SUB SWAP1 SWAP2 AND PUSH1 0x40 DUP3 ADD MSTORE PUSH1 0x60 ADD SWAP1 JUMP JUMPDEST PUSH1 0x2 SWAP5 SWAP1 SWAP5 SIGNEXTEND DUP5 MSTORE PUSH1 0x20 DUP5 ADD SWAP3 SWAP1 SWAP3 MSTORE PUSH1 0x40 DUP4 ADD MSTORE PUSH1 0x60 DUP3 ADD MSTORE PUSH1 0x80 ADD SWAP1 JUMP JUMPDEST PUSH1 0x0 PUSH1 0x20 DUP3 MSTORE DUP3 MLOAD DUP1 PUSH1 0x20 DUP5 ADD MSTORE PUSH2 0x4E4E DUP2 PUSH1 0x40 DUP6 ADD PUSH1 0x20 DUP8 ADD PUSH2 0x56B7 JUMP JUMPDEST PUSH1 0x1F ADD PUSH1 0x1F NOT AND SWAP2 SWAP1 SWAP2 ADD PUSH1 0x40 ADD SWAP3 SWAP2 POP POP JUMP JUMPDEST PUSH1 0x20 DUP1 DUP3 MSTORE PUSH1 0x23 SWAP1 DUP3 ADD MSTORE PUSH32 0x45524332303A207472616E7366657220746F20746865207A65726F2061646472 PUSH1 0x40 DUP3 ADD MSTORE PUSH3 0x657373 PUSH1 0xE8 SHL PUSH1 0x60 DUP3 ADD MSTORE PUSH1 0x80 ADD SWAP1 JUMP JUMPDEST PUSH1 0x20 DUP1 DUP3 MSTORE PUSH1 0xA SWAP1 DUP3 ADD MSTORE PUSH10 0x30B6B7BAB73A1826B4B7 PUSH1 0xB1 SHL PUSH1 0x40 DUP3 ADD MSTORE PUSH1 0x60 ADD SWAP1 JUMP JUMPDEST PUSH1 0x20 DUP1 DUP3 MSTORE PUSH1 0x22 SWAP1 DUP3 ADD MSTORE PUSH32 0x45524332303A206275726E20616D6F756E7420657863656564732062616C616E PUSH1 0x40 DUP3 ADD MSTORE PUSH2 0x6365 PUSH1 0xF0 SHL PUSH1 0x60 DUP3 ADD MSTORE PUSH1 0x80 ADD SWAP1 JUMP JUMPDEST PUSH1 0x20 DUP1 DUP3 MSTORE PUSH1 0x2 SWAP1 DUP3 ADD MSTORE PUSH2 0x746F PUSH1 0xF0 SHL PUSH1 0x40 DUP3 ADD MSTORE PUSH1 0x60 ADD SWAP1 JUMP JUMPDEST PUSH1 0x20 DUP1 DUP3 MSTORE PUSH1 0x15 SWAP1 DUP3 ADD MSTORE PUSH21 0x3A34B1B5A637BBB2B9101E103A34B1B5AAB83832B9 PUSH1 0x59 SHL PUSH1 0x40 DUP3 ADD MSTORE PUSH1 0x60 ADD SWAP1 JUMP JUMPDEST PUSH1 0x20 DUP1 DUP3 MSTORE PUSH1 0x22 SWAP1 DUP3 ADD MSTORE PUSH32 0x45524332303A20617070726F766520746F20746865207A65726F206164647265 PUSH1 0x40 DUP3 ADD MSTORE PUSH2 0x7373 PUSH1 0xF0 SHL PUSH1 0x60 DUP3 ADD MSTORE PUSH1 0x80 ADD SWAP1 JUMP JUMPDEST PUSH1 0x20 DUP1 DUP3 MSTORE PUSH1 0x17 SWAP1 DUP3 ADD MSTORE PUSH32 0x7469636B4C6F7765722025207469636B53706163696E67000000000000000000 PUSH1 0x40 DUP3 ADD MSTORE PUSH1 0x60 ADD SWAP1 JUMP JUMPDEST PUSH1 0x20 DUP1 DUP3 MSTORE PUSH1 0xD SWAP1 DUP3 ADD MSTORE PUSH13 0x73776170706564536861726573 PUSH1 0x98 SHL PUSH1 0x40 DUP3 ADD MSTORE PUSH1 0x60 ADD SWAP1 JUMP JUMPDEST PUSH1 0x20 DUP1 DUP3 MSTORE PUSH1 0x1D SWAP1 DUP3 ADD MSTORE PUSH32 0x45524332303A20696E73756666696369656E7420616C6C6F77616E6365000000 PUSH1 0x40 DUP3 ADD MSTORE PUSH1 0x60 ADD SWAP1 JUMP JUMPDEST PUSH1 0x20 DUP1 DUP3 MSTORE PUSH1 0x17 SWAP1 DUP3 ADD MSTORE PUSH32 0x7469636B55707065722025207469636B53706163696E67000000000000000000 PUSH1 0x40 DUP3 ADD MSTORE PUSH1 0x60 ADD SWAP1 JUMP JUMPDEST PUSH1 0x20 DUP1 DUP3 MSTORE PUSH1 0x26 SWAP1 DUP3 ADD MSTORE PUSH32 0x45524332303A207472616E7366657220616D6F756E7420657863656564732062 PUSH1 0x40 DUP3 ADD MSTORE PUSH6 0x616C616E6365 PUSH1 0xD0 SHL PUSH1 0x60 DUP3 ADD MSTORE PUSH1 0x80 ADD SWAP1 JUMP JUMPDEST PUSH1 0x20 DUP1 DUP3 MSTORE PUSH1 0x8 SWAP1 DUP3 ADD MSTORE PUSH8 0x3134B22AB83832B9 PUSH1 0xC1 SHL PUSH1 0x40 DUP3 ADD MSTORE PUSH1 0x60 ADD SWAP1 JUMP JUMPDEST PUSH1 0x20 DUP1 DUP3 MSTORE PUSH1 0x26 SWAP1 DUP3 ADD MSTORE PUSH32 0x416464726573733A20696E73756666696369656E742062616C616E636520666F PUSH1 0x40 DUP3 ADD MSTORE PUSH6 0x1C8818D85B1B PUSH1 0xD2 SHL PUSH1 0x60 DUP3 ADD MSTORE PUSH1 0x80 ADD SWAP1 JUMP JUMPDEST PUSH1 0x20 DUP1 DUP3 MSTORE DUP2 DUP2 ADD MSTORE PUSH32 0x616D6F756E743044657369726564206F7220616D6F756E743144657369726564 PUSH1 0x40 DUP3 ADD MSTORE PUSH1 0x60 ADD SWAP1 JUMP JUMPDEST PUSH1 0x20 DUP1 DUP3 MSTORE PUSH1 0x11 SWAP1 DUP3 ADD MSTORE PUSH17 0x70656E64696E67476F7665726E616E6365 PUSH1 0x78 SHL PUSH1 0x40 DUP3 ADD MSTORE PUSH1 0x60 ADD SWAP1 JUMP JUMPDEST PUSH1 0x20 DUP1 DUP3 MSTORE PUSH1 0x12 SWAP1 DUP3 ADD MSTORE PUSH18 0x616D6F756E7430206F7220616D6F756E7431 PUSH1 0x70 SHL PUSH1 0x40 DUP3 ADD MSTORE PUSH1 0x60 ADD SWAP1 JUMP JUMPDEST PUSH1 0x20 DUP1 DUP3 MSTORE PUSH1 0xC SWAP1 DUP3 ADD MSTORE PUSH12 0x7377617070656443726F7373 PUSH1 0xA0 SHL PUSH1 0x40 DUP3 ADD MSTORE PUSH1 0x60 ADD SWAP1 JUMP JUMPDEST PUSH1 0x20 DUP1 DUP3 MSTORE PUSH1 0xB SWAP1 DUP3 ADD MSTORE PUSH11 0x70726F746F636F6C466565 PUSH1 0xA8 SHL PUSH1 0x40 DUP3 ADD MSTORE PUSH1 0x60 ADD SWAP1 JUMP JUMPDEST PUSH1 0x20 DUP1 DUP3 MSTORE PUSH1 0x5 SWAP1 DUP3 ADD MSTORE PUSH5 0x3A37B5B2B7 PUSH1 0xD9 SHL PUSH1 0x40 DUP3 ADD MSTORE PUSH1 0x60 ADD SWAP1 JUMP JUMPDEST PUSH1 0x20 DUP1 DUP3 MSTORE PUSH1 0x1B SWAP1 DUP3 ADD MSTORE PUSH32 0x61746C65617374206F6E6520746F6B656E206973206E65656465640000000000 PUSH1 0x40 DUP3 ADD MSTORE PUSH1 0x60 ADD SWAP1 JUMP JUMPDEST PUSH1 0x20 DUP1 DUP3 MSTORE PUSH1 0xC SWAP1 DUP3 ADD MSTORE PUSH12 0x29B430B93832A5B2B2B832B9 PUSH1 0xA1 SHL PUSH1 0x40 DUP3 ADD MSTORE PUSH1 0x60 ADD SWAP1 JUMP JUMPDEST PUSH1 0x20 DUP1 DUP3 MSTORE PUSH1 0xA SWAP1 DUP3 ADD MSTORE PUSH10 0x676F7665726E616E6365 PUSH1 0xB0 SHL PUSH1 0x40 DUP3 ADD MSTORE PUSH1 0x60 ADD SWAP1 JUMP JUMPDEST PUSH1 0x20 DUP1 DUP3 MSTORE PUSH1 0x6 SWAP1 DUP3 ADD MSTORE PUSH6 0x736861726573 PUSH1 0xD0 SHL PUSH1 0x40 DUP3 ADD MSTORE PUSH1 0x60 ADD SWAP1 JUMP JUMPDEST PUSH1 0x20 DUP1 DUP3 MSTORE PUSH1 0x21 SWAP1 DUP3 ADD MSTORE PUSH32 0x45524332303A206275726E2066726F6D20746865207A65726F20616464726573 PUSH1 0x40 DUP3 ADD MSTORE PUSH1 0x73 PUSH1 0xF8 SHL PUSH1 0x60 DUP3 ADD MSTORE PUSH1 0x80 ADD SWAP1 JUMP JUMPDEST PUSH1 0x20 DUP1 DUP3 MSTORE PUSH1 0x5 SWAP1 DUP3 ADD MSTORE PUSH5 0x63726F7373 PUSH1 0xD8 SHL PUSH1 0x40 DUP3 ADD MSTORE PUSH1 0x60 ADD SWAP1 JUMP JUMPDEST PUSH1 0x20 DUP1 DUP3 MSTORE PUSH1 0x25 SWAP1 DUP3 ADD MSTORE PUSH32 0x45524332303A207472616E736665722066726F6D20746865207A65726F206164 PUSH1 0x40 DUP3 ADD MSTORE PUSH5 0x6472657373 PUSH1 0xD8 SHL PUSH1 0x60 DUP3 ADD MSTORE PUSH1 0x80 ADD SWAP1 JUMP JUMPDEST PUSH1 0x20 DUP1 DUP3 MSTORE PUSH1 0xA SWAP1 DUP3 ADD MSTORE PUSH10 0x30B6B7BAB73A18A6B4B7 PUSH1 0xB1 SHL PUSH1 0x40 DUP3 ADD MSTORE PUSH1 0x60 ADD SWAP1 JUMP JUMPDEST PUSH1 0x20 DUP1 DUP3 MSTORE PUSH1 0x8 SWAP1 DUP3 ADD MSTORE PUSH8 0x30B9B5A637BBB2B9 PUSH1 0xC1 SHL PUSH1 0x40 DUP3 ADD MSTORE PUSH1 0x60 ADD SWAP1 JUMP JUMPDEST PUSH1 0x20 DUP1 DUP3 MSTORE PUSH1 0x11 SWAP1 DUP3 ADD MSTORE PUSH17 0x7469636B4C6F77657220746F6F206C6F77 PUSH1 0x78 SHL PUSH1 0x40 DUP3 ADD MSTORE PUSH1 0x60 ADD SWAP1 JUMP JUMPDEST PUSH1 0x20 DUP1 DUP3 MSTORE PUSH1 0x24 SWAP1 DUP3 ADD MSTORE PUSH32 0x45524332303A20617070726F76652066726F6D20746865207A65726F20616464 PUSH1 0x40 DUP3 ADD MSTORE PUSH4 0x72657373 PUSH1 0xE0 SHL PUSH1 0x60 DUP3 ADD MSTORE PUSH1 0x80 ADD SWAP1 JUMP JUMPDEST PUSH1 0x20 DUP1 DUP3 MSTORE PUSH1 0x12 SWAP1 DUP3 ADD MSTORE PUSH18 0xE8D2C6D6AAE0E0CAE440E8DEDE40D0D2CED PUSH1 0x73 SHL PUSH1 0x40 DUP3 ADD MSTORE PUSH1 0x60 ADD SWAP1 JUMP JUMPDEST PUSH1 0x20 DUP1 DUP3 MSTORE PUSH1 0x1D SWAP1 DUP3 ADD MSTORE PUSH32 0x416464726573733A2063616C6C20746F206E6F6E2D636F6E7472616374000000 PUSH1 0x40 DUP3 ADD MSTORE PUSH1 0x60 ADD SWAP1 JUMP JUMPDEST PUSH1 0x20 DUP1 DUP3 MSTORE PUSH1 0xE SWAP1 DUP3 ADD MSTORE PUSH14 0x6D6178546F74616C537570706C79 PUSH1 0x90 SHL PUSH1 0x40 DUP3 ADD MSTORE PUSH1 0x60 ADD SWAP1 JUMP JUMPDEST PUSH1 0x20 DUP1 DUP3 MSTORE PUSH1 0x2A SWAP1 DUP3 ADD MSTORE PUSH32 0x5361666545524332303A204552433230206F7065726174696F6E20646964206E PUSH1 0x40 DUP3 ADD MSTORE PUSH10 0x1BDD081CDD58D8D95959 PUSH1 0xB2 SHL PUSH1 0x60 DUP3 ADD MSTORE PUSH1 0x80 ADD SWAP1 JUMP JUMPDEST PUSH1 0x20 DUP1 DUP3 MSTORE PUSH1 0x1F SWAP1 DUP3 ADD MSTORE PUSH32 0x5265656E7472616E637947756172643A207265656E7472616E742063616C6C00 PUSH1 0x40 DUP3 ADD MSTORE PUSH1 0x60 ADD SWAP1 JUMP JUMPDEST PUSH1 0x20 DUP1 DUP3 MSTORE PUSH1 0x25 SWAP1 DUP3 ADD MSTORE PUSH32 0x45524332303A2064656372656173656420616C6C6F77616E63652062656C6F77 PUSH1 0x40 DUP3 ADD MSTORE PUSH5 0x207A65726F PUSH1 0xD8 SHL PUSH1 0x60 DUP3 ADD MSTORE PUSH1 0x80 ADD SWAP1 JUMP JUMPDEST PUSH1 0x20 DUP1 DUP3 MSTORE PUSH1 0x1F SWAP1 DUP3 ADD MSTORE PUSH32 0x45524332303A206D696E7420746F20746865207A65726F206164647265737300 PUSH1 0x40 DUP3 ADD MSTORE PUSH1 0x60 ADD SWAP1 JUMP JUMPDEST PUSH1 0x0 DUP4 DUP3 MSTORE PUSH1 0x40 PUSH1 0x20 DUP4 ADD MSTORE PUSH2 0x3FFA PUSH1 0x40 DUP4 ADD DUP5 PUSH2 0x4C29 JUMP JUMPDEST PUSH1 0x0 DUP7 DUP3 MSTORE DUP6 PUSH1 0x20 DUP4 ADD MSTORE PUSH1 0xA0 PUSH1 0x40 DUP4 ADD MSTORE PUSH2 0x55C3 PUSH1 0xA0 DUP4 ADD DUP7 PUSH2 0x4C29 JUMP JUMPDEST PUSH1 0x1 PUSH1 0x1 PUSH1 0xA0 SHL SUB SWAP5 SWAP1 SWAP5 AND PUSH1 0x60 DUP4 ADD MSTORE POP PUSH1 0x80 ADD MSTORE SWAP4 SWAP3 POP POP POP JUMP JUMPDEST SWAP3 DUP4 MSTORE PUSH1 0x20 DUP4 ADD SWAP2 SWAP1 SWAP2 MSTORE PUSH1 0x40 DUP3 ADD MSTORE PUSH1 0x60 ADD SWAP1 JUMP JUMPDEST SWAP2 DUP3 MSTORE PUSH1 0x20 DUP3 ADD MSTORE PUSH1 0x40 ADD SWAP1 JUMP JUMPDEST SWAP4 DUP5 MSTORE PUSH1 0x20 DUP5 ADD SWAP3 SWAP1 SWAP3 MSTORE PUSH1 0x40 DUP4 ADD MSTORE PUSH1 0x60 DUP3 ADD MSTORE PUSH1 0x80 ADD SWAP1 JUMP JUMPDEST PUSH1 0xFF SWAP2 SWAP1 SWAP2 AND DUP2 MSTORE PUSH1 0x20 ADD SWAP1 JUMP JUMPDEST PUSH1 0x0 DUP3 NOT DUP3 GT ISZERO PUSH2 0x5640 JUMPI PUSH2 0x5640 PUSH2 0x578F JUMP JUMPDEST POP ADD SWAP1 JUMP JUMPDEST PUSH1 0x0 DUP3 PUSH2 0x5654 JUMPI PUSH2 0x5654 PUSH2 0x57A5 JUMP JUMPDEST POP DIV SWAP1 JUMP JUMPDEST PUSH1 0x0 DUP2 PUSH1 0x0 NOT DIV DUP4 GT DUP3 ISZERO ISZERO AND ISZERO PUSH2 0x5673 JUMPI PUSH2 0x5673 PUSH2 0x578F JUMP JUMPDEST POP MUL SWAP1 JUMP JUMPDEST PUSH1 0x0 PUSH1 0x1 PUSH1 0x1 PUSH1 0xA0 SHL SUB DUP4 DUP2 AND SWAP1 DUP4 AND DUP2 DUP2 LT ISZERO PUSH2 0x5698 JUMPI PUSH2 0x5698 PUSH2 0x578F JUMP JUMPDEST SUB SWAP4 SWAP3 POP POP POP JUMP JUMPDEST PUSH1 0x0 DUP3 DUP3 LT ISZERO PUSH2 0x56B2 JUMPI PUSH2 0x56B2 PUSH2 0x578F JUMP JUMPDEST POP SUB SWAP1 JUMP JUMPDEST PUSH1 0x0 JUMPDEST DUP4 DUP2 LT ISZERO PUSH2 0x56D2 JUMPI DUP2 DUP2 ADD MLOAD DUP4 DUP3 ADD MSTORE PUSH1 0x20 ADD PUSH2 0x56BA JUMP JUMPDEST DUP4 DUP2 GT ISZERO PUSH2 0x2370 JUMPI POP POP PUSH1 0x0 SWAP2 ADD MSTORE JUMP JUMPDEST PUSH1 0x2 DUP2 DIV PUSH1 0x1 DUP3 AND DUP1 PUSH2 0x56F7 JUMPI PUSH1 0x7F DUP3 AND SWAP2 POP JUMPDEST PUSH1 0x20 DUP3 LT DUP2 EQ ISZERO PUSH2 0x5718 JUMPI PUSH4 0x4E487B71 PUSH1 0xE0 SHL PUSH1 0x0 MSTORE PUSH1 0x22 PUSH1 0x4 MSTORE PUSH1 0x24 PUSH1 0x0 REVERT JUMPDEST POP SWAP2 SWAP1 POP JUMP JUMPDEST PUSH1 0x0 DUP3 PUSH1 0x2 SIGNEXTEND DUP1 PUSH2 0x5731 JUMPI PUSH2 0x5731 PUSH2 0x57A5 JUMP JUMPDEST DUP1 DUP4 PUSH1 0x2 SIGNEXTEND SMOD SWAP2 POP POP SWAP3 SWAP2 POP POP JUMP JUMPDEST PUSH1 0x0 DUP3 PUSH2 0x574F JUMPI PUSH2 0x574F PUSH2 0x57A5 JUMP JUMPDEST POP MOD SWAP1 JUMP JUMPDEST PUSH1 0x0 DUP2 PUSH1 0x2 SIGNEXTEND PUSH3 0x7FFFFF NOT DUP2 EQ ISZERO PUSH2 0x576E JUMPI PUSH2 0x576E PUSH2 0x578F JUMP JUMPDEST SWAP1 SUB SWAP2 SWAP1 POP JUMP JUMPDEST PUSH1 0x0 PUSH1 0x1 PUSH1 0xFF SHL DUP3 EQ ISZERO PUSH2 0x578B JUMPI PUSH2 0x578B PUSH2 0x578F JUMP JUMPDEST SUB SWAP1 JUMP JUMPDEST PUSH4 0x4E487B71 PUSH1 0xE0 SHL PUSH1 0x0 MSTORE PUSH1 0x11 PUSH1 0x4 MSTORE PUSH1 0x24 PUSH1 0x0 REVERT JUMPDEST PUSH4 0x4E487B71 PUSH1 0xE0 SHL PUSH1 0x0 MSTORE PUSH1 0x12 PUSH1 0x4 MSTORE PUSH1 0x24 PUSH1 0x0 REVERT JUMPDEST PUSH4 0x4E487B71 PUSH1 0xE0 SHL PUSH1 0x0 MSTORE PUSH1 0x41 PUSH1 0x4 MSTORE PUSH1 0x24 PUSH1 0x0 REVERT JUMPDEST PUSH1 0x1 PUSH1 0x1 PUSH1 0xA0 SHL SUB DUP2 AND DUP2 EQ PUSH2 0x57E6 JUMPI PUSH1 0x0 DUP1 REVERT JUMPDEST POP JUMP JUMPDEST DUP1 ISZERO ISZERO DUP2 EQ PUSH2 0x57E6 JUMPI PUSH1 0x0 DUP1 REVERT JUMPDEST DUP1 PUSH1 0x2 SIGNEXTEND DUP2 EQ PUSH2 0x57E6 JUMPI PUSH1 0x0 DUP1 REVERT JUMPDEST PUSH1 0x1 PUSH1 0x1 PUSH1 0x80 SHL SUB DUP2 AND DUP2 EQ PUSH2 0x57E6 JUMPI PUSH1 0x0 DUP1 REVERT INVALID LOG2 PUSH5 0x6970667358 0x22 SLT KECCAK256 0xDA SELFDESTRUCT 0xFB SUB EXTCODEHASH 0xAD CREATE2 PUSH17 0x15843630BC66B644F496B7C436D0BAE875 PUSH13 0xD2A0E2B16A9764736F6C634300 ADDMOD STOP STOP CALLER ","sha1":"48c74c7afcd2b99a2c973638109da2a3f2b10dd4","source":"// SPDX-License-Identifier: Unlicense\npragma solidity ^0.8.0;\nimport \"@openzeppelin/contracts/security/ReentrancyGuard.sol\";\nimport \"@uniswap/v3-core/contracts/interfaces/callback/IUniswapV3MintCallback.sol\";\nimport \"@uniswap/v3-core/contracts/interfaces/callback/IUniswapV3SwapCallback.sol\";\nimport \"@openzeppelin/contracts/token/ERC20/ERC20.sol\";\nimport \"@openzeppelin/contracts/token/ERC20/IERC20.sol\";\nimport \"@openzeppelin/contracts/token/ERC20/utils/SafeERC20.sol\";\nimport \"@openzeppelin/contracts/utils/math/SafeMath.sol\";\nimport \"@uniswap/v3-core/contracts/interfaces/IUniswapV3Pool.sol\";\nimport \"@openzeppelin/contracts/utils/math/Math.sol\";\nimport \"@uniswap/v3-core/contracts/libraries/TickMath.sol\";\nimport \"@openzeppelin/contracts/token/ERC20/extensions/IERC20Metadata.sol\";\nimport \"@openzeppelin/contracts/utils/Context.sol\";\nimport \"@openzeppelin/contracts/utils/Address.sol\";\nimport \"@openzeppelin/contracts/token/ERC20/utils/SafeERC20.sol\";\nimport \"@uniswap/v3-core/contracts/interfaces/pool/IUniswapV3PoolImmutables.sol\";\nimport \"@uniswap/v3-core/contracts/interfaces/pool/IUniswapV3PoolState.sol\";\nimport \"@uniswap/v3-core/contracts/interfaces/pool/IUniswapV3PoolDerivedState.sol\";\nimport \"@uniswap/v3-core/contracts/interfaces/pool/IUniswapV3PoolActions.sol\";\nimport \"@uniswap/v3-core/contracts/interfaces/pool/IUniswapV3PoolOwnerActions.sol\";\nimport \"@uniswap/v3-core/contracts/interfaces/pool/IUniswapV3PoolEvents.sol\";\nimport \"@uniswap/v3-periphery/contracts/libraries/LiquidityAmounts.sol\";\nimport \"@uniswap/v3-periphery/contracts/libraries/PositionKey.sol\";\nimport \"../interfaces/IVault.sol\";\nimport \"../interfaces/IUniswapV2Router02.sol\";\n\ncontract Sharpe is IVault,IUniswapV3MintCallback,IUniswapV3SwapCallback,ERC20,ReentrancyGuard{\n    using SafeERC20 for IERC20;\n    using SafeMath for uint256;\n    event Deposit(address indexed sender,address indexed to,uint256 shares,uint256 amount0,uint256 amount1);\n    event Withdraw(address indexed sender,address indexed to,uint256 shares,uint256 amount0,uint256 amount1);\n    event CollectFees(uint256 feesToVault0,uint256 feesToVault1,uint256 feesToProtocol0,uint256 feesToProtocol1);\n    event Snapshot(int24 tick, uint256 totalAmount0, uint256 totalAmount1, uint256 totalSupply);\n    IUniswapV3Pool public immutable pool;\n    IUniswapV2Router02 public immutable router;\n    IERC20 public immutable token0;\n    IERC20 public immutable token1;\n    int24 public immutable tickSpacing;\n    uint256 public protocolFee;\n    uint256 public maxTotalSupply;\n    address public SharpeKeeper;\n    address public governance;\n    address public pendingGovernance;\n    address public immutable token0Address;\n    address public immutable token1Address;\n    address public immutable routerAddress;\n    int24 public baseLower;\n    int24 public baseUpper;\n    int24 public limitLower;\n    int24 public limitUpper;\n    uint256 public accruedProtocolFees0;\n    uint256 public accruedProtocolFees1;\n    /**\n     * This vault is mainly for stablecoin pairs\n     * dev After deploying, strategy needs to be set by offchain devs\n     * param _pool Underlying Uniswap V3 pool\n     * param _router Underlying Uniswap V2 router\n     * param _protocolFee Protocol fee expressed as multiple of 1e-6\n     * param _maxTotalSupply Cap on total supply\n     */\n    constructor(\n        address _pool,\n        address _router,\n        uint256 _protocolFee,\n        uint256 _maxTotalSupply\n    ) ERC20(\"Sharpe\", \"SHRP\") {\n        pool = IUniswapV3Pool(_pool);\n        router = IUniswapV2Router02(_router);\n        token0 = IERC20(IUniswapV3Pool(_pool).token0());\n        token1 = IERC20(IUniswapV3Pool(_pool).token1());\n        token0Address = IUniswapV3Pool(_pool).token0();\n        token1Address = IUniswapV3Pool(_pool).token1();\n        routerAddress = _router;\n        tickSpacing = IUniswapV3Pool(_pool).tickSpacing();\n        protocolFee = _protocolFee;\n        maxTotalSupply = _maxTotalSupply;\n        governance = msg.sender;\n        require(_protocolFee < 1e6, \"protocolFee\");\n    }\n    /**\n     * @notice Deposits tokens in proportion to the vault's current holdings.\n     * @dev These tokens sit in the vault and are not used for liquidity on Uniswap until the next rebalance.\n     * Also note it's not necessary to check if user manipulated price to deposit cheaper, as the value of range\n     * orders can only by manipulated higher.\n     * In a scenario where user has only one of each tokens the vault performs\n     * a swap on their behalf at point of deposit.\n     * @param amount0Desired Max amount of token0 to deposit\n     * @param amount1Desired Max amount of token1 to deposit\n     * @param amount0Min Revert if resulting `amount0` is less than this\n     * @param amount1Min Revert if resulting `amount1` is less than this\n     * @param to Recipient of shares\n     * @return shares Number of shares minted\n     * @return amount0 Amount of token0 deposited\n     * @return amount1 Amount of token1 deposited\n     */\n    function deposit(uint256 amount0Desired,uint256 amount1Desired,uint256 amount0Min,uint256 amount1Min, address to)\n        external override nonReentrant\n        returns (uint256 shares,uint256 amount0,uint256 amount1)\n    {\n        require(amount0Desired > 0 || amount1Desired > 0, \"amount0Desired or amount1Desired\");\n        require(to != address(0) && to != address(this), \"to\");\n        // Poke positions so vault's current holdings are up-to-date\n        _poke(baseLower, baseUpper);\n        _poke(limitLower, limitUpper);\n        // Calculate amounts proportional to vault's holdings\n        (shares, amount0, amount1) = _calcSharesAndAmounts(amount0Desired, amount1Desired);\n        \n        //Perform swap from amount0 to amount1 or from amount1 to amount0 if one of amount0Desired or amount1Desired equals zero\n        if (shares == 0){ \n            require((amount0 > 0 && amount1 == 0) || (amount1 > 0 && amount0 == 0), \"amount0 or amount1\");\n            uint256 totalSupply = totalSupply();\n            (uint256 total0, uint256 total1) = getTotalAmounts();\n            // Single Asset Deposit\n            // The goal here is for the vault to hold both tokens at the end even if the user provided just one token\n\n            if (amount0 > 0 && amount1 == 0){\n                //1. View amounts of total0 the vault would have if it were to swap all of total1 \n                //to get the vault's total holdings in the amounts of total0 alone.\n                address[] memory path0 = new address[](2);\n                path0[0] = token1Address;\n                path0[1] = token0Address;\n                uint[] memory total1ToTotal0 = router.getAmountsOut(total1, path0);\n\n                //2. Subtract from amount0 in proportion to vault's total holding and send difference for swap.\n                uint256 amount0ToStore = amount0.mul(total0).div(total0.add(total1ToTotal0[1]));\n                uint256 difference = amount0.sub(amount0ToStore); \n                token0.safeTransferFrom(msg.sender, address(this), amount0); //pulls in single token from recipient\n                token0.approve(routerAddress, difference); //approves router to perform the swap\n                address[] memory path1 = new address[](2);\n                path1[0] = token0Address;\n                path1[1] = token1Address;\n                uint[] memory amount1ToStore = router.swapExactTokensForTokens(difference,0,path1,address(this), block.timestamp); //swaps the difference\n                \n                //3. calculate shares according to amount0 stored and amount1 just received\n                uint256 cross = Math.min(amount0ToStore.mul(total1), amount1ToStore[1].mul(total0));\n                require(cross > 0, \"swappedCross\");\n                amount0 = cross.sub(1).div(total1).add(1);\n                amount1 = cross.sub(1).div(total0).add(1);\n                shares = cross.mul(totalSupply).div(total0).div(total1);\n                require(amount0 >= amount0Min, \"amount0Min\");\n                require(amount1 >= amount1Min, \"amount1Min\");\n                require(shares > 0, \"swappedShares\");\n                \n                // 4. Send back all dust after getting the actual amount0 and amount1 for vault to store proportional to its holdings\n                if (amount0ToStore.sub(amount0) > 0) token0.safeTransfer(to, amount0ToStore.sub(amount0));\n                if (amount1ToStore[1].sub(amount1) > 0) token1.safeTransfer(to, amount1ToStore[1].sub(amount1));\n                \n                // 5. Mint shares to recipient\n                _mint(to, shares);\n                emit Deposit(msg.sender, to, shares, amount0, amount1);\n                require(totalSupply.add(shares) <= maxTotalSupply, \"maxTotalSupply\");\n            }\n            else {\n                //opposite of the first logic\n                address[] memory path0 = new address[](2);\n                path0[0] = token0Address;\n                path0[1] = token1Address;\n                uint[] memory total0ToTotal1 = router.getAmountsOut(total0, path0);\n                uint256 amount1ToStore = amount1.mul(total1).div(total1.add(total0ToTotal1[1]));\n                uint256 difference = amount1.sub(amount1ToStore);\n                token1.safeTransferFrom(msg.sender, address(this), amount1);\n                token1.approve(routerAddress, difference);\n                address[] memory path1 = new address[](2);\n                path1[0] = token1Address;\n                path1[1] = token0Address;\n                uint[] memory amount0ToStore = router.swapExactTokensForTokens(difference,0,path1,address(this), block.timestamp);\n                uint256 cross = Math.min(amount0ToStore[1].mul(total1), amount1ToStore.mul(total0));\n                require(cross > 0, \"swappedCross\");\n                amount0 = cross.sub(1).div(total1).add(1);\n                amount1 = cross.sub(1).div(total0).add(1);\n                shares = cross.mul(totalSupply).div(total0).div(total1);\n                require(amount0 >= amount0Min, \"amount0Min\");\n                require(amount1 >= amount1Min, \"amount1Min\");\n                require(shares > 0, \"swappedShares\");\n                if (amount0ToStore[1].sub(amount0) > 0) token0.safeTransfer(to, amount0ToStore[1].sub(amount0));\n                if (amount1ToStore.sub(amount1) > 0) token1.safeTransfer(to, amount1ToStore.sub(amount1));\n                _mint(to, shares);\n                emit Deposit(msg.sender, to, shares, amount0, amount1);\n                require(totalSupply.add(shares) <= maxTotalSupply, \"maxTotalSupply\");\n            }\n        }\n\n        //Pull in amount0 and amount1 from recipient as long as both are provided\n        else { \n            require(amount0 >= amount0Min, \"amount0Min\");\n            require(amount1 >= amount1Min, \"amount1Min\");\n            require(shares > 0, \"shares\");\n            // Pull in tokens from sender\n            if (amount0 > 0) token0.safeTransferFrom(msg.sender, address(this), amount0);\n            if (amount1 > 0) token1.safeTransferFrom(msg.sender, address(this), amount1);\n            // Mint shares to recipient\n            _mint(to, shares);\n            emit Deposit(msg.sender, to, shares, amount0, amount1);\n            require(totalSupply() <= maxTotalSupply, \"maxTotalSupply\");\n            }\n    }\n    /// @dev Do zero-burns to poke a position on Uniswap so earned fees are\n    /// updated. Should be called if total amounts needs to include up-to-date fees.\n    function _poke(int24 tickLower, int24 tickUpper) internal {\n        (uint128 liquidity, , , , ) = _position(tickLower, tickUpper);\n        if (liquidity > 0) {\n            pool.burn(tickLower, tickUpper, 0);\n        }\n    }\n    /// @dev Calculates the largest possible `amount0` and `amount1` such that\n    /// they're in the same proportion as total amounts, but not greater than\n    /// `amount0Desired` and `amount1Desired` respectively.\n    function _calcSharesAndAmounts(uint256 amount0Desired, uint256 amount1Desired) internal view\n        returns (uint256 shares,uint256 amount0,uint256 amount1)\n    {\n        uint256 totalSupply = totalSupply();\n        (uint256 total0, uint256 total1) = getTotalAmounts();\n\n        // If total supply > 0, vault can't be empty\n        assert(totalSupply == 0 || total0 > 0 || total1 > 0);\n        if (totalSupply == 0) {\n            // For first deposit, just use the amounts desired\n            amount0 = amount0Desired;\n            amount1 = amount1Desired;\n            shares = Math.max(amount0, amount1);\n        } else if (total0 == 0) {\n            amount1 = amount1Desired;\n            shares = amount1.mul(totalSupply).div(total1);\n        } else if (total1 == 0) {\n            amount0 = amount0Desired;\n            shares = amount0.mul(totalSupply).div(total0);\n        } else {\n            //calculate the amount0 and amount1 to take in from recipient so they are in the same ratio to what the vault currently holds\n            require(amount0Desired > 0 || amount1Desired > 0, \"atleast one token is needed\");\n            uint256 cross = Math.min(amount0Desired.mul(total1), amount1Desired.mul(total0));\n            \n            //Tell contract to perform a swap from deposit() with the single token amount given by setting shares to zero\n            if (cross == 0){ \n                amount0 = amount0Desired;\n                amount1 = amount1Desired;\n                shares = 0;\n            }\n            //When recipient already provides both tokens for deposit the shares are calculated and deposit() skips performing a swap\n            else { \n                require(cross > 0, \"cross\");\n                // Round up amounts\n                amount0 = cross.sub(1).div(total1).add(1);\n                amount1 = cross.sub(1).div(total0).add(1);\n                shares = cross.mul(totalSupply).div(total0).div(total1);\n            }\n        }\n    }\n    /**\n     * @notice Withdraws tokens in proportion to the vault's holdings.\n     * @param shares Shares burned by sender\n     * @param amount0Min Revert if resulting `amount0` is smaller than this\n     * @param amount1Min Revert if resulting `amount1` is smaller than this\n     * @param to Recipient of tokens\n     * @return amount0 Amount of token0 sent to recipient\n     * @return amount1 Amount of token1 sent to recipient\n     */\n    function withdraw(uint256 shares,uint256 amount0Min,uint256 amount1Min,address to, bool swapToAmount0, bool swapToAmount1\n) external override nonReentrant returns (uint256 amount0, uint256 amount1) {\n        require(shares > 0, \"shares\");\n        require(to != address(0) && to != address(this), \"to\");\n        uint256 totalSupply = totalSupply();\n\n        // Burn recipient's shares\n        _burn(msg.sender, shares);\n\n        //Fetches all of recipient's lp tokens\n        (amount0, amount1) = _getTokensFromPosition(shares, totalSupply);\n        \n        // Push tokens to recipient\n        if (swapToAmount0 && !swapToAmount1){\n            //Swaps token1 so user receives all assets in token0 only\n            uint256 receivedAmount0 = _zappTokens(amount1, true);\n            amount0 = amount0.add(receivedAmount0);\n            require(amount0 >= amount0Min, \"amount0Min\");\n            if (amount0 > 0) token0.safeTransfer(to, amount0);\n            emit Withdraw(msg.sender, to, shares, amount0, 0);\n        }\n        else if (swapToAmount1 && !swapToAmount0){\n            //Swaps token0 so user receives all assets in token1 only\n            uint256 receivedAmount1 = _zappTokens(amount0, false);\n            amount1 = amount1.add(receivedAmount1);\n            require(amount1 >= amount1Min, \"amount1Min\");\n            if (amount1 > 0) token1.safeTransfer(to, amount1);\n            emit Withdraw(msg.sender, to, shares, 0, amount1);\n        }\n        else{\n            //Sends both tokens to the recipient\n            require(amount0 >= amount0Min, \"amount0Min\");\n            require(amount1 >= amount1Min, \"amount1Min\");\n            if (amount0 > 0) token0.safeTransfer(to, amount0);\n            if (amount1 > 0) token1.safeTransfer(to, amount1);\n            emit Withdraw(msg.sender, to, shares, amount0, amount1);\n        }\n        \n    }\n    /// @dev Performs a swap if recipient wants a single token output at point of withdrawal.\n    function _zappTokens(uint256 amount, bool output) internal returns(uint256 swappedAmount){\n        if (output){\n            token1.approve(routerAddress, amount);\n            address[] memory path = new address[](2);\n            path[0] = token1Address;\n            path[1] = token0Address;\n            uint[] memory receivedToken = router.swapExactTokensForTokens(amount,0,path,address(this), block.timestamp);\n            swappedAmount = receivedToken[1];\n        }\n        else{\n            token0.approve(routerAddress, amount);\n            address [] memory path = new address[](2);\n            path[0] = token0Address;\n            path[1] = token1Address;\n            uint[] memory receivedToken = router.swapExactTokensForTokens(amount, 0, path, address(this), block.timestamp);\n            swappedAmount = receivedToken[1];\n        }\n    }\n    /// @dev Withdraws recipient's proportion of liquidity and adds all unused amounts.\n    function _getTokensFromPosition(uint256 shares, uint256 totalSupply) internal returns(uint256 amount0, uint256 amount1){\n        // Calculate token amounts proportional to unused balances\n        uint256 unusedAmount0 = getBalance0().mul(shares).div(totalSupply);\n        uint256 unusedAmount1 = getBalance1().mul(shares).div(totalSupply);\n        // Withdraw proportion of liquidity from Uniswap pool\n        (uint256 baseAmount0, uint256 baseAmount1) =\n            _burnLiquidityShare(baseLower, baseUpper, shares, totalSupply);\n        (uint256 limitAmount0, uint256 limitAmount1) =\n            _burnLiquidityShare(limitLower, limitUpper, shares, totalSupply);\n        // Sum up total amounts owed to recipient\n        amount0 = unusedAmount0.add(baseAmount0).add(limitAmount0);\n        amount1 = unusedAmount1.add(baseAmount1).add(limitAmount1);\n    }\n    /// @dev Withdraws share of liquidity in a range from Uniswap pool.\n    function _burnLiquidityShare(int24 tickLower,int24 tickUpper,uint256 shares,uint256 totalSupply\n    ) internal returns (uint256 amount0, uint256 amount1) {\n        (uint128 totalLiquidity, , , , ) = _position(tickLower, tickUpper);\n        uint256 liquidity = uint256(totalLiquidity).mul(shares).div(totalSupply);\n        if (liquidity > 0) {\n            (uint256 burned0, uint256 burned1, uint256 fees0, uint256 fees1) = _burnAndCollect(tickLower, tickUpper, _toUint128(liquidity));\n            // Add share of fees\n            amount0 = burned0.add(fees0.mul(shares).div(totalSupply));\n            amount1 = burned1.add(fees1.mul(shares).div(totalSupply));\n        }\n    }\n    /**\n     * @notice Updates vault's positions. Can only be called by the strategy/sharpeKeeper.\n     * @dev Two orders are placed - a base order and a limit order. The base\n     * order is placed first with as much liquidity as possible. This order\n     * should use up all of one token, leaving only the other one. This excess\n     * amount is then placed as a single-sided bid or ask order.\n     */\n    function rebalance(int256 swapAmount,uint160 sqrtPriceLimitX96,int24 _baseLower,int24 _baseUpper,\n        int24 _bidLower,int24 _bidUpper,int24 _askLower,int24 _askUpper\n    ) external nonReentrant{\n        require(msg.sender == SharpeKeeper, \"SharpeKeeper\");\n        _checkRange(_baseLower, _baseUpper);\n        _checkRange(_bidLower, _bidUpper);\n        _checkRange(_askLower, _askUpper);\n        (, int24 tick, , , , , ) = pool.slot0();\n        require(_bidUpper <= tick, \"bidUpper\");\n        require(_askLower > tick, \"askLower\"); // inequality is strict as tick is rounded down\n        // Withdraw all current liquidity from Uniswap pool\n        {\n            (uint128 baseLiquidity, , , , ) = _position(baseLower, baseUpper);\n            (uint128 limitLiquidity, , , , ) = _position(limitLower, limitUpper);\n            _burnAndCollect(baseLower, baseUpper, baseLiquidity);\n            _burnAndCollect(limitLower, limitUpper, limitLiquidity);\n        }\n        // Emit snapshot to record balances and supply\n        uint256 balance0 = getBalance0();\n        uint256 balance1 = getBalance1();\n        emit Snapshot(tick, balance0, balance1, totalSupply());\n        if (swapAmount != 0) {\n            pool.swap(\n                address(this),swapAmount > 0,swapAmount > 0 ? swapAmount : -swapAmount,sqrtPriceLimitX96,\"\");\n            balance0 = getBalance0();\n            balance1 = getBalance1();\n        }\n        // Place base order on Uniswap\n        uint128 liquidity = _liquidityForAmounts(_baseLower, _baseUpper, balance0, balance1);\n        _mintLiquidity(_baseLower, _baseUpper, liquidity);\n        (baseLower, baseUpper) = (_baseLower, _baseUpper);\n        balance0 = getBalance0();\n        balance1 = getBalance1();\n        // Place bid or ask order on Uniswap depending on which token is left\n        uint128 bidLiquidity = _liquidityForAmounts(_bidLower, _bidUpper, balance0, balance1);\n        uint128 askLiquidity = _liquidityForAmounts(_askLower, _askUpper, balance0, balance1);\n        if (bidLiquidity > askLiquidity) {\n            _mintLiquidity(_bidLower, _bidUpper, bidLiquidity);\n            (limitLower, limitUpper) = (_bidLower, _bidUpper);\n        } else {\n            _mintLiquidity(_askLower, _askUpper, askLiquidity);\n            (limitLower, limitUpper) = (_askLower, _askUpper);\n        }\n    }\n    function _checkRange(int24 tickLower, int24 tickUpper) internal view {\n        int24 _tickSpacing = tickSpacing;\n        require(tickLower < tickUpper, \"tickLower < tickUpper\");\n        require(tickLower >= TickMath.MIN_TICK, \"tickLower too low\");\n        require(tickUpper <= TickMath.MAX_TICK, \"tickUpper too high\");\n        require(tickLower % _tickSpacing == 0, \"tickLower % tickSpacing\");\n        require(tickUpper % _tickSpacing == 0, \"tickUpper % tickSpacing\");\n    }\n    /// @dev Withdraws liquidity from a range and collects all fees in the\n    /// process.\n    function _burnAndCollect(int24 tickLower,int24 tickUpper,uint128 liquidity)\n        internal\n        returns (uint256 burned0,uint256 burned1,uint256 feesToVault0,uint256 feesToVault1)\n    {\n        if (liquidity > 0) {\n            (burned0, burned1) = pool.burn(tickLower, tickUpper, liquidity);\n        }\n        // Collect all owed tokens including earned fees\n        (uint256 collect0, uint256 collect1) = pool.collect(address(this),tickLower,tickUpper,type(uint128).max,type(uint128).max);\n        feesToVault0 = collect0.sub(burned0);\n        feesToVault1 = collect1.sub(burned1);\n        uint256 feesToProtocol0;\n        uint256 feesToProtocol1;\n        // Update accrued protocol fees\n        uint256 _protocolFee = protocolFee;\n        if (_protocolFee > 0) {\n            feesToProtocol0 = feesToVault0.mul(_protocolFee).div(1e6);\n            feesToProtocol1 = feesToVault1.mul(_protocolFee).div(1e6);\n            feesToVault0 = feesToVault0.sub(feesToProtocol0);\n            feesToVault1 = feesToVault1.sub(feesToProtocol1);\n            accruedProtocolFees0 = accruedProtocolFees0.add(feesToProtocol0);\n            accruedProtocolFees1 = accruedProtocolFees1.add(feesToProtocol1);\n        }\n        emit CollectFees(feesToVault0, feesToVault1, feesToProtocol0, feesToProtocol1);\n    }\n    /// @dev Deposits liquidity in a range on the Uniswap pool.\n    function _mintLiquidity(int24 tickLower,int24 tickUpper,uint128 liquidity) internal {\n        if (liquidity > 0) {\n            pool.mint(address(this), tickLower, tickUpper, liquidity, \"\");\n        }\n    }\n    /**\n     * @notice Calculates the vault's total holdings of token0 and token1 - in\n     * other words, how much of each token the vault would hold if it withdrew\n     * all its liquidity from Uniswap.\n     */\n    function getTotalAmounts() public view override returns (uint256 total0, uint256 total1) {\n        (uint256 baseAmount0, uint256 baseAmount1) = getPositionAmounts(baseLower, baseUpper);\n        (uint256 limitAmount0, uint256 limitAmount1) =\n            getPositionAmounts(limitLower, limitUpper);\n        total0 = getBalance0().add(baseAmount0).add(limitAmount0);\n        total1 = getBalance1().add(baseAmount1).add(limitAmount1);\n    }\n    /**\n     * @notice Amounts of token0 and token1 held in vault's position. Includes\n     * owed fees but excludes the proportion of fees that will be paid to the\n     * protocol. Doesn't include fees accrued since last poke.\n     */\n    function getPositionAmounts(int24 tickLower, int24 tickUpper) public view returns (uint256 amount0, uint256 amount1) {\n        (uint128 liquidity, , , uint128 tokensOwed0, uint128 tokensOwed1) = _position(tickLower, tickUpper);\n        (amount0, amount1) = _amountsForLiquidity(tickLower, tickUpper, liquidity);\n        // Subtract protocol fees\n        uint256 oneMinusFee = uint256(1e6).sub(protocolFee);\n        amount0 = amount0.add(uint256(tokensOwed0).mul(oneMinusFee).div(1e6));\n        amount1 = amount1.add(uint256(tokensOwed1).mul(oneMinusFee).div(1e6));\n    }\n    /**\n     * @notice Balance of token0 in vault not used in any position.\n     */\n    function getBalance0() public view returns (uint256) {\n        return token0.balanceOf(address(this)).sub(accruedProtocolFees0);\n    }\n    /**\n     * @notice Balance of token1 in vault not used in any position.\n     */\n    function getBalance1() public view returns (uint256) {\n        return token1.balanceOf(address(this)).sub(accruedProtocolFees1);\n    }\n    /// @dev Wrapper around `IUniswapV3Pool.positions()`.\n    function _position(int24 tickLower, int24 tickUpper)\n        internal\n        view\n        returns (uint128,uint256,uint256,uint128,uint128)\n    {\n        bytes32 positionKey = PositionKey.compute(address(this), tickLower, tickUpper);\n        return pool.positions(positionKey);\n    }\n    /// @dev Wrapper around `LiquidityAmounts.getAmountsForLiquidity()`.\n    function _amountsForLiquidity(int24 tickLower,int24 tickUpper,uint128 liquidity\n    ) internal view returns (uint256, uint256) {\n        (uint160 sqrtRatioX96, , , , , , ) = pool.slot0();\n        return\n            LiquidityAmounts.getAmountsForLiquidity(\n                sqrtRatioX96,\n                TickMath.getSqrtRatioAtTick(tickLower),\n                TickMath.getSqrtRatioAtTick(tickUpper),\n                liquidity\n            );\n    }\n    /// @dev Wrapper around `LiquidityAmounts.getLiquidityForAmounts()`.\n    function _liquidityForAmounts(int24 tickLower,int24 tickUpper,uint256 amount0,uint256 amount1\n    ) internal view returns (uint128) {\n        (uint160 sqrtRatioX96, , , , , , ) = pool.slot0();\n        return\n            LiquidityAmounts.getLiquidityForAmounts(sqrtRatioX96,TickMath.getSqrtRatioAtTick(tickLower),\n                TickMath.getSqrtRatioAtTick(tickUpper),amount0,amount1);\n    }\n    /// @dev Casts uint256 to uint128 with overflow check.\n    function _toUint128(uint256 x) internal pure returns (uint128) {\n        assert(x <= type(uint128).max);\n        return uint128(x);\n    }\n    /// @dev Callback for Uniswap V3 pool.\n    function uniswapV3MintCallback(uint256 amount0,uint256 amount1,bytes calldata data) external override {\n        require(msg.sender == address(pool));\n        if (amount0 > 0) token0.safeTransfer(msg.sender, amount0);\n        if (amount1 > 0) token1.safeTransfer(msg.sender, amount1);\n    }\n    /// @dev Callback for Uniswap V3 pool.\n    function uniswapV3SwapCallback(int256 amount0Delta,int256 amount1Delta,bytes calldata data) external override {\n        require(msg.sender == address(pool));\n        if (amount0Delta > 0) token0.safeTransfer(msg.sender, uint256(amount0Delta));\n        if (amount1Delta > 0) token1.safeTransfer(msg.sender, uint256(amount1Delta));\n    }\n    /**\n     * @notice Used to collect accumulated protocol fees.\n     */\n    function collectProtocol(uint256 amount0,uint256 amount1,address to) external onlyGovernance {\n        accruedProtocolFees0 = accruedProtocolFees0.sub(amount0);\n        accruedProtocolFees1 = accruedProtocolFees1.sub(amount1);\n        if (amount0 > 0) token0.safeTransfer(to, amount0);\n        if (amount1 > 0) token1.safeTransfer(to, amount1);\n    }\n    /**\n     * @notice Removes tokens accidentally sent to this vault.\n     */\n    function sweep(IERC20 token,uint256 amount,address to) external onlyGovernance {\n        require(token != token0 && token != token1, \"token\");\n        token.safeTransfer(to, amount);\n    }\n    /**\n     * @notice set SharpeKeeper Used to set the strategy contract that determines the position ranges and calls rebalance().\n     * Must be called after this vault is deployed.\n     */\n    function setSharpeKeeper(address _SharpeKeeper) external onlyGovernance {SharpeKeeper = _SharpeKeeper;}\n    /**\n     * @notice Used to change the protocol fee charged on pool fees earned from\n     * Uniswap, expressed as multiple of 1e-6.\n     */\n    function setProtocolFee(uint256 _protocolFee) external onlyGovernance {\n        require(_protocolFee < 1e6, \"protocolFee\");\n        protocolFee = _protocolFee;\n    }\n    /**\n     * @notice Used to change deposit cap for a guarded launch or to ensure vault doesn't \n     * grow too large relative to the pool. Cap is on total supply rather than amounts \n     * of token0 and token1 as those amounts fluctuate naturally over time.\n     */\n    function setMaxTotalSupply(uint256 _maxTotalSupply) external onlyGovernance { maxTotalSupply = _maxTotalSupply;}\n    /**\n     * @notice Removes liquidity in case of emergency.\n     */\n    function emergencyBurn(int24 tickLower,int24 tickUpper,uint128 liquidity) external onlyGovernance {\n        pool.burn(tickLower, tickUpper, liquidity);\n        pool.collect(address(this), tickLower, tickUpper, type(uint128).max, type(uint128).max);\n    }\n    /**\n     * @notice Governance address is not updated until the new governance\n     * address has called `acceptGovernance()` to accept this responsibility.\n     */\n    function setGovernance(address _governance) external onlyGovernance { pendingGovernance = _governance;}\n    /**\n     * @notice `setGovernance()` should be called by the existing governance address prior to calling this function.\n     */\n    function acceptGovernance() external {\n        require(msg.sender == pendingGovernance, \"pendingGovernance\");\n        governance = msg.sender;\n    }\n    modifier onlyGovernance {\n        require(msg.sender == governance, \"governance\");\n        _;\n    }\n}","sourcePath":"contracts/Sharpe.sol","type":"contract","deployment":{"address":"0x31EDB1f1f60C1f3358b034793bA4f7957cfbe2a1","chainid":"137","blockHeight":32455648}}