{"abi":[{"inputs":[{"internalType":"address","name":"_pool","type":"address"},{"internalType":"address","name":"_router","type":"address"},{"internalType":"uint256","name":"_protocolFee","type":"uint256"},{"internalType":"uint256","name":"_maxTotalSupply","type":"uint256"}],"stateMutability":"nonpayable","type":"constructor","name":"constructor"},{"anonymous":false,"inputs":[{"indexed":true,"internalType":"address","name":"owner","type":"address"},{"indexed":true,"internalType":"address","name":"spender","type":"address"},{"indexed":false,"internalType":"uint256","name":"value","type":"uint256"}],"name":"Approval","type":"event"},{"anonymous":false,"inputs":[{"indexed":false,"internalType":"uint256","name":"feesToVault0","type":"uint256"},{"indexed":false,"internalType":"uint256","name":"feesToVault1","type":"uint256"},{"indexed":false,"internalType":"uint256","name":"feesToProtocol0","type":"uint256"},{"indexed":false,"internalType":"uint256","name":"feesToProtocol1","type":"uint256"}],"name":"CollectFees","type":"event"},{"anonymous":false,"inputs":[{"indexed":true,"internalType":"address","name":"sender","type":"address"},{"indexed":true,"internalType":"address","name":"to","type":"address"},{"indexed":false,"internalType":"uint256","name":"shares","type":"uint256"},{"indexed":false,"internalType":"uint256","name":"amount0","type":"uint256"},{"indexed":false,"internalType":"uint256","name":"amount1","type":"uint256"}],"name":"Deposit","type":"event"},{"anonymous":false,"inputs":[{"indexed":false,"internalType":"int24","name":"tick","type":"int24"},{"indexed":false,"internalType":"uint256","name":"totalAmount0","type":"uint256"},{"indexed":false,"internalType":"uint256","name":"totalAmount1","type":"uint256"},{"indexed":false,"internalType":"uint256","name":"totalSupply","type":"uint256"}],"name":"Snapshot","type":"event"},{"anonymous":false,"inputs":[{"indexed":true,"internalType":"address","name":"from","type":"address"},{"indexed":true,"internalType":"address","name":"to","type":"address"},{"indexed":false,"internalType":"uint256","name":"value","type":"uint256"}],"name":"Transfer","type":"event"},{"anonymous":false,"inputs":[{"indexed":true,"internalType":"address","name":"sender","type":"address"},{"indexed":true,"internalType":"address","name":"to","type":"address"},{"indexed":false,"internalType":"uint256","name":"shares","type":"uint256"},{"indexed":false,"internalType":"uint256","name":"amount0","type":"uint256"},{"indexed":false,"internalType":"uint256","name":"amount1","type":"uint256"}],"name":"Withdraw","type":"event"},{"inputs":[],"name":"SharpeKeeper","outputs":[{"internalType":"address","name":"","type":"address"}],"stateMutability":"view","type":"function"},{"inputs":[],"name":"acceptGovernance","outputs":[],"stateMutability":"nonpayable","type":"function"},{"inputs":[],"name":"accruedProtocolFees0","outputs":[{"internalType":"uint256","name":"","type":"uint256"}],"stateMutability":"view","type":"function"},{"inputs":[],"name":"accruedProtocolFees1","outputs":[{"internalType":"uint256","name":"","type":"uint256"}],"stateMutability":"view","type":"function"},{"inputs":[{"internalType":"address","name":"owner","type":"address"},{"internalType":"address","name":"spender","type":"address"}],"name":"allowance","outputs":[{"internalType":"uint256","name":"","type":"uint256"}],"stateMutability":"view","type":"function"},{"inputs":[{"internalType":"address","name":"spender","type":"address"},{"internalType":"uint256","name":"amount","type":"uint256"}],"name":"approve","outputs":[{"internalType":"bool","name":"","type":"bool"}],"stateMutability":"nonpayable","type":"function"},{"inputs":[{"internalType":"address","name":"account","type":"address"}],"name":"balanceOf","outputs":[{"internalType":"uint256","name":"","type":"uint256"}],"stateMutability":"view","type":"function"},{"inputs":[],"name":"baseLower","outputs":[{"internalType":"int24","name":"","type":"int24"}],"stateMutability":"view","type":"function"},{"inputs":[],"name":"baseUpper","outputs":[{"internalType":"int24","name":"","type":"int24"}],"stateMutability":"view","type":"function"},{"inputs":[{"internalType":"uint256","name":"amount0","type":"uint256"},{"internalType":"uint256","name":"amount1","type":"uint256"},{"internalType":"address","name":"to","type":"address"}],"name":"collectProtocol","outputs":[],"stateMutability":"nonpayable","type":"function"},{"inputs":[],"name":"decimals","outputs":[{"internalType":"uint8","name":"","type":"uint8"}],"stateMutability":"view","type":"function"},{"inputs":[{"internalType":"address","name":"spender","type":"address"},{"internalType":"uint256","name":"subtractedValue","type":"uint256"}],"name":"decreaseAllowance","outputs":[{"internalType":"bool","name":"","type":"bool"}],"stateMutability":"nonpayable","type":"function"},{"inputs":[{"internalType":"uint256","name":"amount0Desired","type":"uint256"},{"internalType":"uint256","name":"amount1Desired","type":"uint256"},{"internalType":"uint256","name":"amount0Min","type":"uint256"},{"internalType":"uint256","name":"amount1Min","type":"uint256"},{"internalType":"uint256","name":"swapMin","type":"uint256"},{"internalType":"address","name":"to","type":"address"}],"name":"deposit","outputs":[{"internalType":"uint256","name":"shares","type":"uint256"},{"internalType":"uint256","name":"amount0","type":"uint256"},{"internalType":"uint256","name":"amount1","type":"uint256"}],"stateMutability":"nonpayable","type":"function"},{"inputs":[{"internalType":"int24","name":"tickLower","type":"int24"},{"internalType":"int24","name":"tickUpper","type":"int24"},{"internalType":"uint128","name":"liquidity","type":"uint128"}],"name":"emergencyBurn","outputs":[],"stateMutability":"nonpayable","type":"function"},{"inputs":[],"name":"getBalance0","outputs":[{"internalType":"uint256","name":"","type":"uint256"}],"stateMutability":"view","type":"function"},{"inputs":[],"name":"getBalance1","outputs":[{"internalType":"uint256","name":"","type":"uint256"}],"stateMutability":"view","type":"function"},{"inputs":[{"internalType":"int24","name":"tickLower","type":"int24"},{"internalType":"int24","name":"tickUpper","type":"int24"}],"name":"getPositionAmounts","outputs":[{"internalType":"uint256","name":"amount0","type":"uint256"},{"internalType":"uint256","name":"amount1","type":"uint256"}],"stateMutability":"view","type":"function"},{"inputs":[],"name":"getTotalAmounts","outputs":[{"internalType":"uint256","name":"total0","type":"uint256"},{"internalType":"uint256","name":"total1","type":"uint256"}],"stateMutability":"view","type":"function"},{"inputs":[],"name":"governance","outputs":[{"internalType":"address","name":"","type":"address"}],"stateMutability":"view","type":"function"},{"inputs":[{"internalType":"address","name":"spender","type":"address"},{"internalType":"uint256","name":"addedValue","type":"uint256"}],"name":"increaseAllowance","outputs":[{"internalType":"bool","name":"","type":"bool"}],"stateMutability":"nonpayable","type":"function"},{"inputs":[],"name":"limitLower","outputs":[{"internalType":"int24","name":"","type":"int24"}],"stateMutability":"view","type":"function"},{"inputs":[],"name":"limitUpper","outputs":[{"internalType":"int24","name":"","type":"int24"}],"stateMutability":"view","type":"function"},{"inputs":[],"name":"maxTotalSupply","outputs":[{"internalType":"uint256","name":"","type":"uint256"}],"stateMutability":"view","type":"function"},{"inputs":[],"name":"name","outputs":[{"internalType":"string","name":"","type":"string"}],"stateMutability":"view","type":"function"},{"inputs":[],"name":"pendingGovernance","outputs":[{"internalType":"address","name":"","type":"address"}],"stateMutability":"view","type":"function"},{"inputs":[],"name":"pool","outputs":[{"internalType":"contract IUniswapV3Pool","name":"","type":"address"}],"stateMutability":"view","type":"function"},{"inputs":[],"name":"protocolFee","outputs":[{"internalType":"uint256","name":"","type":"uint256"}],"stateMutability":"view","type":"function"},{"inputs":[{"internalType":"int256","name":"swapAmount","type":"int256"},{"internalType":"uint160","name":"sqrtPriceLimitX96","type":"uint160"},{"internalType":"int24","name":"_baseLower","type":"int24"},{"internalType":"int24","name":"_baseUpper","type":"int24"},{"internalType":"int24","name":"_bidLower","type":"int24"},{"internalType":"int24","name":"_bidUpper","type":"int24"},{"internalType":"int24","name":"_askLower","type":"int24"},{"internalType":"int24","name":"_askUpper","type":"int24"}],"name":"rebalance","outputs":[],"stateMutability":"nonpayable","type":"function"},{"inputs":[],"name":"router","outputs":[{"internalType":"contract IUniswapV2Router01","name":"","type":"address"}],"stateMutability":"view","type":"function"},{"inputs":[],"name":"routerAddress","outputs":[{"internalType":"address","name":"","type":"address"}],"stateMutability":"view","type":"function"},{"inputs":[{"internalType":"address","name":"_governance","type":"address"}],"name":"setGovernance","outputs":[],"stateMutability":"nonpayable","type":"function"},{"inputs":[{"internalType":"uint256","name":"_maxTotalSupply","type":"uint256"}],"name":"setMaxTotalSupply","outputs":[],"stateMutability":"nonpayable","type":"function"},{"inputs":[{"internalType":"uint256","name":"_protocolFee","type":"uint256"}],"name":"setProtocolFee","outputs":[],"stateMutability":"nonpayable","type":"function"},{"inputs":[{"internalType":"address","name":"_SharpeKeeper","type":"address"}],"name":"setSharpeKeeper","outputs":[],"stateMutability":"nonpayable","type":"function"},{"inputs":[{"internalType":"contract IERC20","name":"token","type":"address"},{"internalType":"uint256","name":"amount","type":"uint256"},{"internalType":"address","name":"to","type":"address"}],"name":"sweep","outputs":[],"stateMutability":"nonpayable","type":"function"},{"inputs":[],"name":"symbol","outputs":[{"internalType":"string","name":"","type":"string"}],"stateMutability":"view","type":"function"},{"inputs":[],"name":"tickSpacing","outputs":[{"internalType":"int24","name":"","type":"int24"}],"stateMutability":"view","type":"function"},{"inputs":[],"name":"token0","outputs":[{"internalType":"contract IERC20","name":"","type":"address"}],"stateMutability":"view","type":"function"},{"inputs":[],"name":"token0Address","outputs":[{"internalType":"address","name":"","type":"address"}],"stateMutability":"view","type":"function"},{"inputs":[],"name":"token1","outputs":[{"internalType":"contract IERC20","name":"","type":"address"}],"stateMutability":"view","type":"function"},{"inputs":[],"name":"token1Address","outputs":[{"internalType":"address","name":"","type":"address"}],"stateMutability":"view","type":"function"},{"inputs":[],"name":"totalSupply","outputs":[{"internalType":"uint256","name":"","type":"uint256"}],"stateMutability":"view","type":"function"},{"inputs":[{"internalType":"address","name":"to","type":"address"},{"internalType":"uint256","name":"amount","type":"uint256"}],"name":"transfer","outputs":[{"internalType":"bool","name":"","type":"bool"}],"stateMutability":"nonpayable","type":"function"},{"inputs":[{"internalType":"address","name":"from","type":"address"},{"internalType":"address","name":"to","type":"address"},{"internalType":"uint256","name":"amount","type":"uint256"}],"name":"transferFrom","outputs":[{"internalType":"bool","name":"","type":"bool"}],"stateMutability":"nonpayable","type":"function"},{"inputs":[{"internalType":"uint256","name":"amount0","type":"uint256"},{"internalType":"uint256","name":"amount1","type":"uint256"},{"internalType":"bytes","name":"data","type":"bytes"}],"name":"uniswapV3MintCallback","outputs":[],"stateMutability":"nonpayable","type":"function"},{"inputs":[{"internalType":"int256","name":"amount0Delta","type":"int256"},{"internalType":"int256","name":"amount1Delta","type":"int256"},{"internalType":"bytes","name":"data","type":"bytes"}],"name":"uniswapV3SwapCallback","outputs":[],"stateMutability":"nonpayable","type":"function"},{"inputs":[{"internalType":"uint256","name":"shares","type":"uint256"},{"internalType":"uint256","name":"amount0Min","type":"uint256"},{"internalType":"uint256","name":"amount1Min","type":"uint256"},{"internalType":"address","name":"to","type":"address"}],"name":"withdraw","outputs":[{"internalType":"uint256","name":"amount0","type":"uint256"},{"internalType":"uint256","name":"amount1","type":"uint256"}],"stateMutability":"nonpayable","type":"function"}],"bytecode":"6101806040523480156200001257600080fd5b50604051620053ea380380620053ea8339810160408190526200003591620004c9565b604080518082018252600681526553686172706560d01b6020808301918252835180850190945260048452630534852560e41b9084015281519192916200007f91600391620003e2565b50805162000095906004906020840190620003e2565b50506001600555506001600160601b0319606085811b821660805284901b1660a05260408051630dfe168160e01b815290516001600160a01b03861691630dfe1681916004808301926020929190829003018186803b158015620000f857600080fd5b505afa1580156200010d573d6000803e3d6000fd5b505050506040513d601f19601f82011682018060405250810190620001339190620004a5565b6001600160a01b031660c0816001600160a01b031660601b81525050836001600160a01b031663d21220a76040518163ffffffff1660e01b815260040160206040518083038186803b1580156200018957600080fd5b505afa1580156200019e573d6000803e3d6000fd5b505050506040513d601f19601f82011682018060405250810190620001c49190620004a5565b6001600160a01b031660e0816001600160a01b031660601b81525050836001600160a01b0316630dfe16816040518163ffffffff1660e01b815260040160206040518083038186803b1580156200021a57600080fd5b505afa1580156200022f573d6000803e3d6000fd5b505050506040513d601f19601f82011682018060405250810190620002559190620004a5565b6001600160a01b0316610120816001600160a01b031660601b81525050836001600160a01b031663d21220a76040518163ffffffff1660e01b815260040160206040518083038186803b158015620002ac57600080fd5b505afa158015620002c1573d6000803e3d6000fd5b505050506040513d601f19601f82011682018060405250810190620002e79190620004a5565b6001600160601b0319606091821b8116610140529084901b1661016052604080516334324e9f60e21b815290516001600160a01b0386169163d0c93a7c916004808301926020929190829003018186803b1580156200034557600080fd5b505afa1580156200035a573d6000803e3d6000fd5b505050506040513d601f19601f8201168201806040525081019062000380919062000510565b600290810b900b60e81b6101005260068290556007819055600980546001600160a01b03191633179055620f42408210620003d85760405162461bcd60e51b8152600401620003cf9062000533565b60405180910390fd5b5050505062000595565b828054620003f09062000558565b90600052602060002090601f0160209004810192826200041457600085556200045f565b82601f106200042f57805160ff19168380011785556200045f565b828001600101855582156200045f579182015b828111156200045f57825182559160200191906001019062000442565b506200046d92915062000471565b5090565b5b808211156200046d576000815560010162000472565b80516001600160a01b0381168114620004a057600080fd5b919050565b600060208284031215620004b7578081fd5b620004c28262000488565b9392505050565b60008060008060808587031215620004df578283fd5b620004ea8562000488565b9350620004fa6020860162000488565b6040860151606090960151949790965092505050565b60006020828403121562000522578081fd5b81518060020b8114620004c2578182fd5b6020808252600b908201526a70726f746f636f6c46656560a81b604082015260600190565b6002810460018216806200056d57607f821691505b602082108114156200058f57634e487b7160e01b600052602260045260246000fd5b50919050565b60805160601c60a05160601c60c05160601c60e05160601c6101005160e81c6101205160601c6101405160601c6101605160601c614ca362000747600039600081816107cc015281816110e801526115340152600081816111ea015281816115d4015261213f0152600081816109fd015281816111880152611636015260008181611de701526125d601526000818161060401528181610873015281816113e8015281816114c8015281816115070152818161181e0152818161194601528181611e0b0152818161200001528181612110015281816121ca015261232b0152600081816105ca015281816106f5015281816109410152818161107c015281816110bb015281816113ae015281816117e40152818161190b01528181611fc6015281816120d60152818161218d01526122ee01526000818161124e0152818161169a015261227101526000818161072901528181610a9301528181610c8d01528181611bc701528181611c6a01528181612099015281816122ae015281816126f7015281816127bb01528181612850015281816129e101528181612ac501528181612b8c0152612e350152614ca36000f3fe608060405234801561001057600080fd5b50600436106102955760003560e01c8063888a913411610167578063d0c93a7c116100ce578063dd62ed3e11610087578063dd62ed3e1461051e578063eae989a214610531578063f39c38a014610539578063f887ea4014610541578063fa08274314610549578063fa461e331461055157610295565b8063d0c93a7c146104cd578063d21220a7146104d5578063d331bef7146104dd578063d3487997146104f0578063d7cb416f14610503578063dc2c256f1461050b57610295565b8063a91ef6eb11610120578063a91ef6eb14610463578063ab033ea914610484578063abbffcb914610497578063b0e21e8a146104aa578063b3a3d00c146104b2578063c4a7761e146104c557610295565b8063888a9134146104035780639130700e1461040b57806395d89b411461042d578063a00fa77f14610435578063a457c2d71461043d578063a9059cbb1461045057610295565b8063313ce5671161020b5780635aa6e675116101c45780635aa6e675146103b2578063629d9405146103ba57806370a08231146103c2578063787dce3d146103d55780637ff36fbe146103e857806387e5e083146103f057610295565b8063313ce5671461035f5780633268cc5614610374578063395093511461037c5780633f3e4c111461038f57806341aec538146103a257806351e87af7146103aa57610295565b80630f35bcac1161025d5780630f35bcac1461030a57806316f0115b1461031f57806318160ddd14610327578063238efcbc1461033c57806323b872dd146103445780632ab4d0521461035757610295565b80630430c1301461029a57806306fdde03146102af578063095ea7b3146102cd5780630c42383a146102ed5780630dfe168114610302575b600080fd5b6102ad6102a8366004614016565b610564565b005b6102b7610630565b6040516102c4919061429a565b60405180910390f35b6102e06102db366004613c07565b6106c2565b6040516102c49190614232565b6102f56106e4565b6040516102c49190614128565b6102f56106f3565b610312610717565b6040516102c49190614246565b6102f5610727565b61032f61074b565b6040516102c4919061423d565b6102ad610751565b6102e0610352366004613bc7565b61078f565b61032f6107bf565b6103676107c5565b6040516102c49190614a7f565b6102f56107ca565b6102e061038a366004613c07565b6107ee565b6102ad61039d366004613fe6565b61083a565b61032f610869565b610312610918565b6102f5610928565b61032f610937565b61032f6103d0366004613b73565b61098b565b6102ad6103e3366004613fe6565b6109aa565b6102f56109fb565b6102ad6103fe366004613e27565b610a1f565b610312610ea8565b61041e610419366004614083565b610eb8565b6040516102c493929190614a4e565b6102b7611a04565b61032f611a13565b6102e061044b366004613c07565b611a19565b6102e061045e366004613c07565b611a85565b610476610471366004613d47565b611a9d565b6040516102c49291906149d0565b6102ad610492366004613b73565b611b3a565b6102ad6104a5366004613d74565b611b86565b61032f611d06565b6102ad6104c0366004613b73565b611d0c565b610476611d58565b610312611de5565b6102f5611e09565b6104766104eb366004614043565b611e2d565b6102ad6104fe366004613dd6565b61208e565b6102f561213d565b6102ad610519366004613d06565b612161565b61032f61052c366004613b8f565b61222f565b61032f61225a565b6102f5612260565b6102f561226f565b610312612293565b6102ad61055f366004613dd6565b6122a3565b6009546001600160a01b031633146105975760405162461bcd60e51b815260040161058e906146aa565b60405180910390fd5b600b546105a49084612352565b600b55600c546105b49083612352565b600c5582156105f1576105f16001600160a01b037f000000000000000000000000000000000000000000000000000000000000000016828561235e565b811561062b5761062b6001600160a01b037f000000000000000000000000000000000000000000000000000000000000000016828461235e565b505050565b60606003805461063f90614b43565b80601f016020809104026020016040519081016040528092919081815260200182805461066b90614b43565b80156106b85780601f1061068d576101008083540402835291602001916106b8565b820191906000526020600020905b81548152906001019060200180831161069b57829003601f168201915b5050505050905090565b6000806106cd6123b4565b90506106da8185856123b8565b5060019392505050565b6008546001600160a01b031681565b7f000000000000000000000000000000000000000000000000000000000000000081565b600a54600160e81b900460020b81565b7f000000000000000000000000000000000000000000000000000000000000000081565b60025490565b600a546001600160a01b0316331461077b5760405162461bcd60e51b815260040161058e906145b2565b600980546001600160a01b03191633179055565b60008061079a6123b4565b90506107a785828561246c565b6107b28585856124b0565b60019150505b9392505050565b60075481565b601290565b7f000000000000000000000000000000000000000000000000000000000000000081565b6000806107f96123b4565b6001600160a01b038082166000908152600160209081526040808320938916835292905220549091506106da9082908690610835908790614a8d565b6123b8565b6009546001600160a01b031633146108645760405162461bcd60e51b815260040161058e906146aa565b600755565b6000610913600c547f00000000000000000000000000000000000000000000000000000000000000006001600160a01b03166370a08231306040518263ffffffff1660e01b81526004016108bd9190614128565b60206040518083038186803b1580156108d557600080fd5b505afa1580156108e9573d6000803e3d6000fd5b505050506040513d601f19601f8201168201806040525081019061090d9190613ffe565b90612352565b905090565b600a54600160d01b900460020b81565b6009546001600160a01b031681565b6000610913600b547f00000000000000000000000000000000000000000000000000000000000000006001600160a01b03166370a08231306040518263ffffffff1660e01b81526004016108bd9190614128565b6001600160a01b0381166000908152602081905260409020545b919050565b6009546001600160a01b031633146109d45760405162461bcd60e51b815260040161058e906146aa565b620f424081106109f65760405162461bcd60e51b815260040161058e90614609565b600655565b7f000000000000000000000000000000000000000000000000000000000000000081565b60026005541415610a425760405162461bcd60e51b815260040161058e9061491d565b60026005556008546001600160a01b03163314610a715760405162461bcd60e51b815260040161058e90614684565b610a7b86866125d4565b610a8584846125d4565b610a8f82826125d4565b60007f00000000000000000000000000000000000000000000000000000000000000006001600160a01b0316633850c7bd6040518163ffffffff1660e01b815260040160e06040518083038186803b158015610aea57600080fd5b505afa158015610afe573d6000803e3d6000fd5b505050506040513d601f19601f82011682018060405250810190610b229190613f55565b50505050509150508060020b8460020b1315610b505760405162461bcd60e51b815260040161058e90614515565b8060020b8360020b13610b755760405162461bcd60e51b815260040161058e906147b7565b600a54600090610b9a90600160a01b8104600290810b91600160b81b9004900b6126c9565b5050600a54929350600092610bc79250600160d01b8104600290810b9250600160e81b909104900b6126c9565b5050600a54929350610bf392600160a01b8104600290810b9350600160b81b909104900b905084612790565b5050600a54610c1b9250600160d01b8104600290810b9250600160e81b909104900b83612790565b5050505050506000610c2b610937565b90506000610c37610869565b90507f210f60adf1db7a02e9db9a49ec7c2eb2060c516cbcfd01a0c05288144738ee5d838383610c6561074b565b604051610c75949392919061427a565b60405180910390a18a15610d54576001600160a01b037f00000000000000000000000000000000000000000000000000000000000000001663128acb083060008e1380610cca57610cc58f614bd5565b610ccc565b8e5b8e6040518563ffffffff1660e01b8152600401610cec9493929190614160565b6040805180830381600087803b158015610d0557600080fd5b505af1158015610d19573d6000803e3d6000fd5b505050506040513d601f19601f82011682018060405250810190610d3d9190613db3565b5050610d47610937565b9150610d51610869565b90505b6000610d628a8a85856129dc565b9050610d6f8a8a83612a9f565b600a805460028c810b62ffffff908116600160a01b0262ffffff60a01b19928e900b909116600160b81b0262ffffff60b81b199093169290921716179055610db5610937565b9250610dbf610869565b91506000610dcf898986866129dc565b90506000610ddf888887876129dc565b9050806001600160801b0316826001600160801b03161115610e4957610e068a8a84612a9f565b600a805460028c810b62ffffff908116600160d01b0262ffffff60d01b19928e900b909116600160e81b026001600160e81b039093169290921716179055610e93565b610e54888883612a9f565b600a805460028a810b62ffffff908116600160d01b0262ffffff60d01b19928c900b909116600160e81b026001600160e81b0390931692909217161790555b50506001600555505050505050505050505050565b600a54600160b81b900460020b81565b600080600060026005541415610ee05760405162461bcd60e51b815260040161058e9061491d565b600260055588151580610ef35750600088115b610f0f5760405162461bcd60e51b815260040161058e9061457d565b6001600160a01b03841615801590610f3057506001600160a01b0384163014155b610f4c5760405162461bcd60e51b815260040161058e90614376565b600a54610f6e90600160a01b8104600290810b91600160b81b9004900b612b51565b600a54610f9090600160d01b8104600290810b91600160e81b9004900b612b51565b610f9a8989612bc6565b9194509250905086821015610fc15760405162461bcd60e51b815260040161058e90614310565b85811015610fe15760405162461bcd60e51b815260040161058e90614793565b826118d857600082118015610ff4575080155b806110085750600081118015611008575081155b6110245760405162461bcd60e51b815260040161058e906145dd565b600061102e61074b565b905060008061103b611d58565b9150915060008511801561104d575083155b1561149e57600061105f866002612d29565b9050600061106d8783612352565b90506110a46001600160a01b037f00000000000000000000000000000000000000000000000000000000000000001633308a612d35565b60405163095ea7b360e01b81526001600160a01b037f0000000000000000000000000000000000000000000000000000000000000000169063095ea7b390611112907f0000000000000000000000000000000000000000000000000000000000000000908590600401614219565b602060405180830381600087803b15801561112c57600080fd5b505af1158015611140573d6000803e3d6000fd5b505050506040513d601f19601f820116820180604052508101906111649190613cec565b506040805160028082526060820183526000926020830190803683370190505090507f0000000000000000000000000000000000000000000000000000000000000000816000815181106111c857634e487b7160e01b600052603260045260246000fd5b60200260200101906001600160a01b031690816001600160a01b0316815250507f00000000000000000000000000000000000000000000000000000000000000008160018151811061122a57634e487b7160e01b600052603260045260246000fd5b60200260200101906001600160a01b031690816001600160a01b03168152505060007f00000000000000000000000000000000000000000000000000000000000000006001600160a01b03166338ed1739848e8530426040518663ffffffff1660e01b81526004016112a09594939291906149de565b600060405180830381600087803b1580156112ba57600080fd5b505af11580156112ce573d6000803e3d6000fd5b505050506040513d6000823e601f3d908101601f191682016040526112f69190810190613c32565b905061132a848260018151811061131d57634e487b7160e01b600052603260045260246000fd5b6020026020010151612bc6565b919b50995097508961134e5760405162461bcd60e51b815260040161058e9061443a565b600061135a858b612352565b905060006113998a8460018151811061138357634e487b7160e01b600052603260045260246000fd5b602002602001015161235290919063ffffffff16565b905081156113d5576113d56001600160a01b037f0000000000000000000000000000000000000000000000000000000000000000168e8461235e565b801561140f5761140f6001600160a01b037f0000000000000000000000000000000000000000000000000000000000000000168e8361235e565b6114198d8d612d56565b8c6001600160a01b0316336001600160a01b03167f4e2ca0515ed1aef1395f66b5303bb5d6f1bf9d61a353fa53f73f8ac9973fa9f68e8e8e60405161146093929190614a4e565b60405180910390a36007546114758a8e612e22565b11156114935760405162461bcd60e51b815260040161058e906148ab565b5050505050506118d0565b60006114ab856002612d29565b905060006114b98683612352565b90506114f06001600160a01b037f000000000000000000000000000000000000000000000000000000000000000016333089612d35565b60405163095ea7b360e01b81526001600160a01b037f0000000000000000000000000000000000000000000000000000000000000000169063095ea7b39061155e907f0000000000000000000000000000000000000000000000000000000000000000908590600401614219565b602060405180830381600087803b15801561157857600080fd5b505af115801561158c573d6000803e3d6000fd5b505050506040513d601f19601f820116820180604052508101906115b09190613cec565b506040805160028082526060820183526000926020830190803683370190505090507f00000000000000000000000000000000000000000000000000000000000000008160008151811061161457634e487b7160e01b600052603260045260246000fd5b60200260200101906001600160a01b031690816001600160a01b0316815250507f00000000000000000000000000000000000000000000000000000000000000008160018151811061167657634e487b7160e01b600052603260045260246000fd5b60200260200101906001600160a01b031690816001600160a01b03168152505060007f00000000000000000000000000000000000000000000000000000000000000006001600160a01b03166338ed1739848e8530426040518663ffffffff1660e01b81526004016116ec9594939291906149de565b600060405180830381600087803b15801561170657600080fd5b505af115801561171a573d6000803e3d6000fd5b505050506040513d6000823e601f3d908101601f191682016040526117429190810190613c32565b90506117768160018151811061176857634e487b7160e01b600052603260045260246000fd5b602002602001015185612bc6565b919b50995097508961179a5760405162461bcd60e51b815260040161058e9061443a565b60006117c18a8360018151811061138357634e487b7160e01b600052603260045260246000fd5b905060006117cf868b612352565b9050811561180b5761180b6001600160a01b037f0000000000000000000000000000000000000000000000000000000000000000168e8461235e565b8015611845576118456001600160a01b037f0000000000000000000000000000000000000000000000000000000000000000168e8361235e565b61184f8d8d612d56565b8c6001600160a01b0316336001600160a01b03167f4e2ca0515ed1aef1395f66b5303bb5d6f1bf9d61a353fa53f73f8ac9973fa9f68e8e8e60405161189693929190614a4e565b60405180910390a36007546118ab8a8e612e22565b11156118c95760405162461bcd60e51b815260040161058e906148ab565b5050505050505b5050506119f0565b600083116118f85760405162461bcd60e51b815260040161058e906146ce565b8115611933576119336001600160a01b037f000000000000000000000000000000000000000000000000000000000000000016333085612d35565b801561196e5761196e6001600160a01b037f000000000000000000000000000000000000000000000000000000000000000016333084612d35565b6119788484612d56565b836001600160a01b0316336001600160a01b03167f4e2ca0515ed1aef1395f66b5303bb5d6f1bf9d61a353fa53f73f8ac9973fa9f68585856040516119bf93929190614a4e565b60405180910390a36007546119d261074b565b11156119f05760405162461bcd60e51b815260040161058e906148ab565b600160058190555096509650969350505050565b60606004805461063f90614b43565b600c5481565b600080611a246123b4565b6001600160a01b0380821660009081526001602090815260408083209389168352929052205490915083811015611a6d5760405162461bcd60e51b815260040161058e90614954565b611a7a82868684036123b8565b506001949350505050565b600080611a906123b4565b90506106da8185856124b0565b6000806000806000611aaf87876126c9565b9450945050509250611ac2878785612e2e565b6006549196509450600090611adb90620f424090612352565b9050611b07611b00620f4240611afa6001600160801b03871685612ef5565b90612d29565b8790612e22565b9550611b2d611b26620f4240611afa6001600160801b03861685612ef5565b8690612e22565b9450505050509250929050565b6009546001600160a01b03163314611b645760405162461bcd60e51b815260040161058e906146aa565b600a80546001600160a01b0319166001600160a01b0392909216919091179055565b6009546001600160a01b03163314611bb05760405162461bcd60e51b815260040161058e906146aa565b60405163a34123a760e01b81526001600160a01b037f0000000000000000000000000000000000000000000000000000000000000000169063a34123a790611c0090869086908690600401614254565b6040805180830381600087803b158015611c1957600080fd5b505af1158015611c2d573d6000803e3d6000fd5b505050506040513d601f19601f82011682018060405250810190611c519190613db3565b50506040516309e3d67b60e31b81526001600160a01b037f00000000000000000000000000000000000000000000000000000000000000001690634f1eb3d890611cae903090879087906001600160801b039081906004016141dc565b6040805180830381600087803b158015611cc757600080fd5b505af1158015611cdb573d6000803e3d6000fd5b505050506040513d601f19601f82011682018060405250810190611cff9190613ec6565b5050505050565b60065481565b6009546001600160a01b03163314611d365760405162461bcd60e51b815260040161058e906146aa565b600880546001600160a01b0319166001600160a01b0392909216919091179055565b600a54600090819081908190611d8390600160a01b8104600290810b91600160b81b9004900b611a9d565b600a5491935091506000908190611daf90600160d01b8104600290810b91600160e81b9004900b611a9d565b91509150611dc982611dc386611dc3610937565b90612e22565b9550611ddb81611dc385611dc3610869565b9450505050509091565b7f000000000000000000000000000000000000000000000000000000000000000081565b7f000000000000000000000000000000000000000000000000000000000000000081565b60008060026005541415611e535760405162461bcd60e51b815260040161058e9061491d565b600260055585611e755760405162461bcd60e51b815260040161058e906146ce565b6001600160a01b03831615801590611e9657506001600160a01b0383163014155b611eb25760405162461bcd60e51b815260040161058e90614376565b6000611ebc61074b565b9050611ec83388612f01565b6000611ee082611afa8a611eda610937565b90612ef5565b90506000611ef483611afa8b611eda610869565b600a549091506000908190611f2090600160a01b8104600290810b91600160b81b9004900b8d88612ff2565b600a5491935091506000908190611f4e90600160d01b8104600290810b91600160e81b9004900b8f8a612ff2565b9092509050611f6182611dc38887612e22565b9850611f7181611dc38786612e22565b97508b891015611f935760405162461bcd60e51b815260040161058e90614310565b8a881015611fb35760405162461bcd60e51b815260040161058e90614793565b8815611fed57611fed6001600160a01b037f0000000000000000000000000000000000000000000000000000000000000000168b8b61235e565b8715612027576120276001600160a01b037f0000000000000000000000000000000000000000000000000000000000000000168b8a61235e565b896001600160a01b0316336001600160a01b03167febff2602b3f468259e1e99f613fed6691f3a6526effe6ef3e768ba7ae7a36c4f8f8c8c60405161206e93929190614a4e565b60405180910390a350505050505050600160058190555094509492505050565b336001600160a01b037f000000000000000000000000000000000000000000000000000000000000000016146120c357600080fd5b83156120fd576120fd6001600160a01b037f000000000000000000000000000000000000000000000000000000000000000016338661235e565b8215612137576121376001600160a01b037f000000000000000000000000000000000000000000000000000000000000000016338561235e565b50505050565b7f000000000000000000000000000000000000000000000000000000000000000081565b6009546001600160a01b0316331461218b5760405162461bcd60e51b815260040161058e906146aa565b7f00000000000000000000000000000000000000000000000000000000000000006001600160a01b0316836001600160a01b0316141580156121ff57507f00000000000000000000000000000000000000000000000000000000000000006001600160a01b0316836001600160a01b031614155b61221b5760405162461bcd60e51b815260040161058e9061462e565b61062b6001600160a01b038416828461235e565b6001600160a01b03918216600090815260016020908152604080832093909416825291909152205490565b600b5481565b600a546001600160a01b031681565b7f000000000000000000000000000000000000000000000000000000000000000081565b600a54600160a01b900460020b81565b336001600160a01b037f000000000000000000000000000000000000000000000000000000000000000016146122d857600080fd5b6000841315612315576123156001600160a01b037f000000000000000000000000000000000000000000000000000000000000000016338661235e565b6000831315612137576121376001600160a01b037f000000000000000000000000000000000000000000000000000000000000000016338561235e565b60006107b88284614b00565b61062b8363a9059cbb60e01b848460405160240161237d929190614219565b60408051601f198184030181529190526020810180516001600160e01b03166001600160e01b031990931692909217909152613098565b3390565b6001600160a01b0383166123de5760405162461bcd60e51b815260040161058e90614804565b6001600160a01b0382166124045760405162461bcd60e51b815260040161058e906143c1565b6001600160a01b0380841660008181526001602090815260408083209487168084529490915290819020849055517f8c5be1e5ebec7d5bd14f71427d1e84f3dd0314c0f7b2291e5b200ac8c7c3b9259061245f90859061423d565b60405180910390a3505050565b6000612478848461222f565b9050600019811461213757818110156124a35760405162461bcd60e51b815260040161058e90614461565b61213784848484036123b8565b6001600160a01b0383166124d65760405162461bcd60e51b815260040161058e9061474e565b6001600160a01b0382166124fc5760405162461bcd60e51b815260040161058e906142cd565b61250783838361062b565b6001600160a01b038316600090815260208190526040902054818110156125405760405162461bcd60e51b815260040161058e906144cf565b6001600160a01b03808516600090815260208190526040808220858503905591851681529081208054849290612577908490614a8d565b92505081905550826001600160a01b0316846001600160a01b03167fddf252ad1be2c89b69c2b068fc378daa952ba7f163c4a11628f55a4df523b3ef846040516125c1919061423d565b60405180910390a361213784848461062b565b7f0000000000000000000000000000000000000000000000000000000000000000600282810b9084900b1261261b5760405162461bcd60e51b815260040161058e90614392565b620d89e719600284900b12156126435760405162461bcd60e51b815260040161058e906147d9565b612650620d89e719614bb4565b60020b8260020b13156126755760405162461bcd60e51b815260040161058e90614848565b61267f8184614b7e565b60020b1561269f5760405162461bcd60e51b815260040161058e90614403565b6126a98183614b7e565b60020b1561062b5760405162461bcd60e51b815260040161058e90614498565b6000806000806000806126dd308989613127565b60405163514ea4bf60e01b81529091506001600160a01b037f0000000000000000000000000000000000000000000000000000000000000000169063514ea4bf9061272c90849060040161423d565b60a06040518083038186803b15801561274457600080fd5b505afa158015612758573d6000803e3d6000fd5b505050506040513d601f19601f8201168201806040525081019061277c9190613ef4565b939c929b5090995097509095509350505050565b60008080806001600160801b0385161561284b5760405163a34123a760e01b81526001600160a01b037f0000000000000000000000000000000000000000000000000000000000000000169063a34123a7906127f4908a908a908a90600401614254565b6040805180830381600087803b15801561280d57600080fd5b505af1158015612821573d6000803e3d6000fd5b505050506040513d601f19601f820116820180604052508101906128459190613db3565b90945092505b6000807f00000000000000000000000000000000000000000000000000000000000000006001600160a01b0316634f1eb3d8308b8b6001600160801b03806040518663ffffffff1660e01b81526004016128a99594939291906141dc565b6040805180830381600087803b1580156128c257600080fd5b505af11580156128d6573d6000803e3d6000fd5b505050506040513d601f19601f820116820180604052508101906128fa9190613ec6565b6001600160801b0391821693501690506129148287612352565b93506129208186612352565b6006549093506000908190801561299157612942620f4240611afa8984612ef5565b9250612955620f4240611afa8884612ef5565b91506129618784612352565b965061296d8683612352565b600b5490965061297d9084612e22565b600b55600c5461298d9083612e22565b600c555b7f1ac56d7e866e3f5ea9aa92aa11758ead39a0a5f013f3fefb0f47cb9d008edd27878785856040516129c69493929190614a64565b60405180910390a1505050505093509350935093565b6000807f00000000000000000000000000000000000000000000000000000000000000006001600160a01b0316633850c7bd6040518163ffffffff1660e01b815260040160e06040518083038186803b158015612a3857600080fd5b505afa158015612a4c573d6000803e3d6000fd5b505050506040513d601f19601f82011682018060405250810190612a709190613f55565b5050505050509050612a9581612a858861315d565b612a8e8861315d565b8787613537565b9695505050505050565b6001600160801b0381161561062b57604051633c8a7d8d60e01b81526001600160a01b037f00000000000000000000000000000000000000000000000000000000000000001690633c8a7d8d90612b0090309087908790879060040161419a565b6040805180830381600087803b158015612b1957600080fd5b505af1158015612b2d573d6000803e3d6000fd5b505050506040513d601f19601f82011682018060405250810190611cff9190613db3565b6000612b5d83836126c9565b5050505090506000816001600160801b0316111561062b5760405163a34123a760e01b81526001600160a01b037f0000000000000000000000000000000000000000000000000000000000000000169063a34123a790612b009086908690600090600401614254565b600080600080612bd461074b565b9050600080612be1611d58565b915091508260001480612bf45750600082115b80612bff5750600081115b612c1957634e487b7160e01b600052600160045260246000fd5b82612c3557879450869350612c2e85856135fb565b9550612d1f565b81612c4b57869350612c2e81611afa8686612ef5565b80612c6157879450612c2e82611afa8786612ef5565b6000881180612c705750600087115b612c8c5760405162461bcd60e51b815260040161058e9061464d565b6000612caa612c9b8a84612ef5565b612ca58a86612ef5565b613612565b905080612cc05788955087945060009650612d1d565b60008111612ce05760405162461bcd60e51b815260040161058e9061472f565b612cf36001611dc384611afa8584612352565b9550612d086001611dc385611afa8584612352565b9450612d1a82611afa85818589612ef5565b96505b505b5050509250925092565b60006107b88284614aa5565b612137846323b872dd60e01b85858560405160240161237d9392919061413c565b6001600160a01b038216612d7c5760405162461bcd60e51b815260040161058e90614999565b612d886000838361062b565b8060026000828254612d9a9190614a8d565b90915550506001600160a01b03821660009081526020819052604081208054839290612dc7908490614a8d565b90915550506040516001600160a01b038316906000907fddf252ad1be2c89b69c2b068fc378daa952ba7f163c4a11628f55a4df523b3ef90612e0a90859061423d565b60405180910390a3612e1e6000838361062b565b5050565b60006107b88284614a8d565b60008060007f00000000000000000000000000000000000000000000000000000000000000006001600160a01b0316633850c7bd6040518163ffffffff1660e01b815260040160e06040518083038186803b158015612e8c57600080fd5b505afa158015612ea0573d6000803e3d6000fd5b505050506040513d601f19601f82011682018060405250810190612ec49190613f55565b5050505050509050612ee881612ed98861315d565b612ee28861315d565b87613621565b9250925050935093915050565b60006107b88284614ab9565b6001600160a01b038216612f275760405162461bcd60e51b815260040161058e906146ee565b612f338260008361062b565b6001600160a01b03821660009081526020819052604090205481811015612f6c5760405162461bcd60e51b815260040161058e90614334565b6001600160a01b0383166000908152602081905260408120838303905560028054849290612f9b908490614b00565b90915550506040516000906001600160a01b038516907fddf252ad1be2c89b69c2b068fc378daa952ba7f163c4a11628f55a4df523b3ef90612fde90869061423d565b60405180910390a361062b8360008461062b565b600080600061300187876126c9565b505050509050600061302985611afa88856001600160801b0316612ef590919063ffffffff16565b9050801561308d5760008060008061304a8c8c613045886136bd565b612790565b9296509094509250905061306c6130658a611afa858e612ef5565b8590612e22565b975061308661307f8a611afa848e612ef5565b8490612e22565b9650505050505b505094509492505050565b60006130ed826040518060400160405280602081526020017f5361666545524332303a206c6f772d6c6576656c2063616c6c206661696c6564815250856001600160a01b03166136e89092919063ffffffff16565b80519091501561062b578080602001905181019061310b9190613cec565b61062b5760405162461bcd60e51b815260040161058e906148d3565b600083838360405160200161313e939291906140d7565b6040516020818303038152906040528051906020012090509392505050565b60008060008360020b12613174578260020b613181565b8260020b61318190614bd5565b905060006001821661319757600160801b6131a9565b6ffffcb933bd6fad37aa2d162d1a5940015b70ffffffffffffffffffffffffffffffffff16905060028216156131e85760806131e3826ffff97272373d413259a46990580e213a614ab9565b901c90505b600482161561321257608061320d826ffff2e50f5f656932ef12357cf3c7fdcc614ab9565b901c90505b600882161561323c576080613237826fffe5caca7e10e4e61c3624eaa0941cd0614ab9565b901c90505b6010821615613266576080613261826fffcb9843d60f6159c9db58835c926644614ab9565b901c90505b602082161561329057608061328b826fff973b41fa98c081472e6896dfb254c0614ab9565b901c90505b60408216156132ba5760806132b5826fff2ea16466c96a3843ec78b326b52861614ab9565b901c90505b60808216156132e45760806132df826ffe5dee046a99a2a811c461f1969c3053614ab9565b901c90505b61010082161561330f57608061330a826ffcbe86c7900a88aedcffc83b479aa3a4614ab9565b901c90505b61020082161561333a576080613335826ff987a7253ac413176f2b074cf7815e54614ab9565b901c90505b610400821615613365576080613360826ff3392b0822b70005940c7a398e4b70f3614ab9565b901c90505b61080082161561339057608061338b826fe7159475a2c29b7443b29c7fa6e889d9614ab9565b901c90505b6110008216156133bb5760806133b6826fd097f3bdfd2022b8845ad8f792aa5825614ab9565b901c90505b6120008216156133e65760806133e1826fa9f746462d870fdf8a65dc1f90e061e5614ab9565b901c90505b61400082161561341157608061340c826f70d869a156d2a1b890bb3df62baf32f7614ab9565b901c90505b61800082161561343c576080613437826f31be135f97d08fd981231505542fcfa6614ab9565b901c90505b62010000821615613468576080613463826f09aa508b5b7a84e1c677de54f3e99bc9614ab9565b901c90505b6202000082161561349357608061348e826e5d6af8dedb81196699c329225ee604614ab9565b901c90505b620400008216156134bd5760806134b8826d2216e584f5fa1ea926041bedfe98614ab9565b901c90505b620800008216156134e55760806134e0826b048a170391f7dc42444e8fa2614ab9565b901c90505b60008460020b1315613500576134fd81600019614aa5565b90505b61350f64010000000082614ba0565b1561351b57600161351e565b60005b61352f9060ff16602083901c614a8d565b949350505050565b6000836001600160a01b0316856001600160a01b03161115613557579293925b846001600160a01b0316866001600160a01b0316116135825761357b8585856136f7565b90506135f2565b836001600160a01b0316866001600160a01b031610156135e45760006135a98786866136f7565b905060006135b8878986613761565b9050806001600160801b0316826001600160801b0316106135d957806135db565b815b925050506135f2565b6135ef858584613761565b90505b95945050505050565b60008183101561360b57816107b8565b5090919050565b600081831061360b57816107b8565b600080836001600160a01b0316856001600160a01b03161115613642579293925b846001600160a01b0316866001600160a01b03161161366d57613666858585613797565b91506136b4565b836001600160a01b0316866001600160a01b031610156136a657613692868585613797565b915061369f85878561380a565b90506136b4565b6136b185858561380a565b90505b94509492505050565b60006001600160801b038211156136e457634e487b7160e01b600052600160045260246000fd5b5090565b606061352f8484600085613854565b6000826001600160a01b0316846001600160a01b03161115613717579192915b600061373a856001600160a01b0316856001600160a01b0316600160601b613914565b90506135f261375c848361374e8989614ad8565b6001600160a01b0316613914565b613a8a565b6000826001600160a01b0316846001600160a01b03161115613781579192915b61352f61375c83600160601b61374e8888614ad8565b6000826001600160a01b0316846001600160a01b031611156137b7579192915b6001600160a01b0384166138006fffffffffffffffffffffffffffffffff60601b606085901b166137e88787614ad8565b6001600160a01b0316866001600160a01b0316613914565b61352f9190614aa5565b6000826001600160a01b0316846001600160a01b0316111561382a579192915b61352f6001600160801b0383166138418686614ad8565b6001600160a01b0316600160601b613914565b6060824710156138765760405162461bcd60e51b815260040161058e90614537565b61387f85613aa0565b61389b5760405162461bcd60e51b815260040161058e90614874565b600080866001600160a01b031685876040516138b7919061410c565b60006040518083038185875af1925050503d80600081146138f4576040519150601f19603f3d011682016040523d82523d6000602084013e6138f9565b606091505b5091509150613909828286613ad1565b979650505050505050565b600080806000198587098686029250828110908390030390508061394a576000841161393f57600080fd5b5082900490506107b8565b80841161395657600080fd5b600084868809808403938111909203919050600061397686196001614a8d565b86169586900495938490049360008190030460010190506139978184614ab9565b9093179260006139a8876003614ab9565b60021890506139b78188614ab9565b6139c2906002614b00565b6139cc9082614ab9565b90506139d88188614ab9565b6139e3906002614b00565b6139ed9082614ab9565b90506139f98188614ab9565b613a04906002614b00565b613a0e9082614ab9565b9050613a1a8188614ab9565b613a25906002614b00565b613a2f9082614ab9565b9050613a3b8188614ab9565b613a46906002614b00565b613a509082614ab9565b9050613a5c8188614ab9565b613a67906002614b00565b613a719082614ab9565b9050613a7d8186614ab9565b9998505050505050505050565b806001600160801b03811681146109a557600080fd5b600080826001600160a01b0316803b806020016040519081016040528181526000908060200190933c511192915050565b60608315613ae05750816107b8565b825115613af05782518084602001fd5b8160405162461bcd60e51b815260040161058e919061429a565b805180151581146109a557600080fd5b60008083601f840112613b2b578182fd5b50813567ffffffffffffffff811115613b42578182fd5b602083019150836020828501011115613b5a57600080fd5b9250929050565b805161ffff811681146109a557600080fd5b600060208284031215613b84578081fd5b81356107b881614c31565b60008060408385031215613ba1578081fd5b8235613bac81614c31565b91506020830135613bbc81614c31565b809150509250929050565b600080600060608486031215613bdb578081fd5b8335613be681614c31565b92506020840135613bf681614c31565b929592945050506040919091013590565b60008060408385031215613c19578182fd5b8235613c2481614c31565b946020939093013593505050565b60006020808385031215613c44578182fd5b825167ffffffffffffffff80821115613c5b578384fd5b818501915085601f830112613c6e578384fd5b815181811115613c8057613c80614c1b565b83810260405185828201018181108582111715613c9f57613c9f614c1b565b604052828152858101935084860182860187018a1015613cbd578788fd5b8795505b83861015613cdf578051855260019590950194938601938601613cc1565b5098975050505050505050565b600060208284031215613cfd578081fd5b6107b882613b0a565b600080600060608486031215613d1a578283fd5b8335613d2581614c31565b9250602084013591506040840135613d3c81614c31565b809150509250925092565b60008060408385031215613d59578182fd5b8235613d6481614c49565b91506020830135613bbc81614c49565b600080600060608486031215613d88578283fd5b8335613d9381614c49565b92506020840135613da381614c49565b91506040840135613d3c81614c58565b60008060408385031215613dc5578182fd5b505080516020909101519092909150565b60008060008060608587031215613deb578182fd5b8435935060208501359250604085013567ffffffffffffffff811115613e0f578283fd5b613e1b87828801613b1a565b95989497509550505050565b600080600080600080600080610100898b031215613e43578586fd5b883597506020890135613e5581614c31565b96506040890135613e6581614c49565b95506060890135613e7581614c49565b94506080890135613e8581614c49565b935060a0890135613e9581614c49565b925060c0890135613ea581614c49565b915060e0890135613eb581614c49565b809150509295985092959890939650565b60008060408385031215613ed8578182fd5b8251613ee381614c58565b6020840151909250613bbc81614c58565b600080600080600060a08688031215613f0b578283fd5b8551613f1681614c58565b8095505060208601519350604086015192506060860151613f3681614c58565b6080870151909250613f4781614c58565b809150509295509295909350565b600080600080600080600060e0888a031215613f6f578081fd5b8751613f7a81614c31565b6020890151909750613f8b81614c49565b9550613f9960408901613b61565b9450613fa760608901613b61565b9350613fb560808901613b61565b925060a088015160ff81168114613fca578182fd5b9150613fd860c08901613b0a565b905092959891949750929550565b600060208284031215613ff7578081fd5b5035919050565b60006020828403121561400f578081fd5b5051919050565b60008060006060848603121561402a578081fd5b83359250602084013591506040840135613d3c81614c31565b60008060008060808587031215614058578182fd5b843593506020850135925060408501359150606085013561407881614c31565b939692955090935050565b60008060008060008060c0878903121561409b578384fd5b863595506020870135945060408701359350606087013592506080870135915060a08701356140c981614c31565b809150509295509295509295565b60609390931b6bffffffffffffffffffffffff19168352600291820b60e890811b6014850152910b901b6017820152601a0190565b6000825161411e818460208701614b17565b9190910192915050565b6001600160a01b0391909116815260200190565b6001600160a01b039384168152919092166020820152604081019190915260600190565b6001600160a01b03948516815292151560208401526040830191909152909116606082015260a06080820181905260009082015260c00190565b6001600160a01b03949094168452600292830b6020850152910b60408301526001600160801b0316606082015260a06080820181905260009082015260c00190565b6001600160a01b03959095168552600293840b60208601529190920b60408401526001600160801b03918216606084015216608082015260a00190565b6001600160a01b03929092168252602082015260400190565b901515815260200190565b90815260200190565b60029190910b815260200190565b600293840b81529190920b60208201526001600160801b03909116604082015260600190565b60029490940b845260208401929092526040830152606082015260800190565b60006020825282518060208401526142b9816040850160208701614b17565b601f01601f19169190910160400192915050565b60208082526023908201527f45524332303a207472616e7366657220746f20746865207a65726f206164647260408201526265737360e81b606082015260800190565b6020808252600a908201526930b6b7bab73a1826b4b760b11b604082015260600190565b60208082526022908201527f45524332303a206275726e20616d6f756e7420657863656564732062616c616e604082015261636560f01b606082015260800190565b602080825260029082015261746f60f01b604082015260600190565b6020808252601590820152743a34b1b5a637bbb2b9101e103a34b1b5aab83832b960591b604082015260600190565b60208082526022908201527f45524332303a20617070726f766520746f20746865207a65726f206164647265604082015261737360f01b606082015260800190565b60208082526017908201527f7469636b4c6f7765722025207469636b53706163696e67000000000000000000604082015260600190565b6020808252600d908201526c7377617070656453686172657360981b604082015260600190565b6020808252601d908201527f45524332303a20696e73756666696369656e7420616c6c6f77616e6365000000604082015260600190565b60208082526017908201527f7469636b55707065722025207469636b53706163696e67000000000000000000604082015260600190565b60208082526026908201527f45524332303a207472616e7366657220616d6f756e7420657863656564732062604082015265616c616e636560d01b606082015260800190565b6020808252600890820152673134b22ab83832b960c11b604082015260600190565b60208082526026908201527f416464726573733a20696e73756666696369656e742062616c616e636520666f6040820152651c8818d85b1b60d21b606082015260800190565b6020808252818101527f616d6f756e743044657369726564206f7220616d6f756e743144657369726564604082015260600190565b60208082526011908201527070656e64696e67476f7665726e616e636560781b604082015260600190565b602080825260129082015271616d6f756e7430206f7220616d6f756e743160701b604082015260600190565b6020808252600b908201526a70726f746f636f6c46656560a81b604082015260600190565b6020808252600590820152643a37b5b2b760d91b604082015260600190565b6020808252601b908201527f61746c65617374206f6e6520746f6b656e206973206e65656465640000000000604082015260600190565b6020808252600c908201526b29b430b93832a5b2b2b832b960a11b604082015260600190565b6020808252600a9082015269676f7665726e616e636560b01b604082015260600190565b60208082526006908201526573686172657360d01b604082015260600190565b60208082526021908201527f45524332303a206275726e2066726f6d20746865207a65726f206164647265736040820152607360f81b606082015260800190565b60208082526005908201526463726f737360d81b604082015260600190565b60208082526025908201527f45524332303a207472616e736665722066726f6d20746865207a65726f206164604082015264647265737360d81b606082015260800190565b6020808252600a908201526930b6b7bab73a18a6b4b760b11b604082015260600190565b60208082526008908201526730b9b5a637bbb2b960c11b604082015260600190565b6020808252601190820152707469636b4c6f77657220746f6f206c6f7760781b604082015260600190565b60208082526024908201527f45524332303a20617070726f76652066726f6d20746865207a65726f206164646040820152637265737360e01b606082015260800190565b6020808252601290820152710e8d2c6d6aae0e0cae440e8dede40d0d2ced60731b604082015260600190565b6020808252601d908201527f416464726573733a2063616c6c20746f206e6f6e2d636f6e7472616374000000604082015260600190565b6020808252600e908201526d6d6178546f74616c537570706c7960901b604082015260600190565b6020808252602a908201527f5361666545524332303a204552433230206f7065726174696f6e20646964206e6040820152691bdd081cdd58d8d9595960b21b606082015260800190565b6020808252601f908201527f5265656e7472616e637947756172643a207265656e7472616e742063616c6c00604082015260600190565b60208082526025908201527f45524332303a2064656372656173656420616c6c6f77616e63652062656c6f77604082015264207a65726f60d81b606082015260800190565b6020808252601f908201527f45524332303a206d696e7420746f20746865207a65726f206164647265737300604082015260600190565b918252602082015260400190565b600060a082018783526020878185015260a0604085015281875180845260c0860191508289019350845b81811015614a2d5784516001600160a01b031683529383019391830191600101614a08565b50506001600160a01b03969096166060850152505050608001529392505050565b9283526020830191909152604082015260600190565b93845260208401929092526040830152606082015260800190565b60ff91909116815260200190565b60008219821115614aa057614aa0614bef565b500190565b600082614ab457614ab4614c05565b500490565b6000816000190483118215151615614ad357614ad3614bef565b500290565b60006001600160a01b0383811690831681811015614af857614af8614bef565b039392505050565b600082821015614b1257614b12614bef565b500390565b60005b83811015614b32578181015183820152602001614b1a565b838111156121375750506000910152565b600281046001821680614b5757607f821691505b60208210811415614b7857634e487b7160e01b600052602260045260246000fd5b50919050565b60008260020b80614b9157614b91614c05565b808360020b0791505092915050565b600082614baf57614baf614c05565b500690565b60008160020b627fffff19811415614bce57614bce614bef565b9003919050565b6000600160ff1b821415614beb57614beb614bef565b0390565b634e487b7160e01b600052601160045260246000fd5b634e487b7160e01b600052601260045260246000fd5b634e487b7160e01b600052604160045260246000fd5b6001600160a01b0381168114614c4657600080fd5b50565b8060020b8114614c4657600080fd5b6001600160801b0381168114614c4657600080fdfea2646970667358221220be0dcae162bd97a9b1ec7cba0e7cce30b93602a817f53b1501b93700fd8754fe64736f6c63430008000033","bytecodeSha1":"1285f69009929297b7ab1d18468ad60f0d859ef7","compiler":{"evm_version":"istanbul","optimizer":{"enabled":true,"runs":200},"version":"0.8.0+commit.c7dfd78e"},"contractName":"Sharpe","language":"Solidity","natspec":{"kind":"dev","methods":{"acceptGovernance()":{"notice":"`setGovernance()` should be called by the existing governance address prior to calling this function."},"allowance(address,address)":{"details":"See {IERC20-allowance}."},"approve(address,uint256)":{"details":"See {IERC20-approve}. NOTE: If `amount` is the maximum `uint256`, the allowance is not updated on `transferFrom`. This is semantically equivalent to an infinite approval. Requirements: - `spender` cannot be the zero address."},"balanceOf(address)":{"details":"See {IERC20-balanceOf}."},"collectProtocol(uint256,uint256,address)":{"notice":"Used to collect accumulated protocol fees."},"constructor":{"notice":"This vault is mainly for stablecoin pairs dev After deploying, strategy needs to be set by offchain devs param _pool Underlying Uniswap V3 pool param _router Underlying Uniswap V2 router param _protocolFee Protocol fee expressed as multiple of 1e-6 param _maxTotalSupply Cap on total supply"},"decimals()":{"details":"Returns the number of decimals used to get its user representation. For example, if `decimals` equals `2`, a balance of `505` tokens should be displayed to a user as `5.05` (`505 / 10 ** 2`). Tokens usually opt for a value of 18, imitating the relationship between Ether and Wei. This is the value {ERC20} uses, unless this function is overridden; NOTE: This information is only used for _display_ purposes: it in no way affects any of the arithmetic of the contract, including {IERC20-balanceOf} and {IERC20-transfer}."},"decreaseAllowance(address,uint256)":{"details":"Atomically decreases the allowance granted to `spender` by the caller. This is an alternative to {approve} that can be used as a mitigation for problems described in {IERC20-approve}. Emits an {Approval} event indicating the updated allowance. Requirements: - `spender` cannot be the zero address. - `spender` must have allowance for the caller of at least `subtractedValue`."},"deposit(uint256,uint256,uint256,uint256,uint256,address)":{"details":"These tokens sit in the vault and are not used for liquidity on Uniswap until the next rebalance. Also note it's not necessary to check if user manipulated price to deposit cheaper, as the value of range orders can only by manipulated higher. In a scenario where user has only one of each tokens the vault performs a swap on their behalf at point of deposit.","notice":"Deposits tokens in proportion to the vault's current holdings.","params":{"amount0Desired":"Max amount of token0 to deposit","amount0Min":"Revert if resulting `amount0` is less than this","amount1Desired":"Max amount of token1 to deposit","amount1Min":"Revert if resulting `amount1` is less than this","swapMin":"minimum amount of token1 or token2 output after a swap","to":"Recipient of shares"},"returns":{"amount0":"Amount of token0 deposited","amount1":"Amount of token1 deposited","shares":"Number of shares minted"}},"emergencyBurn(int24,int24,uint128)":{"notice":"Removes liquidity in case of emergency."},"getBalance0()":{"notice":"Balance of token0 in vault not used in any position."},"getBalance1()":{"notice":"Balance of token1 in vault not used in any position."},"getPositionAmounts(int24,int24)":{"notice":"Amounts of token0 and token1 held in vault's position. Includes owed fees but excludes the proportion of fees that will be paid to the protocol. Doesn't include fees accrued since last poke."},"getTotalAmounts()":{"notice":"Calculates the vault's total holdings of token0 and token1 - in other words, how much of each token the vault would hold if it withdrew all its liquidity from Uniswap."},"increaseAllowance(address,uint256)":{"details":"Atomically increases the allowance granted to `spender` by the caller. This is an alternative to {approve} that can be used as a mitigation for problems described in {IERC20-approve}. Emits an {Approval} event indicating the updated allowance. Requirements: - `spender` cannot be the zero address."},"name()":{"details":"Returns the name of the token."},"rebalance(int256,uint160,int24,int24,int24,int24,int24,int24)":{"details":"Two orders are placed - a base order and a limit order. The base order is placed first with as much liquidity as possible. This order should use up all of one token, leaving only the other one. This excess amount is then placed as a single-sided bid or ask order.","notice":"Updates vault's positions. Can only be called by the strategy/sharpeKeeper."},"setGovernance(address)":{"notice":"Governance address is not updated until the new governance address has called `acceptGovernance()` to accept this responsibility."},"setMaxTotalSupply(uint256)":{"notice":"Used to change deposit cap for a guarded launch or to ensure vault doesn't  grow too large relative to the pool. Cap is on total supply rather than amounts  of token0 and token1 as those amounts fluctuate naturally over time."},"setProtocolFee(uint256)":{"notice":"Used to change the protocol fee charged on pool fees earned from Uniswap, expressed as multiple of 1e-6."},"setSharpeKeeper(address)":{"notice":"set SharpeKeeper Used to set the strategy contract that determines the position ranges and calls rebalance(). Must be called after this vault is deployed."},"sweep(address,uint256,address)":{"notice":"Removes tokens accidentally sent to this vault."},"symbol()":{"details":"Returns the symbol of the token, usually a shorter version of the name."},"totalSupply()":{"details":"See {IERC20-totalSupply}."},"transfer(address,uint256)":{"details":"See {IERC20-transfer}. Requirements: - `to` cannot be the zero address. - the caller must have a balance of at least `amount`."},"transferFrom(address,address,uint256)":{"details":"See {IERC20-transferFrom}. Emits an {Approval} event indicating the updated allowance. This is not required by the EIP. See the note at the beginning of {ERC20}. NOTE: Does not update the allowance if the current allowance is the maximum `uint256`. Requirements: - `from` and `to` cannot be the zero address. - `from` must have a balance of at least `amount`. - the caller must have allowance for ``from``'s tokens of at least `amount`."},"uniswapV3MintCallback(uint256,uint256,bytes)":{"details":"Callback for Uniswap V3 pool."},"uniswapV3SwapCallback(int256,int256,bytes)":{"details":"Callback for Uniswap V3 pool."},"withdraw(uint256,uint256,uint256,address)":{"notice":"Withdraws tokens in proportion to the vault's holdings.","params":{"amount0Min":"Revert if resulting `amount0` is smaller than this","amount1Min":"Revert if resulting `amount1` is smaller than this","shares":"Shares burned by sender","to":"Recipient of tokens"},"returns":{"amount0":"Amount of token0 sent to recipient","amount1":"Amount of token1 sent to recipient"}}},"version":1},"opcodes":"PUSH1 0x80 PUSH1 0x40 MSTORE CALLVALUE DUP1 ISZERO PUSH2 0x10 JUMPI PUSH1 0x0 DUP1 REVERT JUMPDEST POP PUSH1 0x4 CALLDATASIZE LT PUSH2 0x295 JUMPI PUSH1 0x0 CALLDATALOAD PUSH1 0xE0 SHR DUP1 PUSH4 0x888A9134 GT PUSH2 0x167 JUMPI DUP1 PUSH4 0xD0C93A7C GT PUSH2 0xCE JUMPI DUP1 PUSH4 0xDD62ED3E GT PUSH2 0x87 JUMPI DUP1 PUSH4 0xDD62ED3E EQ PUSH2 0x51E JUMPI DUP1 PUSH4 0xEAE989A2 EQ PUSH2 0x531 JUMPI DUP1 PUSH4 0xF39C38A0 EQ PUSH2 0x539 JUMPI DUP1 PUSH4 0xF887EA40 EQ PUSH2 0x541 JUMPI DUP1 PUSH4 0xFA082743 EQ PUSH2 0x549 JUMPI DUP1 PUSH4 0xFA461E33 EQ PUSH2 0x551 JUMPI PUSH2 0x295 JUMP JUMPDEST DUP1 PUSH4 0xD0C93A7C EQ PUSH2 0x4CD JUMPI DUP1 PUSH4 0xD21220A7 EQ PUSH2 0x4D5 JUMPI DUP1 PUSH4 0xD331BEF7 EQ PUSH2 0x4DD JUMPI DUP1 PUSH4 0xD3487997 EQ PUSH2 0x4F0 JUMPI DUP1 PUSH4 0xD7CB416F EQ PUSH2 0x503 JUMPI DUP1 PUSH4 0xDC2C256F EQ PUSH2 0x50B JUMPI PUSH2 0x295 JUMP JUMPDEST DUP1 PUSH4 0xA91EF6EB GT PUSH2 0x120 JUMPI DUP1 PUSH4 0xA91EF6EB EQ PUSH2 0x463 JUMPI DUP1 PUSH4 0xAB033EA9 EQ PUSH2 0x484 JUMPI DUP1 PUSH4 0xABBFFCB9 EQ PUSH2 0x497 JUMPI DUP1 PUSH4 0xB0E21E8A EQ PUSH2 0x4AA JUMPI DUP1 PUSH4 0xB3A3D00C EQ PUSH2 0x4B2 JUMPI DUP1 PUSH4 0xC4A7761E EQ PUSH2 0x4C5 JUMPI PUSH2 0x295 JUMP JUMPDEST DUP1 PUSH4 0x888A9134 EQ PUSH2 0x403 JUMPI DUP1 PUSH4 0x9130700E EQ PUSH2 0x40B JUMPI DUP1 PUSH4 0x95D89B41 EQ PUSH2 0x42D JUMPI DUP1 PUSH4 0xA00FA77F EQ PUSH2 0x435 JUMPI DUP1 PUSH4 0xA457C2D7 EQ PUSH2 0x43D JUMPI DUP1 PUSH4 0xA9059CBB EQ PUSH2 0x450 JUMPI PUSH2 0x295 JUMP JUMPDEST DUP1 PUSH4 0x313CE567 GT PUSH2 0x20B JUMPI DUP1 PUSH4 0x5AA6E675 GT PUSH2 0x1C4 JUMPI DUP1 PUSH4 0x5AA6E675 EQ PUSH2 0x3B2 JUMPI DUP1 PUSH4 0x629D9405 EQ PUSH2 0x3BA JUMPI DUP1 PUSH4 0x70A08231 EQ PUSH2 0x3C2 JUMPI DUP1 PUSH4 0x787DCE3D EQ PUSH2 0x3D5 JUMPI DUP1 PUSH4 0x7FF36FBE EQ PUSH2 0x3E8 JUMPI DUP1 PUSH4 0x87E5E083 EQ PUSH2 0x3F0 JUMPI PUSH2 0x295 JUMP JUMPDEST DUP1 PUSH4 0x313CE567 EQ PUSH2 0x35F JUMPI DUP1 PUSH4 0x3268CC56 EQ PUSH2 0x374 JUMPI DUP1 PUSH4 0x39509351 EQ PUSH2 0x37C JUMPI DUP1 PUSH4 0x3F3E4C11 EQ PUSH2 0x38F JUMPI DUP1 PUSH4 0x41AEC538 EQ PUSH2 0x3A2 JUMPI DUP1 PUSH4 0x51E87AF7 EQ PUSH2 0x3AA JUMPI PUSH2 0x295 JUMP JUMPDEST DUP1 PUSH4 0xF35BCAC GT PUSH2 0x25D JUMPI DUP1 PUSH4 0xF35BCAC EQ PUSH2 0x30A JUMPI DUP1 PUSH4 0x16F0115B EQ PUSH2 0x31F JUMPI DUP1 PUSH4 0x18160DDD EQ PUSH2 0x327 JUMPI DUP1 PUSH4 0x238EFCBC EQ PUSH2 0x33C JUMPI DUP1 PUSH4 0x23B872DD EQ PUSH2 0x344 JUMPI DUP1 PUSH4 0x2AB4D052 EQ PUSH2 0x357 JUMPI PUSH2 0x295 JUMP JUMPDEST DUP1 PUSH4 0x430C130 EQ PUSH2 0x29A JUMPI DUP1 PUSH4 0x6FDDE03 EQ PUSH2 0x2AF JUMPI DUP1 PUSH4 0x95EA7B3 EQ PUSH2 0x2CD JUMPI DUP1 PUSH4 0xC42383A EQ PUSH2 0x2ED JUMPI DUP1 PUSH4 0xDFE1681 EQ PUSH2 0x302 JUMPI JUMPDEST PUSH1 0x0 DUP1 REVERT JUMPDEST PUSH2 0x2AD PUSH2 0x2A8 CALLDATASIZE PUSH1 0x4 PUSH2 0x4016 JUMP JUMPDEST PUSH2 0x564 JUMP JUMPDEST STOP JUMPDEST PUSH2 0x2B7 PUSH2 0x630 JUMP JUMPDEST PUSH1 0x40 MLOAD PUSH2 0x2C4 SWAP2 SWAP1 PUSH2 0x429A JUMP JUMPDEST PUSH1 0x40 MLOAD DUP1 SWAP2 SUB SWAP1 RETURN JUMPDEST PUSH2 0x2E0 PUSH2 0x2DB CALLDATASIZE PUSH1 0x4 PUSH2 0x3C07 JUMP JUMPDEST PUSH2 0x6C2 JUMP JUMPDEST PUSH1 0x40 MLOAD PUSH2 0x2C4 SWAP2 SWAP1 PUSH2 0x4232 JUMP JUMPDEST PUSH2 0x2F5 PUSH2 0x6E4 JUMP JUMPDEST PUSH1 0x40 MLOAD PUSH2 0x2C4 SWAP2 SWAP1 PUSH2 0x4128 JUMP JUMPDEST PUSH2 0x2F5 PUSH2 0x6F3 JUMP JUMPDEST PUSH2 0x312 PUSH2 0x717 JUMP JUMPDEST PUSH1 0x40 MLOAD PUSH2 0x2C4 SWAP2 SWAP1 PUSH2 0x4246 JUMP JUMPDEST PUSH2 0x2F5 PUSH2 0x727 JUMP JUMPDEST PUSH2 0x32F PUSH2 0x74B JUMP JUMPDEST PUSH1 0x40 MLOAD PUSH2 0x2C4 SWAP2 SWAP1 PUSH2 0x423D JUMP JUMPDEST PUSH2 0x2AD PUSH2 0x751 JUMP JUMPDEST PUSH2 0x2E0 PUSH2 0x352 CALLDATASIZE PUSH1 0x4 PUSH2 0x3BC7 JUMP JUMPDEST PUSH2 0x78F JUMP JUMPDEST PUSH2 0x32F PUSH2 0x7BF JUMP JUMPDEST PUSH2 0x367 PUSH2 0x7C5 JUMP JUMPDEST PUSH1 0x40 MLOAD PUSH2 0x2C4 SWAP2 SWAP1 PUSH2 0x4A7F JUMP JUMPDEST PUSH2 0x2F5 PUSH2 0x7CA JUMP JUMPDEST PUSH2 0x2E0 PUSH2 0x38A CALLDATASIZE PUSH1 0x4 PUSH2 0x3C07 JUMP JUMPDEST PUSH2 0x7EE JUMP JUMPDEST PUSH2 0x2AD PUSH2 0x39D CALLDATASIZE PUSH1 0x4 PUSH2 0x3FE6 JUMP JUMPDEST PUSH2 0x83A JUMP JUMPDEST PUSH2 0x32F PUSH2 0x869 JUMP JUMPDEST PUSH2 0x312 PUSH2 0x918 JUMP JUMPDEST PUSH2 0x2F5 PUSH2 0x928 JUMP JUMPDEST PUSH2 0x32F PUSH2 0x937 JUMP JUMPDEST PUSH2 0x32F PUSH2 0x3D0 CALLDATASIZE PUSH1 0x4 PUSH2 0x3B73 JUMP JUMPDEST PUSH2 0x98B JUMP JUMPDEST PUSH2 0x2AD PUSH2 0x3E3 CALLDATASIZE PUSH1 0x4 PUSH2 0x3FE6 JUMP JUMPDEST PUSH2 0x9AA JUMP JUMPDEST PUSH2 0x2F5 PUSH2 0x9FB JUMP JUMPDEST PUSH2 0x2AD PUSH2 0x3FE CALLDATASIZE PUSH1 0x4 PUSH2 0x3E27 JUMP JUMPDEST PUSH2 0xA1F JUMP JUMPDEST PUSH2 0x312 PUSH2 0xEA8 JUMP JUMPDEST PUSH2 0x41E PUSH2 0x419 CALLDATASIZE PUSH1 0x4 PUSH2 0x4083 JUMP JUMPDEST PUSH2 0xEB8 JUMP JUMPDEST PUSH1 0x40 MLOAD PUSH2 0x2C4 SWAP4 SWAP3 SWAP2 SWAP1 PUSH2 0x4A4E JUMP JUMPDEST PUSH2 0x2B7 PUSH2 0x1A04 JUMP JUMPDEST PUSH2 0x32F PUSH2 0x1A13 JUMP JUMPDEST PUSH2 0x2E0 PUSH2 0x44B CALLDATASIZE PUSH1 0x4 PUSH2 0x3C07 JUMP JUMPDEST PUSH2 0x1A19 JUMP JUMPDEST PUSH2 0x2E0 PUSH2 0x45E CALLDATASIZE PUSH1 0x4 PUSH2 0x3C07 JUMP JUMPDEST PUSH2 0x1A85 JUMP JUMPDEST PUSH2 0x476 PUSH2 0x471 CALLDATASIZE PUSH1 0x4 PUSH2 0x3D47 JUMP JUMPDEST PUSH2 0x1A9D JUMP JUMPDEST PUSH1 0x40 MLOAD PUSH2 0x2C4 SWAP3 SWAP2 SWAP1 PUSH2 0x49D0 JUMP JUMPDEST PUSH2 0x2AD PUSH2 0x492 CALLDATASIZE PUSH1 0x4 PUSH2 0x3B73 JUMP JUMPDEST PUSH2 0x1B3A JUMP JUMPDEST PUSH2 0x2AD PUSH2 0x4A5 CALLDATASIZE PUSH1 0x4 PUSH2 0x3D74 JUMP JUMPDEST PUSH2 0x1B86 JUMP JUMPDEST PUSH2 0x32F PUSH2 0x1D06 JUMP JUMPDEST PUSH2 0x2AD PUSH2 0x4C0 CALLDATASIZE PUSH1 0x4 PUSH2 0x3B73 JUMP JUMPDEST PUSH2 0x1D0C JUMP JUMPDEST PUSH2 0x476 PUSH2 0x1D58 JUMP JUMPDEST PUSH2 0x312 PUSH2 0x1DE5 JUMP JUMPDEST PUSH2 0x2F5 PUSH2 0x1E09 JUMP JUMPDEST PUSH2 0x476 PUSH2 0x4EB CALLDATASIZE PUSH1 0x4 PUSH2 0x4043 JUMP JUMPDEST PUSH2 0x1E2D JUMP JUMPDEST PUSH2 0x2AD PUSH2 0x4FE CALLDATASIZE PUSH1 0x4 PUSH2 0x3DD6 JUMP JUMPDEST PUSH2 0x208E JUMP JUMPDEST PUSH2 0x2F5 PUSH2 0x213D JUMP JUMPDEST PUSH2 0x2AD PUSH2 0x519 CALLDATASIZE PUSH1 0x4 PUSH2 0x3D06 JUMP JUMPDEST PUSH2 0x2161 JUMP JUMPDEST PUSH2 0x32F PUSH2 0x52C CALLDATASIZE PUSH1 0x4 PUSH2 0x3B8F JUMP JUMPDEST PUSH2 0x222F JUMP JUMPDEST PUSH2 0x32F PUSH2 0x225A JUMP JUMPDEST PUSH2 0x2F5 PUSH2 0x2260 JUMP JUMPDEST PUSH2 0x2F5 PUSH2 0x226F JUMP JUMPDEST PUSH2 0x312 PUSH2 0x2293 JUMP JUMPDEST PUSH2 0x2AD PUSH2 0x55F CALLDATASIZE PUSH1 0x4 PUSH2 0x3DD6 JUMP JUMPDEST PUSH2 0x22A3 JUMP JUMPDEST PUSH1 0x9 SLOAD PUSH1 0x1 PUSH1 0x1 PUSH1 0xA0 SHL SUB AND CALLER EQ PUSH2 0x597 JUMPI PUSH1 0x40 MLOAD PUSH3 0x461BCD PUSH1 0xE5 SHL DUP2 MSTORE PUSH1 0x4 ADD PUSH2 0x58E SWAP1 PUSH2 0x46AA JUMP JUMPDEST PUSH1 0x40 MLOAD DUP1 SWAP2 SUB SWAP1 REVERT JUMPDEST PUSH1 0xB SLOAD PUSH2 0x5A4 SWAP1 DUP5 PUSH2 0x2352 JUMP JUMPDEST PUSH1 0xB SSTORE PUSH1 0xC SLOAD PUSH2 0x5B4 SWAP1 DUP4 PUSH2 0x2352 JUMP JUMPDEST PUSH1 0xC SSTORE DUP3 ISZERO PUSH2 0x5F1 JUMPI PUSH2 0x5F1 PUSH1 0x1 PUSH1 0x1 PUSH1 0xA0 SHL SUB PUSH32 0x0 AND DUP3 DUP6 PUSH2 0x235E JUMP JUMPDEST DUP2 ISZERO PUSH2 0x62B JUMPI PUSH2 0x62B PUSH1 0x1 PUSH1 0x1 PUSH1 0xA0 SHL SUB PUSH32 0x0 AND DUP3 DUP5 PUSH2 0x235E JUMP JUMPDEST POP POP POP JUMP JUMPDEST PUSH1 0x60 PUSH1 0x3 DUP1 SLOAD PUSH2 0x63F SWAP1 PUSH2 0x4B43 JUMP JUMPDEST DUP1 PUSH1 0x1F ADD PUSH1 0x20 DUP1 SWAP2 DIV MUL PUSH1 0x20 ADD PUSH1 0x40 MLOAD SWAP1 DUP2 ADD PUSH1 0x40 MSTORE DUP1 SWAP3 SWAP2 SWAP1 DUP2 DUP2 MSTORE PUSH1 0x20 ADD DUP3 DUP1 SLOAD PUSH2 0x66B SWAP1 PUSH2 0x4B43 JUMP JUMPDEST DUP1 ISZERO PUSH2 0x6B8 JUMPI DUP1 PUSH1 0x1F LT PUSH2 0x68D JUMPI PUSH2 0x100 DUP1 DUP4 SLOAD DIV MUL DUP4 MSTORE SWAP2 PUSH1 0x20 ADD SWAP2 PUSH2 0x6B8 JUMP JUMPDEST DUP3 ADD SWAP2 SWAP1 PUSH1 0x0 MSTORE PUSH1 0x20 PUSH1 0x0 KECCAK256 SWAP1 JUMPDEST DUP2 SLOAD DUP2 MSTORE SWAP1 PUSH1 0x1 ADD SWAP1 PUSH1 0x20 ADD DUP1 DUP4 GT PUSH2 0x69B JUMPI DUP3 SWAP1 SUB PUSH1 0x1F AND DUP3 ADD SWAP2 JUMPDEST POP POP POP POP POP SWAP1 POP SWAP1 JUMP JUMPDEST PUSH1 0x0 DUP1 PUSH2 0x6CD PUSH2 0x23B4 JUMP JUMPDEST SWAP1 POP PUSH2 0x6DA DUP2 DUP6 DUP6 PUSH2 0x23B8 JUMP JUMPDEST POP PUSH1 0x1 SWAP4 SWAP3 POP POP POP JUMP JUMPDEST PUSH1 0x8 SLOAD PUSH1 0x1 PUSH1 0x1 PUSH1 0xA0 SHL SUB AND DUP2 JUMP JUMPDEST PUSH32 0x0 DUP2 JUMP JUMPDEST PUSH1 0xA SLOAD PUSH1 0x1 PUSH1 0xE8 SHL SWAP1 DIV PUSH1 0x2 SIGNEXTEND DUP2 JUMP JUMPDEST PUSH32 0x0 DUP2 JUMP JUMPDEST PUSH1 0x2 SLOAD SWAP1 JUMP JUMPDEST PUSH1 0xA SLOAD PUSH1 0x1 PUSH1 0x1 PUSH1 0xA0 SHL SUB AND CALLER EQ PUSH2 0x77B JUMPI PUSH1 0x40 MLOAD PUSH3 0x461BCD PUSH1 0xE5 SHL DUP2 MSTORE PUSH1 0x4 ADD PUSH2 0x58E SWAP1 PUSH2 0x45B2 JUMP JUMPDEST PUSH1 0x9 DUP1 SLOAD PUSH1 0x1 PUSH1 0x1 PUSH1 0xA0 SHL SUB NOT AND CALLER OR SWAP1 SSTORE JUMP JUMPDEST PUSH1 0x0 DUP1 PUSH2 0x79A PUSH2 0x23B4 JUMP JUMPDEST SWAP1 POP PUSH2 0x7A7 DUP6 DUP3 DUP6 PUSH2 0x246C JUMP JUMPDEST PUSH2 0x7B2 DUP6 DUP6 DUP6 PUSH2 0x24B0 JUMP JUMPDEST PUSH1 0x1 SWAP2 POP POP JUMPDEST SWAP4 SWAP3 POP POP POP JUMP JUMPDEST PUSH1 0x7 SLOAD DUP2 JUMP JUMPDEST PUSH1 0x12 SWAP1 JUMP JUMPDEST PUSH32 0x0 DUP2 JUMP JUMPDEST PUSH1 0x0 DUP1 PUSH2 0x7F9 PUSH2 0x23B4 JUMP JUMPDEST PUSH1 0x1 PUSH1 0x1 PUSH1 0xA0 SHL SUB DUP1 DUP3 AND PUSH1 0x0 SWAP1 DUP2 MSTORE PUSH1 0x1 PUSH1 0x20 SWAP1 DUP2 MSTORE PUSH1 0x40 DUP1 DUP4 KECCAK256 SWAP4 DUP10 AND DUP4 MSTORE SWAP3 SWAP1 MSTORE KECCAK256 SLOAD SWAP1 SWAP2 POP PUSH2 0x6DA SWAP1 DUP3 SWAP1 DUP7 SWAP1 PUSH2 0x835 SWAP1 DUP8 SWAP1 PUSH2 0x4A8D JUMP JUMPDEST PUSH2 0x23B8 JUMP JUMPDEST PUSH1 0x9 SLOAD PUSH1 0x1 PUSH1 0x1 PUSH1 0xA0 SHL SUB AND CALLER EQ PUSH2 0x864 JUMPI PUSH1 0x40 MLOAD PUSH3 0x461BCD PUSH1 0xE5 SHL DUP2 MSTORE PUSH1 0x4 ADD PUSH2 0x58E SWAP1 PUSH2 0x46AA JUMP JUMPDEST PUSH1 0x7 SSTORE JUMP JUMPDEST PUSH1 0x0 PUSH2 0x913 PUSH1 0xC SLOAD PUSH32 0x0 PUSH1 0x1 PUSH1 0x1 PUSH1 0xA0 SHL SUB AND PUSH4 0x70A08231 ADDRESS PUSH1 0x40 MLOAD DUP3 PUSH4 0xFFFFFFFF AND PUSH1 0xE0 SHL DUP2 MSTORE PUSH1 0x4 ADD PUSH2 0x8BD SWAP2 SWAP1 PUSH2 0x4128 JUMP JUMPDEST PUSH1 0x20 PUSH1 0x40 MLOAD DUP1 DUP4 SUB DUP2 DUP7 DUP1 EXTCODESIZE ISZERO DUP1 ISZERO PUSH2 0x8D5 JUMPI PUSH1 0x0 DUP1 REVERT JUMPDEST POP GAS STATICCALL ISZERO DUP1 ISZERO PUSH2 0x8E9 JUMPI RETURNDATASIZE PUSH1 0x0 DUP1 RETURNDATACOPY RETURNDATASIZE PUSH1 0x0 REVERT JUMPDEST POP POP POP POP PUSH1 0x40 MLOAD RETURNDATASIZE PUSH1 0x1F NOT PUSH1 0x1F DUP3 ADD AND DUP3 ADD DUP1 PUSH1 0x40 MSTORE POP DUP2 ADD SWAP1 PUSH2 0x90D SWAP2 SWAP1 PUSH2 0x3FFE JUMP JUMPDEST SWAP1 PUSH2 0x2352 JUMP JUMPDEST SWAP1 POP SWAP1 JUMP JUMPDEST PUSH1 0xA SLOAD PUSH1 0x1 PUSH1 0xD0 SHL SWAP1 DIV PUSH1 0x2 SIGNEXTEND DUP2 JUMP JUMPDEST PUSH1 0x9 SLOAD PUSH1 0x1 PUSH1 0x1 PUSH1 0xA0 SHL SUB AND DUP2 JUMP JUMPDEST PUSH1 0x0 PUSH2 0x913 PUSH1 0xB SLOAD PUSH32 0x0 PUSH1 0x1 PUSH1 0x1 PUSH1 0xA0 SHL SUB AND PUSH4 0x70A08231 ADDRESS PUSH1 0x40 MLOAD DUP3 PUSH4 0xFFFFFFFF AND PUSH1 0xE0 SHL DUP2 MSTORE PUSH1 0x4 ADD PUSH2 0x8BD SWAP2 SWAP1 PUSH2 0x4128 JUMP JUMPDEST PUSH1 0x1 PUSH1 0x1 PUSH1 0xA0 SHL SUB DUP2 AND PUSH1 0x0 SWAP1 DUP2 MSTORE PUSH1 0x20 DUP2 SWAP1 MSTORE PUSH1 0x40 SWAP1 KECCAK256 SLOAD JUMPDEST SWAP2 SWAP1 POP JUMP JUMPDEST PUSH1 0x9 SLOAD PUSH1 0x1 PUSH1 0x1 PUSH1 0xA0 SHL SUB AND CALLER EQ PUSH2 0x9D4 JUMPI PUSH1 0x40 MLOAD PUSH3 0x461BCD PUSH1 0xE5 SHL DUP2 MSTORE PUSH1 0x4 ADD PUSH2 0x58E SWAP1 PUSH2 0x46AA JUMP JUMPDEST PUSH3 0xF4240 DUP2 LT PUSH2 0x9F6 JUMPI PUSH1 0x40 MLOAD PUSH3 0x461BCD PUSH1 0xE5 SHL DUP2 MSTORE PUSH1 0x4 ADD PUSH2 0x58E SWAP1 PUSH2 0x4609 JUMP JUMPDEST PUSH1 0x6 SSTORE JUMP JUMPDEST PUSH32 0x0 DUP2 JUMP JUMPDEST PUSH1 0x2 PUSH1 0x5 SLOAD EQ ISZERO PUSH2 0xA42 JUMPI PUSH1 0x40 MLOAD PUSH3 0x461BCD PUSH1 0xE5 SHL DUP2 MSTORE PUSH1 0x4 ADD PUSH2 0x58E SWAP1 PUSH2 0x491D JUMP JUMPDEST PUSH1 0x2 PUSH1 0x5 SSTORE PUSH1 0x8 SLOAD PUSH1 0x1 PUSH1 0x1 PUSH1 0xA0 SHL SUB AND CALLER EQ PUSH2 0xA71 JUMPI PUSH1 0x40 MLOAD PUSH3 0x461BCD PUSH1 0xE5 SHL DUP2 MSTORE PUSH1 0x4 ADD PUSH2 0x58E SWAP1 PUSH2 0x4684 JUMP JUMPDEST PUSH2 0xA7B DUP7 DUP7 PUSH2 0x25D4 JUMP JUMPDEST PUSH2 0xA85 DUP5 DUP5 PUSH2 0x25D4 JUMP JUMPDEST PUSH2 0xA8F DUP3 DUP3 PUSH2 0x25D4 JUMP JUMPDEST PUSH1 0x0 PUSH32 0x0 PUSH1 0x1 PUSH1 0x1 PUSH1 0xA0 SHL SUB AND PUSH4 0x3850C7BD PUSH1 0x40 MLOAD DUP2 PUSH4 0xFFFFFFFF AND PUSH1 0xE0 SHL DUP2 MSTORE PUSH1 0x4 ADD PUSH1 0xE0 PUSH1 0x40 MLOAD DUP1 DUP4 SUB DUP2 DUP7 DUP1 EXTCODESIZE ISZERO DUP1 ISZERO PUSH2 0xAEA JUMPI PUSH1 0x0 DUP1 REVERT JUMPDEST POP GAS STATICCALL ISZERO DUP1 ISZERO PUSH2 0xAFE JUMPI RETURNDATASIZE PUSH1 0x0 DUP1 RETURNDATACOPY RETURNDATASIZE PUSH1 0x0 REVERT JUMPDEST POP POP POP POP PUSH1 0x40 MLOAD RETURNDATASIZE PUSH1 0x1F NOT PUSH1 0x1F DUP3 ADD AND DUP3 ADD DUP1 PUSH1 0x40 MSTORE POP DUP2 ADD SWAP1 PUSH2 0xB22 SWAP2 SWAP1 PUSH2 0x3F55 JUMP JUMPDEST POP POP POP POP POP SWAP2 POP POP DUP1 PUSH1 0x2 SIGNEXTEND DUP5 PUSH1 0x2 SIGNEXTEND SGT ISZERO PUSH2 0xB50 JUMPI PUSH1 0x40 MLOAD PUSH3 0x461BCD PUSH1 0xE5 SHL DUP2 MSTORE PUSH1 0x4 ADD PUSH2 0x58E SWAP1 PUSH2 0x4515 JUMP JUMPDEST DUP1 PUSH1 0x2 SIGNEXTEND DUP4 PUSH1 0x2 SIGNEXTEND SGT PUSH2 0xB75 JUMPI PUSH1 0x40 MLOAD PUSH3 0x461BCD PUSH1 0xE5 SHL DUP2 MSTORE PUSH1 0x4 ADD PUSH2 0x58E SWAP1 PUSH2 0x47B7 JUMP JUMPDEST PUSH1 0xA SLOAD PUSH1 0x0 SWAP1 PUSH2 0xB9A SWAP1 PUSH1 0x1 PUSH1 0xA0 SHL DUP2 DIV PUSH1 0x2 SWAP1 DUP2 SIGNEXTEND SWAP2 PUSH1 0x1 PUSH1 0xB8 SHL SWAP1 DIV SWAP1 SIGNEXTEND PUSH2 0x26C9 JUMP JUMPDEST POP POP PUSH1 0xA SLOAD SWAP3 SWAP4 POP PUSH1 0x0 SWAP3 PUSH2 0xBC7 SWAP3 POP PUSH1 0x1 PUSH1 0xD0 SHL DUP2 DIV PUSH1 0x2 SWAP1 DUP2 SIGNEXTEND SWAP3 POP PUSH1 0x1 PUSH1 0xE8 SHL SWAP1 SWAP2 DIV SWAP1 SIGNEXTEND PUSH2 0x26C9 JUMP JUMPDEST POP POP PUSH1 0xA SLOAD SWAP3 SWAP4 POP PUSH2 0xBF3 SWAP3 PUSH1 0x1 PUSH1 0xA0 SHL DUP2 DIV PUSH1 0x2 SWAP1 DUP2 SIGNEXTEND SWAP4 POP PUSH1 0x1 PUSH1 0xB8 SHL SWAP1 SWAP2 DIV SWAP1 SIGNEXTEND SWAP1 POP DUP5 PUSH2 0x2790 JUMP JUMPDEST POP POP PUSH1 0xA SLOAD PUSH2 0xC1B SWAP3 POP PUSH1 0x1 PUSH1 0xD0 SHL DUP2 DIV PUSH1 0x2 SWAP1 DUP2 SIGNEXTEND SWAP3 POP PUSH1 0x1 PUSH1 0xE8 SHL SWAP1 SWAP2 DIV SWAP1 SIGNEXTEND DUP4 PUSH2 0x2790 JUMP JUMPDEST POP POP POP POP POP POP PUSH1 0x0 PUSH2 0xC2B PUSH2 0x937 JUMP JUMPDEST SWAP1 POP PUSH1 0x0 PUSH2 0xC37 PUSH2 0x869 JUMP JUMPDEST SWAP1 POP PUSH32 0x210F60ADF1DB7A02E9DB9A49EC7C2EB2060C516CBCFD01A0C05288144738EE5D DUP4 DUP4 DUP4 PUSH2 0xC65 PUSH2 0x74B JUMP JUMPDEST PUSH1 0x40 MLOAD PUSH2 0xC75 SWAP5 SWAP4 SWAP3 SWAP2 SWAP1 PUSH2 0x427A JUMP JUMPDEST PUSH1 0x40 MLOAD DUP1 SWAP2 SUB SWAP1 LOG1 DUP11 ISZERO PUSH2 0xD54 JUMPI PUSH1 0x1 PUSH1 0x1 PUSH1 0xA0 SHL SUB PUSH32 0x0 AND PUSH4 0x128ACB08 ADDRESS PUSH1 0x0 DUP15 SGT DUP1 PUSH2 0xCCA JUMPI PUSH2 0xCC5 DUP16 PUSH2 0x4BD5 JUMP JUMPDEST PUSH2 0xCCC JUMP JUMPDEST DUP15 JUMPDEST DUP15 PUSH1 0x40 MLOAD DUP6 PUSH4 0xFFFFFFFF AND PUSH1 0xE0 SHL DUP2 MSTORE PUSH1 0x4 ADD PUSH2 0xCEC SWAP5 SWAP4 SWAP3 SWAP2 SWAP1 PUSH2 0x4160 JUMP JUMPDEST PUSH1 0x40 DUP1 MLOAD DUP1 DUP4 SUB DUP2 PUSH1 0x0 DUP8 DUP1 EXTCODESIZE ISZERO DUP1 ISZERO PUSH2 0xD05 JUMPI PUSH1 0x0 DUP1 REVERT JUMPDEST POP GAS CALL ISZERO DUP1 ISZERO PUSH2 0xD19 JUMPI RETURNDATASIZE PUSH1 0x0 DUP1 RETURNDATACOPY RETURNDATASIZE PUSH1 0x0 REVERT JUMPDEST POP POP POP POP PUSH1 0x40 MLOAD RETURNDATASIZE PUSH1 0x1F NOT PUSH1 0x1F DUP3 ADD AND DUP3 ADD DUP1 PUSH1 0x40 MSTORE POP DUP2 ADD SWAP1 PUSH2 0xD3D SWAP2 SWAP1 PUSH2 0x3DB3 JUMP JUMPDEST POP POP PUSH2 0xD47 PUSH2 0x937 JUMP JUMPDEST SWAP2 POP PUSH2 0xD51 PUSH2 0x869 JUMP JUMPDEST SWAP1 POP JUMPDEST PUSH1 0x0 PUSH2 0xD62 DUP11 DUP11 DUP6 DUP6 PUSH2 0x29DC JUMP JUMPDEST SWAP1 POP PUSH2 0xD6F DUP11 DUP11 DUP4 PUSH2 0x2A9F JUMP JUMPDEST PUSH1 0xA DUP1 SLOAD PUSH1 0x2 DUP13 DUP2 SIGNEXTEND PUSH3 0xFFFFFF SWAP1 DUP2 AND PUSH1 0x1 PUSH1 0xA0 SHL MUL PUSH3 0xFFFFFF PUSH1 0xA0 SHL NOT SWAP3 DUP15 SWAP1 SIGNEXTEND SWAP1 SWAP2 AND PUSH1 0x1 PUSH1 0xB8 SHL MUL PUSH3 0xFFFFFF PUSH1 0xB8 SHL NOT SWAP1 SWAP4 AND SWAP3 SWAP1 SWAP3 OR AND OR SWAP1 SSTORE PUSH2 0xDB5 PUSH2 0x937 JUMP JUMPDEST SWAP3 POP PUSH2 0xDBF PUSH2 0x869 JUMP JUMPDEST SWAP2 POP PUSH1 0x0 PUSH2 0xDCF DUP10 DUP10 DUP7 DUP7 PUSH2 0x29DC JUMP JUMPDEST SWAP1 POP PUSH1 0x0 PUSH2 0xDDF DUP9 DUP9 DUP8 DUP8 PUSH2 0x29DC JUMP JUMPDEST SWAP1 POP DUP1 PUSH1 0x1 PUSH1 0x1 PUSH1 0x80 SHL SUB AND DUP3 PUSH1 0x1 PUSH1 0x1 PUSH1 0x80 SHL SUB AND GT ISZERO PUSH2 0xE49 JUMPI PUSH2 0xE06 DUP11 DUP11 DUP5 PUSH2 0x2A9F JUMP JUMPDEST PUSH1 0xA DUP1 SLOAD PUSH1 0x2 DUP13 DUP2 SIGNEXTEND PUSH3 0xFFFFFF SWAP1 DUP2 AND PUSH1 0x1 PUSH1 0xD0 SHL MUL PUSH3 0xFFFFFF PUSH1 0xD0 SHL NOT SWAP3 DUP15 SWAP1 SIGNEXTEND SWAP1 SWAP2 AND PUSH1 0x1 PUSH1 0xE8 SHL MUL PUSH1 0x1 PUSH1 0x1 PUSH1 0xE8 SHL SUB SWAP1 SWAP4 AND SWAP3 SWAP1 SWAP3 OR AND OR SWAP1 SSTORE PUSH2 0xE93 JUMP JUMPDEST PUSH2 0xE54 DUP9 DUP9 DUP4 PUSH2 0x2A9F JUMP JUMPDEST PUSH1 0xA DUP1 SLOAD PUSH1 0x2 DUP11 DUP2 SIGNEXTEND PUSH3 0xFFFFFF SWAP1 DUP2 AND PUSH1 0x1 PUSH1 0xD0 SHL MUL PUSH3 0xFFFFFF PUSH1 0xD0 SHL NOT SWAP3 DUP13 SWAP1 SIGNEXTEND SWAP1 SWAP2 AND PUSH1 0x1 PUSH1 0xE8 SHL MUL PUSH1 0x1 PUSH1 0x1 PUSH1 0xE8 SHL SUB SWAP1 SWAP4 AND SWAP3 SWAP1 SWAP3 OR AND OR SWAP1 SSTORE JUMPDEST POP POP PUSH1 0x1 PUSH1 0x5 SSTORE POP POP POP POP POP POP POP POP POP POP POP POP JUMP JUMPDEST PUSH1 0xA SLOAD PUSH1 0x1 PUSH1 0xB8 SHL SWAP1 DIV PUSH1 0x2 SIGNEXTEND DUP2 JUMP JUMPDEST PUSH1 0x0 DUP1 PUSH1 0x0 PUSH1 0x2 PUSH1 0x5 SLOAD EQ ISZERO PUSH2 0xEE0 JUMPI PUSH1 0x40 MLOAD PUSH3 0x461BCD PUSH1 0xE5 SHL DUP2 MSTORE PUSH1 0x4 ADD PUSH2 0x58E SWAP1 PUSH2 0x491D JUMP JUMPDEST PUSH1 0x2 PUSH1 0x5 SSTORE DUP9 ISZERO ISZERO DUP1 PUSH2 0xEF3 JUMPI POP PUSH1 0x0 DUP9 GT JUMPDEST PUSH2 0xF0F JUMPI PUSH1 0x40 MLOAD PUSH3 0x461BCD PUSH1 0xE5 SHL DUP2 MSTORE PUSH1 0x4 ADD PUSH2 0x58E SWAP1 PUSH2 0x457D JUMP JUMPDEST PUSH1 0x1 PUSH1 0x1 PUSH1 0xA0 SHL SUB DUP5 AND ISZERO DUP1 ISZERO SWAP1 PUSH2 0xF30 JUMPI POP PUSH1 0x1 PUSH1 0x1 PUSH1 0xA0 SHL SUB DUP5 AND ADDRESS EQ ISZERO JUMPDEST PUSH2 0xF4C JUMPI PUSH1 0x40 MLOAD PUSH3 0x461BCD PUSH1 0xE5 SHL DUP2 MSTORE PUSH1 0x4 ADD PUSH2 0x58E SWAP1 PUSH2 0x4376 JUMP JUMPDEST PUSH1 0xA SLOAD PUSH2 0xF6E SWAP1 PUSH1 0x1 PUSH1 0xA0 SHL DUP2 DIV PUSH1 0x2 SWAP1 DUP2 SIGNEXTEND SWAP2 PUSH1 0x1 PUSH1 0xB8 SHL SWAP1 DIV SWAP1 SIGNEXTEND PUSH2 0x2B51 JUMP JUMPDEST PUSH1 0xA SLOAD PUSH2 0xF90 SWAP1 PUSH1 0x1 PUSH1 0xD0 SHL DUP2 DIV PUSH1 0x2 SWAP1 DUP2 SIGNEXTEND SWAP2 PUSH1 0x1 PUSH1 0xE8 SHL SWAP1 DIV SWAP1 SIGNEXTEND PUSH2 0x2B51 JUMP JUMPDEST PUSH2 0xF9A DUP10 DUP10 PUSH2 0x2BC6 JUMP JUMPDEST SWAP2 SWAP5 POP SWAP3 POP SWAP1 POP DUP7 DUP3 LT ISZERO PUSH2 0xFC1 JUMPI PUSH1 0x40 MLOAD PUSH3 0x461BCD PUSH1 0xE5 SHL DUP2 MSTORE PUSH1 0x4 ADD PUSH2 0x58E SWAP1 PUSH2 0x4310 JUMP JUMPDEST DUP6 DUP2 LT ISZERO PUSH2 0xFE1 JUMPI PUSH1 0x40 MLOAD PUSH3 0x461BCD PUSH1 0xE5 SHL DUP2 MSTORE PUSH1 0x4 ADD PUSH2 0x58E SWAP1 PUSH2 0x4793 JUMP JUMPDEST DUP3 PUSH2 0x18D8 JUMPI PUSH1 0x0 DUP3 GT DUP1 ISZERO PUSH2 0xFF4 JUMPI POP DUP1 ISZERO JUMPDEST DUP1 PUSH2 0x1008 JUMPI POP PUSH1 0x0 DUP2 GT DUP1 ISZERO PUSH2 0x1008 JUMPI POP DUP2 ISZERO JUMPDEST PUSH2 0x1024 JUMPI PUSH1 0x40 MLOAD PUSH3 0x461BCD PUSH1 0xE5 SHL DUP2 MSTORE PUSH1 0x4 ADD PUSH2 0x58E SWAP1 PUSH2 0x45DD JUMP JUMPDEST PUSH1 0x0 PUSH2 0x102E PUSH2 0x74B JUMP JUMPDEST SWAP1 POP PUSH1 0x0 DUP1 PUSH2 0x103B PUSH2 0x1D58 JUMP JUMPDEST SWAP2 POP SWAP2 POP PUSH1 0x0 DUP6 GT DUP1 ISZERO PUSH2 0x104D JUMPI POP DUP4 ISZERO JUMPDEST ISZERO PUSH2 0x149E JUMPI PUSH1 0x0 PUSH2 0x105F DUP7 PUSH1 0x2 PUSH2 0x2D29 JUMP JUMPDEST SWAP1 POP PUSH1 0x0 PUSH2 0x106D DUP8 DUP4 PUSH2 0x2352 JUMP JUMPDEST SWAP1 POP PUSH2 0x10A4 PUSH1 0x1 PUSH1 0x1 PUSH1 0xA0 SHL SUB PUSH32 0x0 AND CALLER ADDRESS DUP11 PUSH2 0x2D35 JUMP JUMPDEST PUSH1 0x40 MLOAD PUSH4 0x95EA7B3 PUSH1 0xE0 SHL DUP2 MSTORE PUSH1 0x1 PUSH1 0x1 PUSH1 0xA0 SHL SUB PUSH32 0x0 AND SWAP1 PUSH4 0x95EA7B3 SWAP1 PUSH2 0x1112 SWAP1 PUSH32 0x0 SWAP1 DUP6 SWAP1 PUSH1 0x4 ADD PUSH2 0x4219 JUMP JUMPDEST PUSH1 0x20 PUSH1 0x40 MLOAD DUP1 DUP4 SUB DUP2 PUSH1 0x0 DUP8 DUP1 EXTCODESIZE ISZERO DUP1 ISZERO PUSH2 0x112C JUMPI PUSH1 0x0 DUP1 REVERT JUMPDEST POP GAS CALL ISZERO DUP1 ISZERO PUSH2 0x1140 JUMPI RETURNDATASIZE PUSH1 0x0 DUP1 RETURNDATACOPY RETURNDATASIZE PUSH1 0x0 REVERT JUMPDEST POP POP POP POP PUSH1 0x40 MLOAD RETURNDATASIZE PUSH1 0x1F NOT PUSH1 0x1F DUP3 ADD AND DUP3 ADD DUP1 PUSH1 0x40 MSTORE POP DUP2 ADD SWAP1 PUSH2 0x1164 SWAP2 SWAP1 PUSH2 0x3CEC JUMP JUMPDEST POP PUSH1 0x40 DUP1 MLOAD PUSH1 0x2 DUP1 DUP3 MSTORE PUSH1 0x60 DUP3 ADD DUP4 MSTORE PUSH1 0x0 SWAP3 PUSH1 0x20 DUP4 ADD SWAP1 DUP1 CALLDATASIZE DUP4 CALLDATACOPY ADD SWAP1 POP POP SWAP1 POP PUSH32 0x0 DUP2 PUSH1 0x0 DUP2 MLOAD DUP2 LT PUSH2 0x11C8 JUMPI PUSH4 0x4E487B71 PUSH1 0xE0 SHL PUSH1 0x0 MSTORE PUSH1 0x32 PUSH1 0x4 MSTORE PUSH1 0x24 PUSH1 0x0 REVERT JUMPDEST PUSH1 0x20 MUL PUSH1 0x20 ADD ADD SWAP1 PUSH1 0x1 PUSH1 0x1 PUSH1 0xA0 SHL SUB AND SWAP1 DUP2 PUSH1 0x1 PUSH1 0x1 PUSH1 0xA0 SHL SUB AND DUP2 MSTORE POP POP PUSH32 0x0 DUP2 PUSH1 0x1 DUP2 MLOAD DUP2 LT PUSH2 0x122A JUMPI PUSH4 0x4E487B71 PUSH1 0xE0 SHL PUSH1 0x0 MSTORE PUSH1 0x32 PUSH1 0x4 MSTORE PUSH1 0x24 PUSH1 0x0 REVERT JUMPDEST PUSH1 0x20 MUL PUSH1 0x20 ADD ADD SWAP1 PUSH1 0x1 PUSH1 0x1 PUSH1 0xA0 SHL SUB AND SWAP1 DUP2 PUSH1 0x1 PUSH1 0x1 PUSH1 0xA0 SHL SUB AND DUP2 MSTORE POP POP PUSH1 0x0 PUSH32 0x0 PUSH1 0x1 PUSH1 0x1 PUSH1 0xA0 SHL SUB AND PUSH4 0x38ED1739 DUP5 DUP15 DUP6 ADDRESS TIMESTAMP PUSH1 0x40 MLOAD DUP7 PUSH4 0xFFFFFFFF AND PUSH1 0xE0 SHL DUP2 MSTORE PUSH1 0x4 ADD PUSH2 0x12A0 SWAP6 SWAP5 SWAP4 SWAP3 SWAP2 SWAP1 PUSH2 0x49DE JUMP JUMPDEST PUSH1 0x0 PUSH1 0x40 MLOAD DUP1 DUP4 SUB DUP2 PUSH1 0x0 DUP8 DUP1 EXTCODESIZE ISZERO DUP1 ISZERO PUSH2 0x12BA JUMPI PUSH1 0x0 DUP1 REVERT JUMPDEST POP GAS CALL ISZERO DUP1 ISZERO PUSH2 0x12CE JUMPI RETURNDATASIZE PUSH1 0x0 DUP1 RETURNDATACOPY RETURNDATASIZE PUSH1 0x0 REVERT JUMPDEST POP POP POP POP PUSH1 0x40 MLOAD RETURNDATASIZE PUSH1 0x0 DUP3 RETURNDATACOPY PUSH1 0x1F RETURNDATASIZE SWAP1 DUP2 ADD PUSH1 0x1F NOT AND DUP3 ADD PUSH1 0x40 MSTORE PUSH2 0x12F6 SWAP2 SWAP1 DUP2 ADD SWAP1 PUSH2 0x3C32 JUMP JUMPDEST SWAP1 POP PUSH2 0x132A DUP5 DUP3 PUSH1 0x1 DUP2 MLOAD DUP2 LT PUSH2 0x131D JUMPI PUSH4 0x4E487B71 PUSH1 0xE0 SHL PUSH1 0x0 MSTORE PUSH1 0x32 PUSH1 0x4 MSTORE PUSH1 0x24 PUSH1 0x0 REVERT JUMPDEST PUSH1 0x20 MUL PUSH1 0x20 ADD ADD MLOAD PUSH2 0x2BC6 JUMP JUMPDEST SWAP2 SWAP12 POP SWAP10 POP SWAP8 POP DUP10 PUSH2 0x134E JUMPI PUSH1 0x40 MLOAD PUSH3 0x461BCD PUSH1 0xE5 SHL DUP2 MSTORE PUSH1 0x4 ADD PUSH2 0x58E SWAP1 PUSH2 0x443A JUMP JUMPDEST PUSH1 0x0 PUSH2 0x135A DUP6 DUP12 PUSH2 0x2352 JUMP JUMPDEST SWAP1 POP PUSH1 0x0 PUSH2 0x1399 DUP11 DUP5 PUSH1 0x1 DUP2 MLOAD DUP2 LT PUSH2 0x1383 JUMPI PUSH4 0x4E487B71 PUSH1 0xE0 SHL PUSH1 0x0 MSTORE PUSH1 0x32 PUSH1 0x4 MSTORE PUSH1 0x24 PUSH1 0x0 REVERT JUMPDEST PUSH1 0x20 MUL PUSH1 0x20 ADD ADD MLOAD PUSH2 0x2352 SWAP1 SWAP2 SWAP1 PUSH4 0xFFFFFFFF AND JUMP JUMPDEST SWAP1 POP DUP2 ISZERO PUSH2 0x13D5 JUMPI PUSH2 0x13D5 PUSH1 0x1 PUSH1 0x1 PUSH1 0xA0 SHL SUB PUSH32 0x0 AND DUP15 DUP5 PUSH2 0x235E JUMP JUMPDEST DUP1 ISZERO PUSH2 0x140F JUMPI PUSH2 0x140F PUSH1 0x1 PUSH1 0x1 PUSH1 0xA0 SHL SUB PUSH32 0x0 AND DUP15 DUP4 PUSH2 0x235E JUMP JUMPDEST PUSH2 0x1419 DUP14 DUP14 PUSH2 0x2D56 JUMP JUMPDEST DUP13 PUSH1 0x1 PUSH1 0x1 PUSH1 0xA0 SHL SUB AND CALLER PUSH1 0x1 PUSH1 0x1 PUSH1 0xA0 SHL SUB AND PUSH32 0x4E2CA0515ED1AEF1395F66B5303BB5D6F1BF9D61A353FA53F73F8AC9973FA9F6 DUP15 DUP15 DUP15 PUSH1 0x40 MLOAD PUSH2 0x1460 SWAP4 SWAP3 SWAP2 SWAP1 PUSH2 0x4A4E JUMP JUMPDEST PUSH1 0x40 MLOAD DUP1 SWAP2 SUB SWAP1 LOG3 PUSH1 0x7 SLOAD PUSH2 0x1475 DUP11 DUP15 PUSH2 0x2E22 JUMP JUMPDEST GT ISZERO PUSH2 0x1493 JUMPI PUSH1 0x40 MLOAD PUSH3 0x461BCD PUSH1 0xE5 SHL DUP2 MSTORE PUSH1 0x4 ADD PUSH2 0x58E SWAP1 PUSH2 0x48AB JUMP JUMPDEST POP POP POP POP POP POP PUSH2 0x18D0 JUMP JUMPDEST PUSH1 0x0 PUSH2 0x14AB DUP6 PUSH1 0x2 PUSH2 0x2D29 JUMP JUMPDEST SWAP1 POP PUSH1 0x0 PUSH2 0x14B9 DUP7 DUP4 PUSH2 0x2352 JUMP JUMPDEST SWAP1 POP PUSH2 0x14F0 PUSH1 0x1 PUSH1 0x1 PUSH1 0xA0 SHL SUB PUSH32 0x0 AND CALLER ADDRESS DUP10 PUSH2 0x2D35 JUMP JUMPDEST PUSH1 0x40 MLOAD PUSH4 0x95EA7B3 PUSH1 0xE0 SHL DUP2 MSTORE PUSH1 0x1 PUSH1 0x1 PUSH1 0xA0 SHL SUB PUSH32 0x0 AND SWAP1 PUSH4 0x95EA7B3 SWAP1 PUSH2 0x155E SWAP1 PUSH32 0x0 SWAP1 DUP6 SWAP1 PUSH1 0x4 ADD PUSH2 0x4219 JUMP JUMPDEST PUSH1 0x20 PUSH1 0x40 MLOAD DUP1 DUP4 SUB DUP2 PUSH1 0x0 DUP8 DUP1 EXTCODESIZE ISZERO DUP1 ISZERO PUSH2 0x1578 JUMPI PUSH1 0x0 DUP1 REVERT JUMPDEST POP GAS CALL ISZERO DUP1 ISZERO PUSH2 0x158C JUMPI RETURNDATASIZE PUSH1 0x0 DUP1 RETURNDATACOPY RETURNDATASIZE PUSH1 0x0 REVERT JUMPDEST POP POP POP POP PUSH1 0x40 MLOAD RETURNDATASIZE PUSH1 0x1F NOT PUSH1 0x1F DUP3 ADD AND DUP3 ADD DUP1 PUSH1 0x40 MSTORE POP DUP2 ADD SWAP1 PUSH2 0x15B0 SWAP2 SWAP1 PUSH2 0x3CEC JUMP JUMPDEST POP PUSH1 0x40 DUP1 MLOAD PUSH1 0x2 DUP1 DUP3 MSTORE PUSH1 0x60 DUP3 ADD DUP4 MSTORE PUSH1 0x0 SWAP3 PUSH1 0x20 DUP4 ADD SWAP1 DUP1 CALLDATASIZE DUP4 CALLDATACOPY ADD SWAP1 POP POP SWAP1 POP PUSH32 0x0 DUP2 PUSH1 0x0 DUP2 MLOAD DUP2 LT PUSH2 0x1614 JUMPI PUSH4 0x4E487B71 PUSH1 0xE0 SHL PUSH1 0x0 MSTORE PUSH1 0x32 PUSH1 0x4 MSTORE PUSH1 0x24 PUSH1 0x0 REVERT JUMPDEST PUSH1 0x20 MUL PUSH1 0x20 ADD ADD SWAP1 PUSH1 0x1 PUSH1 0x1 PUSH1 0xA0 SHL SUB AND SWAP1 DUP2 PUSH1 0x1 PUSH1 0x1 PUSH1 0xA0 SHL SUB AND DUP2 MSTORE POP POP PUSH32 0x0 DUP2 PUSH1 0x1 DUP2 MLOAD DUP2 LT PUSH2 0x1676 JUMPI PUSH4 0x4E487B71 PUSH1 0xE0 SHL PUSH1 0x0 MSTORE PUSH1 0x32 PUSH1 0x4 MSTORE PUSH1 0x24 PUSH1 0x0 REVERT JUMPDEST PUSH1 0x20 MUL PUSH1 0x20 ADD ADD SWAP1 PUSH1 0x1 PUSH1 0x1 PUSH1 0xA0 SHL SUB AND SWAP1 DUP2 PUSH1 0x1 PUSH1 0x1 PUSH1 0xA0 SHL SUB AND DUP2 MSTORE POP POP PUSH1 0x0 PUSH32 0x0 PUSH1 0x1 PUSH1 0x1 PUSH1 0xA0 SHL SUB AND PUSH4 0x38ED1739 DUP5 DUP15 DUP6 ADDRESS TIMESTAMP PUSH1 0x40 MLOAD DUP7 PUSH4 0xFFFFFFFF AND PUSH1 0xE0 SHL DUP2 MSTORE PUSH1 0x4 ADD PUSH2 0x16EC SWAP6 SWAP5 SWAP4 SWAP3 SWAP2 SWAP1 PUSH2 0x49DE JUMP JUMPDEST PUSH1 0x0 PUSH1 0x40 MLOAD DUP1 DUP4 SUB DUP2 PUSH1 0x0 DUP8 DUP1 EXTCODESIZE ISZERO DUP1 ISZERO PUSH2 0x1706 JUMPI PUSH1 0x0 DUP1 REVERT JUMPDEST POP GAS CALL ISZERO DUP1 ISZERO PUSH2 0x171A JUMPI RETURNDATASIZE PUSH1 0x0 DUP1 RETURNDATACOPY RETURNDATASIZE PUSH1 0x0 REVERT JUMPDEST POP POP POP POP PUSH1 0x40 MLOAD RETURNDATASIZE PUSH1 0x0 DUP3 RETURNDATACOPY PUSH1 0x1F RETURNDATASIZE SWAP1 DUP2 ADD PUSH1 0x1F NOT AND DUP3 ADD PUSH1 0x40 MSTORE PUSH2 0x1742 SWAP2 SWAP1 DUP2 ADD SWAP1 PUSH2 0x3C32 JUMP JUMPDEST SWAP1 POP PUSH2 0x1776 DUP2 PUSH1 0x1 DUP2 MLOAD DUP2 LT PUSH2 0x1768 JUMPI PUSH4 0x4E487B71 PUSH1 0xE0 SHL PUSH1 0x0 MSTORE PUSH1 0x32 PUSH1 0x4 MSTORE PUSH1 0x24 PUSH1 0x0 REVERT JUMPDEST PUSH1 0x20 MUL PUSH1 0x20 ADD ADD MLOAD DUP6 PUSH2 0x2BC6 JUMP JUMPDEST SWAP2 SWAP12 POP SWAP10 POP SWAP8 POP DUP10 PUSH2 0x179A JUMPI PUSH1 0x40 MLOAD PUSH3 0x461BCD PUSH1 0xE5 SHL DUP2 MSTORE PUSH1 0x4 ADD PUSH2 0x58E SWAP1 PUSH2 0x443A JUMP JUMPDEST PUSH1 0x0 PUSH2 0x17C1 DUP11 DUP4 PUSH1 0x1 DUP2 MLOAD DUP2 LT PUSH2 0x1383 JUMPI PUSH4 0x4E487B71 PUSH1 0xE0 SHL PUSH1 0x0 MSTORE PUSH1 0x32 PUSH1 0x4 MSTORE PUSH1 0x24 PUSH1 0x0 REVERT JUMPDEST SWAP1 POP PUSH1 0x0 PUSH2 0x17CF DUP7 DUP12 PUSH2 0x2352 JUMP JUMPDEST SWAP1 POP DUP2 ISZERO PUSH2 0x180B JUMPI PUSH2 0x180B PUSH1 0x1 PUSH1 0x1 PUSH1 0xA0 SHL SUB PUSH32 0x0 AND DUP15 DUP5 PUSH2 0x235E JUMP JUMPDEST DUP1 ISZERO PUSH2 0x1845 JUMPI PUSH2 0x1845 PUSH1 0x1 PUSH1 0x1 PUSH1 0xA0 SHL SUB PUSH32 0x0 AND DUP15 DUP4 PUSH2 0x235E JUMP JUMPDEST PUSH2 0x184F DUP14 DUP14 PUSH2 0x2D56 JUMP JUMPDEST DUP13 PUSH1 0x1 PUSH1 0x1 PUSH1 0xA0 SHL SUB AND CALLER PUSH1 0x1 PUSH1 0x1 PUSH1 0xA0 SHL SUB AND PUSH32 0x4E2CA0515ED1AEF1395F66B5303BB5D6F1BF9D61A353FA53F73F8AC9973FA9F6 DUP15 DUP15 DUP15 PUSH1 0x40 MLOAD PUSH2 0x1896 SWAP4 SWAP3 SWAP2 SWAP1 PUSH2 0x4A4E JUMP JUMPDEST PUSH1 0x40 MLOAD DUP1 SWAP2 SUB SWAP1 LOG3 PUSH1 0x7 SLOAD PUSH2 0x18AB DUP11 DUP15 PUSH2 0x2E22 JUMP JUMPDEST GT ISZERO PUSH2 0x18C9 JUMPI PUSH1 0x40 MLOAD PUSH3 0x461BCD PUSH1 0xE5 SHL DUP2 MSTORE PUSH1 0x4 ADD PUSH2 0x58E SWAP1 PUSH2 0x48AB JUMP JUMPDEST POP POP POP POP POP POP JUMPDEST POP POP POP PUSH2 0x19F0 JUMP JUMPDEST PUSH1 0x0 DUP4 GT PUSH2 0x18F8 JUMPI PUSH1 0x40 MLOAD PUSH3 0x461BCD PUSH1 0xE5 SHL DUP2 MSTORE PUSH1 0x4 ADD PUSH2 0x58E SWAP1 PUSH2 0x46CE JUMP JUMPDEST DUP2 ISZERO PUSH2 0x1933 JUMPI PUSH2 0x1933 PUSH1 0x1 PUSH1 0x1 PUSH1 0xA0 SHL SUB PUSH32 0x0 AND CALLER ADDRESS DUP6 PUSH2 0x2D35 JUMP JUMPDEST DUP1 ISZERO PUSH2 0x196E JUMPI PUSH2 0x196E PUSH1 0x1 PUSH1 0x1 PUSH1 0xA0 SHL SUB PUSH32 0x0 AND CALLER ADDRESS DUP5 PUSH2 0x2D35 JUMP JUMPDEST PUSH2 0x1978 DUP5 DUP5 PUSH2 0x2D56 JUMP JUMPDEST DUP4 PUSH1 0x1 PUSH1 0x1 PUSH1 0xA0 SHL SUB AND CALLER PUSH1 0x1 PUSH1 0x1 PUSH1 0xA0 SHL SUB AND PUSH32 0x4E2CA0515ED1AEF1395F66B5303BB5D6F1BF9D61A353FA53F73F8AC9973FA9F6 DUP6 DUP6 DUP6 PUSH1 0x40 MLOAD PUSH2 0x19BF SWAP4 SWAP3 SWAP2 SWAP1 PUSH2 0x4A4E JUMP JUMPDEST PUSH1 0x40 MLOAD DUP1 SWAP2 SUB SWAP1 LOG3 PUSH1 0x7 SLOAD PUSH2 0x19D2 PUSH2 0x74B JUMP JUMPDEST GT ISZERO PUSH2 0x19F0 JUMPI PUSH1 0x40 MLOAD PUSH3 0x461BCD PUSH1 0xE5 SHL DUP2 MSTORE PUSH1 0x4 ADD PUSH2 0x58E SWAP1 PUSH2 0x48AB JUMP JUMPDEST PUSH1 0x1 PUSH1 0x5 DUP2 SWAP1 SSTORE POP SWAP7 POP SWAP7 POP SWAP7 SWAP4 POP POP POP POP JUMP JUMPDEST PUSH1 0x60 PUSH1 0x4 DUP1 SLOAD PUSH2 0x63F SWAP1 PUSH2 0x4B43 JUMP JUMPDEST PUSH1 0xC SLOAD DUP2 JUMP JUMPDEST PUSH1 0x0 DUP1 PUSH2 0x1A24 PUSH2 0x23B4 JUMP JUMPDEST PUSH1 0x1 PUSH1 0x1 PUSH1 0xA0 SHL SUB DUP1 DUP3 AND PUSH1 0x0 SWAP1 DUP2 MSTORE PUSH1 0x1 PUSH1 0x20 SWAP1 DUP2 MSTORE PUSH1 0x40 DUP1 DUP4 KECCAK256 SWAP4 DUP10 AND DUP4 MSTORE SWAP3 SWAP1 MSTORE KECCAK256 SLOAD SWAP1 SWAP2 POP DUP4 DUP2 LT ISZERO PUSH2 0x1A6D JUMPI PUSH1 0x40 MLOAD PUSH3 0x461BCD PUSH1 0xE5 SHL DUP2 MSTORE PUSH1 0x4 ADD PUSH2 0x58E SWAP1 PUSH2 0x4954 JUMP JUMPDEST PUSH2 0x1A7A DUP3 DUP7 DUP7 DUP5 SUB PUSH2 0x23B8 JUMP JUMPDEST POP PUSH1 0x1 SWAP5 SWAP4 POP POP POP POP JUMP JUMPDEST PUSH1 0x0 DUP1 PUSH2 0x1A90 PUSH2 0x23B4 JUMP JUMPDEST SWAP1 POP PUSH2 0x6DA DUP2 DUP6 DUP6 PUSH2 0x24B0 JUMP JUMPDEST PUSH1 0x0 DUP1 PUSH1 0x0 DUP1 PUSH1 0x0 PUSH2 0x1AAF DUP8 DUP8 PUSH2 0x26C9 JUMP JUMPDEST SWAP5 POP SWAP5 POP POP POP SWAP3 POP PUSH2 0x1AC2 DUP8 DUP8 DUP6 PUSH2 0x2E2E JUMP JUMPDEST PUSH1 0x6 SLOAD SWAP2 SWAP7 POP SWAP5 POP PUSH1 0x0 SWAP1 PUSH2 0x1ADB SWAP1 PUSH3 0xF4240 SWAP1 PUSH2 0x2352 JUMP JUMPDEST SWAP1 POP PUSH2 0x1B07 PUSH2 0x1B00 PUSH3 0xF4240 PUSH2 0x1AFA PUSH1 0x1 PUSH1 0x1 PUSH1 0x80 SHL SUB DUP8 AND DUP6 PUSH2 0x2EF5 JUMP JUMPDEST SWAP1 PUSH2 0x2D29 JUMP JUMPDEST DUP8 SWAP1 PUSH2 0x2E22 JUMP JUMPDEST SWAP6 POP PUSH2 0x1B2D PUSH2 0x1B26 PUSH3 0xF4240 PUSH2 0x1AFA PUSH1 0x1 PUSH1 0x1 PUSH1 0x80 SHL SUB DUP7 AND DUP6 PUSH2 0x2EF5 JUMP JUMPDEST DUP7 SWAP1 PUSH2 0x2E22 JUMP JUMPDEST SWAP5 POP POP POP POP POP SWAP3 POP SWAP3 SWAP1 POP JUMP JUMPDEST PUSH1 0x9 SLOAD PUSH1 0x1 PUSH1 0x1 PUSH1 0xA0 SHL SUB AND CALLER EQ PUSH2 0x1B64 JUMPI PUSH1 0x40 MLOAD PUSH3 0x461BCD PUSH1 0xE5 SHL DUP2 MSTORE PUSH1 0x4 ADD PUSH2 0x58E SWAP1 PUSH2 0x46AA JUMP JUMPDEST PUSH1 0xA DUP1 SLOAD PUSH1 0x1 PUSH1 0x1 PUSH1 0xA0 SHL SUB NOT AND PUSH1 0x1 PUSH1 0x1 PUSH1 0xA0 SHL SUB SWAP3 SWAP1 SWAP3 AND SWAP2 SWAP1 SWAP2 OR SWAP1 SSTORE JUMP JUMPDEST PUSH1 0x9 SLOAD PUSH1 0x1 PUSH1 0x1 PUSH1 0xA0 SHL SUB AND CALLER EQ PUSH2 0x1BB0 JUMPI PUSH1 0x40 MLOAD PUSH3 0x461BCD PUSH1 0xE5 SHL DUP2 MSTORE PUSH1 0x4 ADD PUSH2 0x58E SWAP1 PUSH2 0x46AA JUMP JUMPDEST PUSH1 0x40 MLOAD PUSH4 0xA34123A7 PUSH1 0xE0 SHL DUP2 MSTORE PUSH1 0x1 PUSH1 0x1 PUSH1 0xA0 SHL SUB PUSH32 0x0 AND SWAP1 PUSH4 0xA34123A7 SWAP1 PUSH2 0x1C00 SWAP1 DUP7 SWAP1 DUP7 SWAP1 DUP7 SWAP1 PUSH1 0x4 ADD PUSH2 0x4254 JUMP JUMPDEST PUSH1 0x40 DUP1 MLOAD DUP1 DUP4 SUB DUP2 PUSH1 0x0 DUP8 DUP1 EXTCODESIZE ISZERO DUP1 ISZERO PUSH2 0x1C19 JUMPI PUSH1 0x0 DUP1 REVERT JUMPDEST POP GAS CALL ISZERO DUP1 ISZERO PUSH2 0x1C2D JUMPI RETURNDATASIZE PUSH1 0x0 DUP1 RETURNDATACOPY RETURNDATASIZE PUSH1 0x0 REVERT JUMPDEST POP POP POP POP PUSH1 0x40 MLOAD RETURNDATASIZE PUSH1 0x1F NOT PUSH1 0x1F DUP3 ADD AND DUP3 ADD DUP1 PUSH1 0x40 MSTORE POP DUP2 ADD SWAP1 PUSH2 0x1C51 SWAP2 SWAP1 PUSH2 0x3DB3 JUMP JUMPDEST POP POP PUSH1 0x40 MLOAD PUSH4 0x9E3D67B PUSH1 0xE3 SHL DUP2 MSTORE PUSH1 0x1 PUSH1 0x1 PUSH1 0xA0 SHL SUB PUSH32 0x0 AND SWAP1 PUSH4 0x4F1EB3D8 SWAP1 PUSH2 0x1CAE SWAP1 ADDRESS SWAP1 DUP8 SWAP1 DUP8 SWAP1 PUSH1 0x1 PUSH1 0x1 PUSH1 0x80 SHL SUB SWAP1 DUP2 SWAP1 PUSH1 0x4 ADD PUSH2 0x41DC JUMP JUMPDEST PUSH1 0x40 DUP1 MLOAD DUP1 DUP4 SUB DUP2 PUSH1 0x0 DUP8 DUP1 EXTCODESIZE ISZERO DUP1 ISZERO PUSH2 0x1CC7 JUMPI PUSH1 0x0 DUP1 REVERT JUMPDEST POP GAS CALL ISZERO DUP1 ISZERO PUSH2 0x1CDB JUMPI RETURNDATASIZE PUSH1 0x0 DUP1 RETURNDATACOPY RETURNDATASIZE PUSH1 0x0 REVERT JUMPDEST POP POP POP POP PUSH1 0x40 MLOAD RETURNDATASIZE PUSH1 0x1F NOT PUSH1 0x1F DUP3 ADD AND DUP3 ADD DUP1 PUSH1 0x40 MSTORE POP DUP2 ADD SWAP1 PUSH2 0x1CFF SWAP2 SWAP1 PUSH2 0x3EC6 JUMP JUMPDEST POP POP POP POP POP JUMP JUMPDEST PUSH1 0x6 SLOAD DUP2 JUMP JUMPDEST PUSH1 0x9 SLOAD PUSH1 0x1 PUSH1 0x1 PUSH1 0xA0 SHL SUB AND CALLER EQ PUSH2 0x1D36 JUMPI PUSH1 0x40 MLOAD PUSH3 0x461BCD PUSH1 0xE5 SHL DUP2 MSTORE PUSH1 0x4 ADD PUSH2 0x58E SWAP1 PUSH2 0x46AA JUMP JUMPDEST PUSH1 0x8 DUP1 SLOAD PUSH1 0x1 PUSH1 0x1 PUSH1 0xA0 SHL SUB NOT AND PUSH1 0x1 PUSH1 0x1 PUSH1 0xA0 SHL SUB SWAP3 SWAP1 SWAP3 AND SWAP2 SWAP1 SWAP2 OR SWAP1 SSTORE JUMP JUMPDEST PUSH1 0xA SLOAD PUSH1 0x0 SWAP1 DUP2 SWAP1 DUP2 SWAP1 DUP2 SWAP1 PUSH2 0x1D83 SWAP1 PUSH1 0x1 PUSH1 0xA0 SHL DUP2 DIV PUSH1 0x2 SWAP1 DUP2 SIGNEXTEND SWAP2 PUSH1 0x1 PUSH1 0xB8 SHL SWAP1 DIV SWAP1 SIGNEXTEND PUSH2 0x1A9D JUMP JUMPDEST PUSH1 0xA SLOAD SWAP2 SWAP4 POP SWAP2 POP PUSH1 0x0 SWAP1 DUP2 SWAP1 PUSH2 0x1DAF SWAP1 PUSH1 0x1 PUSH1 0xD0 SHL DUP2 DIV PUSH1 0x2 SWAP1 DUP2 SIGNEXTEND SWAP2 PUSH1 0x1 PUSH1 0xE8 SHL SWAP1 DIV SWAP1 SIGNEXTEND PUSH2 0x1A9D JUMP JUMPDEST SWAP2 POP SWAP2 POP PUSH2 0x1DC9 DUP3 PUSH2 0x1DC3 DUP7 PUSH2 0x1DC3 PUSH2 0x937 JUMP JUMPDEST SWAP1 PUSH2 0x2E22 JUMP JUMPDEST SWAP6 POP PUSH2 0x1DDB DUP2 PUSH2 0x1DC3 DUP6 PUSH2 0x1DC3 PUSH2 0x869 JUMP JUMPDEST SWAP5 POP POP POP POP POP SWAP1 SWAP2 JUMP JUMPDEST PUSH32 0x0 DUP2 JUMP JUMPDEST PUSH32 0x0 DUP2 JUMP JUMPDEST PUSH1 0x0 DUP1 PUSH1 0x2 PUSH1 0x5 SLOAD EQ ISZERO PUSH2 0x1E53 JUMPI PUSH1 0x40 MLOAD PUSH3 0x461BCD PUSH1 0xE5 SHL DUP2 MSTORE PUSH1 0x4 ADD PUSH2 0x58E SWAP1 PUSH2 0x491D JUMP JUMPDEST PUSH1 0x2 PUSH1 0x5 SSTORE DUP6 PUSH2 0x1E75 JUMPI PUSH1 0x40 MLOAD PUSH3 0x461BCD PUSH1 0xE5 SHL DUP2 MSTORE PUSH1 0x4 ADD PUSH2 0x58E SWAP1 PUSH2 0x46CE JUMP JUMPDEST PUSH1 0x1 PUSH1 0x1 PUSH1 0xA0 SHL SUB DUP4 AND ISZERO DUP1 ISZERO SWAP1 PUSH2 0x1E96 JUMPI POP PUSH1 0x1 PUSH1 0x1 PUSH1 0xA0 SHL SUB DUP4 AND ADDRESS EQ ISZERO JUMPDEST PUSH2 0x1EB2 JUMPI PUSH1 0x40 MLOAD PUSH3 0x461BCD PUSH1 0xE5 SHL DUP2 MSTORE PUSH1 0x4 ADD PUSH2 0x58E SWAP1 PUSH2 0x4376 JUMP JUMPDEST PUSH1 0x0 PUSH2 0x1EBC PUSH2 0x74B JUMP JUMPDEST SWAP1 POP PUSH2 0x1EC8 CALLER DUP9 PUSH2 0x2F01 JUMP JUMPDEST PUSH1 0x0 PUSH2 0x1EE0 DUP3 PUSH2 0x1AFA DUP11 PUSH2 0x1EDA PUSH2 0x937 JUMP JUMPDEST SWAP1 PUSH2 0x2EF5 JUMP JUMPDEST SWAP1 POP PUSH1 0x0 PUSH2 0x1EF4 DUP4 PUSH2 0x1AFA DUP12 PUSH2 0x1EDA PUSH2 0x869 JUMP JUMPDEST PUSH1 0xA SLOAD SWAP1 SWAP2 POP PUSH1 0x0 SWAP1 DUP2 SWAP1 PUSH2 0x1F20 SWAP1 PUSH1 0x1 PUSH1 0xA0 SHL DUP2 DIV PUSH1 0x2 SWAP1 DUP2 SIGNEXTEND SWAP2 PUSH1 0x1 PUSH1 0xB8 SHL SWAP1 DIV SWAP1 SIGNEXTEND DUP14 DUP9 PUSH2 0x2FF2 JUMP JUMPDEST PUSH1 0xA SLOAD SWAP2 SWAP4 POP SWAP2 POP PUSH1 0x0 SWAP1 DUP2 SWAP1 PUSH2 0x1F4E SWAP1 PUSH1 0x1 PUSH1 0xD0 SHL DUP2 DIV PUSH1 0x2 SWAP1 DUP2 SIGNEXTEND SWAP2 PUSH1 0x1 PUSH1 0xE8 SHL SWAP1 DIV SWAP1 SIGNEXTEND DUP16 DUP11 PUSH2 0x2FF2 JUMP JUMPDEST SWAP1 SWAP3 POP SWAP1 POP PUSH2 0x1F61 DUP3 PUSH2 0x1DC3 DUP9 DUP8 PUSH2 0x2E22 JUMP JUMPDEST SWAP9 POP PUSH2 0x1F71 DUP2 PUSH2 0x1DC3 DUP8 DUP7 PUSH2 0x2E22 JUMP JUMPDEST SWAP8 POP DUP12 DUP10 LT ISZERO PUSH2 0x1F93 JUMPI PUSH1 0x40 MLOAD PUSH3 0x461BCD PUSH1 0xE5 SHL DUP2 MSTORE PUSH1 0x4 ADD PUSH2 0x58E SWAP1 PUSH2 0x4310 JUMP JUMPDEST DUP11 DUP9 LT ISZERO PUSH2 0x1FB3 JUMPI PUSH1 0x40 MLOAD PUSH3 0x461BCD PUSH1 0xE5 SHL DUP2 MSTORE PUSH1 0x4 ADD PUSH2 0x58E SWAP1 PUSH2 0x4793 JUMP JUMPDEST DUP9 ISZERO PUSH2 0x1FED JUMPI PUSH2 0x1FED PUSH1 0x1 PUSH1 0x1 PUSH1 0xA0 SHL SUB PUSH32 0x0 AND DUP12 DUP12 PUSH2 0x235E JUMP JUMPDEST DUP8 ISZERO PUSH2 0x2027 JUMPI PUSH2 0x2027 PUSH1 0x1 PUSH1 0x1 PUSH1 0xA0 SHL SUB PUSH32 0x0 AND DUP12 DUP11 PUSH2 0x235E JUMP JUMPDEST DUP10 PUSH1 0x1 PUSH1 0x1 PUSH1 0xA0 SHL SUB AND CALLER PUSH1 0x1 PUSH1 0x1 PUSH1 0xA0 SHL SUB AND PUSH32 0xEBFF2602B3F468259E1E99F613FED6691F3A6526EFFE6EF3E768BA7AE7A36C4F DUP16 DUP13 DUP13 PUSH1 0x40 MLOAD PUSH2 0x206E SWAP4 SWAP3 SWAP2 SWAP1 PUSH2 0x4A4E JUMP JUMPDEST PUSH1 0x40 MLOAD DUP1 SWAP2 SUB SWAP1 LOG3 POP POP POP POP POP POP POP PUSH1 0x1 PUSH1 0x5 DUP2 SWAP1 SSTORE POP SWAP5 POP SWAP5 SWAP3 POP POP POP JUMP JUMPDEST CALLER PUSH1 0x1 PUSH1 0x1 PUSH1 0xA0 SHL SUB PUSH32 0x0 AND EQ PUSH2 0x20C3 JUMPI PUSH1 0x0 DUP1 REVERT JUMPDEST DUP4 ISZERO PUSH2 0x20FD JUMPI PUSH2 0x20FD PUSH1 0x1 PUSH1 0x1 PUSH1 0xA0 SHL SUB PUSH32 0x0 AND CALLER DUP7 PUSH2 0x235E JUMP JUMPDEST DUP3 ISZERO PUSH2 0x2137 JUMPI PUSH2 0x2137 PUSH1 0x1 PUSH1 0x1 PUSH1 0xA0 SHL SUB PUSH32 0x0 AND CALLER DUP6 PUSH2 0x235E JUMP JUMPDEST POP POP POP POP JUMP JUMPDEST PUSH32 0x0 DUP2 JUMP JUMPDEST PUSH1 0x9 SLOAD PUSH1 0x1 PUSH1 0x1 PUSH1 0xA0 SHL SUB AND CALLER EQ PUSH2 0x218B JUMPI PUSH1 0x40 MLOAD PUSH3 0x461BCD PUSH1 0xE5 SHL DUP2 MSTORE PUSH1 0x4 ADD PUSH2 0x58E SWAP1 PUSH2 0x46AA JUMP JUMPDEST PUSH32 0x0 PUSH1 0x1 PUSH1 0x1 PUSH1 0xA0 SHL SUB AND DUP4 PUSH1 0x1 PUSH1 0x1 PUSH1 0xA0 SHL SUB AND EQ ISZERO DUP1 ISZERO PUSH2 0x21FF JUMPI POP PUSH32 0x0 PUSH1 0x1 PUSH1 0x1 PUSH1 0xA0 SHL SUB AND DUP4 PUSH1 0x1 PUSH1 0x1 PUSH1 0xA0 SHL SUB AND EQ ISZERO JUMPDEST PUSH2 0x221B JUMPI PUSH1 0x40 MLOAD PUSH3 0x461BCD PUSH1 0xE5 SHL DUP2 MSTORE PUSH1 0x4 ADD PUSH2 0x58E SWAP1 PUSH2 0x462E JUMP JUMPDEST PUSH2 0x62B PUSH1 0x1 PUSH1 0x1 PUSH1 0xA0 SHL SUB DUP5 AND DUP3 DUP5 PUSH2 0x235E JUMP JUMPDEST PUSH1 0x1 PUSH1 0x1 PUSH1 0xA0 SHL SUB SWAP2 DUP3 AND PUSH1 0x0 SWAP1 DUP2 MSTORE PUSH1 0x1 PUSH1 0x20 SWAP1 DUP2 MSTORE PUSH1 0x40 DUP1 DUP4 KECCAK256 SWAP4 SWAP1 SWAP5 AND DUP3 MSTORE SWAP2 SWAP1 SWAP2 MSTORE KECCAK256 SLOAD SWAP1 JUMP JUMPDEST PUSH1 0xB SLOAD DUP2 JUMP JUMPDEST PUSH1 0xA SLOAD PUSH1 0x1 PUSH1 0x1 PUSH1 0xA0 SHL SUB AND DUP2 JUMP JUMPDEST PUSH32 0x0 DUP2 JUMP JUMPDEST PUSH1 0xA SLOAD PUSH1 0x1 PUSH1 0xA0 SHL SWAP1 DIV PUSH1 0x2 SIGNEXTEND DUP2 JUMP JUMPDEST CALLER PUSH1 0x1 PUSH1 0x1 PUSH1 0xA0 SHL SUB PUSH32 0x0 AND EQ PUSH2 0x22D8 JUMPI PUSH1 0x0 DUP1 REVERT JUMPDEST PUSH1 0x0 DUP5 SGT ISZERO PUSH2 0x2315 JUMPI PUSH2 0x2315 PUSH1 0x1 PUSH1 0x1 PUSH1 0xA0 SHL SUB PUSH32 0x0 AND CALLER DUP7 PUSH2 0x235E JUMP JUMPDEST PUSH1 0x0 DUP4 SGT ISZERO PUSH2 0x2137 JUMPI PUSH2 0x2137 PUSH1 0x1 PUSH1 0x1 PUSH1 0xA0 SHL SUB PUSH32 0x0 AND CALLER DUP6 PUSH2 0x235E JUMP JUMPDEST PUSH1 0x0 PUSH2 0x7B8 DUP3 DUP5 PUSH2 0x4B00 JUMP JUMPDEST PUSH2 0x62B DUP4 PUSH4 0xA9059CBB PUSH1 0xE0 SHL DUP5 DUP5 PUSH1 0x40 MLOAD PUSH1 0x24 ADD PUSH2 0x237D SWAP3 SWAP2 SWAP1 PUSH2 0x4219 JUMP JUMPDEST PUSH1 0x40 DUP1 MLOAD PUSH1 0x1F NOT DUP2 DUP5 SUB ADD DUP2 MSTORE SWAP2 SWAP1 MSTORE PUSH1 0x20 DUP2 ADD DUP1 MLOAD PUSH1 0x1 PUSH1 0x1 PUSH1 0xE0 SHL SUB AND PUSH1 0x1 PUSH1 0x1 PUSH1 0xE0 SHL SUB NOT SWAP1 SWAP4 AND SWAP3 SWAP1 SWAP3 OR SWAP1 SWAP2 MSTORE PUSH2 0x3098 JUMP JUMPDEST CALLER SWAP1 JUMP JUMPDEST PUSH1 0x1 PUSH1 0x1 PUSH1 0xA0 SHL SUB DUP4 AND PUSH2 0x23DE JUMPI PUSH1 0x40 MLOAD PUSH3 0x461BCD PUSH1 0xE5 SHL DUP2 MSTORE PUSH1 0x4 ADD PUSH2 0x58E SWAP1 PUSH2 0x4804 JUMP JUMPDEST PUSH1 0x1 PUSH1 0x1 PUSH1 0xA0 SHL SUB DUP3 AND PUSH2 0x2404 JUMPI PUSH1 0x40 MLOAD PUSH3 0x461BCD PUSH1 0xE5 SHL DUP2 MSTORE PUSH1 0x4 ADD PUSH2 0x58E SWAP1 PUSH2 0x43C1 JUMP JUMPDEST PUSH1 0x1 PUSH1 0x1 PUSH1 0xA0 SHL SUB DUP1 DUP5 AND PUSH1 0x0 DUP2 DUP2 MSTORE PUSH1 0x1 PUSH1 0x20 SWAP1 DUP2 MSTORE PUSH1 0x40 DUP1 DUP4 KECCAK256 SWAP5 DUP8 AND DUP1 DUP5 MSTORE SWAP5 SWAP1 SWAP2 MSTORE SWAP1 DUP2 SWAP1 KECCAK256 DUP5 SWAP1 SSTORE MLOAD PUSH32 0x8C5BE1E5EBEC7D5BD14F71427D1E84F3DD0314C0F7B2291E5B200AC8C7C3B925 SWAP1 PUSH2 0x245F SWAP1 DUP6 SWAP1 PUSH2 0x423D JUMP JUMPDEST PUSH1 0x40 MLOAD DUP1 SWAP2 SUB SWAP1 LOG3 POP POP POP JUMP JUMPDEST PUSH1 0x0 PUSH2 0x2478 DUP5 DUP5 PUSH2 0x222F JUMP JUMPDEST SWAP1 POP PUSH1 0x0 NOT DUP2 EQ PUSH2 0x2137 JUMPI DUP2 DUP2 LT ISZERO PUSH2 0x24A3 JUMPI PUSH1 0x40 MLOAD PUSH3 0x461BCD PUSH1 0xE5 SHL DUP2 MSTORE PUSH1 0x4 ADD PUSH2 0x58E SWAP1 PUSH2 0x4461 JUMP JUMPDEST PUSH2 0x2137 DUP5 DUP5 DUP5 DUP5 SUB PUSH2 0x23B8 JUMP JUMPDEST PUSH1 0x1 PUSH1 0x1 PUSH1 0xA0 SHL SUB DUP4 AND PUSH2 0x24D6 JUMPI PUSH1 0x40 MLOAD PUSH3 0x461BCD PUSH1 0xE5 SHL DUP2 MSTORE PUSH1 0x4 ADD PUSH2 0x58E SWAP1 PUSH2 0x474E JUMP JUMPDEST PUSH1 0x1 PUSH1 0x1 PUSH1 0xA0 SHL SUB DUP3 AND PUSH2 0x24FC JUMPI PUSH1 0x40 MLOAD PUSH3 0x461BCD PUSH1 0xE5 SHL DUP2 MSTORE PUSH1 0x4 ADD PUSH2 0x58E SWAP1 PUSH2 0x42CD JUMP JUMPDEST PUSH2 0x2507 DUP4 DUP4 DUP4 PUSH2 0x62B JUMP JUMPDEST PUSH1 0x1 PUSH1 0x1 PUSH1 0xA0 SHL SUB DUP4 AND PUSH1 0x0 SWAP1 DUP2 MSTORE PUSH1 0x20 DUP2 SWAP1 MSTORE PUSH1 0x40 SWAP1 KECCAK256 SLOAD DUP2 DUP2 LT ISZERO PUSH2 0x2540 JUMPI PUSH1 0x40 MLOAD PUSH3 0x461BCD PUSH1 0xE5 SHL DUP2 MSTORE PUSH1 0x4 ADD PUSH2 0x58E SWAP1 PUSH2 0x44CF JUMP JUMPDEST PUSH1 0x1 PUSH1 0x1 PUSH1 0xA0 SHL SUB DUP1 DUP6 AND PUSH1 0x0 SWAP1 DUP2 MSTORE PUSH1 0x20 DUP2 SWAP1 MSTORE PUSH1 0x40 DUP1 DUP3 KECCAK256 DUP6 DUP6 SUB SWAP1 SSTORE SWAP2 DUP6 AND DUP2 MSTORE SWAP1 DUP2 KECCAK256 DUP1 SLOAD DUP5 SWAP3 SWAP1 PUSH2 0x2577 SWAP1 DUP5 SWAP1 PUSH2 0x4A8D JUMP JUMPDEST SWAP3 POP POP DUP2 SWAP1 SSTORE POP DUP3 PUSH1 0x1 PUSH1 0x1 PUSH1 0xA0 SHL SUB AND DUP5 PUSH1 0x1 PUSH1 0x1 PUSH1 0xA0 SHL SUB AND PUSH32 0xDDF252AD1BE2C89B69C2B068FC378DAA952BA7F163C4A11628F55A4DF523B3EF DUP5 PUSH1 0x40 MLOAD PUSH2 0x25C1 SWAP2 SWAP1 PUSH2 0x423D JUMP JUMPDEST PUSH1 0x40 MLOAD DUP1 SWAP2 SUB SWAP1 LOG3 PUSH2 0x2137 DUP5 DUP5 DUP5 PUSH2 0x62B JUMP JUMPDEST PUSH32 0x0 PUSH1 0x2 DUP3 DUP2 SIGNEXTEND SWAP1 DUP5 SWAP1 SIGNEXTEND SLT PUSH2 0x261B JUMPI PUSH1 0x40 MLOAD PUSH3 0x461BCD PUSH1 0xE5 SHL DUP2 MSTORE PUSH1 0x4 ADD PUSH2 0x58E SWAP1 PUSH2 0x4392 JUMP JUMPDEST PUSH3 0xD89E7 NOT PUSH1 0x2 DUP5 SWAP1 SIGNEXTEND SLT ISZERO PUSH2 0x2643 JUMPI PUSH1 0x40 MLOAD PUSH3 0x461BCD PUSH1 0xE5 SHL DUP2 MSTORE PUSH1 0x4 ADD PUSH2 0x58E SWAP1 PUSH2 0x47D9 JUMP JUMPDEST PUSH2 0x2650 PUSH3 0xD89E7 NOT PUSH2 0x4BB4 JUMP JUMPDEST PUSH1 0x2 SIGNEXTEND DUP3 PUSH1 0x2 SIGNEXTEND SGT ISZERO PUSH2 0x2675 JUMPI PUSH1 0x40 MLOAD PUSH3 0x461BCD PUSH1 0xE5 SHL DUP2 MSTORE PUSH1 0x4 ADD PUSH2 0x58E SWAP1 PUSH2 0x4848 JUMP JUMPDEST PUSH2 0x267F DUP2 DUP5 PUSH2 0x4B7E JUMP JUMPDEST PUSH1 0x2 SIGNEXTEND ISZERO PUSH2 0x269F JUMPI PUSH1 0x40 MLOAD PUSH3 0x461BCD PUSH1 0xE5 SHL DUP2 MSTORE PUSH1 0x4 ADD PUSH2 0x58E SWAP1 PUSH2 0x4403 JUMP JUMPDEST PUSH2 0x26A9 DUP2 DUP4 PUSH2 0x4B7E JUMP JUMPDEST PUSH1 0x2 SIGNEXTEND ISZERO PUSH2 0x62B JUMPI PUSH1 0x40 MLOAD PUSH3 0x461BCD PUSH1 0xE5 SHL DUP2 MSTORE PUSH1 0x4 ADD PUSH2 0x58E SWAP1 PUSH2 0x4498 JUMP JUMPDEST PUSH1 0x0 DUP1 PUSH1 0x0 DUP1 PUSH1 0x0 DUP1 PUSH2 0x26DD ADDRESS DUP10 DUP10 PUSH2 0x3127 JUMP JUMPDEST PUSH1 0x40 MLOAD PUSH4 0x514EA4BF PUSH1 0xE0 SHL DUP2 MSTORE SWAP1 SWAP2 POP PUSH1 0x1 PUSH1 0x1 PUSH1 0xA0 SHL SUB PUSH32 0x0 AND SWAP1 PUSH4 0x514EA4BF SWAP1 PUSH2 0x272C SWAP1 DUP5 SWAP1 PUSH1 0x4 ADD PUSH2 0x423D JUMP JUMPDEST PUSH1 0xA0 PUSH1 0x40 MLOAD DUP1 DUP4 SUB DUP2 DUP7 DUP1 EXTCODESIZE ISZERO DUP1 ISZERO PUSH2 0x2744 JUMPI PUSH1 0x0 DUP1 REVERT JUMPDEST POP GAS STATICCALL ISZERO DUP1 ISZERO PUSH2 0x2758 JUMPI RETURNDATASIZE PUSH1 0x0 DUP1 RETURNDATACOPY RETURNDATASIZE PUSH1 0x0 REVERT JUMPDEST POP POP POP POP PUSH1 0x40 MLOAD RETURNDATASIZE PUSH1 0x1F NOT PUSH1 0x1F DUP3 ADD AND DUP3 ADD DUP1 PUSH1 0x40 MSTORE POP DUP2 ADD SWAP1 PUSH2 0x277C SWAP2 SWAP1 PUSH2 0x3EF4 JUMP JUMPDEST SWAP4 SWAP13 SWAP3 SWAP12 POP SWAP1 SWAP10 POP SWAP8 POP SWAP1 SWAP6 POP SWAP4 POP POP POP POP JUMP JUMPDEST PUSH1 0x0 DUP1 DUP1 DUP1 PUSH1 0x1 PUSH1 0x1 PUSH1 0x80 SHL SUB DUP6 AND ISZERO PUSH2 0x284B JUMPI PUSH1 0x40 MLOAD PUSH4 0xA34123A7 PUSH1 0xE0 SHL DUP2 MSTORE PUSH1 0x1 PUSH1 0x1 PUSH1 0xA0 SHL SUB PUSH32 0x0 AND SWAP1 PUSH4 0xA34123A7 SWAP1 PUSH2 0x27F4 SWAP1 DUP11 SWAP1 DUP11 SWAP1 DUP11 SWAP1 PUSH1 0x4 ADD PUSH2 0x4254 JUMP JUMPDEST PUSH1 0x40 DUP1 MLOAD DUP1 DUP4 SUB DUP2 PUSH1 0x0 DUP8 DUP1 EXTCODESIZE ISZERO DUP1 ISZERO PUSH2 0x280D JUMPI PUSH1 0x0 DUP1 REVERT JUMPDEST POP GAS CALL ISZERO DUP1 ISZERO PUSH2 0x2821 JUMPI RETURNDATASIZE PUSH1 0x0 DUP1 RETURNDATACOPY RETURNDATASIZE PUSH1 0x0 REVERT JUMPDEST POP POP POP POP PUSH1 0x40 MLOAD RETURNDATASIZE PUSH1 0x1F NOT PUSH1 0x1F DUP3 ADD AND DUP3 ADD DUP1 PUSH1 0x40 MSTORE POP DUP2 ADD SWAP1 PUSH2 0x2845 SWAP2 SWAP1 PUSH2 0x3DB3 JUMP JUMPDEST SWAP1 SWAP5 POP SWAP3 POP JUMPDEST PUSH1 0x0 DUP1 PUSH32 0x0 PUSH1 0x1 PUSH1 0x1 PUSH1 0xA0 SHL SUB AND PUSH4 0x4F1EB3D8 ADDRESS DUP12 DUP12 PUSH1 0x1 PUSH1 0x1 PUSH1 0x80 SHL SUB DUP1 PUSH1 0x40 MLOAD DUP7 PUSH4 0xFFFFFFFF AND PUSH1 0xE0 SHL DUP2 MSTORE PUSH1 0x4 ADD PUSH2 0x28A9 SWAP6 SWAP5 SWAP4 SWAP3 SWAP2 SWAP1 PUSH2 0x41DC JUMP JUMPDEST PUSH1 0x40 DUP1 MLOAD DUP1 DUP4 SUB DUP2 PUSH1 0x0 DUP8 DUP1 EXTCODESIZE ISZERO DUP1 ISZERO PUSH2 0x28C2 JUMPI PUSH1 0x0 DUP1 REVERT JUMPDEST POP GAS CALL ISZERO DUP1 ISZERO PUSH2 0x28D6 JUMPI RETURNDATASIZE PUSH1 0x0 DUP1 RETURNDATACOPY RETURNDATASIZE PUSH1 0x0 REVERT JUMPDEST POP POP POP POP PUSH1 0x40 MLOAD RETURNDATASIZE PUSH1 0x1F NOT PUSH1 0x1F DUP3 ADD AND DUP3 ADD DUP1 PUSH1 0x40 MSTORE POP DUP2 ADD SWAP1 PUSH2 0x28FA SWAP2 SWAP1 PUSH2 0x3EC6 JUMP JUMPDEST PUSH1 0x1 PUSH1 0x1 PUSH1 0x80 SHL SUB SWAP2 DUP3 AND SWAP4 POP AND SWAP1 POP PUSH2 0x2914 DUP3 DUP8 PUSH2 0x2352 JUMP JUMPDEST SWAP4 POP PUSH2 0x2920 DUP2 DUP7 PUSH2 0x2352 JUMP JUMPDEST PUSH1 0x6 SLOAD SWAP1 SWAP4 POP PUSH1 0x0 SWAP1 DUP2 SWAP1 DUP1 ISZERO PUSH2 0x2991 JUMPI PUSH2 0x2942 PUSH3 0xF4240 PUSH2 0x1AFA DUP10 DUP5 PUSH2 0x2EF5 JUMP JUMPDEST SWAP3 POP PUSH2 0x2955 PUSH3 0xF4240 PUSH2 0x1AFA DUP9 DUP5 PUSH2 0x2EF5 JUMP JUMPDEST SWAP2 POP PUSH2 0x2961 DUP8 DUP5 PUSH2 0x2352 JUMP JUMPDEST SWAP7 POP PUSH2 0x296D DUP7 DUP4 PUSH2 0x2352 JUMP JUMPDEST PUSH1 0xB SLOAD SWAP1 SWAP7 POP PUSH2 0x297D SWAP1 DUP5 PUSH2 0x2E22 JUMP JUMPDEST PUSH1 0xB SSTORE PUSH1 0xC SLOAD PUSH2 0x298D SWAP1 DUP4 PUSH2 0x2E22 JUMP JUMPDEST PUSH1 0xC SSTORE JUMPDEST PUSH32 0x1AC56D7E866E3F5EA9AA92AA11758EAD39A0A5F013F3FEFB0F47CB9D008EDD27 DUP8 DUP8 DUP6 DUP6 PUSH1 0x40 MLOAD PUSH2 0x29C6 SWAP5 SWAP4 SWAP3 SWAP2 SWAP1 PUSH2 0x4A64 JUMP JUMPDEST PUSH1 0x40 MLOAD DUP1 SWAP2 SUB SWAP1 LOG1 POP POP POP POP POP SWAP4 POP SWAP4 POP SWAP4 POP SWAP4 JUMP JUMPDEST PUSH1 0x0 DUP1 PUSH32 0x0 PUSH1 0x1 PUSH1 0x1 PUSH1 0xA0 SHL SUB AND PUSH4 0x3850C7BD PUSH1 0x40 MLOAD DUP2 PUSH4 0xFFFFFFFF AND PUSH1 0xE0 SHL DUP2 MSTORE PUSH1 0x4 ADD PUSH1 0xE0 PUSH1 0x40 MLOAD DUP1 DUP4 SUB DUP2 DUP7 DUP1 EXTCODESIZE ISZERO DUP1 ISZERO PUSH2 0x2A38 JUMPI PUSH1 0x0 DUP1 REVERT JUMPDEST POP GAS STATICCALL ISZERO DUP1 ISZERO PUSH2 0x2A4C JUMPI RETURNDATASIZE PUSH1 0x0 DUP1 RETURNDATACOPY RETURNDATASIZE PUSH1 0x0 REVERT JUMPDEST POP POP POP POP PUSH1 0x40 MLOAD RETURNDATASIZE PUSH1 0x1F NOT PUSH1 0x1F DUP3 ADD AND DUP3 ADD DUP1 PUSH1 0x40 MSTORE POP DUP2 ADD SWAP1 PUSH2 0x2A70 SWAP2 SWAP1 PUSH2 0x3F55 JUMP JUMPDEST POP POP POP POP POP POP SWAP1 POP PUSH2 0x2A95 DUP2 PUSH2 0x2A85 DUP9 PUSH2 0x315D JUMP JUMPDEST PUSH2 0x2A8E DUP9 PUSH2 0x315D JUMP JUMPDEST DUP8 DUP8 PUSH2 0x3537 JUMP JUMPDEST SWAP7 SWAP6 POP POP POP POP POP POP JUMP JUMPDEST PUSH1 0x1 PUSH1 0x1 PUSH1 0x80 SHL SUB DUP2 AND ISZERO PUSH2 0x62B JUMPI PUSH1 0x40 MLOAD PUSH4 0x3C8A7D8D PUSH1 0xE0 SHL DUP2 MSTORE PUSH1 0x1 PUSH1 0x1 PUSH1 0xA0 SHL SUB PUSH32 0x0 AND SWAP1 PUSH4 0x3C8A7D8D SWAP1 PUSH2 0x2B00 SWAP1 ADDRESS SWAP1 DUP8 SWAP1 DUP8 SWAP1 DUP8 SWAP1 PUSH1 0x4 ADD PUSH2 0x419A JUMP JUMPDEST PUSH1 0x40 DUP1 MLOAD DUP1 DUP4 SUB DUP2 PUSH1 0x0 DUP8 DUP1 EXTCODESIZE ISZERO DUP1 ISZERO PUSH2 0x2B19 JUMPI PUSH1 0x0 DUP1 REVERT JUMPDEST POP GAS CALL ISZERO DUP1 ISZERO PUSH2 0x2B2D JUMPI RETURNDATASIZE PUSH1 0x0 DUP1 RETURNDATACOPY RETURNDATASIZE PUSH1 0x0 REVERT JUMPDEST POP POP POP POP PUSH1 0x40 MLOAD RETURNDATASIZE PUSH1 0x1F NOT PUSH1 0x1F DUP3 ADD AND DUP3 ADD DUP1 PUSH1 0x40 MSTORE POP DUP2 ADD SWAP1 PUSH2 0x1CFF SWAP2 SWAP1 PUSH2 0x3DB3 JUMP JUMPDEST PUSH1 0x0 PUSH2 0x2B5D DUP4 DUP4 PUSH2 0x26C9 JUMP JUMPDEST POP POP POP POP SWAP1 POP PUSH1 0x0 DUP2 PUSH1 0x1 PUSH1 0x1 PUSH1 0x80 SHL SUB AND GT ISZERO PUSH2 0x62B JUMPI PUSH1 0x40 MLOAD PUSH4 0xA34123A7 PUSH1 0xE0 SHL DUP2 MSTORE PUSH1 0x1 PUSH1 0x1 PUSH1 0xA0 SHL SUB PUSH32 0x0 AND SWAP1 PUSH4 0xA34123A7 SWAP1 PUSH2 0x2B00 SWAP1 DUP7 SWAP1 DUP7 SWAP1 PUSH1 0x0 SWAP1 PUSH1 0x4 ADD PUSH2 0x4254 JUMP JUMPDEST PUSH1 0x0 DUP1 PUSH1 0x0 DUP1 PUSH2 0x2BD4 PUSH2 0x74B JUMP JUMPDEST SWAP1 POP PUSH1 0x0 DUP1 PUSH2 0x2BE1 PUSH2 0x1D58 JUMP JUMPDEST SWAP2 POP SWAP2 POP DUP3 PUSH1 0x0 EQ DUP1 PUSH2 0x2BF4 JUMPI POP PUSH1 0x0 DUP3 GT JUMPDEST DUP1 PUSH2 0x2BFF JUMPI POP PUSH1 0x0 DUP2 GT JUMPDEST PUSH2 0x2C19 JUMPI PUSH4 0x4E487B71 PUSH1 0xE0 SHL PUSH1 0x0 MSTORE PUSH1 0x1 PUSH1 0x4 MSTORE PUSH1 0x24 PUSH1 0x0 REVERT JUMPDEST DUP3 PUSH2 0x2C35 JUMPI DUP8 SWAP5 POP DUP7 SWAP4 POP PUSH2 0x2C2E DUP6 DUP6 PUSH2 0x35FB JUMP JUMPDEST SWAP6 POP PUSH2 0x2D1F JUMP JUMPDEST DUP2 PUSH2 0x2C4B JUMPI DUP7 SWAP4 POP PUSH2 0x2C2E DUP2 PUSH2 0x1AFA DUP7 DUP7 PUSH2 0x2EF5 JUMP JUMPDEST DUP1 PUSH2 0x2C61 JUMPI DUP8 SWAP5 POP PUSH2 0x2C2E DUP3 PUSH2 0x1AFA DUP8 DUP7 PUSH2 0x2EF5 JUMP JUMPDEST PUSH1 0x0 DUP9 GT DUP1 PUSH2 0x2C70 JUMPI POP PUSH1 0x0 DUP8 GT JUMPDEST PUSH2 0x2C8C JUMPI PUSH1 0x40 MLOAD PUSH3 0x461BCD PUSH1 0xE5 SHL DUP2 MSTORE PUSH1 0x4 ADD PUSH2 0x58E SWAP1 PUSH2 0x464D JUMP JUMPDEST PUSH1 0x0 PUSH2 0x2CAA PUSH2 0x2C9B DUP11 DUP5 PUSH2 0x2EF5 JUMP JUMPDEST PUSH2 0x2CA5 DUP11 DUP7 PUSH2 0x2EF5 JUMP JUMPDEST PUSH2 0x3612 JUMP JUMPDEST SWAP1 POP DUP1 PUSH2 0x2CC0 JUMPI DUP9 SWAP6 POP DUP8 SWAP5 POP PUSH1 0x0 SWAP7 POP PUSH2 0x2D1D JUMP JUMPDEST PUSH1 0x0 DUP2 GT PUSH2 0x2CE0 JUMPI PUSH1 0x40 MLOAD PUSH3 0x461BCD PUSH1 0xE5 SHL DUP2 MSTORE PUSH1 0x4 ADD PUSH2 0x58E SWAP1 PUSH2 0x472F JUMP JUMPDEST PUSH2 0x2CF3 PUSH1 0x1 PUSH2 0x1DC3 DUP5 PUSH2 0x1AFA DUP6 DUP5 PUSH2 0x2352 JUMP JUMPDEST SWAP6 POP PUSH2 0x2D08 PUSH1 0x1 PUSH2 0x1DC3 DUP6 PUSH2 0x1AFA DUP6 DUP5 PUSH2 0x2352 JUMP JUMPDEST SWAP5 POP PUSH2 0x2D1A DUP3 PUSH2 0x1AFA DUP6 DUP2 DUP6 DUP10 PUSH2 0x2EF5 JUMP JUMPDEST SWAP7 POP JUMPDEST POP JUMPDEST POP POP POP SWAP3 POP SWAP3 POP SWAP3 JUMP JUMPDEST PUSH1 0x0 PUSH2 0x7B8 DUP3 DUP5 PUSH2 0x4AA5 JUMP JUMPDEST PUSH2 0x2137 DUP5 PUSH4 0x23B872DD PUSH1 0xE0 SHL DUP6 DUP6 DUP6 PUSH1 0x40 MLOAD PUSH1 0x24 ADD PUSH2 0x237D SWAP4 SWAP3 SWAP2 SWAP1 PUSH2 0x413C JUMP JUMPDEST PUSH1 0x1 PUSH1 0x1 PUSH1 0xA0 SHL SUB DUP3 AND PUSH2 0x2D7C JUMPI PUSH1 0x40 MLOAD PUSH3 0x461BCD PUSH1 0xE5 SHL DUP2 MSTORE PUSH1 0x4 ADD PUSH2 0x58E SWAP1 PUSH2 0x4999 JUMP JUMPDEST PUSH2 0x2D88 PUSH1 0x0 DUP4 DUP4 PUSH2 0x62B JUMP JUMPDEST DUP1 PUSH1 0x2 PUSH1 0x0 DUP3 DUP3 SLOAD PUSH2 0x2D9A SWAP2 SWAP1 PUSH2 0x4A8D JUMP JUMPDEST SWAP1 SWAP2 SSTORE POP POP PUSH1 0x1 PUSH1 0x1 PUSH1 0xA0 SHL SUB DUP3 AND PUSH1 0x0 SWAP1 DUP2 MSTORE PUSH1 0x20 DUP2 SWAP1 MSTORE PUSH1 0x40 DUP2 KECCAK256 DUP1 SLOAD DUP4 SWAP3 SWAP1 PUSH2 0x2DC7 SWAP1 DUP5 SWAP1 PUSH2 0x4A8D JUMP JUMPDEST SWAP1 SWAP2 SSTORE POP POP PUSH1 0x40 MLOAD PUSH1 0x1 PUSH1 0x1 PUSH1 0xA0 SHL SUB DUP4 AND SWAP1 PUSH1 0x0 SWAP1 PUSH32 0xDDF252AD1BE2C89B69C2B068FC378DAA952BA7F163C4A11628F55A4DF523B3EF SWAP1 PUSH2 0x2E0A SWAP1 DUP6 SWAP1 PUSH2 0x423D JUMP JUMPDEST PUSH1 0x40 MLOAD DUP1 SWAP2 SUB SWAP1 LOG3 PUSH2 0x2E1E PUSH1 0x0 DUP4 DUP4 PUSH2 0x62B JUMP JUMPDEST POP POP JUMP JUMPDEST PUSH1 0x0 PUSH2 0x7B8 DUP3 DUP5 PUSH2 0x4A8D JUMP JUMPDEST PUSH1 0x0 DUP1 PUSH1 0x0 PUSH32 0x0 PUSH1 0x1 PUSH1 0x1 PUSH1 0xA0 SHL SUB AND PUSH4 0x3850C7BD PUSH1 0x40 MLOAD DUP2 PUSH4 0xFFFFFFFF AND PUSH1 0xE0 SHL DUP2 MSTORE PUSH1 0x4 ADD PUSH1 0xE0 PUSH1 0x40 MLOAD DUP1 DUP4 SUB DUP2 DUP7 DUP1 EXTCODESIZE ISZERO DUP1 ISZERO PUSH2 0x2E8C JUMPI PUSH1 0x0 DUP1 REVERT JUMPDEST POP GAS STATICCALL ISZERO DUP1 ISZERO PUSH2 0x2EA0 JUMPI RETURNDATASIZE PUSH1 0x0 DUP1 RETURNDATACOPY RETURNDATASIZE PUSH1 0x0 REVERT JUMPDEST POP POP POP POP PUSH1 0x40 MLOAD RETURNDATASIZE PUSH1 0x1F NOT PUSH1 0x1F DUP3 ADD AND DUP3 ADD DUP1 PUSH1 0x40 MSTORE POP DUP2 ADD SWAP1 PUSH2 0x2EC4 SWAP2 SWAP1 PUSH2 0x3F55 JUMP JUMPDEST POP POP POP POP POP POP SWAP1 POP PUSH2 0x2EE8 DUP2 PUSH2 0x2ED9 DUP9 PUSH2 0x315D JUMP JUMPDEST PUSH2 0x2EE2 DUP9 PUSH2 0x315D JUMP JUMPDEST DUP8 PUSH2 0x3621 JUMP JUMPDEST SWAP3 POP SWAP3 POP POP SWAP4 POP SWAP4 SWAP2 POP POP JUMP JUMPDEST PUSH1 0x0 PUSH2 0x7B8 DUP3 DUP5 PUSH2 0x4AB9 JUMP JUMPDEST PUSH1 0x1 PUSH1 0x1 PUSH1 0xA0 SHL SUB DUP3 AND PUSH2 0x2F27 JUMPI PUSH1 0x40 MLOAD PUSH3 0x461BCD PUSH1 0xE5 SHL DUP2 MSTORE PUSH1 0x4 ADD PUSH2 0x58E SWAP1 PUSH2 0x46EE JUMP JUMPDEST PUSH2 0x2F33 DUP3 PUSH1 0x0 DUP4 PUSH2 0x62B JUMP JUMPDEST PUSH1 0x1 PUSH1 0x1 PUSH1 0xA0 SHL SUB DUP3 AND PUSH1 0x0 SWAP1 DUP2 MSTORE PUSH1 0x20 DUP2 SWAP1 MSTORE PUSH1 0x40 SWAP1 KECCAK256 SLOAD DUP2 DUP2 LT ISZERO PUSH2 0x2F6C JUMPI PUSH1 0x40 MLOAD PUSH3 0x461BCD PUSH1 0xE5 SHL DUP2 MSTORE PUSH1 0x4 ADD PUSH2 0x58E SWAP1 PUSH2 0x4334 JUMP JUMPDEST PUSH1 0x1 PUSH1 0x1 PUSH1 0xA0 SHL SUB DUP4 AND PUSH1 0x0 SWAP1 DUP2 MSTORE PUSH1 0x20 DUP2 SWAP1 MSTORE PUSH1 0x40 DUP2 KECCAK256 DUP4 DUP4 SUB SWAP1 SSTORE PUSH1 0x2 DUP1 SLOAD DUP5 SWAP3 SWAP1 PUSH2 0x2F9B SWAP1 DUP5 SWAP1 PUSH2 0x4B00 JUMP JUMPDEST SWAP1 SWAP2 SSTORE POP POP PUSH1 0x40 MLOAD PUSH1 0x0 SWAP1 PUSH1 0x1 PUSH1 0x1 PUSH1 0xA0 SHL SUB DUP6 AND SWAP1 PUSH32 0xDDF252AD1BE2C89B69C2B068FC378DAA952BA7F163C4A11628F55A4DF523B3EF SWAP1 PUSH2 0x2FDE SWAP1 DUP7 SWAP1 PUSH2 0x423D JUMP JUMPDEST PUSH1 0x40 MLOAD DUP1 SWAP2 SUB SWAP1 LOG3 PUSH2 0x62B DUP4 PUSH1 0x0 DUP5 PUSH2 0x62B JUMP JUMPDEST PUSH1 0x0 DUP1 PUSH1 0x0 PUSH2 0x3001 DUP8 DUP8 PUSH2 0x26C9 JUMP JUMPDEST POP POP POP POP SWAP1 POP PUSH1 0x0 PUSH2 0x3029 DUP6 PUSH2 0x1AFA DUP9 DUP6 PUSH1 0x1 PUSH1 0x1 PUSH1 0x80 SHL SUB AND PUSH2 0x2EF5 SWAP1 SWAP2 SWAP1 PUSH4 0xFFFFFFFF AND JUMP JUMPDEST SWAP1 POP DUP1 ISZERO PUSH2 0x308D JUMPI PUSH1 0x0 DUP1 PUSH1 0x0 DUP1 PUSH2 0x304A DUP13 DUP13 PUSH2 0x3045 DUP9 PUSH2 0x36BD JUMP JUMPDEST PUSH2 0x2790 JUMP JUMPDEST SWAP3 SWAP7 POP SWAP1 SWAP5 POP SWAP3 POP SWAP1 POP PUSH2 0x306C PUSH2 0x3065 DUP11 PUSH2 0x1AFA DUP6 DUP15 PUSH2 0x2EF5 JUMP JUMPDEST DUP6 SWAP1 PUSH2 0x2E22 JUMP JUMPDEST SWAP8 POP PUSH2 0x3086 PUSH2 0x307F DUP11 PUSH2 0x1AFA DUP5 DUP15 PUSH2 0x2EF5 JUMP JUMPDEST DUP5 SWAP1 PUSH2 0x2E22 JUMP JUMPDEST SWAP7 POP POP POP POP POP JUMPDEST POP POP SWAP5 POP SWAP5 SWAP3 POP POP POP JUMP JUMPDEST PUSH1 0x0 PUSH2 0x30ED DUP3 PUSH1 0x40 MLOAD DUP1 PUSH1 0x40 ADD PUSH1 0x40 MSTORE DUP1 PUSH1 0x20 DUP2 MSTORE PUSH1 0x20 ADD PUSH32 0x5361666545524332303A206C6F772D6C6576656C2063616C6C206661696C6564 DUP2 MSTORE POP DUP6 PUSH1 0x1 PUSH1 0x1 PUSH1 0xA0 SHL SUB AND PUSH2 0x36E8 SWAP1 SWAP3 SWAP2 SWAP1 PUSH4 0xFFFFFFFF AND JUMP JUMPDEST DUP1 MLOAD SWAP1 SWAP2 POP ISZERO PUSH2 0x62B JUMPI DUP1 DUP1 PUSH1 0x20 ADD SWAP1 MLOAD DUP2 ADD SWAP1 PUSH2 0x310B SWAP2 SWAP1 PUSH2 0x3CEC JUMP JUMPDEST PUSH2 0x62B JUMPI PUSH1 0x40 MLOAD PUSH3 0x461BCD PUSH1 0xE5 SHL DUP2 MSTORE PUSH1 0x4 ADD PUSH2 0x58E SWAP1 PUSH2 0x48D3 JUMP JUMPDEST PUSH1 0x0 DUP4 DUP4 DUP4 PUSH1 0x40 MLOAD PUSH1 0x20 ADD PUSH2 0x313E SWAP4 SWAP3 SWAP2 SWAP1 PUSH2 0x40D7 JUMP JUMPDEST PUSH1 0x40 MLOAD PUSH1 0x20 DUP2 DUP4 SUB SUB DUP2 MSTORE SWAP1 PUSH1 0x40 MSTORE DUP1 MLOAD SWAP1 PUSH1 0x20 ADD KECCAK256 SWAP1 POP SWAP4 SWAP3 POP POP POP JUMP JUMPDEST PUSH1 0x0 DUP1 PUSH1 0x0 DUP4 PUSH1 0x2 SIGNEXTEND SLT PUSH2 0x3174 JUMPI DUP3 PUSH1 0x2 SIGNEXTEND PUSH2 0x3181 JUMP JUMPDEST DUP3 PUSH1 0x2 SIGNEXTEND PUSH2 0x3181 SWAP1 PUSH2 0x4BD5 JUMP JUMPDEST SWAP1 POP PUSH1 0x0 PUSH1 0x1 DUP3 AND PUSH2 0x3197 JUMPI PUSH1 0x1 PUSH1 0x80 SHL PUSH2 0x31A9 JUMP JUMPDEST PUSH16 0xFFFCB933BD6FAD37AA2D162D1A594001 JUMPDEST PUSH17 0xFFFFFFFFFFFFFFFFFFFFFFFFFFFFFFFFFF AND SWAP1 POP PUSH1 0x2 DUP3 AND ISZERO PUSH2 0x31E8 JUMPI PUSH1 0x80 PUSH2 0x31E3 DUP3 PUSH16 0xFFF97272373D413259A46990580E213A PUSH2 0x4AB9 JUMP JUMPDEST SWAP1 SHR SWAP1 POP JUMPDEST PUSH1 0x4 DUP3 AND ISZERO PUSH2 0x3212 JUMPI PUSH1 0x80 PUSH2 0x320D DUP3 PUSH16 0xFFF2E50F5F656932EF12357CF3C7FDCC PUSH2 0x4AB9 JUMP JUMPDEST SWAP1 SHR SWAP1 POP JUMPDEST PUSH1 0x8 DUP3 AND ISZERO PUSH2 0x323C JUMPI PUSH1 0x80 PUSH2 0x3237 DUP3 PUSH16 0xFFE5CACA7E10E4E61C3624EAA0941CD0 PUSH2 0x4AB9 JUMP JUMPDEST SWAP1 SHR SWAP1 POP JUMPDEST PUSH1 0x10 DUP3 AND ISZERO PUSH2 0x3266 JUMPI PUSH1 0x80 PUSH2 0x3261 DUP3 PUSH16 0xFFCB9843D60F6159C9DB58835C926644 PUSH2 0x4AB9 JUMP JUMPDEST SWAP1 SHR SWAP1 POP JUMPDEST PUSH1 0x20 DUP3 AND ISZERO PUSH2 0x3290 JUMPI PUSH1 0x80 PUSH2 0x328B DUP3 PUSH16 0xFF973B41FA98C081472E6896DFB254C0 PUSH2 0x4AB9 JUMP JUMPDEST SWAP1 SHR SWAP1 POP JUMPDEST PUSH1 0x40 DUP3 AND ISZERO PUSH2 0x32BA JUMPI PUSH1 0x80 PUSH2 0x32B5 DUP3 PUSH16 0xFF2EA16466C96A3843EC78B326B52861 PUSH2 0x4AB9 JUMP JUMPDEST SWAP1 SHR SWAP1 POP JUMPDEST PUSH1 0x80 DUP3 AND ISZERO PUSH2 0x32E4 JUMPI PUSH1 0x80 PUSH2 0x32DF DUP3 PUSH16 0xFE5DEE046A99A2A811C461F1969C3053 PUSH2 0x4AB9 JUMP JUMPDEST SWAP1 SHR SWAP1 POP JUMPDEST PUSH2 0x100 DUP3 AND ISZERO PUSH2 0x330F JUMPI PUSH1 0x80 PUSH2 0x330A DUP3 PUSH16 0xFCBE86C7900A88AEDCFFC83B479AA3A4 PUSH2 0x4AB9 JUMP JUMPDEST SWAP1 SHR SWAP1 POP JUMPDEST PUSH2 0x200 DUP3 AND ISZERO PUSH2 0x333A JUMPI PUSH1 0x80 PUSH2 0x3335 DUP3 PUSH16 0xF987A7253AC413176F2B074CF7815E54 PUSH2 0x4AB9 JUMP JUMPDEST SWAP1 SHR SWAP1 POP JUMPDEST PUSH2 0x400 DUP3 AND ISZERO PUSH2 0x3365 JUMPI PUSH1 0x80 PUSH2 0x3360 DUP3 PUSH16 0xF3392B0822B70005940C7A398E4B70F3 PUSH2 0x4AB9 JUMP JUMPDEST SWAP1 SHR SWAP1 POP JUMPDEST PUSH2 0x800 DUP3 AND ISZERO PUSH2 0x3390 JUMPI PUSH1 0x80 PUSH2 0x338B DUP3 PUSH16 0xE7159475A2C29B7443B29C7FA6E889D9 PUSH2 0x4AB9 JUMP JUMPDEST SWAP1 SHR SWAP1 POP JUMPDEST PUSH2 0x1000 DUP3 AND ISZERO PUSH2 0x33BB JUMPI PUSH1 0x80 PUSH2 0x33B6 DUP3 PUSH16 0xD097F3BDFD2022B8845AD8F792AA5825 PUSH2 0x4AB9 JUMP JUMPDEST SWAP1 SHR SWAP1 POP JUMPDEST PUSH2 0x2000 DUP3 AND ISZERO PUSH2 0x33E6 JUMPI PUSH1 0x80 PUSH2 0x33E1 DUP3 PUSH16 0xA9F746462D870FDF8A65DC1F90E061E5 PUSH2 0x4AB9 JUMP JUMPDEST SWAP1 SHR SWAP1 POP JUMPDEST PUSH2 0x4000 DUP3 AND ISZERO PUSH2 0x3411 JUMPI PUSH1 0x80 PUSH2 0x340C DUP3 PUSH16 0x70D869A156D2A1B890BB3DF62BAF32F7 PUSH2 0x4AB9 JUMP JUMPDEST SWAP1 SHR SWAP1 POP JUMPDEST PUSH2 0x8000 DUP3 AND ISZERO PUSH2 0x343C JUMPI PUSH1 0x80 PUSH2 0x3437 DUP3 PUSH16 0x31BE135F97D08FD981231505542FCFA6 PUSH2 0x4AB9 JUMP JUMPDEST SWAP1 SHR SWAP1 POP JUMPDEST PUSH3 0x10000 DUP3 AND ISZERO PUSH2 0x3468 JUMPI PUSH1 0x80 PUSH2 0x3463 DUP3 PUSH16 0x9AA508B5B7A84E1C677DE54F3E99BC9 PUSH2 0x4AB9 JUMP JUMPDEST SWAP1 SHR SWAP1 POP JUMPDEST PUSH3 0x20000 DUP3 AND ISZERO PUSH2 0x3493 JUMPI PUSH1 0x80 PUSH2 0x348E DUP3 PUSH15 0x5D6AF8DEDB81196699C329225EE604 PUSH2 0x4AB9 JUMP JUMPDEST SWAP1 SHR SWAP1 POP JUMPDEST PUSH3 0x40000 DUP3 AND ISZERO PUSH2 0x34BD JUMPI PUSH1 0x80 PUSH2 0x34B8 DUP3 PUSH14 0x2216E584F5FA1EA926041BEDFE98 PUSH2 0x4AB9 JUMP JUMPDEST SWAP1 SHR SWAP1 POP JUMPDEST PUSH3 0x80000 DUP3 AND ISZERO PUSH2 0x34E5 JUMPI PUSH1 0x80 PUSH2 0x34E0 DUP3 PUSH12 0x48A170391F7DC42444E8FA2 PUSH2 0x4AB9 JUMP JUMPDEST SWAP1 SHR SWAP1 POP JUMPDEST PUSH1 0x0 DUP5 PUSH1 0x2 SIGNEXTEND SGT ISZERO PUSH2 0x3500 JUMPI PUSH2 0x34FD DUP2 PUSH1 0x0 NOT PUSH2 0x4AA5 JUMP JUMPDEST SWAP1 POP JUMPDEST PUSH2 0x350F PUSH5 0x100000000 DUP3 PUSH2 0x4BA0 JUMP JUMPDEST ISZERO PUSH2 0x351B JUMPI PUSH1 0x1 PUSH2 0x351E JUMP JUMPDEST PUSH1 0x0 JUMPDEST PUSH2 0x352F SWAP1 PUSH1 0xFF AND PUSH1 0x20 DUP4 SWAP1 SHR PUSH2 0x4A8D JUMP JUMPDEST SWAP5 SWAP4 POP POP POP POP JUMP JUMPDEST PUSH1 0x0 DUP4 PUSH1 0x1 PUSH1 0x1 PUSH1 0xA0 SHL SUB AND DUP6 PUSH1 0x1 PUSH1 0x1 PUSH1 0xA0 SHL SUB AND GT ISZERO PUSH2 0x3557 JUMPI SWAP3 SWAP4 SWAP3 JUMPDEST DUP5 PUSH1 0x1 PUSH1 0x1 PUSH1 0xA0 SHL SUB AND DUP7 PUSH1 0x1 PUSH1 0x1 PUSH1 0xA0 SHL SUB AND GT PUSH2 0x3582 JUMPI PUSH2 0x357B DUP6 DUP6 DUP6 PUSH2 0x36F7 JUMP JUMPDEST SWAP1 POP PUSH2 0x35F2 JUMP JUMPDEST DUP4 PUSH1 0x1 PUSH1 0x1 PUSH1 0xA0 SHL SUB AND DUP7 PUSH1 0x1 PUSH1 0x1 PUSH1 0xA0 SHL SUB AND LT ISZERO PUSH2 0x35E4 JUMPI PUSH1 0x0 PUSH2 0x35A9 DUP8 DUP7 DUP7 PUSH2 0x36F7 JUMP JUMPDEST SWAP1 POP PUSH1 0x0 PUSH2 0x35B8 DUP8 DUP10 DUP7 PUSH2 0x3761 JUMP JUMPDEST SWAP1 POP DUP1 PUSH1 0x1 PUSH1 0x1 PUSH1 0x80 SHL SUB AND DUP3 PUSH1 0x1 PUSH1 0x1 PUSH1 0x80 SHL SUB AND LT PUSH2 0x35D9 JUMPI DUP1 PUSH2 0x35DB JUMP JUMPDEST DUP2 JUMPDEST SWAP3 POP POP POP PUSH2 0x35F2 JUMP JUMPDEST PUSH2 0x35EF DUP6 DUP6 DUP5 PUSH2 0x3761 JUMP JUMPDEST SWAP1 POP JUMPDEST SWAP6 SWAP5 POP POP POP POP POP JUMP JUMPDEST PUSH1 0x0 DUP2 DUP4 LT ISZERO PUSH2 0x360B JUMPI DUP2 PUSH2 0x7B8 JUMP JUMPDEST POP SWAP1 SWAP2 SWAP1 POP JUMP JUMPDEST PUSH1 0x0 DUP2 DUP4 LT PUSH2 0x360B JUMPI DUP2 PUSH2 0x7B8 JUMP JUMPDEST PUSH1 0x0 DUP1 DUP4 PUSH1 0x1 PUSH1 0x1 PUSH1 0xA0 SHL SUB AND DUP6 PUSH1 0x1 PUSH1 0x1 PUSH1 0xA0 SHL SUB AND GT ISZERO PUSH2 0x3642 JUMPI SWAP3 SWAP4 SWAP3 JUMPDEST DUP5 PUSH1 0x1 PUSH1 0x1 PUSH1 0xA0 SHL SUB AND DUP7 PUSH1 0x1 PUSH1 0x1 PUSH1 0xA0 SHL SUB AND GT PUSH2 0x366D JUMPI PUSH2 0x3666 DUP6 DUP6 DUP6 PUSH2 0x3797 JUMP JUMPDEST SWAP2 POP PUSH2 0x36B4 JUMP JUMPDEST DUP4 PUSH1 0x1 PUSH1 0x1 PUSH1 0xA0 SHL SUB AND DUP7 PUSH1 0x1 PUSH1 0x1 PUSH1 0xA0 SHL SUB AND LT ISZERO PUSH2 0x36A6 JUMPI PUSH2 0x3692 DUP7 DUP6 DUP6 PUSH2 0x3797 JUMP JUMPDEST SWAP2 POP PUSH2 0x369F DUP6 DUP8 DUP6 PUSH2 0x380A JUMP JUMPDEST SWAP1 POP PUSH2 0x36B4 JUMP JUMPDEST PUSH2 0x36B1 DUP6 DUP6 DUP6 PUSH2 0x380A JUMP JUMPDEST SWAP1 POP JUMPDEST SWAP5 POP SWAP5 SWAP3 POP POP POP JUMP JUMPDEST PUSH1 0x0 PUSH1 0x1 PUSH1 0x1 PUSH1 0x80 SHL SUB DUP3 GT ISZERO PUSH2 0x36E4 JUMPI PUSH4 0x4E487B71 PUSH1 0xE0 SHL PUSH1 0x0 MSTORE PUSH1 0x1 PUSH1 0x4 MSTORE PUSH1 0x24 PUSH1 0x0 REVERT JUMPDEST POP SWAP1 JUMP JUMPDEST PUSH1 0x60 PUSH2 0x352F DUP5 DUP5 PUSH1 0x0 DUP6 PUSH2 0x3854 JUMP JUMPDEST PUSH1 0x0 DUP3 PUSH1 0x1 PUSH1 0x1 PUSH1 0xA0 SHL SUB AND DUP5 PUSH1 0x1 PUSH1 0x1 PUSH1 0xA0 SHL SUB AND GT ISZERO PUSH2 0x3717 JUMPI SWAP2 SWAP3 SWAP2 JUMPDEST PUSH1 0x0 PUSH2 0x373A DUP6 PUSH1 0x1 PUSH1 0x1 PUSH1 0xA0 SHL SUB AND DUP6 PUSH1 0x1 PUSH1 0x1 PUSH1 0xA0 SHL SUB AND PUSH1 0x1 PUSH1 0x60 SHL PUSH2 0x3914 JUMP JUMPDEST SWAP1 POP PUSH2 0x35F2 PUSH2 0x375C DUP5 DUP4 PUSH2 0x374E DUP10 DUP10 PUSH2 0x4AD8 JUMP JUMPDEST PUSH1 0x1 PUSH1 0x1 PUSH1 0xA0 SHL SUB AND PUSH2 0x3914 JUMP JUMPDEST PUSH2 0x3A8A JUMP JUMPDEST PUSH1 0x0 DUP3 PUSH1 0x1 PUSH1 0x1 PUSH1 0xA0 SHL SUB AND DUP5 PUSH1 0x1 PUSH1 0x1 PUSH1 0xA0 SHL SUB AND GT ISZERO PUSH2 0x3781 JUMPI SWAP2 SWAP3 SWAP2 JUMPDEST PUSH2 0x352F PUSH2 0x375C DUP4 PUSH1 0x1 PUSH1 0x60 SHL PUSH2 0x374E DUP9 DUP9 PUSH2 0x4AD8 JUMP JUMPDEST PUSH1 0x0 DUP3 PUSH1 0x1 PUSH1 0x1 PUSH1 0xA0 SHL SUB AND DUP5 PUSH1 0x1 PUSH1 0x1 PUSH1 0xA0 SHL SUB AND GT ISZERO PUSH2 0x37B7 JUMPI SWAP2 SWAP3 SWAP2 JUMPDEST PUSH1 0x1 PUSH1 0x1 PUSH1 0xA0 SHL SUB DUP5 AND PUSH2 0x3800 PUSH16 0xFFFFFFFFFFFFFFFFFFFFFFFFFFFFFFFF PUSH1 0x60 SHL PUSH1 0x60 DUP6 SWAP1 SHL AND PUSH2 0x37E8 DUP8 DUP8 PUSH2 0x4AD8 JUMP JUMPDEST PUSH1 0x1 PUSH1 0x1 PUSH1 0xA0 SHL SUB AND DUP7 PUSH1 0x1 PUSH1 0x1 PUSH1 0xA0 SHL SUB AND PUSH2 0x3914 JUMP JUMPDEST PUSH2 0x352F SWAP2 SWAP1 PUSH2 0x4AA5 JUMP JUMPDEST PUSH1 0x0 DUP3 PUSH1 0x1 PUSH1 0x1 PUSH1 0xA0 SHL SUB AND DUP5 PUSH1 0x1 PUSH1 0x1 PUSH1 0xA0 SHL SUB AND GT ISZERO PUSH2 0x382A JUMPI SWAP2 SWAP3 SWAP2 JUMPDEST PUSH2 0x352F PUSH1 0x1 PUSH1 0x1 PUSH1 0x80 SHL SUB DUP4 AND PUSH2 0x3841 DUP7 DUP7 PUSH2 0x4AD8 JUMP JUMPDEST PUSH1 0x1 PUSH1 0x1 PUSH1 0xA0 SHL SUB AND PUSH1 0x1 PUSH1 0x60 SHL PUSH2 0x3914 JUMP JUMPDEST PUSH1 0x60 DUP3 SELFBALANCE LT ISZERO PUSH2 0x3876 JUMPI PUSH1 0x40 MLOAD PUSH3 0x461BCD PUSH1 0xE5 SHL DUP2 MSTORE PUSH1 0x4 ADD PUSH2 0x58E SWAP1 PUSH2 0x4537 JUMP JUMPDEST PUSH2 0x387F DUP6 PUSH2 0x3AA0 JUMP JUMPDEST PUSH2 0x389B JUMPI PUSH1 0x40 MLOAD PUSH3 0x461BCD PUSH1 0xE5 SHL DUP2 MSTORE PUSH1 0x4 ADD PUSH2 0x58E SWAP1 PUSH2 0x4874 JUMP JUMPDEST PUSH1 0x0 DUP1 DUP7 PUSH1 0x1 PUSH1 0x1 PUSH1 0xA0 SHL SUB AND DUP6 DUP8 PUSH1 0x40 MLOAD PUSH2 0x38B7 SWAP2 SWAP1 PUSH2 0x410C JUMP JUMPDEST PUSH1 0x0 PUSH1 0x40 MLOAD DUP1 DUP4 SUB DUP2 DUP6 DUP8 GAS CALL SWAP3 POP POP POP RETURNDATASIZE DUP1 PUSH1 0x0 DUP2 EQ PUSH2 0x38F4 JUMPI PUSH1 0x40 MLOAD SWAP2 POP PUSH1 0x1F NOT PUSH1 0x3F RETURNDATASIZE ADD AND DUP3 ADD PUSH1 0x40 MSTORE RETURNDATASIZE DUP3 MSTORE RETURNDATASIZE PUSH1 0x0 PUSH1 0x20 DUP5 ADD RETURNDATACOPY PUSH2 0x38F9 JUMP JUMPDEST PUSH1 0x60 SWAP2 POP JUMPDEST POP SWAP2 POP SWAP2 POP PUSH2 0x3909 DUP3 DUP3 DUP7 PUSH2 0x3AD1 JUMP JUMPDEST SWAP8 SWAP7 POP POP POP POP POP POP POP JUMP JUMPDEST PUSH1 0x0 DUP1 DUP1 PUSH1 0x0 NOT DUP6 DUP8 MULMOD DUP7 DUP7 MUL SWAP3 POP DUP3 DUP2 LT SWAP1 DUP4 SWAP1 SUB SUB SWAP1 POP DUP1 PUSH2 0x394A JUMPI PUSH1 0x0 DUP5 GT PUSH2 0x393F JUMPI PUSH1 0x0 DUP1 REVERT JUMPDEST POP DUP3 SWAP1 DIV SWAP1 POP PUSH2 0x7B8 JUMP JUMPDEST DUP1 DUP5 GT PUSH2 0x3956 JUMPI PUSH1 0x0 DUP1 REVERT JUMPDEST PUSH1 0x0 DUP5 DUP7 DUP9 MULMOD DUP1 DUP5 SUB SWAP4 DUP2 GT SWAP1 SWAP3 SUB SWAP2 SWAP1 POP PUSH1 0x0 PUSH2 0x3976 DUP7 NOT PUSH1 0x1 PUSH2 0x4A8D JUMP JUMPDEST DUP7 AND SWAP6 DUP7 SWAP1 DIV SWAP6 SWAP4 DUP5 SWAP1 DIV SWAP4 PUSH1 0x0 DUP2 SWAP1 SUB DIV PUSH1 0x1 ADD SWAP1 POP PUSH2 0x3997 DUP2 DUP5 PUSH2 0x4AB9 JUMP JUMPDEST SWAP1 SWAP4 OR SWAP3 PUSH1 0x0 PUSH2 0x39A8 DUP8 PUSH1 0x3 PUSH2 0x4AB9 JUMP JUMPDEST PUSH1 0x2 XOR SWAP1 POP PUSH2 0x39B7 DUP2 DUP9 PUSH2 0x4AB9 JUMP JUMPDEST PUSH2 0x39C2 SWAP1 PUSH1 0x2 PUSH2 0x4B00 JUMP JUMPDEST PUSH2 0x39CC SWAP1 DUP3 PUSH2 0x4AB9 JUMP JUMPDEST SWAP1 POP PUSH2 0x39D8 DUP2 DUP9 PUSH2 0x4AB9 JUMP JUMPDEST PUSH2 0x39E3 SWAP1 PUSH1 0x2 PUSH2 0x4B00 JUMP JUMPDEST PUSH2 0x39ED SWAP1 DUP3 PUSH2 0x4AB9 JUMP JUMPDEST SWAP1 POP PUSH2 0x39F9 DUP2 DUP9 PUSH2 0x4AB9 JUMP JUMPDEST PUSH2 0x3A04 SWAP1 PUSH1 0x2 PUSH2 0x4B00 JUMP JUMPDEST PUSH2 0x3A0E SWAP1 DUP3 PUSH2 0x4AB9 JUMP JUMPDEST SWAP1 POP PUSH2 0x3A1A DUP2 DUP9 PUSH2 0x4AB9 JUMP JUMPDEST PUSH2 0x3A25 SWAP1 PUSH1 0x2 PUSH2 0x4B00 JUMP JUMPDEST PUSH2 0x3A2F SWAP1 DUP3 PUSH2 0x4AB9 JUMP JUMPDEST SWAP1 POP PUSH2 0x3A3B DUP2 DUP9 PUSH2 0x4AB9 JUMP JUMPDEST PUSH2 0x3A46 SWAP1 PUSH1 0x2 PUSH2 0x4B00 JUMP JUMPDEST PUSH2 0x3A50 SWAP1 DUP3 PUSH2 0x4AB9 JUMP JUMPDEST SWAP1 POP PUSH2 0x3A5C DUP2 DUP9 PUSH2 0x4AB9 JUMP JUMPDEST PUSH2 0x3A67 SWAP1 PUSH1 0x2 PUSH2 0x4B00 JUMP JUMPDEST PUSH2 0x3A71 SWAP1 DUP3 PUSH2 0x4AB9 JUMP JUMPDEST SWAP1 POP PUSH2 0x3A7D DUP2 DUP7 PUSH2 0x4AB9 JUMP JUMPDEST SWAP10 SWAP9 POP POP POP POP POP POP POP POP POP JUMP JUMPDEST DUP1 PUSH1 0x1 PUSH1 0x1 PUSH1 0x80 SHL SUB DUP2 AND DUP2 EQ PUSH2 0x9A5 JUMPI PUSH1 0x0 DUP1 REVERT JUMPDEST PUSH1 0x0 DUP1 DUP3 PUSH1 0x1 PUSH1 0x1 PUSH1 0xA0 SHL SUB AND DUP1 EXTCODESIZE DUP1 PUSH1 0x20 ADD PUSH1 0x40 MLOAD SWAP1 DUP2 ADD PUSH1 0x40 MSTORE DUP2 DUP2 MSTORE PUSH1 0x0 SWAP1 DUP1 PUSH1 0x20 ADD SWAP1 SWAP4 EXTCODECOPY MLOAD GT SWAP3 SWAP2 POP POP JUMP JUMPDEST PUSH1 0x60 DUP4 ISZERO PUSH2 0x3AE0 JUMPI POP DUP2 PUSH2 0x7B8 JUMP JUMPDEST DUP3 MLOAD ISZERO PUSH2 0x3AF0 JUMPI DUP3 MLOAD DUP1 DUP5 PUSH1 0x20 ADD REVERT JUMPDEST DUP2 PUSH1 0x40 MLOAD PUSH3 0x461BCD PUSH1 0xE5 SHL DUP2 MSTORE PUSH1 0x4 ADD PUSH2 0x58E SWAP2 SWAP1 PUSH2 0x429A JUMP JUMPDEST DUP1 MLOAD DUP1 ISZERO ISZERO DUP2 EQ PUSH2 0x9A5 JUMPI PUSH1 0x0 DUP1 REVERT JUMPDEST PUSH1 0x0 DUP1 DUP4 PUSH1 0x1F DUP5 ADD SLT PUSH2 0x3B2B JUMPI DUP2 DUP3 REVERT JUMPDEST POP DUP2 CALLDATALOAD PUSH8 0xFFFFFFFFFFFFFFFF DUP2 GT ISZERO PUSH2 0x3B42 JUMPI DUP2 DUP3 REVERT JUMPDEST PUSH1 0x20 DUP4 ADD SWAP2 POP DUP4 PUSH1 0x20 DUP3 DUP6 ADD ADD GT ISZERO PUSH2 0x3B5A JUMPI PUSH1 0x0 DUP1 REVERT JUMPDEST SWAP3 POP SWAP3 SWAP1 POP JUMP JUMPDEST DUP1 MLOAD PUSH2 0xFFFF DUP2 AND DUP2 EQ PUSH2 0x9A5 JUMPI PUSH1 0x0 DUP1 REVERT JUMPDEST PUSH1 0x0 PUSH1 0x20 DUP3 DUP5 SUB SLT ISZERO PUSH2 0x3B84 JUMPI DUP1 DUP2 REVERT JUMPDEST DUP2 CALLDATALOAD PUSH2 0x7B8 DUP2 PUSH2 0x4C31 JUMP JUMPDEST PUSH1 0x0 DUP1 PUSH1 0x40 DUP4 DUP6 SUB SLT ISZERO PUSH2 0x3BA1 JUMPI DUP1 DUP2 REVERT JUMPDEST DUP3 CALLDATALOAD PUSH2 0x3BAC DUP2 PUSH2 0x4C31 JUMP JUMPDEST SWAP2 POP PUSH1 0x20 DUP4 ADD CALLDATALOAD PUSH2 0x3BBC DUP2 PUSH2 0x4C31 JUMP JUMPDEST DUP1 SWAP2 POP POP SWAP3 POP SWAP3 SWAP1 POP JUMP JUMPDEST PUSH1 0x0 DUP1 PUSH1 0x0 PUSH1 0x60 DUP5 DUP7 SUB SLT ISZERO PUSH2 0x3BDB JUMPI DUP1 DUP2 REVERT JUMPDEST DUP4 CALLDATALOAD PUSH2 0x3BE6 DUP2 PUSH2 0x4C31 JUMP JUMPDEST SWAP3 POP PUSH1 0x20 DUP5 ADD CALLDATALOAD PUSH2 0x3BF6 DUP2 PUSH2 0x4C31 JUMP JUMPDEST SWAP3 SWAP6 SWAP3 SWAP5 POP POP POP PUSH1 0x40 SWAP2 SWAP1 SWAP2 ADD CALLDATALOAD SWAP1 JUMP JUMPDEST PUSH1 0x0 DUP1 PUSH1 0x40 DUP4 DUP6 SUB SLT ISZERO PUSH2 0x3C19 JUMPI DUP2 DUP3 REVERT JUMPDEST DUP3 CALLDATALOAD PUSH2 0x3C24 DUP2 PUSH2 0x4C31 JUMP JUMPDEST SWAP5 PUSH1 0x20 SWAP4 SWAP1 SWAP4 ADD CALLDATALOAD SWAP4 POP POP POP JUMP JUMPDEST PUSH1 0x0 PUSH1 0x20 DUP1 DUP4 DUP6 SUB SLT ISZERO PUSH2 0x3C44 JUMPI DUP2 DUP3 REVERT JUMPDEST DUP3 MLOAD PUSH8 0xFFFFFFFFFFFFFFFF DUP1 DUP3 GT ISZERO PUSH2 0x3C5B JUMPI DUP4 DUP5 REVERT JUMPDEST DUP2 DUP6 ADD SWAP2 POP DUP6 PUSH1 0x1F DUP4 ADD SLT PUSH2 0x3C6E JUMPI DUP4 DUP5 REVERT JUMPDEST DUP2 MLOAD DUP2 DUP2 GT ISZERO PUSH2 0x3C80 JUMPI PUSH2 0x3C80 PUSH2 0x4C1B JUMP JUMPDEST DUP4 DUP2 MUL PUSH1 0x40 MLOAD DUP6 DUP3 DUP3 ADD ADD DUP2 DUP2 LT DUP6 DUP3 GT OR ISZERO PUSH2 0x3C9F JUMPI PUSH2 0x3C9F PUSH2 0x4C1B JUMP JUMPDEST PUSH1 0x40 MSTORE DUP3 DUP2 MSTORE DUP6 DUP2 ADD SWAP4 POP DUP5 DUP7 ADD DUP3 DUP7 ADD DUP8 ADD DUP11 LT ISZERO PUSH2 0x3CBD JUMPI DUP8 DUP9 REVERT JUMPDEST DUP8 SWAP6 POP JUMPDEST DUP4 DUP7 LT ISZERO PUSH2 0x3CDF JUMPI DUP1 MLOAD DUP6 MSTORE PUSH1 0x1 SWAP6 SWAP1 SWAP6 ADD SWAP5 SWAP4 DUP7 ADD SWAP4 DUP7 ADD PUSH2 0x3CC1 JUMP JUMPDEST POP SWAP9 SWAP8 POP POP POP POP POP POP POP POP JUMP JUMPDEST PUSH1 0x0 PUSH1 0x20 DUP3 DUP5 SUB SLT ISZERO PUSH2 0x3CFD JUMPI DUP1 DUP2 REVERT JUMPDEST PUSH2 0x7B8 DUP3 PUSH2 0x3B0A JUMP JUMPDEST PUSH1 0x0 DUP1 PUSH1 0x0 PUSH1 0x60 DUP5 DUP7 SUB SLT ISZERO PUSH2 0x3D1A JUMPI DUP3 DUP4 REVERT JUMPDEST DUP4 CALLDATALOAD PUSH2 0x3D25 DUP2 PUSH2 0x4C31 JUMP JUMPDEST SWAP3 POP PUSH1 0x20 DUP5 ADD CALLDATALOAD SWAP2 POP PUSH1 0x40 DUP5 ADD CALLDATALOAD PUSH2 0x3D3C DUP2 PUSH2 0x4C31 JUMP JUMPDEST DUP1 SWAP2 POP POP SWAP3 POP SWAP3 POP SWAP3 JUMP JUMPDEST PUSH1 0x0 DUP1 PUSH1 0x40 DUP4 DUP6 SUB SLT ISZERO PUSH2 0x3D59 JUMPI DUP2 DUP3 REVERT JUMPDEST DUP3 CALLDATALOAD PUSH2 0x3D64 DUP2 PUSH2 0x4C49 JUMP JUMPDEST SWAP2 POP PUSH1 0x20 DUP4 ADD CALLDATALOAD PUSH2 0x3BBC DUP2 PUSH2 0x4C49 JUMP JUMPDEST PUSH1 0x0 DUP1 PUSH1 0x0 PUSH1 0x60 DUP5 DUP7 SUB SLT ISZERO PUSH2 0x3D88 JUMPI DUP3 DUP4 REVERT JUMPDEST DUP4 CALLDATALOAD PUSH2 0x3D93 DUP2 PUSH2 0x4C49 JUMP JUMPDEST SWAP3 POP PUSH1 0x20 DUP5 ADD CALLDATALOAD PUSH2 0x3DA3 DUP2 PUSH2 0x4C49 JUMP JUMPDEST SWAP2 POP PUSH1 0x40 DUP5 ADD CALLDATALOAD PUSH2 0x3D3C DUP2 PUSH2 0x4C58 JUMP JUMPDEST PUSH1 0x0 DUP1 PUSH1 0x40 DUP4 DUP6 SUB SLT ISZERO PUSH2 0x3DC5 JUMPI DUP2 DUP3 REVERT JUMPDEST POP POP DUP1 MLOAD PUSH1 0x20 SWAP1 SWAP2 ADD MLOAD SWAP1 SWAP3 SWAP1 SWAP2 POP JUMP JUMPDEST PUSH1 0x0 DUP1 PUSH1 0x0 DUP1 PUSH1 0x60 DUP6 DUP8 SUB SLT ISZERO PUSH2 0x3DEB JUMPI DUP2 DUP3 REVERT JUMPDEST DUP5 CALLDATALOAD SWAP4 POP PUSH1 0x20 DUP6 ADD CALLDATALOAD SWAP3 POP PUSH1 0x40 DUP6 ADD CALLDATALOAD PUSH8 0xFFFFFFFFFFFFFFFF DUP2 GT ISZERO PUSH2 0x3E0F JUMPI DUP3 DUP4 REVERT JUMPDEST PUSH2 0x3E1B DUP8 DUP3 DUP9 ADD PUSH2 0x3B1A JUMP JUMPDEST SWAP6 SWAP9 SWAP5 SWAP8 POP SWAP6 POP POP POP POP JUMP JUMPDEST PUSH1 0x0 DUP1 PUSH1 0x0 DUP1 PUSH1 0x0 DUP1 PUSH1 0x0 DUP1 PUSH2 0x100 DUP10 DUP12 SUB SLT ISZERO PUSH2 0x3E43 JUMPI DUP6 DUP7 REVERT JUMPDEST DUP9 CALLDATALOAD SWAP8 POP PUSH1 0x20 DUP10 ADD CALLDATALOAD PUSH2 0x3E55 DUP2 PUSH2 0x4C31 JUMP JUMPDEST SWAP7 POP PUSH1 0x40 DUP10 ADD CALLDATALOAD PUSH2 0x3E65 DUP2 PUSH2 0x4C49 JUMP JUMPDEST SWAP6 POP PUSH1 0x60 DUP10 ADD CALLDATALOAD PUSH2 0x3E75 DUP2 PUSH2 0x4C49 JUMP JUMPDEST SWAP5 POP PUSH1 0x80 DUP10 ADD CALLDATALOAD PUSH2 0x3E85 DUP2 PUSH2 0x4C49 JUMP JUMPDEST SWAP4 POP PUSH1 0xA0 DUP10 ADD CALLDATALOAD PUSH2 0x3E95 DUP2 PUSH2 0x4C49 JUMP JUMPDEST SWAP3 POP PUSH1 0xC0 DUP10 ADD CALLDATALOAD PUSH2 0x3EA5 DUP2 PUSH2 0x4C49 JUMP JUMPDEST SWAP2 POP PUSH1 0xE0 DUP10 ADD CALLDATALOAD PUSH2 0x3EB5 DUP2 PUSH2 0x4C49 JUMP JUMPDEST DUP1 SWAP2 POP POP SWAP3 SWAP6 SWAP9 POP SWAP3 SWAP6 SWAP9 SWAP1 SWAP4 SWAP7 POP JUMP JUMPDEST PUSH1 0x0 DUP1 PUSH1 0x40 DUP4 DUP6 SUB SLT ISZERO PUSH2 0x3ED8 JUMPI DUP2 DUP3 REVERT JUMPDEST DUP3 MLOAD PUSH2 0x3EE3 DUP2 PUSH2 0x4C58 JUMP JUMPDEST PUSH1 0x20 DUP5 ADD MLOAD SWAP1 SWAP3 POP PUSH2 0x3BBC DUP2 PUSH2 0x4C58 JUMP JUMPDEST PUSH1 0x0 DUP1 PUSH1 0x0 DUP1 PUSH1 0x0 PUSH1 0xA0 DUP7 DUP9 SUB SLT ISZERO PUSH2 0x3F0B JUMPI DUP3 DUP4 REVERT JUMPDEST DUP6 MLOAD PUSH2 0x3F16 DUP2 PUSH2 0x4C58 JUMP JUMPDEST DUP1 SWAP6 POP POP PUSH1 0x20 DUP7 ADD MLOAD SWAP4 POP PUSH1 0x40 DUP7 ADD MLOAD SWAP3 POP PUSH1 0x60 DUP7 ADD MLOAD PUSH2 0x3F36 DUP2 PUSH2 0x4C58 JUMP JUMPDEST PUSH1 0x80 DUP8 ADD MLOAD SWAP1 SWAP3 POP PUSH2 0x3F47 DUP2 PUSH2 0x4C58 JUMP JUMPDEST DUP1 SWAP2 POP POP SWAP3 SWAP6 POP SWAP3 SWAP6 SWAP1 SWAP4 POP JUMP JUMPDEST PUSH1 0x0 DUP1 PUSH1 0x0 DUP1 PUSH1 0x0 DUP1 PUSH1 0x0 PUSH1 0xE0 DUP9 DUP11 SUB SLT ISZERO PUSH2 0x3F6F JUMPI DUP1 DUP2 REVERT JUMPDEST DUP8 MLOAD PUSH2 0x3F7A DUP2 PUSH2 0x4C31 JUMP JUMPDEST PUSH1 0x20 DUP10 ADD MLOAD SWAP1 SWAP8 POP PUSH2 0x3F8B DUP2 PUSH2 0x4C49 JUMP JUMPDEST SWAP6 POP PUSH2 0x3F99 PUSH1 0x40 DUP10 ADD PUSH2 0x3B61 JUMP JUMPDEST SWAP5 POP PUSH2 0x3FA7 PUSH1 0x60 DUP10 ADD PUSH2 0x3B61 JUMP JUMPDEST SWAP4 POP PUSH2 0x3FB5 PUSH1 0x80 DUP10 ADD PUSH2 0x3B61 JUMP JUMPDEST SWAP3 POP PUSH1 0xA0 DUP9 ADD MLOAD PUSH1 0xFF DUP2 AND DUP2 EQ PUSH2 0x3FCA JUMPI DUP2 DUP3 REVERT JUMPDEST SWAP2 POP PUSH2 0x3FD8 PUSH1 0xC0 DUP10 ADD PUSH2 0x3B0A JUMP JUMPDEST SWAP1 POP SWAP3 SWAP6 SWAP9 SWAP2 SWAP5 SWAP8 POP SWAP3 SWAP6 POP JUMP JUMPDEST PUSH1 0x0 PUSH1 0x20 DUP3 DUP5 SUB SLT ISZERO PUSH2 0x3FF7 JUMPI DUP1 DUP2 REVERT JUMPDEST POP CALLDATALOAD SWAP2 SWAP1 POP JUMP JUMPDEST PUSH1 0x0 PUSH1 0x20 DUP3 DUP5 SUB SLT ISZERO PUSH2 0x400F JUMPI DUP1 DUP2 REVERT JUMPDEST POP MLOAD SWAP2 SWAP1 POP JUMP JUMPDEST PUSH1 0x0 DUP1 PUSH1 0x0 PUSH1 0x60 DUP5 DUP7 SUB SLT ISZERO PUSH2 0x402A JUMPI DUP1 DUP2 REVERT JUMPDEST DUP4 CALLDATALOAD SWAP3 POP PUSH1 0x20 DUP5 ADD CALLDATALOAD SWAP2 POP PUSH1 0x40 DUP5 ADD CALLDATALOAD PUSH2 0x3D3C DUP2 PUSH2 0x4C31 JUMP JUMPDEST PUSH1 0x0 DUP1 PUSH1 0x0 DUP1 PUSH1 0x80 DUP6 DUP8 SUB SLT ISZERO PUSH2 0x4058 JUMPI DUP2 DUP3 REVERT JUMPDEST DUP5 CALLDATALOAD SWAP4 POP PUSH1 0x20 DUP6 ADD CALLDATALOAD SWAP3 POP PUSH1 0x40 DUP6 ADD CALLDATALOAD SWAP2 POP PUSH1 0x60 DUP6 ADD CALLDATALOAD PUSH2 0x4078 DUP2 PUSH2 0x4C31 JUMP JUMPDEST SWAP4 SWAP7 SWAP3 SWAP6 POP SWAP1 SWAP4 POP POP JUMP JUMPDEST PUSH1 0x0 DUP1 PUSH1 0x0 DUP1 PUSH1 0x0 DUP1 PUSH1 0xC0 DUP8 DUP10 SUB SLT ISZERO PUSH2 0x409B JUMPI DUP4 DUP5 REVERT JUMPDEST DUP7 CALLDATALOAD SWAP6 POP PUSH1 0x20 DUP8 ADD CALLDATALOAD SWAP5 POP PUSH1 0x40 DUP8 ADD CALLDATALOAD SWAP4 POP PUSH1 0x60 DUP8 ADD CALLDATALOAD SWAP3 POP PUSH1 0x80 DUP8 ADD CALLDATALOAD SWAP2 POP PUSH1 0xA0 DUP8 ADD CALLDATALOAD PUSH2 0x40C9 DUP2 PUSH2 0x4C31 JUMP JUMPDEST DUP1 SWAP2 POP POP SWAP3 SWAP6 POP SWAP3 SWAP6 POP SWAP3 SWAP6 JUMP JUMPDEST PUSH1 0x60 SWAP4 SWAP1 SWAP4 SHL PUSH12 0xFFFFFFFFFFFFFFFFFFFFFFFF NOT AND DUP4 MSTORE PUSH1 0x2 SWAP2 DUP3 SIGNEXTEND PUSH1 0xE8 SWAP1 DUP2 SHL PUSH1 0x14 DUP6 ADD MSTORE SWAP2 SIGNEXTEND SWAP1 SHL PUSH1 0x17 DUP3 ADD MSTORE PUSH1 0x1A ADD SWAP1 JUMP JUMPDEST PUSH1 0x0 DUP3 MLOAD PUSH2 0x411E DUP2 DUP5 PUSH1 0x20 DUP8 ADD PUSH2 0x4B17 JUMP JUMPDEST SWAP2 SWAP1 SWAP2 ADD SWAP3 SWAP2 POP POP JUMP JUMPDEST PUSH1 0x1 PUSH1 0x1 PUSH1 0xA0 SHL SUB SWAP2 SWAP1 SWAP2 AND DUP2 MSTORE PUSH1 0x20 ADD SWAP1 JUMP JUMPDEST PUSH1 0x1 PUSH1 0x1 PUSH1 0xA0 SHL SUB SWAP4 DUP5 AND DUP2 MSTORE SWAP2 SWAP1 SWAP3 AND PUSH1 0x20 DUP3 ADD MSTORE PUSH1 0x40 DUP2 ADD SWAP2 SWAP1 SWAP2 MSTORE PUSH1 0x60 ADD SWAP1 JUMP JUMPDEST PUSH1 0x1 PUSH1 0x1 PUSH1 0xA0 SHL SUB SWAP5 DUP6 AND DUP2 MSTORE SWAP3 ISZERO ISZERO PUSH1 0x20 DUP5 ADD MSTORE PUSH1 0x40 DUP4 ADD SWAP2 SWAP1 SWAP2 MSTORE SWAP1 SWAP2 AND PUSH1 0x60 DUP3 ADD MSTORE PUSH1 0xA0 PUSH1 0x80 DUP3 ADD DUP2 SWAP1 MSTORE PUSH1 0x0 SWAP1 DUP3 ADD MSTORE PUSH1 0xC0 ADD SWAP1 JUMP JUMPDEST PUSH1 0x1 PUSH1 0x1 PUSH1 0xA0 SHL SUB SWAP5 SWAP1 SWAP5 AND DUP5 MSTORE PUSH1 0x2 SWAP3 DUP4 SIGNEXTEND PUSH1 0x20 DUP6 ADD MSTORE SWAP2 SIGNEXTEND PUSH1 0x40 DUP4 ADD MSTORE PUSH1 0x1 PUSH1 0x1 PUSH1 0x80 SHL SUB AND PUSH1 0x60 DUP3 ADD MSTORE PUSH1 0xA0 PUSH1 0x80 DUP3 ADD DUP2 SWAP1 MSTORE PUSH1 0x0 SWAP1 DUP3 ADD MSTORE PUSH1 0xC0 ADD SWAP1 JUMP JUMPDEST PUSH1 0x1 PUSH1 0x1 PUSH1 0xA0 SHL SUB SWAP6 SWAP1 SWAP6 AND DUP6 MSTORE PUSH1 0x2 SWAP4 DUP5 SIGNEXTEND PUSH1 0x20 DUP7 ADD MSTORE SWAP2 SWAP1 SWAP3 SIGNEXTEND PUSH1 0x40 DUP5 ADD MSTORE PUSH1 0x1 PUSH1 0x1 PUSH1 0x80 SHL SUB SWAP2 DUP3 AND PUSH1 0x60 DUP5 ADD MSTORE AND PUSH1 0x80 DUP3 ADD MSTORE PUSH1 0xA0 ADD SWAP1 JUMP JUMPDEST PUSH1 0x1 PUSH1 0x1 PUSH1 0xA0 SHL SUB SWAP3 SWAP1 SWAP3 AND DUP3 MSTORE PUSH1 0x20 DUP3 ADD MSTORE PUSH1 0x40 ADD SWAP1 JUMP JUMPDEST SWAP1 ISZERO ISZERO DUP2 MSTORE PUSH1 0x20 ADD SWAP1 JUMP JUMPDEST SWAP1 DUP2 MSTORE PUSH1 0x20 ADD SWAP1 JUMP JUMPDEST PUSH1 0x2 SWAP2 SWAP1 SWAP2 SIGNEXTEND DUP2 MSTORE PUSH1 0x20 ADD SWAP1 JUMP JUMPDEST PUSH1 0x2 SWAP4 DUP5 SIGNEXTEND DUP2 MSTORE SWAP2 SWAP1 SWAP3 SIGNEXTEND PUSH1 0x20 DUP3 ADD MSTORE PUSH1 0x1 PUSH1 0x1 PUSH1 0x80 SHL SUB SWAP1 SWAP2 AND PUSH1 0x40 DUP3 ADD MSTORE PUSH1 0x60 ADD SWAP1 JUMP JUMPDEST PUSH1 0x2 SWAP5 SWAP1 SWAP5 SIGNEXTEND DUP5 MSTORE PUSH1 0x20 DUP5 ADD SWAP3 SWAP1 SWAP3 MSTORE PUSH1 0x40 DUP4 ADD MSTORE PUSH1 0x60 DUP3 ADD MSTORE PUSH1 0x80 ADD SWAP1 JUMP JUMPDEST PUSH1 0x0 PUSH1 0x20 DUP3 MSTORE DUP3 MLOAD DUP1 PUSH1 0x20 DUP5 ADD MSTORE PUSH2 0x42B9 DUP2 PUSH1 0x40 DUP6 ADD PUSH1 0x20 DUP8 ADD PUSH2 0x4B17 JUMP JUMPDEST PUSH1 0x1F ADD PUSH1 0x1F NOT AND SWAP2 SWAP1 SWAP2 ADD PUSH1 0x40 ADD SWAP3 SWAP2 POP POP JUMP JUMPDEST PUSH1 0x20 DUP1 DUP3 MSTORE PUSH1 0x23 SWAP1 DUP3 ADD MSTORE PUSH32 0x45524332303A207472616E7366657220746F20746865207A65726F2061646472 PUSH1 0x40 DUP3 ADD MSTORE PUSH3 0x657373 PUSH1 0xE8 SHL PUSH1 0x60 DUP3 ADD MSTORE PUSH1 0x80 ADD SWAP1 JUMP JUMPDEST PUSH1 0x20 DUP1 DUP3 MSTORE PUSH1 0xA SWAP1 DUP3 ADD MSTORE PUSH10 0x30B6B7BAB73A1826B4B7 PUSH1 0xB1 SHL PUSH1 0x40 DUP3 ADD MSTORE PUSH1 0x60 ADD SWAP1 JUMP JUMPDEST PUSH1 0x20 DUP1 DUP3 MSTORE PUSH1 0x22 SWAP1 DUP3 ADD MSTORE PUSH32 0x45524332303A206275726E20616D6F756E7420657863656564732062616C616E PUSH1 0x40 DUP3 ADD MSTORE PUSH2 0x6365 PUSH1 0xF0 SHL PUSH1 0x60 DUP3 ADD MSTORE PUSH1 0x80 ADD SWAP1 JUMP JUMPDEST PUSH1 0x20 DUP1 DUP3 MSTORE PUSH1 0x2 SWAP1 DUP3 ADD MSTORE PUSH2 0x746F PUSH1 0xF0 SHL PUSH1 0x40 DUP3 ADD MSTORE PUSH1 0x60 ADD SWAP1 JUMP JUMPDEST PUSH1 0x20 DUP1 DUP3 MSTORE PUSH1 0x15 SWAP1 DUP3 ADD MSTORE PUSH21 0x3A34B1B5A637BBB2B9101E103A34B1B5AAB83832B9 PUSH1 0x59 SHL PUSH1 0x40 DUP3 ADD MSTORE PUSH1 0x60 ADD SWAP1 JUMP JUMPDEST PUSH1 0x20 DUP1 DUP3 MSTORE PUSH1 0x22 SWAP1 DUP3 ADD MSTORE PUSH32 0x45524332303A20617070726F766520746F20746865207A65726F206164647265 PUSH1 0x40 DUP3 ADD MSTORE PUSH2 0x7373 PUSH1 0xF0 SHL PUSH1 0x60 DUP3 ADD MSTORE PUSH1 0x80 ADD SWAP1 JUMP JUMPDEST PUSH1 0x20 DUP1 DUP3 MSTORE PUSH1 0x17 SWAP1 DUP3 ADD MSTORE PUSH32 0x7469636B4C6F7765722025207469636B53706163696E67000000000000000000 PUSH1 0x40 DUP3 ADD MSTORE PUSH1 0x60 ADD SWAP1 JUMP JUMPDEST PUSH1 0x20 DUP1 DUP3 MSTORE PUSH1 0xD SWAP1 DUP3 ADD MSTORE PUSH13 0x73776170706564536861726573 PUSH1 0x98 SHL PUSH1 0x40 DUP3 ADD MSTORE PUSH1 0x60 ADD SWAP1 JUMP JUMPDEST PUSH1 0x20 DUP1 DUP3 MSTORE PUSH1 0x1D SWAP1 DUP3 ADD MSTORE PUSH32 0x45524332303A20696E73756666696369656E7420616C6C6F77616E6365000000 PUSH1 0x40 DUP3 ADD MSTORE PUSH1 0x60 ADD SWAP1 JUMP JUMPDEST PUSH1 0x20 DUP1 DUP3 MSTORE PUSH1 0x17 SWAP1 DUP3 ADD MSTORE PUSH32 0x7469636B55707065722025207469636B53706163696E67000000000000000000 PUSH1 0x40 DUP3 ADD MSTORE PUSH1 0x60 ADD SWAP1 JUMP JUMPDEST PUSH1 0x20 DUP1 DUP3 MSTORE PUSH1 0x26 SWAP1 DUP3 ADD MSTORE PUSH32 0x45524332303A207472616E7366657220616D6F756E7420657863656564732062 PUSH1 0x40 DUP3 ADD MSTORE PUSH6 0x616C616E6365 PUSH1 0xD0 SHL PUSH1 0x60 DUP3 ADD MSTORE PUSH1 0x80 ADD SWAP1 JUMP JUMPDEST PUSH1 0x20 DUP1 DUP3 MSTORE PUSH1 0x8 SWAP1 DUP3 ADD MSTORE PUSH8 0x3134B22AB83832B9 PUSH1 0xC1 SHL PUSH1 0x40 DUP3 ADD MSTORE PUSH1 0x60 ADD SWAP1 JUMP JUMPDEST PUSH1 0x20 DUP1 DUP3 MSTORE PUSH1 0x26 SWAP1 DUP3 ADD MSTORE PUSH32 0x416464726573733A20696E73756666696369656E742062616C616E636520666F PUSH1 0x40 DUP3 ADD MSTORE PUSH6 0x1C8818D85B1B PUSH1 0xD2 SHL PUSH1 0x60 DUP3 ADD MSTORE PUSH1 0x80 ADD SWAP1 JUMP JUMPDEST PUSH1 0x20 DUP1 DUP3 MSTORE DUP2 DUP2 ADD MSTORE PUSH32 0x616D6F756E743044657369726564206F7220616D6F756E743144657369726564 PUSH1 0x40 DUP3 ADD MSTORE PUSH1 0x60 ADD SWAP1 JUMP JUMPDEST PUSH1 0x20 DUP1 DUP3 MSTORE PUSH1 0x11 SWAP1 DUP3 ADD MSTORE PUSH17 0x70656E64696E67476F7665726E616E6365 PUSH1 0x78 SHL PUSH1 0x40 DUP3 ADD MSTORE PUSH1 0x60 ADD SWAP1 JUMP JUMPDEST PUSH1 0x20 DUP1 DUP3 MSTORE PUSH1 0x12 SWAP1 DUP3 ADD MSTORE PUSH18 0x616D6F756E7430206F7220616D6F756E7431 PUSH1 0x70 SHL PUSH1 0x40 DUP3 ADD MSTORE PUSH1 0x60 ADD SWAP1 JUMP JUMPDEST PUSH1 0x20 DUP1 DUP3 MSTORE PUSH1 0xB SWAP1 DUP3 ADD MSTORE PUSH11 0x70726F746F636F6C466565 PUSH1 0xA8 SHL PUSH1 0x40 DUP3 ADD MSTORE PUSH1 0x60 ADD SWAP1 JUMP JUMPDEST PUSH1 0x20 DUP1 DUP3 MSTORE PUSH1 0x5 SWAP1 DUP3 ADD MSTORE PUSH5 0x3A37B5B2B7 PUSH1 0xD9 SHL PUSH1 0x40 DUP3 ADD MSTORE PUSH1 0x60 ADD SWAP1 JUMP JUMPDEST PUSH1 0x20 DUP1 DUP3 MSTORE PUSH1 0x1B SWAP1 DUP3 ADD MSTORE PUSH32 0x61746C65617374206F6E6520746F6B656E206973206E65656465640000000000 PUSH1 0x40 DUP3 ADD MSTORE PUSH1 0x60 ADD SWAP1 JUMP JUMPDEST PUSH1 0x20 DUP1 DUP3 MSTORE PUSH1 0xC SWAP1 DUP3 ADD MSTORE PUSH12 0x29B430B93832A5B2B2B832B9 PUSH1 0xA1 SHL PUSH1 0x40 DUP3 ADD MSTORE PUSH1 0x60 ADD SWAP1 JUMP JUMPDEST PUSH1 0x20 DUP1 DUP3 MSTORE PUSH1 0xA SWAP1 DUP3 ADD MSTORE PUSH10 0x676F7665726E616E6365 PUSH1 0xB0 SHL PUSH1 0x40 DUP3 ADD MSTORE PUSH1 0x60 ADD SWAP1 JUMP JUMPDEST PUSH1 0x20 DUP1 DUP3 MSTORE PUSH1 0x6 SWAP1 DUP3 ADD MSTORE PUSH6 0x736861726573 PUSH1 0xD0 SHL PUSH1 0x40 DUP3 ADD MSTORE PUSH1 0x60 ADD SWAP1 JUMP JUMPDEST PUSH1 0x20 DUP1 DUP3 MSTORE PUSH1 0x21 SWAP1 DUP3 ADD MSTORE PUSH32 0x45524332303A206275726E2066726F6D20746865207A65726F20616464726573 PUSH1 0x40 DUP3 ADD MSTORE PUSH1 0x73 PUSH1 0xF8 SHL PUSH1 0x60 DUP3 ADD MSTORE PUSH1 0x80 ADD SWAP1 JUMP JUMPDEST PUSH1 0x20 DUP1 DUP3 MSTORE PUSH1 0x5 SWAP1 DUP3 ADD MSTORE PUSH5 0x63726F7373 PUSH1 0xD8 SHL PUSH1 0x40 DUP3 ADD MSTORE PUSH1 0x60 ADD SWAP1 JUMP JUMPDEST PUSH1 0x20 DUP1 DUP3 MSTORE PUSH1 0x25 SWAP1 DUP3 ADD MSTORE PUSH32 0x45524332303A207472616E736665722066726F6D20746865207A65726F206164 PUSH1 0x40 DUP3 ADD MSTORE PUSH5 0x6472657373 PUSH1 0xD8 SHL PUSH1 0x60 DUP3 ADD MSTORE PUSH1 0x80 ADD SWAP1 JUMP JUMPDEST PUSH1 0x20 DUP1 DUP3 MSTORE PUSH1 0xA SWAP1 DUP3 ADD MSTORE PUSH10 0x30B6B7BAB73A18A6B4B7 PUSH1 0xB1 SHL PUSH1 0x40 DUP3 ADD MSTORE PUSH1 0x60 ADD SWAP1 JUMP JUMPDEST PUSH1 0x20 DUP1 DUP3 MSTORE PUSH1 0x8 SWAP1 DUP3 ADD MSTORE PUSH8 0x30B9B5A637BBB2B9 PUSH1 0xC1 SHL PUSH1 0x40 DUP3 ADD MSTORE PUSH1 0x60 ADD SWAP1 JUMP JUMPDEST PUSH1 0x20 DUP1 DUP3 MSTORE PUSH1 0x11 SWAP1 DUP3 ADD MSTORE PUSH17 0x7469636B4C6F77657220746F6F206C6F77 PUSH1 0x78 SHL PUSH1 0x40 DUP3 ADD MSTORE PUSH1 0x60 ADD SWAP1 JUMP JUMPDEST PUSH1 0x20 DUP1 DUP3 MSTORE PUSH1 0x24 SWAP1 DUP3 ADD MSTORE PUSH32 0x45524332303A20617070726F76652066726F6D20746865207A65726F20616464 PUSH1 0x40 DUP3 ADD MSTORE PUSH4 0x72657373 PUSH1 0xE0 SHL PUSH1 0x60 DUP3 ADD MSTORE PUSH1 0x80 ADD SWAP1 JUMP JUMPDEST PUSH1 0x20 DUP1 DUP3 MSTORE PUSH1 0x12 SWAP1 DUP3 ADD MSTORE PUSH18 0xE8D2C6D6AAE0E0CAE440E8DEDE40D0D2CED PUSH1 0x73 SHL PUSH1 0x40 DUP3 ADD MSTORE PUSH1 0x60 ADD SWAP1 JUMP JUMPDEST PUSH1 0x20 DUP1 DUP3 MSTORE PUSH1 0x1D SWAP1 DUP3 ADD MSTORE PUSH32 0x416464726573733A2063616C6C20746F206E6F6E2D636F6E7472616374000000 PUSH1 0x40 DUP3 ADD MSTORE PUSH1 0x60 ADD SWAP1 JUMP JUMPDEST PUSH1 0x20 DUP1 DUP3 MSTORE PUSH1 0xE SWAP1 DUP3 ADD MSTORE PUSH14 0x6D6178546F74616C537570706C79 PUSH1 0x90 SHL PUSH1 0x40 DUP3 ADD MSTORE PUSH1 0x60 ADD SWAP1 JUMP JUMPDEST PUSH1 0x20 DUP1 DUP3 MSTORE PUSH1 0x2A SWAP1 DUP3 ADD MSTORE PUSH32 0x5361666545524332303A204552433230206F7065726174696F6E20646964206E PUSH1 0x40 DUP3 ADD MSTORE PUSH10 0x1BDD081CDD58D8D95959 PUSH1 0xB2 SHL PUSH1 0x60 DUP3 ADD MSTORE PUSH1 0x80 ADD SWAP1 JUMP JUMPDEST PUSH1 0x20 DUP1 DUP3 MSTORE PUSH1 0x1F SWAP1 DUP3 ADD MSTORE PUSH32 0x5265656E7472616E637947756172643A207265656E7472616E742063616C6C00 PUSH1 0x40 DUP3 ADD MSTORE PUSH1 0x60 ADD SWAP1 JUMP JUMPDEST PUSH1 0x20 DUP1 DUP3 MSTORE PUSH1 0x25 SWAP1 DUP3 ADD MSTORE PUSH32 0x45524332303A2064656372656173656420616C6C6F77616E63652062656C6F77 PUSH1 0x40 DUP3 ADD MSTORE PUSH5 0x207A65726F PUSH1 0xD8 SHL PUSH1 0x60 DUP3 ADD MSTORE PUSH1 0x80 ADD SWAP1 JUMP JUMPDEST PUSH1 0x20 DUP1 DUP3 MSTORE PUSH1 0x1F SWAP1 DUP3 ADD MSTORE PUSH32 0x45524332303A206D696E7420746F20746865207A65726F206164647265737300 PUSH1 0x40 DUP3 ADD MSTORE PUSH1 0x60 ADD SWAP1 JUMP JUMPDEST SWAP2 DUP3 MSTORE PUSH1 0x20 DUP3 ADD MSTORE PUSH1 0x40 ADD SWAP1 JUMP JUMPDEST PUSH1 0x0 PUSH1 0xA0 DUP3 ADD DUP8 DUP4 MSTORE PUSH1 0x20 DUP8 DUP2 DUP6 ADD MSTORE PUSH1 0xA0 PUSH1 0x40 DUP6 ADD MSTORE DUP2 DUP8 MLOAD DUP1 DUP5 MSTORE PUSH1 0xC0 DUP7 ADD SWAP2 POP DUP3 DUP10 ADD SWAP4 POP DUP5 JUMPDEST DUP2 DUP2 LT ISZERO PUSH2 0x4A2D JUMPI DUP5 MLOAD PUSH1 0x1 PUSH1 0x1 PUSH1 0xA0 SHL SUB AND DUP4 MSTORE SWAP4 DUP4 ADD SWAP4 SWAP2 DUP4 ADD SWAP2 PUSH1 0x1 ADD PUSH2 0x4A08 JUMP JUMPDEST POP POP PUSH1 0x1 PUSH1 0x1 PUSH1 0xA0 SHL SUB SWAP7 SWAP1 SWAP7 AND PUSH1 0x60 DUP6 ADD MSTORE POP POP POP PUSH1 0x80 ADD MSTORE SWAP4 SWAP3 POP POP POP JUMP JUMPDEST SWAP3 DUP4 MSTORE PUSH1 0x20 DUP4 ADD SWAP2 SWAP1 SWAP2 MSTORE PUSH1 0x40 DUP3 ADD MSTORE PUSH1 0x60 ADD SWAP1 JUMP JUMPDEST SWAP4 DUP5 MSTORE PUSH1 0x20 DUP5 ADD SWAP3 SWAP1 SWAP3 MSTORE PUSH1 0x40 DUP4 ADD MSTORE PUSH1 0x60 DUP3 ADD MSTORE PUSH1 0x80 ADD SWAP1 JUMP JUMPDEST PUSH1 0xFF SWAP2 SWAP1 SWAP2 AND DUP2 MSTORE PUSH1 0x20 ADD SWAP1 JUMP JUMPDEST PUSH1 0x0 DUP3 NOT DUP3 GT ISZERO PUSH2 0x4AA0 JUMPI PUSH2 0x4AA0 PUSH2 0x4BEF JUMP JUMPDEST POP ADD SWAP1 JUMP JUMPDEST PUSH1 0x0 DUP3 PUSH2 0x4AB4 JUMPI PUSH2 0x4AB4 PUSH2 0x4C05 JUMP JUMPDEST POP DIV SWAP1 JUMP JUMPDEST PUSH1 0x0 DUP2 PUSH1 0x0 NOT DIV DUP4 GT DUP3 ISZERO ISZERO AND ISZERO PUSH2 0x4AD3 JUMPI PUSH2 0x4AD3 PUSH2 0x4BEF JUMP JUMPDEST POP MUL SWAP1 JUMP JUMPDEST PUSH1 0x0 PUSH1 0x1 PUSH1 0x1 PUSH1 0xA0 SHL SUB DUP4 DUP2 AND SWAP1 DUP4 AND DUP2 DUP2 LT ISZERO PUSH2 0x4AF8 JUMPI PUSH2 0x4AF8 PUSH2 0x4BEF JUMP JUMPDEST SUB SWAP4 SWAP3 POP POP POP JUMP JUMPDEST PUSH1 0x0 DUP3 DUP3 LT ISZERO PUSH2 0x4B12 JUMPI PUSH2 0x4B12 PUSH2 0x4BEF JUMP JUMPDEST POP SUB SWAP1 JUMP JUMPDEST PUSH1 0x0 JUMPDEST DUP4 DUP2 LT ISZERO PUSH2 0x4B32 JUMPI DUP2 DUP2 ADD MLOAD DUP4 DUP3 ADD MSTORE PUSH1 0x20 ADD PUSH2 0x4B1A JUMP JUMPDEST DUP4 DUP2 GT ISZERO PUSH2 0x2137 JUMPI POP POP PUSH1 0x0 SWAP2 ADD MSTORE JUMP JUMPDEST PUSH1 0x2 DUP2 DIV PUSH1 0x1 DUP3 AND DUP1 PUSH2 0x4B57 JUMPI PUSH1 0x7F DUP3 AND SWAP2 POP JUMPDEST PUSH1 0x20 DUP3 LT DUP2 EQ ISZERO PUSH2 0x4B78 JUMPI PUSH4 0x4E487B71 PUSH1 0xE0 SHL PUSH1 0x0 MSTORE PUSH1 0x22 PUSH1 0x4 MSTORE PUSH1 0x24 PUSH1 0x0 REVERT JUMPDEST POP SWAP2 SWAP1 POP JUMP JUMPDEST PUSH1 0x0 DUP3 PUSH1 0x2 SIGNEXTEND DUP1 PUSH2 0x4B91 JUMPI PUSH2 0x4B91 PUSH2 0x4C05 JUMP JUMPDEST DUP1 DUP4 PUSH1 0x2 SIGNEXTEND SMOD SWAP2 POP POP SWAP3 SWAP2 POP POP JUMP JUMPDEST PUSH1 0x0 DUP3 PUSH2 0x4BAF JUMPI PUSH2 0x4BAF PUSH2 0x4C05 JUMP JUMPDEST POP MOD SWAP1 JUMP JUMPDEST PUSH1 0x0 DUP2 PUSH1 0x2 SIGNEXTEND PUSH3 0x7FFFFF NOT DUP2 EQ ISZERO PUSH2 0x4BCE JUMPI PUSH2 0x4BCE PUSH2 0x4BEF JUMP JUMPDEST SWAP1 SUB SWAP2 SWAP1 POP JUMP JUMPDEST PUSH1 0x0 PUSH1 0x1 PUSH1 0xFF SHL DUP3 EQ ISZERO PUSH2 0x4BEB JUMPI PUSH2 0x4BEB PUSH2 0x4BEF JUMP JUMPDEST SUB SWAP1 JUMP JUMPDEST PUSH4 0x4E487B71 PUSH1 0xE0 SHL PUSH1 0x0 MSTORE PUSH1 0x11 PUSH1 0x4 MSTORE PUSH1 0x24 PUSH1 0x0 REVERT JUMPDEST PUSH4 0x4E487B71 PUSH1 0xE0 SHL PUSH1 0x0 MSTORE PUSH1 0x12 PUSH1 0x4 MSTORE PUSH1 0x24 PUSH1 0x0 REVERT JUMPDEST PUSH4 0x4E487B71 PUSH1 0xE0 SHL PUSH1 0x0 MSTORE PUSH1 0x41 PUSH1 0x4 MSTORE PUSH1 0x24 PUSH1 0x0 REVERT JUMPDEST PUSH1 0x1 PUSH1 0x1 PUSH1 0xA0 SHL SUB DUP2 AND DUP2 EQ PUSH2 0x4C46 JUMPI PUSH1 0x0 DUP1 REVERT JUMPDEST POP JUMP JUMPDEST DUP1 PUSH1 0x2 SIGNEXTEND DUP2 EQ PUSH2 0x4C46 JUMPI PUSH1 0x0 DUP1 REVERT JUMPDEST PUSH1 0x1 PUSH1 0x1 PUSH1 0x80 SHL SUB DUP2 AND DUP2 EQ PUSH2 0x4C46 JUMPI PUSH1 0x0 DUP1 REVERT INVALID LOG2 PUSH5 0x6970667358 0x22 SLT KECCAK256 0xBE 0xD 0xCA 0xE1 PUSH3 0xBD97A9 0xB1 0xEC PUSH29 0xBA0E7CCE30B93602A817F53B1501B93700FD8754FE64736F6C63430008 STOP STOP CALLER ","sha1":"8ac5c9aeba059c3b27f56366742536c98021d049","source":"// SPDX-License-Identifier: Unlicense\npragma solidity ^0.8.0;\nimport \"@openzeppelin/contracts/security/ReentrancyGuard.sol\";\nimport \"@uniswap/v3-core/contracts/interfaces/callback/IUniswapV3MintCallback.sol\";\nimport \"@uniswap/v3-core/contracts/interfaces/callback/IUniswapV3SwapCallback.sol\";\nimport \"@openzeppelin/contracts/token/ERC20/ERC20.sol\";\nimport \"@openzeppelin/contracts/token/ERC20/IERC20.sol\";\nimport \"@openzeppelin/contracts/token/ERC20/utils/SafeERC20.sol\";\nimport \"@openzeppelin/contracts/utils/math/SafeMath.sol\";\nimport \"@uniswap/v3-core/contracts/interfaces/IUniswapV3Pool.sol\";\nimport \"@openzeppelin/contracts/utils/math/Math.sol\";\nimport \"@uniswap/v3-core/contracts/libraries/TickMath.sol\";\nimport \"@openzeppelin/contracts/token/ERC20/extensions/IERC20Metadata.sol\";\nimport \"@openzeppelin/contracts/utils/Context.sol\";\nimport \"@openzeppelin/contracts/utils/Address.sol\";\nimport \"@openzeppelin/contracts/token/ERC20/utils/SafeERC20.sol\";\nimport \"@uniswap/v3-core/contracts/interfaces/pool/IUniswapV3PoolImmutables.sol\";\nimport \"@uniswap/v3-core/contracts/interfaces/pool/IUniswapV3PoolState.sol\";\nimport \"@uniswap/v3-core/contracts/interfaces/pool/IUniswapV3PoolDerivedState.sol\";\nimport \"@uniswap/v3-core/contracts/interfaces/pool/IUniswapV3PoolActions.sol\";\nimport \"@uniswap/v3-core/contracts/interfaces/pool/IUniswapV3PoolOwnerActions.sol\";\nimport \"@uniswap/v3-core/contracts/interfaces/pool/IUniswapV3PoolEvents.sol\";\nimport \"@uniswap/v3-periphery/contracts/libraries/LiquidityAmounts.sol\";\nimport \"@uniswap/v3-periphery/contracts/libraries/PositionKey.sol\";\nimport \"../interfaces/IVault.sol\";\nimport \"../interfaces/IUniswapV2Router01.sol\";\n\ncontract Sharpe is IVault,IUniswapV3MintCallback,IUniswapV3SwapCallback,ERC20,ReentrancyGuard{\n    using SafeERC20 for IERC20;\n    using SafeMath for uint256;\n    event Deposit(address indexed sender,address indexed to,uint256 shares,uint256 amount0,uint256 amount1);\n    event Withdraw(address indexed sender,address indexed to,uint256 shares,uint256 amount0,uint256 amount1);\n    event CollectFees(uint256 feesToVault0,uint256 feesToVault1,uint256 feesToProtocol0,uint256 feesToProtocol1);\n    event Snapshot(int24 tick, uint256 totalAmount0, uint256 totalAmount1, uint256 totalSupply);\n    IUniswapV3Pool public immutable pool;\n    IUniswapV2Router01 public immutable router;\n    IERC20 public immutable token0;\n    IERC20 public immutable token1;\n    int24 public immutable tickSpacing;\n    uint256 public protocolFee;\n    uint256 public maxTotalSupply;\n    address public SharpeKeeper;\n    address public governance;\n    address public pendingGovernance;\n    address public immutable token0Address;\n    address public immutable token1Address;\n    address public immutable routerAddress;\n    int24 public baseLower;\n    int24 public baseUpper;\n    int24 public limitLower;\n    int24 public limitUpper;\n    uint256 public accruedProtocolFees0;\n    uint256 public accruedProtocolFees1;\n    /**\n     * This vault is mainly for stablecoin pairs\n     * dev After deploying, strategy needs to be set by offchain devs\n     * param _pool Underlying Uniswap V3 pool\n     * param _router Underlying Uniswap V2 router\n     * param _protocolFee Protocol fee expressed as multiple of 1e-6\n     * param _maxTotalSupply Cap on total supply\n     */\n    constructor(\n        address _pool,\n        address _router,\n        uint256 _protocolFee,\n        uint256 _maxTotalSupply\n    ) ERC20(\"Sharpe\", \"SHRP\") {\n        pool = IUniswapV3Pool(_pool);\n        router = IUniswapV2Router01(_router);\n        token0 = IERC20(IUniswapV3Pool(_pool).token0());\n        token1 = IERC20(IUniswapV3Pool(_pool).token1());\n        token0Address = IUniswapV3Pool(_pool).token0();\n        token1Address = IUniswapV3Pool(_pool).token1();\n        routerAddress = _router;\n        tickSpacing = IUniswapV3Pool(_pool).tickSpacing();\n        protocolFee = _protocolFee;\n        maxTotalSupply = _maxTotalSupply;\n        governance = msg.sender;\n        require(_protocolFee < 1e6, \"protocolFee\");\n    }\n    /**\n     * @notice Deposits tokens in proportion to the vault's current holdings.\n     * @dev These tokens sit in the vault and are not used for liquidity on Uniswap until the next rebalance.\n     * Also note it's not necessary to check if user manipulated price to deposit cheaper, as the value of range\n     * orders can only by manipulated higher.\n     * In a scenario where user has only one of each tokens the vault performs\n     * a swap on their behalf at point of deposit.\n     * @param amount0Desired Max amount of token0 to deposit\n     * @param amount1Desired Max amount of token1 to deposit\n     * @param amount0Min Revert if resulting `amount0` is less than this\n     * @param amount1Min Revert if resulting `amount1` is less than this\n     * @param swapMin minimum amount of token1 or token2 output after a swap\n     * @param to Recipient of shares\n     * @return shares Number of shares minted\n     * @return amount0 Amount of token0 deposited\n     * @return amount1 Amount of token1 deposited\n     */\n    function deposit(uint256 amount0Desired,uint256 amount1Desired,uint256 amount0Min,uint256 amount1Min,uint256 swapMin, address to)\n        external override nonReentrant\n        returns (uint256 shares,uint256 amount0,uint256 amount1)\n    {\n        require(amount0Desired > 0 || amount1Desired > 0, \"amount0Desired or amount1Desired\");\n        require(to != address(0) && to != address(this), \"to\");\n        // Poke positions so vault's current holdings are up-to-date\n        _poke(baseLower, baseUpper);\n        _poke(limitLower, limitUpper);\n        // Calculate amounts proportional to vault's holdings\n        (shares, amount0, amount1) = _calcSharesAndAmounts(amount0Desired, amount1Desired);\n        require(amount0 >= amount0Min, \"amount0Min\");\n        require(amount1 >= amount1Min, \"amount1Min\");\n        if (shares == 0){ //when only amount1 or amount2 available splits the amount in two and performs a swap\n            require((amount0 > 0 && amount1 == 0) || (amount1 > 0 && amount0 == 0), \"amount0 or amount1\");\n            uint256 totalSupply = totalSupply();\n            (uint256 total0, uint256 total1) = getTotalAmounts();\n\n            if (amount0 > 0 && amount1 == 0){\n                uint256 amount0ToStore = amount0.div(2);\n                uint256 difference = amount0.sub(amount0ToStore); //the difference is the amount to send to uniswap v2 for swap\n                token0.safeTransferFrom(msg.sender, address(this), amount0); //pulls in single token from recipient\n                token0.approve(routerAddress, difference); //approves router to perform the swap\n                address[] memory path = new address[](2);\n                path[0] = token0Address;\n                path[1] = token1Address;\n                uint[] memory amount1ToStore = router.swapExactTokensForTokens(difference,swapMin,path,address(this), block.timestamp); //swaps the difference\n                //calculate shares and this time shares should be more than zero\n                (shares, amount0, amount1) = _calcSharesAndAmounts(amount0ToStore, amount1ToStore[1]);\n                require(shares > 0, \"swappedShares\");\n                uint256 dust0 = amount0ToStore.sub(amount0);\n                uint256 dust1 = amount1ToStore[1].sub(amount1);\n                // Send any dust from swap transaction back to recipient\n                if (dust0 > 0) token0.safeTransfer(to, dust0);\n                if (dust1 > 0) token1.safeTransfer(to, dust1);\n                // Mint shares to recipient\n                _mint(to, shares);\n                emit Deposit(msg.sender, to, shares, amount0, amount1);\n                require(totalSupply.add(shares) <= maxTotalSupply, \"maxTotalSupply\");\n            }\n            else {\n                uint256 amount1ToStore = amount1.div(2);\n                uint256 difference = amount1.sub(amount1ToStore);\n                token1.safeTransferFrom(msg.sender, address(this), amount1);\n                token1.approve(routerAddress, difference);\n                address[] memory path = new address[](2);\n                path[0] = token1Address;\n                path[1] = token0Address;\n                uint[] memory amount0ToStore = router.swapExactTokensForTokens(difference,swapMin,path,address(this), block.timestamp);\n                (shares, amount0, amount1) = _calcSharesAndAmounts(amount0ToStore[1], amount1ToStore);\n                require(shares > 0, \"swappedShares\");\n                uint256 dust0 = amount0ToStore[1].sub(amount0);\n                uint256 dust1 = amount1ToStore.sub(amount1);\n                // Send any dust from swap transaction back to recipient\n                if (dust0 > 0) token0.safeTransfer(to, dust0);\n                if (dust1 > 0) token1.safeTransfer(to, dust1);\n                // Mint shares to recipient\n                _mint(to, shares);\n                emit Deposit(msg.sender, to, shares, amount0, amount1);\n                require(totalSupply.add(shares) <= maxTotalSupply, \"maxTotalSupply\");\n            }\n        }\n        else { //when both tokens are already available\n            require(shares > 0, \"shares\");\n            // Pull in tokens from sender\n            if (amount0 > 0) token0.safeTransferFrom(msg.sender, address(this), amount0);\n            if (amount1 > 0) token1.safeTransferFrom(msg.sender, address(this), amount1);\n            // Mint shares to recipient\n            _mint(to, shares);\n            emit Deposit(msg.sender, to, shares, amount0, amount1);\n            require(totalSupply() <= maxTotalSupply, \"maxTotalSupply\");\n            }\n    }\n    /// @dev Do zero-burns to poke a position on Uniswap so earned fees are\n    /// updated. Should be called if total amounts needs to include up-to-date fees.\n    function _poke(int24 tickLower, int24 tickUpper) internal {\n        (uint128 liquidity, , , , ) = _position(tickLower, tickUpper);\n        if (liquidity > 0) {\n            pool.burn(tickLower, tickUpper, 0);\n        }\n    }\n    /// @dev Calculates the largest possible `amount0` and `amount1` such that\n    /// they're in the same proportion as total amounts, but not greater than\n    /// `amount0Desired` and `amount1Desired` respectively.\n    function _calcSharesAndAmounts(uint256 amount0Desired, uint256 amount1Desired) internal view\n        returns (uint256 shares,uint256 amount0,uint256 amount1)\n    {\n        uint256 totalSupply = totalSupply();\n        (uint256 total0, uint256 total1) = getTotalAmounts();\n\n        // If total supply > 0, vault can't be empty\n        assert(totalSupply == 0 || total0 > 0 || total1 > 0);\n        if (totalSupply == 0) {\n            // For first deposit, just use the amounts desired\n            amount0 = amount0Desired;\n            amount1 = amount1Desired;\n            shares = Math.max(amount0, amount1);\n        } else if (total0 == 0) {\n            amount1 = amount1Desired;\n            shares = amount1.mul(totalSupply).div(total1);\n        } else if (total1 == 0) {\n            amount0 = amount0Desired;\n            shares = amount0.mul(totalSupply).div(total0);\n        } else {\n            require(amount0Desired > 0 || amount1Desired > 0, \"atleast one token is needed\");\n            uint256 cross = Math.min(amount0Desired.mul(total1), amount1Desired.mul(total0));\n            if (cross == 0){ //prepares contract to perform a swap with the single token amount given by setting shares to zero\n                amount0 = amount0Desired;\n                amount1 = amount1Desired;\n                shares = 0;\n            }\n            else { //at this point both tokens are available for deposit and the shares are calculated\n                require(cross > 0, \"cross\");\n                // Round up amounts\n                amount0 = cross.sub(1).div(total1).add(1);\n                amount1 = cross.sub(1).div(total0).add(1);\n                shares = cross.mul(totalSupply).div(total0).div(total1);\n            }\n        }\n    }\n    /**\n     * @notice Withdraws tokens in proportion to the vault's holdings.\n     * @param shares Shares burned by sender\n     * @param amount0Min Revert if resulting `amount0` is smaller than this\n     * @param amount1Min Revert if resulting `amount1` is smaller than this\n     * @param to Recipient of tokens\n     * @return amount0 Amount of token0 sent to recipient\n     * @return amount1 Amount of token1 sent to recipient\n     */\n    function withdraw(uint256 shares,uint256 amount0Min,uint256 amount1Min,address to\n) external override nonReentrant returns (uint256 amount0, uint256 amount1) {\n        require(shares > 0, \"shares\");\n        require(to != address(0) && to != address(this), \"to\");\n        uint256 totalSupply = totalSupply();\n\n        // Burn shares\n        _burn(msg.sender, shares);\n\n        // Calculate token amounts proportional to unused balances\n        uint256 unusedAmount0 = getBalance0().mul(shares).div(totalSupply);\n        uint256 unusedAmount1 = getBalance1().mul(shares).div(totalSupply);\n\n        // Withdraw proportion of liquidity from Uniswap pool\n        (uint256 baseAmount0, uint256 baseAmount1) = _burnLiquidityShare(baseLower, baseUpper, shares, totalSupply);\n        (uint256 limitAmount0, uint256 limitAmount1) = _burnLiquidityShare(limitLower, limitUpper, shares, totalSupply);\n        // Sum up total amounts owed to recipient\n        amount0 = unusedAmount0.add(baseAmount0).add(limitAmount0);\n        amount1 = unusedAmount1.add(baseAmount1).add(limitAmount1);\n        require(amount0 >= amount0Min, \"amount0Min\");\n        require(amount1 >= amount1Min, \"amount1Min\");\n        // Push tokens to recipient\n        if (amount0 > 0) token0.safeTransfer(to, amount0);\n        if (amount1 > 0) token1.safeTransfer(to, amount1);\n        emit Withdraw(msg.sender, to, shares, amount0, amount1);\n    }\n    /// @dev Withdraws share of liquidity in a range from Uniswap pool.\n    function _burnLiquidityShare(int24 tickLower,int24 tickUpper,uint256 shares,uint256 totalSupply\n    ) internal returns (uint256 amount0, uint256 amount1) {\n        (uint128 totalLiquidity, , , , ) = _position(tickLower, tickUpper);\n        uint256 liquidity = uint256(totalLiquidity).mul(shares).div(totalSupply);\n        if (liquidity > 0) {\n            (uint256 burned0, uint256 burned1, uint256 fees0, uint256 fees1) = _burnAndCollect(tickLower, tickUpper, _toUint128(liquidity));\n            // Add share of fees\n            amount0 = burned0.add(fees0.mul(shares).div(totalSupply));\n            amount1 = burned1.add(fees1.mul(shares).div(totalSupply));\n        }\n    }\n    /**\n     * @notice Updates vault's positions. Can only be called by the strategy/sharpeKeeper.\n     * @dev Two orders are placed - a base order and a limit order. The base\n     * order is placed first with as much liquidity as possible. This order\n     * should use up all of one token, leaving only the other one. This excess\n     * amount is then placed as a single-sided bid or ask order.\n     */\n    function rebalance(int256 swapAmount,uint160 sqrtPriceLimitX96,int24 _baseLower,int24 _baseUpper,\n        int24 _bidLower,int24 _bidUpper,int24 _askLower,int24 _askUpper\n    ) external nonReentrant{\n        require(msg.sender == SharpeKeeper, \"SharpeKeeper\");\n        _checkRange(_baseLower, _baseUpper);\n        _checkRange(_bidLower, _bidUpper);\n        _checkRange(_askLower, _askUpper);\n        (, int24 tick, , , , , ) = pool.slot0();\n        require(_bidUpper <= tick, \"bidUpper\");\n        require(_askLower > tick, \"askLower\"); // inequality is strict as tick is rounded down\n        // Withdraw all current liquidity from Uniswap pool\n        {\n            (uint128 baseLiquidity, , , , ) = _position(baseLower, baseUpper);\n            (uint128 limitLiquidity, , , , ) = _position(limitLower, limitUpper);\n            _burnAndCollect(baseLower, baseUpper, baseLiquidity);\n            _burnAndCollect(limitLower, limitUpper, limitLiquidity);\n        }\n        // Emit snapshot to record balances and supply\n        uint256 balance0 = getBalance0();\n        uint256 balance1 = getBalance1();\n        emit Snapshot(tick, balance0, balance1, totalSupply());\n        if (swapAmount != 0) {\n            pool.swap(\n                address(this),swapAmount > 0,swapAmount > 0 ? swapAmount : -swapAmount,sqrtPriceLimitX96,\"\");\n            balance0 = getBalance0();\n            balance1 = getBalance1();\n        }\n        // Place base order on Uniswap\n        uint128 liquidity = _liquidityForAmounts(_baseLower, _baseUpper, balance0, balance1);\n        _mintLiquidity(_baseLower, _baseUpper, liquidity);\n        (baseLower, baseUpper) = (_baseLower, _baseUpper);\n        balance0 = getBalance0();\n        balance1 = getBalance1();\n        // Place bid or ask order on Uniswap depending on which token is left\n        uint128 bidLiquidity = _liquidityForAmounts(_bidLower, _bidUpper, balance0, balance1);\n        uint128 askLiquidity = _liquidityForAmounts(_askLower, _askUpper, balance0, balance1);\n        if (bidLiquidity > askLiquidity) {\n            _mintLiquidity(_bidLower, _bidUpper, bidLiquidity);\n            (limitLower, limitUpper) = (_bidLower, _bidUpper);\n        } else {\n            _mintLiquidity(_askLower, _askUpper, askLiquidity);\n            (limitLower, limitUpper) = (_askLower, _askUpper);\n        }\n    }\n    function _checkRange(int24 tickLower, int24 tickUpper) internal view {\n        int24 _tickSpacing = tickSpacing;\n        require(tickLower < tickUpper, \"tickLower < tickUpper\");\n        require(tickLower >= TickMath.MIN_TICK, \"tickLower too low\");\n        require(tickUpper <= TickMath.MAX_TICK, \"tickUpper too high\");\n        require(tickLower % _tickSpacing == 0, \"tickLower % tickSpacing\");\n        require(tickUpper % _tickSpacing == 0, \"tickUpper % tickSpacing\");\n    }\n    /// @dev Withdraws liquidity from a range and collects all fees in the\n    /// process.\n    function _burnAndCollect(int24 tickLower,int24 tickUpper,uint128 liquidity)\n        internal\n        returns (uint256 burned0,uint256 burned1,uint256 feesToVault0,uint256 feesToVault1)\n    {\n        if (liquidity > 0) {\n            (burned0, burned1) = pool.burn(tickLower, tickUpper, liquidity);\n        }\n        // Collect all owed tokens including earned fees\n        (uint256 collect0, uint256 collect1) = pool.collect(address(this),tickLower,tickUpper,type(uint128).max,type(uint128).max);\n        feesToVault0 = collect0.sub(burned0);\n        feesToVault1 = collect1.sub(burned1);\n        uint256 feesToProtocol0;\n        uint256 feesToProtocol1;\n        // Update accrued protocol fees\n        uint256 _protocolFee = protocolFee;\n        if (_protocolFee > 0) {\n            feesToProtocol0 = feesToVault0.mul(_protocolFee).div(1e6);\n            feesToProtocol1 = feesToVault1.mul(_protocolFee).div(1e6);\n            feesToVault0 = feesToVault0.sub(feesToProtocol0);\n            feesToVault1 = feesToVault1.sub(feesToProtocol1);\n            accruedProtocolFees0 = accruedProtocolFees0.add(feesToProtocol0);\n            accruedProtocolFees1 = accruedProtocolFees1.add(feesToProtocol1);\n        }\n        emit CollectFees(feesToVault0, feesToVault1, feesToProtocol0, feesToProtocol1);\n    }\n    /// @dev Deposits liquidity in a range on the Uniswap pool.\n    function _mintLiquidity(int24 tickLower,int24 tickUpper,uint128 liquidity) internal {\n        if (liquidity > 0) {\n            pool.mint(address(this), tickLower, tickUpper, liquidity, \"\");\n        }\n    }\n    /**\n     * @notice Calculates the vault's total holdings of token0 and token1 - in\n     * other words, how much of each token the vault would hold if it withdrew\n     * all its liquidity from Uniswap.\n     */\n    function getTotalAmounts() public view override returns (uint256 total0, uint256 total1) {\n        (uint256 baseAmount0, uint256 baseAmount1) = getPositionAmounts(baseLower, baseUpper);\n        (uint256 limitAmount0, uint256 limitAmount1) =\n            getPositionAmounts(limitLower, limitUpper);\n        total0 = getBalance0().add(baseAmount0).add(limitAmount0);\n        total1 = getBalance1().add(baseAmount1).add(limitAmount1);\n    }\n    /**\n     * @notice Amounts of token0 and token1 held in vault's position. Includes\n     * owed fees but excludes the proportion of fees that will be paid to the\n     * protocol. Doesn't include fees accrued since last poke.\n     */\n    function getPositionAmounts(int24 tickLower, int24 tickUpper) public view returns (uint256 amount0, uint256 amount1) {\n        (uint128 liquidity, , , uint128 tokensOwed0, uint128 tokensOwed1) = _position(tickLower, tickUpper);\n        (amount0, amount1) = _amountsForLiquidity(tickLower, tickUpper, liquidity);\n        // Subtract protocol fees\n        uint256 oneMinusFee = uint256(1e6).sub(protocolFee);\n        amount0 = amount0.add(uint256(tokensOwed0).mul(oneMinusFee).div(1e6));\n        amount1 = amount1.add(uint256(tokensOwed1).mul(oneMinusFee).div(1e6));\n    }\n    /**\n     * @notice Balance of token0 in vault not used in any position.\n     */\n    function getBalance0() public view returns (uint256) {\n        return token0.balanceOf(address(this)).sub(accruedProtocolFees0);\n    }\n    /**\n     * @notice Balance of token1 in vault not used in any position.\n     */\n    function getBalance1() public view returns (uint256) {\n        return token1.balanceOf(address(this)).sub(accruedProtocolFees1);\n    }\n    /// @dev Wrapper around `IUniswapV3Pool.positions()`.\n    function _position(int24 tickLower, int24 tickUpper)\n        internal\n        view\n        returns (uint128,uint256,uint256,uint128,uint128)\n    {\n        bytes32 positionKey = PositionKey.compute(address(this), tickLower, tickUpper);\n        return pool.positions(positionKey);\n    }\n    /// @dev Wrapper around `LiquidityAmounts.getAmountsForLiquidity()`.\n    function _amountsForLiquidity(int24 tickLower,int24 tickUpper,uint128 liquidity\n    ) internal view returns (uint256, uint256) {\n        (uint160 sqrtRatioX96, , , , , , ) = pool.slot0();\n        return\n            LiquidityAmounts.getAmountsForLiquidity(\n                sqrtRatioX96,\n                TickMath.getSqrtRatioAtTick(tickLower),\n                TickMath.getSqrtRatioAtTick(tickUpper),\n                liquidity\n            );\n    }\n    /// @dev Wrapper around `LiquidityAmounts.getLiquidityForAmounts()`.\n    function _liquidityForAmounts(int24 tickLower,int24 tickUpper,uint256 amount0,uint256 amount1\n    ) internal view returns (uint128) {\n        (uint160 sqrtRatioX96, , , , , , ) = pool.slot0();\n        return\n            LiquidityAmounts.getLiquidityForAmounts(sqrtRatioX96,TickMath.getSqrtRatioAtTick(tickLower),\n                TickMath.getSqrtRatioAtTick(tickUpper),amount0,amount1);\n    }\n    /// @dev Casts uint256 to uint128 with overflow check.\n    function _toUint128(uint256 x) internal pure returns (uint128) {\n        assert(x <= type(uint128).max);\n        return uint128(x);\n    }\n    /// @dev Callback for Uniswap V3 pool.\n    function uniswapV3MintCallback(uint256 amount0,uint256 amount1,bytes calldata data) external override {\n        require(msg.sender == address(pool));\n        if (amount0 > 0) token0.safeTransfer(msg.sender, amount0);\n        if (amount1 > 0) token1.safeTransfer(msg.sender, amount1);\n    }\n    /// @dev Callback for Uniswap V3 pool.\n    function uniswapV3SwapCallback(int256 amount0Delta,int256 amount1Delta,bytes calldata data) external override {\n        require(msg.sender == address(pool));\n        if (amount0Delta > 0) token0.safeTransfer(msg.sender, uint256(amount0Delta));\n        if (amount1Delta > 0) token1.safeTransfer(msg.sender, uint256(amount1Delta));\n    }\n    /**\n     * @notice Used to collect accumulated protocol fees.\n     */\n    function collectProtocol(uint256 amount0,uint256 amount1,address to) external onlyGovernance {\n        accruedProtocolFees0 = accruedProtocolFees0.sub(amount0);\n        accruedProtocolFees1 = accruedProtocolFees1.sub(amount1);\n        if (amount0 > 0) token0.safeTransfer(to, amount0);\n        if (amount1 > 0) token1.safeTransfer(to, amount1);\n    }\n    /**\n     * @notice Removes tokens accidentally sent to this vault.\n     */\n    function sweep(IERC20 token,uint256 amount,address to) external onlyGovernance {\n        require(token != token0 && token != token1, \"token\");\n        token.safeTransfer(to, amount);\n    }\n    /**\n     * @notice set SharpeKeeper Used to set the strategy contract that determines the position ranges and calls rebalance().\n     * Must be called after this vault is deployed.\n     */\n    function setSharpeKeeper(address _SharpeKeeper) external onlyGovernance {SharpeKeeper = _SharpeKeeper;}\n    /**\n     * @notice Used to change the protocol fee charged on pool fees earned from\n     * Uniswap, expressed as multiple of 1e-6.\n     */\n    function setProtocolFee(uint256 _protocolFee) external onlyGovernance {\n        require(_protocolFee < 1e6, \"protocolFee\");\n        protocolFee = _protocolFee;\n    }\n    /**\n     * @notice Used to change deposit cap for a guarded launch or to ensure vault doesn't \n     * grow too large relative to the pool. Cap is on total supply rather than amounts \n     * of token0 and token1 as those amounts fluctuate naturally over time.\n     */\n    function setMaxTotalSupply(uint256 _maxTotalSupply) external onlyGovernance { maxTotalSupply = _maxTotalSupply;}\n    /**\n     * @notice Removes liquidity in case of emergency.\n     */\n    function emergencyBurn(int24 tickLower,int24 tickUpper,uint128 liquidity) external onlyGovernance {\n        pool.burn(tickLower, tickUpper, liquidity);\n        pool.collect(address(this), tickLower, tickUpper, type(uint128).max, type(uint128).max);\n    }\n    /**\n     * @notice Governance address is not updated until the new governance\n     * address has called `acceptGovernance()` to accept this responsibility.\n     */\n    function setGovernance(address _governance) external onlyGovernance { pendingGovernance = _governance;}\n    /**\n     * @notice `setGovernance()` should be called by the existing governance address prior to calling this function.\n     */\n    function acceptGovernance() external {\n        require(msg.sender == pendingGovernance, \"pendingGovernance\");\n        governance = msg.sender;\n    }\n    modifier onlyGovernance {\n        require(msg.sender == governance, \"governance\");\n        _;\n    }\n}","sourcePath":"contracts/Sharpe.sol","type":"contract","deployment":{"address":"0x4E32A48F4f4f7B2594733dd7ffED871D9441e2c4","chainid":"137","blockHeight":32129741}}