{"abi":[{"inputs":[{"internalType":"address","name":"_pool","type":"address"},{"internalType":"address","name":"_router","type":"address"},{"internalType":"uint256","name":"_protocolFee","type":"uint256"},{"internalType":"uint256","name":"_maxTotalSupply","type":"uint256"}],"stateMutability":"nonpayable","type":"constructor","name":"constructor"},{"anonymous":false,"inputs":[{"indexed":true,"internalType":"address","name":"owner","type":"address"},{"indexed":true,"internalType":"address","name":"spender","type":"address"},{"indexed":false,"internalType":"uint256","name":"value","type":"uint256"}],"name":"Approval","type":"event"},{"anonymous":false,"inputs":[{"indexed":false,"internalType":"uint256","name":"feesToVault0","type":"uint256"},{"indexed":false,"internalType":"uint256","name":"feesToVault1","type":"uint256"},{"indexed":false,"internalType":"uint256","name":"feesToProtocol0","type":"uint256"},{"indexed":false,"internalType":"uint256","name":"feesToProtocol1","type":"uint256"}],"name":"CollectFees","type":"event"},{"anonymous":false,"inputs":[{"indexed":true,"internalType":"address","name":"sender","type":"address"},{"indexed":true,"internalType":"address","name":"to","type":"address"},{"indexed":false,"internalType":"uint256","name":"shares","type":"uint256"},{"indexed":false,"internalType":"uint256","name":"amount0","type":"uint256"},{"indexed":false,"internalType":"uint256","name":"amount1","type":"uint256"}],"name":"Deposit","type":"event"},{"anonymous":false,"inputs":[{"indexed":false,"internalType":"int24","name":"tick","type":"int24"},{"indexed":false,"internalType":"uint256","name":"totalAmount0","type":"uint256"},{"indexed":false,"internalType":"uint256","name":"totalAmount1","type":"uint256"},{"indexed":false,"internalType":"uint256","name":"totalSupply","type":"uint256"}],"name":"Snapshot","type":"event"},{"anonymous":false,"inputs":[{"indexed":true,"internalType":"address","name":"from","type":"address"},{"indexed":true,"internalType":"address","name":"to","type":"address"},{"indexed":false,"internalType":"uint256","name":"value","type":"uint256"}],"name":"Transfer","type":"event"},{"anonymous":false,"inputs":[{"indexed":true,"internalType":"address","name":"sender","type":"address"},{"indexed":true,"internalType":"address","name":"to","type":"address"},{"indexed":false,"internalType":"uint256","name":"shares","type":"uint256"},{"indexed":false,"internalType":"uint256","name":"amount0","type":"uint256"},{"indexed":false,"internalType":"uint256","name":"amount1","type":"uint256"}],"name":"Withdraw","type":"event"},{"inputs":[],"name":"SharpeKeeper","outputs":[{"internalType":"address","name":"","type":"address"}],"stateMutability":"view","type":"function"},{"inputs":[],"name":"acceptGovernance","outputs":[],"stateMutability":"nonpayable","type":"function"},{"inputs":[],"name":"accruedProtocolFees0","outputs":[{"internalType":"uint256","name":"","type":"uint256"}],"stateMutability":"view","type":"function"},{"inputs":[],"name":"accruedProtocolFees1","outputs":[{"internalType":"uint256","name":"","type":"uint256"}],"stateMutability":"view","type":"function"},{"inputs":[{"internalType":"address","name":"owner","type":"address"},{"internalType":"address","name":"spender","type":"address"}],"name":"allowance","outputs":[{"internalType":"uint256","name":"","type":"uint256"}],"stateMutability":"view","type":"function"},{"inputs":[{"internalType":"address","name":"spender","type":"address"},{"internalType":"uint256","name":"amount","type":"uint256"}],"name":"approve","outputs":[{"internalType":"bool","name":"","type":"bool"}],"stateMutability":"nonpayable","type":"function"},{"inputs":[{"internalType":"address","name":"account","type":"address"}],"name":"balanceOf","outputs":[{"internalType":"uint256","name":"","type":"uint256"}],"stateMutability":"view","type":"function"},{"inputs":[],"name":"baseLower","outputs":[{"internalType":"int24","name":"","type":"int24"}],"stateMutability":"view","type":"function"},{"inputs":[],"name":"baseUpper","outputs":[{"internalType":"int24","name":"","type":"int24"}],"stateMutability":"view","type":"function"},{"inputs":[{"internalType":"uint256","name":"amount0","type":"uint256"},{"internalType":"uint256","name":"amount1","type":"uint256"},{"internalType":"address","name":"to","type":"address"}],"name":"collectProtocol","outputs":[],"stateMutability":"nonpayable","type":"function"},{"inputs":[],"name":"decimals","outputs":[{"internalType":"uint8","name":"","type":"uint8"}],"stateMutability":"view","type":"function"},{"inputs":[{"internalType":"address","name":"spender","type":"address"},{"internalType":"uint256","name":"subtractedValue","type":"uint256"}],"name":"decreaseAllowance","outputs":[{"internalType":"bool","name":"","type":"bool"}],"stateMutability":"nonpayable","type":"function"},{"inputs":[{"internalType":"uint256","name":"amount0Desired","type":"uint256"},{"internalType":"uint256","name":"amount1Desired","type":"uint256"},{"internalType":"uint256","name":"amount0Min","type":"uint256"},{"internalType":"uint256","name":"amount1Min","type":"uint256"},{"internalType":"address","name":"to","type":"address"}],"name":"deposit","outputs":[{"internalType":"uint256","name":"shares","type":"uint256"},{"internalType":"uint256","name":"amount0","type":"uint256"},{"internalType":"uint256","name":"amount1","type":"uint256"}],"stateMutability":"nonpayable","type":"function"},{"inputs":[{"internalType":"int24","name":"tickLower","type":"int24"},{"internalType":"int24","name":"tickUpper","type":"int24"},{"internalType":"uint128","name":"liquidity","type":"uint128"}],"name":"emergencyBurn","outputs":[],"stateMutability":"nonpayable","type":"function"},{"inputs":[],"name":"getBalance0","outputs":[{"internalType":"uint256","name":"","type":"uint256"}],"stateMutability":"view","type":"function"},{"inputs":[],"name":"getBalance1","outputs":[{"internalType":"uint256","name":"","type":"uint256"}],"stateMutability":"view","type":"function"},{"inputs":[{"internalType":"int24","name":"tickLower","type":"int24"},{"internalType":"int24","name":"tickUpper","type":"int24"}],"name":"getPositionAmounts","outputs":[{"internalType":"uint256","name":"amount0","type":"uint256"},{"internalType":"uint256","name":"amount1","type":"uint256"}],"stateMutability":"view","type":"function"},{"inputs":[],"name":"getTotalAmounts","outputs":[{"internalType":"uint256","name":"total0","type":"uint256"},{"internalType":"uint256","name":"total1","type":"uint256"}],"stateMutability":"view","type":"function"},{"inputs":[],"name":"governance","outputs":[{"internalType":"address","name":"","type":"address"}],"stateMutability":"view","type":"function"},{"inputs":[{"internalType":"address","name":"spender","type":"address"},{"internalType":"uint256","name":"addedValue","type":"uint256"}],"name":"increaseAllowance","outputs":[{"internalType":"bool","name":"","type":"bool"}],"stateMutability":"nonpayable","type":"function"},{"inputs":[],"name":"limitLower","outputs":[{"internalType":"int24","name":"","type":"int24"}],"stateMutability":"view","type":"function"},{"inputs":[],"name":"limitUpper","outputs":[{"internalType":"int24","name":"","type":"int24"}],"stateMutability":"view","type":"function"},{"inputs":[],"name":"maxTotalSupply","outputs":[{"internalType":"uint256","name":"","type":"uint256"}],"stateMutability":"view","type":"function"},{"inputs":[],"name":"name","outputs":[{"internalType":"string","name":"","type":"string"}],"stateMutability":"view","type":"function"},{"inputs":[],"name":"pendingGovernance","outputs":[{"internalType":"address","name":"","type":"address"}],"stateMutability":"view","type":"function"},{"inputs":[],"name":"pool","outputs":[{"internalType":"contract IUniswapV3Pool","name":"","type":"address"}],"stateMutability":"view","type":"function"},{"inputs":[],"name":"protocolFee","outputs":[{"internalType":"uint256","name":"","type":"uint256"}],"stateMutability":"view","type":"function"},{"inputs":[{"internalType":"int256","name":"swapAmount","type":"int256"},{"internalType":"uint160","name":"sqrtPriceLimitX96","type":"uint160"},{"internalType":"int24","name":"_baseLower","type":"int24"},{"internalType":"int24","name":"_baseUpper","type":"int24"},{"internalType":"int24","name":"_bidLower","type":"int24"},{"internalType":"int24","name":"_bidUpper","type":"int24"},{"internalType":"int24","name":"_askLower","type":"int24"},{"internalType":"int24","name":"_askUpper","type":"int24"}],"name":"rebalance","outputs":[],"stateMutability":"nonpayable","type":"function"},{"inputs":[],"name":"router","outputs":[{"internalType":"contract IUniswapV2Router02","name":"","type":"address"}],"stateMutability":"view","type":"function"},{"inputs":[],"name":"routerAddress","outputs":[{"internalType":"address","name":"","type":"address"}],"stateMutability":"view","type":"function"},{"inputs":[{"internalType":"address","name":"_governance","type":"address"}],"name":"setGovernance","outputs":[],"stateMutability":"nonpayable","type":"function"},{"inputs":[{"internalType":"uint256","name":"_maxTotalSupply","type":"uint256"}],"name":"setMaxTotalSupply","outputs":[],"stateMutability":"nonpayable","type":"function"},{"inputs":[{"internalType":"uint256","name":"_protocolFee","type":"uint256"}],"name":"setProtocolFee","outputs":[],"stateMutability":"nonpayable","type":"function"},{"inputs":[{"internalType":"address","name":"_SharpeKeeper","type":"address"}],"name":"setSharpeKeeper","outputs":[],"stateMutability":"nonpayable","type":"function"},{"inputs":[{"internalType":"contract IERC20","name":"token","type":"address"},{"internalType":"uint256","name":"amount","type":"uint256"},{"internalType":"address","name":"to","type":"address"}],"name":"sweep","outputs":[],"stateMutability":"nonpayable","type":"function"},{"inputs":[],"name":"symbol","outputs":[{"internalType":"string","name":"","type":"string"}],"stateMutability":"view","type":"function"},{"inputs":[],"name":"tickSpacing","outputs":[{"internalType":"int24","name":"","type":"int24"}],"stateMutability":"view","type":"function"},{"inputs":[],"name":"token0","outputs":[{"internalType":"contract IERC20","name":"","type":"address"}],"stateMutability":"view","type":"function"},{"inputs":[],"name":"token0Address","outputs":[{"internalType":"address","name":"","type":"address"}],"stateMutability":"view","type":"function"},{"inputs":[],"name":"token1","outputs":[{"internalType":"contract IERC20","name":"","type":"address"}],"stateMutability":"view","type":"function"},{"inputs":[],"name":"token1Address","outputs":[{"internalType":"address","name":"","type":"address"}],"stateMutability":"view","type":"function"},{"inputs":[],"name":"totalSupply","outputs":[{"internalType":"uint256","name":"","type":"uint256"}],"stateMutability":"view","type":"function"},{"inputs":[{"internalType":"address","name":"to","type":"address"},{"internalType":"uint256","name":"amount","type":"uint256"}],"name":"transfer","outputs":[{"internalType":"bool","name":"","type":"bool"}],"stateMutability":"nonpayable","type":"function"},{"inputs":[{"internalType":"address","name":"from","type":"address"},{"internalType":"address","name":"to","type":"address"},{"internalType":"uint256","name":"amount","type":"uint256"}],"name":"transferFrom","outputs":[{"internalType":"bool","name":"","type":"bool"}],"stateMutability":"nonpayable","type":"function"},{"inputs":[{"internalType":"uint256","name":"amount0","type":"uint256"},{"internalType":"uint256","name":"amount1","type":"uint256"},{"internalType":"bytes","name":"data","type":"bytes"}],"name":"uniswapV3MintCallback","outputs":[],"stateMutability":"nonpayable","type":"function"},{"inputs":[{"internalType":"int256","name":"amount0Delta","type":"int256"},{"internalType":"int256","name":"amount1Delta","type":"int256"},{"internalType":"bytes","name":"data","type":"bytes"}],"name":"uniswapV3SwapCallback","outputs":[],"stateMutability":"nonpayable","type":"function"},{"inputs":[{"internalType":"uint256","name":"shares","type":"uint256"},{"internalType":"uint256","name":"amount0Min","type":"uint256"},{"internalType":"uint256","name":"amount1Min","type":"uint256"},{"internalType":"address","name":"to","type":"address"}],"name":"withdraw","outputs":[{"internalType":"uint256","name":"amount0","type":"uint256"},{"internalType":"uint256","name":"amount1","type":"uint256"}],"stateMutability":"nonpayable","type":"function"}],"bytecode":"6101806040523480156200001257600080fd5b5060405162005d8538038062005d858339810160408190526200003591620004c9565b604080518082018252600681526553686172706560d01b6020808301918252835180850190945260048452630534852560e41b9084015281519192916200007f91600391620003e2565b50805162000095906004906020840190620003e2565b50506001600555506001600160601b0319606085811b821660805284901b1660a05260408051630dfe168160e01b815290516001600160a01b03861691630dfe1681916004808301926020929190829003018186803b158015620000f857600080fd5b505afa1580156200010d573d6000803e3d6000fd5b505050506040513d601f19601f82011682018060405250810190620001339190620004a5565b6001600160a01b031660c0816001600160a01b031660601b81525050836001600160a01b031663d21220a76040518163ffffffff1660e01b815260040160206040518083038186803b1580156200018957600080fd5b505afa1580156200019e573d6000803e3d6000fd5b505050506040513d601f19601f82011682018060405250810190620001c49190620004a5565b6001600160a01b031660e0816001600160a01b031660601b81525050836001600160a01b0316630dfe16816040518163ffffffff1660e01b815260040160206040518083038186803b1580156200021a57600080fd5b505afa1580156200022f573d6000803e3d6000fd5b505050506040513d601f19601f82011682018060405250810190620002559190620004a5565b6001600160a01b0316610120816001600160a01b031660601b81525050836001600160a01b031663d21220a76040518163ffffffff1660e01b815260040160206040518083038186803b158015620002ac57600080fd5b505afa158015620002c1573d6000803e3d6000fd5b505050506040513d601f19601f82011682018060405250810190620002e79190620004a5565b6001600160601b0319606091821b8116610140529084901b1661016052604080516334324e9f60e21b815290516001600160a01b0386169163d0c93a7c916004808301926020929190829003018186803b1580156200034557600080fd5b505afa1580156200035a573d6000803e3d6000fd5b505050506040513d601f19601f8201168201806040525081019062000380919062000510565b600290810b900b60e81b6101005260068290556007819055600980546001600160a01b03191633179055620f42408210620003d85760405162461bcd60e51b8152600401620003cf9062000533565b60405180910390fd5b5050505062000595565b828054620003f09062000558565b90600052602060002090601f0160209004810192826200041457600085556200045f565b82601f106200042f57805160ff19168380011785556200045f565b828001600101855582156200045f579182015b828111156200045f57825182559160200191906001019062000442565b506200046d92915062000471565b5090565b5b808211156200046d576000815560010162000472565b80516001600160a01b0381168114620004a057600080fd5b919050565b600060208284031215620004b7578081fd5b620004c28262000488565b9392505050565b60008060008060808587031215620004df578283fd5b620004ea8562000488565b9350620004fa6020860162000488565b6040860151606090960151949790965092505050565b60006020828403121562000522578081fd5b81518060020b8114620004c2578182fd5b6020808252600b908201526a70726f746f636f6c46656560a81b604082015260600190565b6002810460018216806200056d57607f821691505b602082108114156200058f57634e487b7160e01b600052602260045260246000fd5b50919050565b60805160601c60a05160601c60c05160601c60e05160601c6101005160e81c6101205160601c6101405160601c6101605160601c6155ce620007b7600039600081816107cc01528181610bdb015281816112580152818161358201526137ca0152600081816109ab01528181610cdd01528181611090015281816112f8015281816125ce0152818161362201526138cc015260008181610a0d01528181610c7b0152818161102e0152818161135a0152818161192d01528181613684015261386a0152600081816121bf0152612db001526000818161060401528181610f54015281816111ec0152818161122b01528181611661015281816117a3015281816121e30152818161241b0152818161248f0152818161259f01528181612659015281816127ba01526135550152600081816105ca015281816106f501528181610b6f01528181610bae01528181610eb70152818161162601528181611871015281816123bd01528181612455015281816125650152818161261c0152818161277d015261379d015260008181610a7501528181610d45015281816110f8015281816113c201528181612700015281816136e90152613931015260008181610729015281816119c301528181611bbd01528181611fa501528181612048015281816125280152818161273d01528181612a9e01528181612ed101528181612f950152818161302a015281816131bb0152818161329f01526132e101526155ce6000f3fe608060405234801561001057600080fd5b50600436106102955760003560e01c806387e5e08311610167578063d0c93a7c116100ce578063dd62ed3e11610087578063dd62ed3e1461051e578063eae989a214610531578063f39c38a014610539578063f887ea4014610541578063fa08274314610549578063fa461e331461055157610295565b8063d0c93a7c146104cd578063d21220a7146104d5578063d331bef7146104dd578063d3487997146104f0578063d7cb416f14610503578063dc2c256f1461050b57610295565b8063a91ef6eb11610120578063a91ef6eb14610463578063ab033ea914610484578063abbffcb914610497578063b0e21e8a146104aa578063b3a3d00c146104b2578063c4a7761e146104c557610295565b806387e5e08314610412578063888a91341461042557806395d89b411461042d578063a00fa77f14610435578063a457c2d71461043d578063a9059cbb1461045057610295565b8063313ce5671161020b57806351e87af7116101c457806351e87af7146103cc5780635aa6e675146103d4578063629d9405146103dc57806370a08231146103e4578063787dce3d146103f75780637ff36fbe1461040a57610295565b8063313ce5671461035f5780633268cc5614610374578063365d0ed71461037c578063395093511461039e5780633f3e4c11146103b157806341aec538146103c457610295565b80630f35bcac1161025d5780630f35bcac1461030a57806316f0115b1461031f57806318160ddd14610327578063238efcbc1461033c57806323b872dd146103445780632ab4d0521461035757610295565b80630430c1301461029a57806306fdde03146102af578063095ea7b3146102cd5780630c42383a146102ed5780630dfe168114610302575b600080fd5b6102ad6102a836600461492f565b610564565b005b6102b7610630565b6040516102c49190614be0565b60405180910390f35b6102e06102db366004614520565b6106c2565b6040516102c49190614b78565b6102f56106e4565b6040516102c49190614a6e565b6102f56106f3565b610312610717565b6040516102c49190614b8c565b6102f5610727565b61032f61074b565b6040516102c49190614b83565b6102ad610751565b6102e06103523660046144e0565b61078f565b61032f6107bf565b6103676107c5565b6040516102c491906153aa565b6102f56107ca565b61038f61038a36600461499c565b6107ee565b6040516102c493929190615379565b6102e06103ac366004614520565b61171e565b6102ad6103bf3660046148ff565b61176a565b61032f611799565b610312611848565b6102f5611858565b61032f611867565b61032f6103f236600461448c565b6118bb565b6102ad6104053660046148ff565b6118da565b6102f561192b565b6102ad610420366004614740565b61194f565b610312611dd8565b6102b7611de8565b61032f611df7565b6102e061044b366004614520565b611dfd565b6102e061045e366004614520565b611e69565b610476610471366004614660565b611e81565b6040516102c492919061536b565b6102ad61049236600461448c565b611f18565b6102ad6104a536600461468d565b611f64565b61032f6120e4565b6102ad6104c036600461448c565b6120ea565b610476612136565b6103126121bd565b6102f56121e1565b6104766104eb36600461495c565b612205565b6102ad6104fe3660046146ef565b61251d565b6102f56125cc565b6102ad61051936600461461f565b6125f0565b61032f61052c3660046144a8565b6126be565b61032f6126e9565b6102f56126ef565b6102f56126fe565b610312612722565b6102ad61055f3660046146ef565b612732565b6009546001600160a01b031633146105975760405162461bcd60e51b815260040161058e90614ff0565b60405180910390fd5b600b546105a490846127e1565b600b55600c546105b490836127e1565b600c5582156105f1576105f16001600160a01b037f00000000000000000000000000000000000000000000000000000000000000001682856127ed565b811561062b5761062b6001600160a01b037f00000000000000000000000000000000000000000000000000000000000000001682846127ed565b505050565b60606003805461063f9061546e565b80601f016020809104026020016040519081016040528092919081815260200182805461066b9061546e565b80156106b85780601f1061068d576101008083540402835291602001916106b8565b820191906000526020600020905b81548152906001019060200180831161069b57829003601f168201915b5050505050905090565b6000806106cd612843565b90506106da818585612847565b5060019392505050565b6008546001600160a01b031681565b7f000000000000000000000000000000000000000000000000000000000000000081565b600a54600160e81b900460020b81565b7f000000000000000000000000000000000000000000000000000000000000000081565b60025490565b600a546001600160a01b0316331461077b5760405162461bcd60e51b815260040161058e90614ef8565b600980546001600160a01b03191633179055565b60008061079a612843565b90506107a78582856128fb565b6107b285858561293f565b60019150505b9392505050565b60075481565b601290565b7f000000000000000000000000000000000000000000000000000000000000000081565b6000806000600260055414156108165760405162461bcd60e51b815260040161058e90615263565b6002600555871515806108295750600087115b6108455760405162461bcd60e51b815260040161058e90614ec3565b6001600160a01b0384161580159061086657506001600160a01b0384163014155b6108825760405162461bcd60e51b815260040161058e90614cbc565b600a546108a490600160a01b8104600290810b91600160b81b9004900b612a63565b600a546108c690600160d01b8104600290810b91600160e81b9004900b612a63565b6108d08888612b29565b91945092509050858210156108f75760405162461bcd60e51b815260040161058e90614c56565b848110156109175760405162461bcd60e51b815260040161058e906150d9565b826115f35760008211801561092a575080155b8061093e575060008111801561093e575081155b61095a5760405162461bcd60e51b815260040161058e90614f23565b600061096461074b565b9050600080610971612136565b91509150600085118015610983575083155b1561100b576040805160028082526060820183526000926020830190803683370190505090507f0000000000000000000000000000000000000000000000000000000000000000816000815181106109eb57634e487b7160e01b600052603260045260246000fd5b60200260200101906001600160a01b031690816001600160a01b0316815250507f000000000000000000000000000000000000000000000000000000000000000081600181518110610a4d57634e487b7160e01b600052603260045260246000fd5b6001600160a01b03928316602091820292909201015260405163d06ca61f60e01b81526000917f0000000000000000000000000000000000000000000000000000000000000000169063d06ca61f90610aac9086908690600401615316565b60006040518083038186803b158015610ac457600080fd5b505afa158015610ad8573d6000803e3d6000fd5b505050506040513d6000823e601f3d908101601f19168201604052610b00919081019061454b565b90506000610b52610b4283600181518110610b2b57634e487b7160e01b600052603260045260246000fd5b602002602001015187612c8790919063ffffffff16565b610b4c8a88612c93565b90612c9f565b90506000610b6089836127e1565b9050610b976001600160a01b037f00000000000000000000000000000000000000000000000000000000000000001633308c612cab565b60405163095ea7b360e01b81526001600160a01b037f0000000000000000000000000000000000000000000000000000000000000000169063095ea7b390610c05907f0000000000000000000000000000000000000000000000000000000000000000908590600401614b5f565b602060405180830381600087803b158015610c1f57600080fd5b505af1158015610c33573d6000803e3d6000fd5b505050506040513d601f19601f82011682018060405250810190610c579190614605565b506040805160028082526060820183526000926020830190803683370190505090507f000000000000000000000000000000000000000000000000000000000000000081600081518110610cbb57634e487b7160e01b600052603260045260246000fd5b60200260200101906001600160a01b031690816001600160a01b0316815250507f000000000000000000000000000000000000000000000000000000000000000081600181518110610d1d57634e487b7160e01b600052603260045260246000fd5b6001600160a01b0392831660209182029290920101526040516338ed173960e01b81526000917f000000000000000000000000000000000000000000000000000000000000000016906338ed173990610d82908690859087903090429060040161532f565b600060405180830381600087803b158015610d9c57600080fd5b505af1158015610db0573d6000803e3d6000fd5b505050506040513d6000823e601f3d908101601f19168201604052610dd8919081019061454b565b90506000610e29610de9868a612c93565b610e248b85600181518110610e0e57634e487b7160e01b600052603260045260246000fd5b6020026020010151612c9390919063ffffffff16565b612ccc565b9050610e446001610e3e8a610b4c85846127e1565b90612c87565b9b50610e596001610e3e8b610b4c85846127e1565b9a50610e6b88610b4c8b81858f612c93565b9c5060008d11610e8d5760405162461bcd60e51b815260040161058e90614d80565b6000610e99868e6127e1565b1115610ede57610ede8e610ead878f6127e1565b6001600160a01b037f00000000000000000000000000000000000000000000000000000000000000001691906127ed565b6000610f1b8c84600181518110610f0557634e487b7160e01b600052603260045260246000fd5b60200260200101516127e190919063ffffffff16565b1115610f7b57610f7b8e610f4a8d85600181518110610f0557634e487b7160e01b600052603260045260246000fd5b6001600160a01b037f00000000000000000000000000000000000000000000000000000000000000001691906127ed565b610f858e8e612ce2565b8d6001600160a01b0316336001600160a01b03167f4e2ca0515ed1aef1395f66b5303bb5d6f1bf9d61a353fa53f73f8ac9973fa9f68f8f8f604051610fcc93929190615379565b60405180910390a3600754610fe18b8f612c87565b1115610fff5760405162461bcd60e51b815260040161058e906151f1565b505050505050506115eb565b6040805160028082526060820183526000926020830190803683370190505090507f00000000000000000000000000000000000000000000000000000000000000008160008151811061106e57634e487b7160e01b600052603260045260246000fd5b60200260200101906001600160a01b031690816001600160a01b0316815250507f0000000000000000000000000000000000000000000000000000000000000000816001815181106110d057634e487b7160e01b600052603260045260246000fd5b6001600160a01b03928316602091820292909201015260405163d06ca61f60e01b81526000917f0000000000000000000000000000000000000000000000000000000000000000169063d06ca61f9061112f9087908690600401615316565b60006040518083038186803b15801561114757600080fd5b505afa15801561115b573d6000803e3d6000fd5b505050506040513d6000823e601f3d908101601f19168201604052611183919081019061454b565b905060006111cf6111c5836001815181106111ae57634e487b7160e01b600052603260045260246000fd5b602002602001015186612c8790919063ffffffff16565b610b4c8987612c93565b905060006111dd88836127e1565b90506112146001600160a01b037f00000000000000000000000000000000000000000000000000000000000000001633308b612cab565b60405163095ea7b360e01b81526001600160a01b037f0000000000000000000000000000000000000000000000000000000000000000169063095ea7b390611282907f0000000000000000000000000000000000000000000000000000000000000000908590600401614b5f565b602060405180830381600087803b15801561129c57600080fd5b505af11580156112b0573d6000803e3d6000fd5b505050506040513d601f19601f820116820180604052508101906112d49190614605565b506040805160028082526060820183526000926020830190803683370190505090507f00000000000000000000000000000000000000000000000000000000000000008160008151811061133857634e487b7160e01b600052603260045260246000fd5b60200260200101906001600160a01b031690816001600160a01b0316815250507f00000000000000000000000000000000000000000000000000000000000000008160018151811061139a57634e487b7160e01b600052603260045260246000fd5b6001600160a01b0392831660209182029290920101526040516338ed173960e01b81526000917f000000000000000000000000000000000000000000000000000000000000000016906338ed1739906113ff908690859087903090429060040161532f565b600060405180830381600087803b15801561141957600080fd5b505af115801561142d573d6000803e3d6000fd5b505050506040513d6000823e601f3d908101601f19168201604052611455919081019061454b565b9050600061148b6114818984600181518110610e0e57634e487b7160e01b600052603260045260246000fd5b610e24878c612c93565b90506114a06001610e3e8a610b4c85846127e1565b9b506114b56001610e3e8b610b4c85846127e1565b9a506114c788610b4c8b81858f612c93565b9c5060008d116114e95760405162461bcd60e51b815260040161058e90614d80565b60006115108d84600181518110610f0557634e487b7160e01b600052603260045260246000fd5b111561153f5761153f8e610ead8e85600181518110610f0557634e487b7160e01b600052603260045260246000fd5b600061154b868d6127e1565b111561155f5761155f8e610f4a878e6127e1565b6115698e8e612ce2565b8d6001600160a01b0316336001600160a01b03167f4e2ca0515ed1aef1395f66b5303bb5d6f1bf9d61a353fa53f73f8ac9973fa9f68f8f8f6040516115b093929190615379565b60405180910390a36007546115c58b8f612c87565b11156115e35760405162461bcd60e51b815260040161058e906151f1565b505050505050505b50505061170b565b600083116116135760405162461bcd60e51b815260040161058e90615014565b811561164e5761164e6001600160a01b037f000000000000000000000000000000000000000000000000000000000000000016333085612cab565b8015611689576116896001600160a01b037f000000000000000000000000000000000000000000000000000000000000000016333084612cab565b6116938484612ce2565b836001600160a01b0316336001600160a01b03167f4e2ca0515ed1aef1395f66b5303bb5d6f1bf9d61a353fa53f73f8ac9973fa9f68585856040516116da93929190615379565b60405180910390a36007546116ed61074b565b111561170b5760405162461bcd60e51b815260040161058e906151f1565b6001600581905550955095509592505050565b600080611729612843565b6001600160a01b038082166000908152600160209081526040808320938916835292905220549091506106da90829086906117659087906153b8565b612847565b6009546001600160a01b031633146117945760405162461bcd60e51b815260040161058e90614ff0565b600755565b6000611843600c547f00000000000000000000000000000000000000000000000000000000000000006001600160a01b03166370a08231306040518263ffffffff1660e01b81526004016117ed9190614a6e565b60206040518083038186803b15801561180557600080fd5b505afa158015611819573d6000803e3d6000fd5b505050506040513d601f19601f8201168201806040525081019061183d9190614917565b906127e1565b905090565b600a54600160d01b900460020b81565b6009546001600160a01b031681565b6000611843600b547f00000000000000000000000000000000000000000000000000000000000000006001600160a01b03166370a08231306040518263ffffffff1660e01b81526004016117ed9190614a6e565b6001600160a01b0381166000908152602081905260409020545b919050565b6009546001600160a01b031633146119045760405162461bcd60e51b815260040161058e90614ff0565b620f424081106119265760405162461bcd60e51b815260040161058e90614f4f565b600655565b7f000000000000000000000000000000000000000000000000000000000000000081565b600260055414156119725760405162461bcd60e51b815260040161058e90615263565b60026005556008546001600160a01b031633146119a15760405162461bcd60e51b815260040161058e90614fca565b6119ab8686612dae565b6119b58484612dae565b6119bf8282612dae565b60007f00000000000000000000000000000000000000000000000000000000000000006001600160a01b0316633850c7bd6040518163ffffffff1660e01b815260040160e06040518083038186803b158015611a1a57600080fd5b505afa158015611a2e573d6000803e3d6000fd5b505050506040513d601f19601f82011682018060405250810190611a52919061486e565b50505050509150508060020b8460020b1315611a805760405162461bcd60e51b815260040161058e90614e5b565b8060020b8360020b13611aa55760405162461bcd60e51b815260040161058e906150fd565b600a54600090611aca90600160a01b8104600290810b91600160b81b9004900b612ea3565b5050600a54929350600092611af79250600160d01b8104600290810b9250600160e81b909104900b612ea3565b5050600a54929350611b2392600160a01b8104600290810b9350600160b81b909104900b905084612f6a565b5050600a54611b4b9250600160d01b8104600290810b9250600160e81b909104900b83612f6a565b5050505050506000611b5b611867565b90506000611b67611799565b90507f210f60adf1db7a02e9db9a49ec7c2eb2060c516cbcfd01a0c05288144738ee5d838383611b9561074b565b604051611ba59493929190614bc0565b60405180910390a18a15611c84576001600160a01b037f00000000000000000000000000000000000000000000000000000000000000001663128acb083060008e1380611bfa57611bf58f615500565b611bfc565b8e5b8e6040518563ffffffff1660e01b8152600401611c1c9493929190614aa6565b6040805180830381600087803b158015611c3557600080fd5b505af1158015611c49573d6000803e3d6000fd5b505050506040513d601f19601f82011682018060405250810190611c6d91906146cc565b5050611c77611867565b9150611c81611799565b90505b6000611c928a8a85856131b6565b9050611c9f8a8a83613279565b600a805460028c810b62ffffff908116600160a01b0262ffffff60a01b19928e900b909116600160b81b0262ffffff60b81b199093169290921716179055611ce5611867565b9250611cef611799565b91506000611cff898986866131b6565b90506000611d0f888887876131b6565b9050806001600160801b0316826001600160801b03161115611d7957611d368a8a84613279565b600a805460028c810b62ffffff908116600160d01b0262ffffff60d01b19928e900b909116600160e81b026001600160e81b039093169290921716179055611dc3565b611d84888883613279565b600a805460028a810b62ffffff908116600160d01b0262ffffff60d01b19928c900b909116600160e81b026001600160e81b0390931692909217161790555b50506001600555505050505050505050505050565b600a54600160b81b900460020b81565b60606004805461063f9061546e565b600c5481565b600080611e08612843565b6001600160a01b0380821660009081526001602090815260408083209389168352929052205490915083811015611e515760405162461bcd60e51b815260040161058e9061529a565b611e5e8286868403612847565b506001949350505050565b600080611e74612843565b90506106da81858561293f565b6000806000806000611e938787612ea3565b9450945050509250611ea68787856132da565b6006549196509450600090611ebf90620f4240906127e1565b9050611ee5611ede620f4240610b4c6001600160801b03871685612c93565b8790612c87565b9550611f0b611f04620f4240610b4c6001600160801b03861685612c93565b8690612c87565b9450505050509250929050565b6009546001600160a01b03163314611f425760405162461bcd60e51b815260040161058e90614ff0565b600a80546001600160a01b0319166001600160a01b0392909216919091179055565b6009546001600160a01b03163314611f8e5760405162461bcd60e51b815260040161058e90614ff0565b60405163a34123a760e01b81526001600160a01b037f0000000000000000000000000000000000000000000000000000000000000000169063a34123a790611fde90869086908690600401614b9a565b6040805180830381600087803b158015611ff757600080fd5b505af115801561200b573d6000803e3d6000fd5b505050506040513d601f19601f8201168201806040525081019061202f91906146cc565b50506040516309e3d67b60e31b81526001600160a01b037f00000000000000000000000000000000000000000000000000000000000000001690634f1eb3d89061208c903090879087906001600160801b03908190600401614b22565b6040805180830381600087803b1580156120a557600080fd5b505af11580156120b9573d6000803e3d6000fd5b505050506040513d601f19601f820116820180604052508101906120dd91906147df565b5050505050565b60065481565b6009546001600160a01b031633146121145760405162461bcd60e51b815260040161058e90614ff0565b600880546001600160a01b0319166001600160a01b0392909216919091179055565b600a5460009081908190819061216190600160a01b8104600290810b91600160b81b9004900b611e81565b600a549193509150600090819061218d90600160d01b8104600290810b91600160e81b9004900b611e81565b915091506121a182610e3e86610e3e611867565b95506121b381610e3e85610e3e611799565b9450505050509091565b7f000000000000000000000000000000000000000000000000000000000000000081565b7f000000000000000000000000000000000000000000000000000000000000000081565b6000806002600554141561222b5760405162461bcd60e51b815260040161058e90615263565b60026005558561224d5760405162461bcd60e51b815260040161058e90615014565b6001600160a01b0383161580159061226e57506001600160a01b0383163014155b61228a5760405162461bcd60e51b815260040161058e90614cbc565b600061229461074b565b90506122a033886133a1565b60006122b882610b4c8a6122b2611867565b90612c93565b905060006122cc83610b4c8b6122b2611799565b600a5490915060009081906122f890600160a01b8104600290810b91600160b81b9004900b8d88613492565b600a549193509150600090819061232690600160d01b8104600290810b91600160e81b9004900b8f8a613492565b909250905061233982610e3e8887612c87565b985061234981610e3e8786612c87565b97508b89101561236b5760405162461bcd60e51b815260040161058e90614c56565b8a88101561238b5760405162461bcd60e51b815260040161058e906150d9565b60008c11801561239957508a155b156123e9576123aa8860018c613538565b88156123e4576123e46001600160a01b037f0000000000000000000000000000000000000000000000000000000000000000168b8b6127ed565b6124b6565b60008b1180156123f757508b155b15612442576124088960008c613538565b87156123e4576123e46001600160a01b037f0000000000000000000000000000000000000000000000000000000000000000168b8a6127ed565b881561247c5761247c6001600160a01b037f0000000000000000000000000000000000000000000000000000000000000000168b8b6127ed565b87156124b6576124b66001600160a01b037f0000000000000000000000000000000000000000000000000000000000000000168b8a6127ed565b896001600160a01b0316336001600160a01b03167febff2602b3f468259e1e99f613fed6691f3a6526effe6ef3e768ba7ae7a36c4f8f8c8c6040516124fd93929190615379565b60405180910390a350505050505050600160058190555094509492505050565b336001600160a01b037f0000000000000000000000000000000000000000000000000000000000000000161461255257600080fd5b831561258c5761258c6001600160a01b037f00000000000000000000000000000000000000000000000000000000000000001633866127ed565b82156125c6576125c66001600160a01b037f00000000000000000000000000000000000000000000000000000000000000001633856127ed565b50505050565b7f000000000000000000000000000000000000000000000000000000000000000081565b6009546001600160a01b0316331461261a5760405162461bcd60e51b815260040161058e90614ff0565b7f00000000000000000000000000000000000000000000000000000000000000006001600160a01b0316836001600160a01b03161415801561268e57507f00000000000000000000000000000000000000000000000000000000000000006001600160a01b0316836001600160a01b031614155b6126aa5760405162461bcd60e51b815260040161058e90614f74565b61062b6001600160a01b03841682846127ed565b6001600160a01b03918216600090815260016020908152604080832093909416825291909152205490565b600b5481565b600a546001600160a01b031681565b7f000000000000000000000000000000000000000000000000000000000000000081565b600a54600160a01b900460020b81565b336001600160a01b037f0000000000000000000000000000000000000000000000000000000000000000161461276757600080fd5b60008413156127a4576127a46001600160a01b037f00000000000000000000000000000000000000000000000000000000000000001633866127ed565b60008313156125c6576125c66001600160a01b037f00000000000000000000000000000000000000000000000000000000000000001633856127ed565b60006107b8828461542b565b61062b8363a9059cbb60e01b848460405160240161280c929190614b5f565b60408051601f198184030181529190526020810180516001600160e01b03166001600160e01b0319909316929092179091526139c7565b3390565b6001600160a01b03831661286d5760405162461bcd60e51b815260040161058e9061514a565b6001600160a01b0382166128935760405162461bcd60e51b815260040161058e90614d07565b6001600160a01b0380841660008181526001602090815260408083209487168084529490915290819020849055517f8c5be1e5ebec7d5bd14f71427d1e84f3dd0314c0f7b2291e5b200ac8c7c3b925906128ee908590614b83565b60405180910390a3505050565b600061290784846126be565b905060001981146125c657818110156129325760405162461bcd60e51b815260040161058e90614da7565b6125c68484848403612847565b6001600160a01b0383166129655760405162461bcd60e51b815260040161058e90615094565b6001600160a01b03821661298b5760405162461bcd60e51b815260040161058e90614c13565b61299683838361062b565b6001600160a01b038316600090815260208190526040902054818110156129cf5760405162461bcd60e51b815260040161058e90614e15565b6001600160a01b03808516600090815260208190526040808220858503905591851681529081208054849290612a069084906153b8565b92505081905550826001600160a01b0316846001600160a01b03167fddf252ad1be2c89b69c2b068fc378daa952ba7f163c4a11628f55a4df523b3ef84604051612a509190614b83565b60405180910390a36125c684848461062b565b6000612a6f8383612ea3565b5050505090506000816001600160801b0316111561062b5760405163a34123a760e01b81526001600160a01b037f0000000000000000000000000000000000000000000000000000000000000000169063a34123a790612ad89086908690600090600401614b9a565b6040805180830381600087803b158015612af157600080fd5b505af1158015612b05573d6000803e3d6000fd5b505050506040513d601f19601f820116820180604052508101906120dd91906146cc565b600080600080612b3761074b565b9050600080612b44612136565b915091508260001480612b575750600082115b80612b625750600081115b612b7c57634e487b7160e01b600052600160045260246000fd5b82612b9857879450869350612b918585613a56565b9550612c7d565b81612bae57869350612b9181610b4c8686612c93565b80612bc457879450612b9182610b4c8786612c93565b6000881180612bd35750600087115b612bef5760405162461bcd60e51b815260040161058e90614f93565b6000612c08612bfe8a84612c93565b610e248a86612c93565b905080612c1e5788955087945060009650612c7b565b60008111612c3e5760405162461bcd60e51b815260040161058e90615075565b612c516001610e3e84610b4c85846127e1565b9550612c666001610e3e85610b4c85846127e1565b9450612c7882610b4c85818589612c93565b96505b505b5050509250925092565b60006107b882846153b8565b60006107b882846153e4565b60006107b882846153d0565b6125c6846323b872dd60e01b85858560405160240161280c93929190614a82565b6000818310612cdb57816107b8565b5090919050565b6001600160a01b038216612d085760405162461bcd60e51b815260040161058e906152df565b612d146000838361062b565b8060026000828254612d2691906153b8565b90915550506001600160a01b03821660009081526020819052604081208054839290612d539084906153b8565b90915550506040516001600160a01b038316906000907fddf252ad1be2c89b69c2b068fc378daa952ba7f163c4a11628f55a4df523b3ef90612d96908590614b83565b60405180910390a3612daa6000838361062b565b5050565b7f0000000000000000000000000000000000000000000000000000000000000000600282810b9084900b12612df55760405162461bcd60e51b815260040161058e90614cd8565b620d89e719600284900b1215612e1d5760405162461bcd60e51b815260040161058e9061511f565b612e2a620d89e7196154df565b60020b8260020b1315612e4f5760405162461bcd60e51b815260040161058e9061518e565b612e5981846154a9565b60020b15612e795760405162461bcd60e51b815260040161058e90614d49565b612e8381836154a9565b60020b1561062b5760405162461bcd60e51b815260040161058e90614dde565b600080600080600080612eb7308989613a66565b60405163514ea4bf60e01b81529091506001600160a01b037f0000000000000000000000000000000000000000000000000000000000000000169063514ea4bf90612f06908490600401614b83565b60a06040518083038186803b158015612f1e57600080fd5b505afa158015612f32573d6000803e3d6000fd5b505050506040513d601f19601f82011682018060405250810190612f56919061480d565b939c929b5090995097509095509350505050565b60008080806001600160801b038516156130255760405163a34123a760e01b81526001600160a01b037f0000000000000000000000000000000000000000000000000000000000000000169063a34123a790612fce908a908a908a90600401614b9a565b6040805180830381600087803b158015612fe757600080fd5b505af1158015612ffb573d6000803e3d6000fd5b505050506040513d601f19601f8201168201806040525081019061301f91906146cc565b90945092505b6000807f00000000000000000000000000000000000000000000000000000000000000006001600160a01b0316634f1eb3d8308b8b6001600160801b03806040518663ffffffff1660e01b8152600401613083959493929190614b22565b6040805180830381600087803b15801561309c57600080fd5b505af11580156130b0573d6000803e3d6000fd5b505050506040513d601f19601f820116820180604052508101906130d491906147df565b6001600160801b0391821693501690506130ee82876127e1565b93506130fa81866127e1565b6006549093506000908190801561316b5761311c620f4240610b4c8984612c93565b925061312f620f4240610b4c8884612c93565b915061313b87846127e1565b965061314786836127e1565b600b549096506131579084612c87565b600b55600c546131679083612c87565b600c555b7f1ac56d7e866e3f5ea9aa92aa11758ead39a0a5f013f3fefb0f47cb9d008edd27878785856040516131a0949392919061538f565b60405180910390a1505050505093509350935093565b6000807f00000000000000000000000000000000000000000000000000000000000000006001600160a01b0316633850c7bd6040518163ffffffff1660e01b815260040160e06040518083038186803b15801561321257600080fd5b505afa158015613226573d6000803e3d6000fd5b505050506040513d601f19601f8201168201806040525081019061324a919061486e565b505050505050905061326f8161325f88613a9c565b61326888613a9c565b8787613e76565b9695505050505050565b6001600160801b0381161561062b57604051633c8a7d8d60e01b81526001600160a01b037f00000000000000000000000000000000000000000000000000000000000000001690633c8a7d8d90612ad8903090879087908790600401614ae0565b60008060007f00000000000000000000000000000000000000000000000000000000000000006001600160a01b0316633850c7bd6040518163ffffffff1660e01b815260040160e06040518083038186803b15801561333857600080fd5b505afa15801561334c573d6000803e3d6000fd5b505050506040513d601f19601f82011682018060405250810190613370919061486e565b50505050505090506133948161338588613a9c565b61338e88613a9c565b87613f3a565b9250925050935093915050565b6001600160a01b0382166133c75760405162461bcd60e51b815260040161058e90615034565b6133d38260008361062b565b6001600160a01b0382166000908152602081905260409020548181101561340c5760405162461bcd60e51b815260040161058e90614c7a565b6001600160a01b038316600090815260208190526040812083830390556002805484929061343b90849061542b565b90915550506040516000906001600160a01b038516907fddf252ad1be2c89b69c2b068fc378daa952ba7f163c4a11628f55a4df523b3ef9061347e908690614b83565b60405180910390a361062b8360008461062b565b60008060006134a18787612ea3565b50505050905060006134c985610b4c88856001600160801b0316612c9390919063ffffffff16565b9050801561352d576000806000806134ea8c8c6134e588613fd6565b612f6a565b9296509094509250905061350c6135058a610b4c858e612c93565b8590612c87565b975061352661351f8a610b4c848e612c93565b8490612c87565b9650505050505b505094509492505050565b81156137865760405163095ea7b360e01b81526001600160a01b037f0000000000000000000000000000000000000000000000000000000000000000169063095ea7b3906135ac907f0000000000000000000000000000000000000000000000000000000000000000908790600401614b5f565b602060405180830381600087803b1580156135c657600080fd5b505af11580156135da573d6000803e3d6000fd5b505050506040513d601f19601f820116820180604052508101906135fe9190614605565b506040805160028082526060820183526000926020830190803683370190505090507f00000000000000000000000000000000000000000000000000000000000000008160008151811061366257634e487b7160e01b600052603260045260246000fd5b60200260200101906001600160a01b031690816001600160a01b0316815250507f0000000000000000000000000000000000000000000000000000000000000000816001815181106136c457634e487b7160e01b600052603260045260246000fd5b6001600160a01b0392831660209182029290920101526040516338ed173960e01b81527f0000000000000000000000000000000000000000000000000000000000000000909116906338ed17399061372990879060009086908890429060040161532f565b600060405180830381600087803b15801561374357600080fd5b505af1158015613757573d6000803e3d6000fd5b505050506040513d6000823e601f3d908101601f1916820160405261377f919081019061454b565b505061062b565b60405163095ea7b360e01b81526001600160a01b037f0000000000000000000000000000000000000000000000000000000000000000169063095ea7b3906137f4907f0000000000000000000000000000000000000000000000000000000000000000908790600401614b5f565b602060405180830381600087803b15801561380e57600080fd5b505af1158015613822573d6000803e3d6000fd5b505050506040513d601f19601f820116820180604052508101906138469190614605565b506040805160028082526060820183526000926020830190803683370190505090507f0000000000000000000000000000000000000000000000000000000000000000816000815181106138aa57634e487b7160e01b600052603260045260246000fd5b60200260200101906001600160a01b031690816001600160a01b0316815250507f00000000000000000000000000000000000000000000000000000000000000008160018151811061390c57634e487b7160e01b600052603260045260246000fd5b6001600160a01b0392831660209182029290920101526040516338ed173960e01b81527f0000000000000000000000000000000000000000000000000000000000000000909116906338ed17399061397190879060009086908890429060040161532f565b600060405180830381600087803b15801561398b57600080fd5b505af115801561399f573d6000803e3d6000fd5b505050506040513d6000823e601f3d908101601f191682016040526120dd919081019061454b565b6000613a1c826040518060400160405280602081526020017f5361666545524332303a206c6f772d6c6576656c2063616c6c206661696c6564815250856001600160a01b03166140019092919063ffffffff16565b80519091501561062b5780806020019051810190613a3a9190614605565b61062b5760405162461bcd60e51b815260040161058e90615219565b600081831015612cdb57816107b8565b6000838383604051602001613a7d93929190614a1d565b6040516020818303038152906040528051906020012090509392505050565b60008060008360020b12613ab3578260020b613ac0565b8260020b613ac090615500565b9050600060018216613ad657600160801b613ae8565b6ffffcb933bd6fad37aa2d162d1a5940015b70ffffffffffffffffffffffffffffffffff1690506002821615613b27576080613b22826ffff97272373d413259a46990580e213a6153e4565b901c90505b6004821615613b51576080613b4c826ffff2e50f5f656932ef12357cf3c7fdcc6153e4565b901c90505b6008821615613b7b576080613b76826fffe5caca7e10e4e61c3624eaa0941cd06153e4565b901c90505b6010821615613ba5576080613ba0826fffcb9843d60f6159c9db58835c9266446153e4565b901c90505b6020821615613bcf576080613bca826fff973b41fa98c081472e6896dfb254c06153e4565b901c90505b6040821615613bf9576080613bf4826fff2ea16466c96a3843ec78b326b528616153e4565b901c90505b6080821615613c23576080613c1e826ffe5dee046a99a2a811c461f1969c30536153e4565b901c90505b610100821615613c4e576080613c49826ffcbe86c7900a88aedcffc83b479aa3a46153e4565b901c90505b610200821615613c79576080613c74826ff987a7253ac413176f2b074cf7815e546153e4565b901c90505b610400821615613ca4576080613c9f826ff3392b0822b70005940c7a398e4b70f36153e4565b901c90505b610800821615613ccf576080613cca826fe7159475a2c29b7443b29c7fa6e889d96153e4565b901c90505b611000821615613cfa576080613cf5826fd097f3bdfd2022b8845ad8f792aa58256153e4565b901c90505b612000821615613d25576080613d20826fa9f746462d870fdf8a65dc1f90e061e56153e4565b901c90505b614000821615613d50576080613d4b826f70d869a156d2a1b890bb3df62baf32f76153e4565b901c90505b618000821615613d7b576080613d76826f31be135f97d08fd981231505542fcfa66153e4565b901c90505b62010000821615613da7576080613da2826f09aa508b5b7a84e1c677de54f3e99bc96153e4565b901c90505b62020000821615613dd2576080613dcd826e5d6af8dedb81196699c329225ee6046153e4565b901c90505b62040000821615613dfc576080613df7826d2216e584f5fa1ea926041bedfe986153e4565b901c90505b62080000821615613e24576080613e1f826b048a170391f7dc42444e8fa26153e4565b901c90505b60008460020b1315613e3f57613e3c816000196153d0565b90505b613e4e640100000000826154cb565b15613e5a576001613e5d565b60005b613e6e9060ff16602083901c6153b8565b949350505050565b6000836001600160a01b0316856001600160a01b03161115613e96579293925b846001600160a01b0316866001600160a01b031611613ec157613eba858585614010565b9050613f31565b836001600160a01b0316866001600160a01b03161015613f23576000613ee8878686614010565b90506000613ef787898661407a565b9050806001600160801b0316826001600160801b031610613f185780613f1a565b815b92505050613f31565b613f2e85858461407a565b90505b95945050505050565b600080836001600160a01b0316856001600160a01b03161115613f5b579293925b846001600160a01b0316866001600160a01b031611613f8657613f7f8585856140b0565b9150613fcd565b836001600160a01b0316866001600160a01b03161015613fbf57613fab8685856140b0565b9150613fb8858785614123565b9050613fcd565b613fca858585614123565b90505b94509492505050565b60006001600160801b03821115613ffd57634e487b7160e01b600052600160045260246000fd5b5090565b6060613e6e848460008561416d565b6000826001600160a01b0316846001600160a01b03161115614030579192915b6000614053856001600160a01b0316856001600160a01b0316600160601b61422d565b9050613f3161407584836140678989615403565b6001600160a01b031661422d565b6143a3565b6000826001600160a01b0316846001600160a01b0316111561409a579192915b613e6e61407583600160601b6140678888615403565b6000826001600160a01b0316846001600160a01b031611156140d0579192915b6001600160a01b0384166141196fffffffffffffffffffffffffffffffff60601b606085901b166141018787615403565b6001600160a01b0316866001600160a01b031661422d565b613e6e91906153d0565b6000826001600160a01b0316846001600160a01b03161115614143579192915b613e6e6001600160801b03831661415a8686615403565b6001600160a01b0316600160601b61422d565b60608247101561418f5760405162461bcd60e51b815260040161058e90614e7d565b614198856143b9565b6141b45760405162461bcd60e51b815260040161058e906151ba565b600080866001600160a01b031685876040516141d09190614a52565b60006040518083038185875af1925050503d806000811461420d576040519150601f19603f3d011682016040523d82523d6000602084013e614212565b606091505b50915091506142228282866143ea565b979650505050505050565b6000808060001985870986860292508281109083900303905080614263576000841161425857600080fd5b5082900490506107b8565b80841161426f57600080fd5b600084868809808403938111909203919050600061428f861960016153b8565b86169586900495938490049360008190030460010190506142b081846153e4565b9093179260006142c18760036153e4565b60021890506142d081886153e4565b6142db90600261542b565b6142e590826153e4565b90506142f181886153e4565b6142fc90600261542b565b61430690826153e4565b905061431281886153e4565b61431d90600261542b565b61432790826153e4565b905061433381886153e4565b61433e90600261542b565b61434890826153e4565b905061435481886153e4565b61435f90600261542b565b61436990826153e4565b905061437581886153e4565b61438090600261542b565b61438a90826153e4565b905061439681866153e4565b9998505050505050505050565b806001600160801b03811681146118d557600080fd5b600080826001600160a01b0316803b806020016040519081016040528181526000908060200190933c511192915050565b606083156143f95750816107b8565b8251156144095782518084602001fd5b8160405162461bcd60e51b815260040161058e9190614be0565b805180151581146118d557600080fd5b60008083601f840112614444578182fd5b50813567ffffffffffffffff81111561445b578182fd5b60208301915083602082850101111561447357600080fd5b9250929050565b805161ffff811681146118d557600080fd5b60006020828403121561449d578081fd5b81356107b88161555c565b600080604083850312156144ba578081fd5b82356144c58161555c565b915060208301356144d58161555c565b809150509250929050565b6000806000606084860312156144f4578081fd5b83356144ff8161555c565b9250602084013561450f8161555c565b929592945050506040919091013590565b60008060408385031215614532578182fd5b823561453d8161555c565b946020939093013593505050565b6000602080838503121561455d578182fd5b825167ffffffffffffffff80821115614574578384fd5b818501915085601f830112614587578384fd5b81518181111561459957614599615546565b838102604051858282010181811085821117156145b8576145b8615546565b604052828152858101935084860182860187018a10156145d6578788fd5b8795505b838610156145f85780518552600195909501949386019386016145da565b5098975050505050505050565b600060208284031215614616578081fd5b6107b882614423565b600080600060608486031215614633578283fd5b833561463e8161555c565b92506020840135915060408401356146558161555c565b809150509250925092565b60008060408385031215614672578182fd5b823561467d81615574565b915060208301356144d581615574565b6000806000606084860312156146a1578283fd5b83356146ac81615574565b925060208401356146bc81615574565b9150604084013561465581615583565b600080604083850312156146de578182fd5b505080516020909101519092909150565b60008060008060608587031215614704578182fd5b8435935060208501359250604085013567ffffffffffffffff811115614728578283fd5b61473487828801614433565b95989497509550505050565b600080600080600080600080610100898b03121561475c578586fd5b88359750602089013561476e8161555c565b9650604089013561477e81615574565b9550606089013561478e81615574565b9450608089013561479e81615574565b935060a08901356147ae81615574565b925060c08901356147be81615574565b915060e08901356147ce81615574565b809150509295985092959890939650565b600080604083850312156147f1578182fd5b82516147fc81615583565b60208401519092506144d581615583565b600080600080600060a08688031215614824578283fd5b855161482f81615583565b809550506020860151935060408601519250606086015161484f81615583565b608087015190925061486081615583565b809150509295509295909350565b600080600080600080600060e0888a031215614888578081fd5b87516148938161555c565b60208901519097506148a481615574565b95506148b26040890161447a565b94506148c06060890161447a565b93506148ce6080890161447a565b925060a088015160ff811681146148e3578182fd5b91506148f160c08901614423565b905092959891949750929550565b600060208284031215614910578081fd5b5035919050565b600060208284031215614928578081fd5b5051919050565b600080600060608486031215614943578081fd5b833592506020840135915060408401356146558161555c565b60008060008060808587031215614971578182fd5b84359350602085013592506040850135915060608501356149918161555c565b939692955090935050565b600080600080600060a086880312156149b3578283fd5b8535945060208601359350604086013592506060860135915060808601356148608161555c565b6000815180845260208085019450808401835b83811015614a125781516001600160a01b0316875295820195908201906001016149ed565b509495945050505050565b60609390931b6bffffffffffffffffffffffff19168352600291820b60e890811b6014850152910b901b6017820152601a0190565b60008251614a64818460208701615442565b9190910192915050565b6001600160a01b0391909116815260200190565b6001600160a01b039384168152919092166020820152604081019190915260600190565b6001600160a01b03948516815292151560208401526040830191909152909116606082015260a06080820181905260009082015260c00190565b6001600160a01b03949094168452600292830b6020850152910b60408301526001600160801b0316606082015260a06080820181905260009082015260c00190565b6001600160a01b03959095168552600293840b60208601529190920b60408401526001600160801b03918216606084015216608082015260a00190565b6001600160a01b03929092168252602082015260400190565b901515815260200190565b90815260200190565b60029190910b815260200190565b600293840b81529190920b60208201526001600160801b03909116604082015260600190565b60029490940b845260208401929092526040830152606082015260800190565b6000602082528251806020840152614bff816040850160208701615442565b601f01601f19169190910160400192915050565b60208082526023908201527f45524332303a207472616e7366657220746f20746865207a65726f206164647260408201526265737360e81b606082015260800190565b6020808252600a908201526930b6b7bab73a1826b4b760b11b604082015260600190565b60208082526022908201527f45524332303a206275726e20616d6f756e7420657863656564732062616c616e604082015261636560f01b606082015260800190565b602080825260029082015261746f60f01b604082015260600190565b6020808252601590820152743a34b1b5a637bbb2b9101e103a34b1b5aab83832b960591b604082015260600190565b60208082526022908201527f45524332303a20617070726f766520746f20746865207a65726f206164647265604082015261737360f01b606082015260800190565b60208082526017908201527f7469636b4c6f7765722025207469636b53706163696e67000000000000000000604082015260600190565b6020808252600d908201526c7377617070656453686172657360981b604082015260600190565b6020808252601d908201527f45524332303a20696e73756666696369656e7420616c6c6f77616e6365000000604082015260600190565b60208082526017908201527f7469636b55707065722025207469636b53706163696e67000000000000000000604082015260600190565b60208082526026908201527f45524332303a207472616e7366657220616d6f756e7420657863656564732062604082015265616c616e636560d01b606082015260800190565b6020808252600890820152673134b22ab83832b960c11b604082015260600190565b60208082526026908201527f416464726573733a20696e73756666696369656e742062616c616e636520666f6040820152651c8818d85b1b60d21b606082015260800190565b6020808252818101527f616d6f756e743044657369726564206f7220616d6f756e743144657369726564604082015260600190565b60208082526011908201527070656e64696e67476f7665726e616e636560781b604082015260600190565b602080825260129082015271616d6f756e7430206f7220616d6f756e743160701b604082015260600190565b6020808252600b908201526a70726f746f636f6c46656560a81b604082015260600190565b6020808252600590820152643a37b5b2b760d91b604082015260600190565b6020808252601b908201527f61746c65617374206f6e6520746f6b656e206973206e65656465640000000000604082015260600190565b6020808252600c908201526b29b430b93832a5b2b2b832b960a11b604082015260600190565b6020808252600a9082015269676f7665726e616e636560b01b604082015260600190565b60208082526006908201526573686172657360d01b604082015260600190565b60208082526021908201527f45524332303a206275726e2066726f6d20746865207a65726f206164647265736040820152607360f81b606082015260800190565b60208082526005908201526463726f737360d81b604082015260600190565b60208082526025908201527f45524332303a207472616e736665722066726f6d20746865207a65726f206164604082015264647265737360d81b606082015260800190565b6020808252600a908201526930b6b7bab73a18a6b4b760b11b604082015260600190565b60208082526008908201526730b9b5a637bbb2b960c11b604082015260600190565b6020808252601190820152707469636b4c6f77657220746f6f206c6f7760781b604082015260600190565b60208082526024908201527f45524332303a20617070726f76652066726f6d20746865207a65726f206164646040820152637265737360e01b606082015260800190565b6020808252601290820152710e8d2c6d6aae0e0cae440e8dede40d0d2ced60731b604082015260600190565b6020808252601d908201527f416464726573733a2063616c6c20746f206e6f6e2d636f6e7472616374000000604082015260600190565b6020808252600e908201526d6d6178546f74616c537570706c7960901b604082015260600190565b6020808252602a908201527f5361666545524332303a204552433230206f7065726174696f6e20646964206e6040820152691bdd081cdd58d8d9595960b21b606082015260800190565b6020808252601f908201527f5265656e7472616e637947756172643a207265656e7472616e742063616c6c00604082015260600190565b60208082526025908201527f45524332303a2064656372656173656420616c6c6f77616e63652062656c6f77604082015264207a65726f60d81b606082015260800190565b6020808252601f908201527f45524332303a206d696e7420746f20746865207a65726f206164647265737300604082015260600190565b600083825260406020830152613e6e60408301846149da565b600086825285602083015260a0604083015261534e60a08301866149da565b6001600160a01b0394909416606083015250608001529392505050565b918252602082015260400190565b9283526020830191909152604082015260600190565b93845260208401929092526040830152606082015260800190565b60ff91909116815260200190565b600082198211156153cb576153cb61551a565b500190565b6000826153df576153df615530565b500490565b60008160001904831182151516156153fe576153fe61551a565b500290565b60006001600160a01b03838116908316818110156154235761542361551a565b039392505050565b60008282101561543d5761543d61551a565b500390565b60005b8381101561545d578181015183820152602001615445565b838111156125c65750506000910152565b60028104600182168061548257607f821691505b602082108114156154a357634e487b7160e01b600052602260045260246000fd5b50919050565b60008260020b806154bc576154bc615530565b808360020b0791505092915050565b6000826154da576154da615530565b500690565b60008160020b627fffff198114156154f9576154f961551a565b9003919050565b6000600160ff1b8214156155165761551661551a565b0390565b634e487b7160e01b600052601160045260246000fd5b634e487b7160e01b600052601260045260246000fd5b634e487b7160e01b600052604160045260246000fd5b6001600160a01b038116811461557157600080fd5b50565b8060020b811461557157600080fd5b6001600160801b038116811461557157600080fdfea2646970667358221220e6a343465329ac8503a2ba9768ab8f60bd2eeff7a428619350580678cc210d2c64736f6c63430008000033","bytecodeSha1":"e8550fbd2bc4cc5bd66c8cb2cae06421b3caa695","compiler":{"evm_version":"istanbul","optimizer":{"enabled":true,"runs":200},"version":"0.8.0+commit.c7dfd78e"},"contractName":"Sharpe","language":"Solidity","natspec":{"kind":"dev","methods":{"acceptGovernance()":{"notice":"`setGovernance()` should be called by the existing governance address prior to calling this function."},"allowance(address,address)":{"details":"See {IERC20-allowance}."},"approve(address,uint256)":{"details":"See {IERC20-approve}. NOTE: If `amount` is the maximum `uint256`, the allowance is not updated on `transferFrom`. This is semantically equivalent to an infinite approval. Requirements: - `spender` cannot be the zero address."},"balanceOf(address)":{"details":"See {IERC20-balanceOf}."},"collectProtocol(uint256,uint256,address)":{"notice":"Used to collect accumulated protocol fees."},"constructor":{"notice":"This vault is mainly for stablecoin pairs dev After deploying, strategy needs to be set by offchain devs param _pool Underlying Uniswap V3 pool param _router Underlying Uniswap V2 router param _protocolFee Protocol fee expressed as multiple of 1e-6 param _maxTotalSupply Cap on total supply"},"decimals()":{"details":"Returns the number of decimals used to get its user representation. For example, if `decimals` equals `2`, a balance of `505` tokens should be displayed to a user as `5.05` (`505 / 10 ** 2`). Tokens usually opt for a value of 18, imitating the relationship between Ether and Wei. This is the value {ERC20} uses, unless this function is overridden; NOTE: This information is only used for _display_ purposes: it in no way affects any of the arithmetic of the contract, including {IERC20-balanceOf} and {IERC20-transfer}."},"decreaseAllowance(address,uint256)":{"details":"Atomically decreases the allowance granted to `spender` by the caller. This is an alternative to {approve} that can be used as a mitigation for problems described in {IERC20-approve}. Emits an {Approval} event indicating the updated allowance. Requirements: - `spender` cannot be the zero address. - `spender` must have allowance for the caller of at least `subtractedValue`."},"deposit(uint256,uint256,uint256,uint256,address)":{"details":"These tokens sit in the vault and are not used for liquidity on Uniswap until the next rebalance. Also note it's not necessary to check if user manipulated price to deposit cheaper, as the value of range orders can only by manipulated higher. In a scenario where user has only one of each tokens the vault performs a swap on their behalf at point of deposit.","notice":"Deposits tokens in proportion to the vault's current holdings.","params":{"amount0Desired":"Max amount of token0 to deposit","amount0Min":"Revert if resulting `amount0` is less than this","amount1Desired":"Max amount of token1 to deposit","amount1Min":"Revert if resulting `amount1` is less than this","to":"Recipient of shares"},"returns":{"amount0":"Amount of token0 deposited","amount1":"Amount of token1 deposited","shares":"Number of shares minted"}},"emergencyBurn(int24,int24,uint128)":{"notice":"Removes liquidity in case of emergency."},"getBalance0()":{"notice":"Balance of token0 in vault not used in any position."},"getBalance1()":{"notice":"Balance of token1 in vault not used in any position."},"getPositionAmounts(int24,int24)":{"notice":"Amounts of token0 and token1 held in vault's position. Includes owed fees but excludes the proportion of fees that will be paid to the protocol. Doesn't include fees accrued since last poke."},"getTotalAmounts()":{"notice":"Calculates the vault's total holdings of token0 and token1 - in other words, how much of each token the vault would hold if it withdrew all its liquidity from Uniswap."},"increaseAllowance(address,uint256)":{"details":"Atomically increases the allowance granted to `spender` by the caller. This is an alternative to {approve} that can be used as a mitigation for problems described in {IERC20-approve}. Emits an {Approval} event indicating the updated allowance. Requirements: - `spender` cannot be the zero address."},"name()":{"details":"Returns the name of the token."},"rebalance(int256,uint160,int24,int24,int24,int24,int24,int24)":{"details":"Two orders are placed - a base order and a limit order. The base order is placed first with as much liquidity as possible. This order should use up all of one token, leaving only the other one. This excess amount is then placed as a single-sided bid or ask order.","notice":"Updates vault's positions. Can only be called by the strategy/sharpeKeeper."},"setGovernance(address)":{"notice":"Governance address is not updated until the new governance address has called `acceptGovernance()` to accept this responsibility."},"setMaxTotalSupply(uint256)":{"notice":"Used to change deposit cap for a guarded launch or to ensure vault doesn't  grow too large relative to the pool. Cap is on total supply rather than amounts  of token0 and token1 as those amounts fluctuate naturally over time."},"setProtocolFee(uint256)":{"notice":"Used to change the protocol fee charged on pool fees earned from Uniswap, expressed as multiple of 1e-6."},"setSharpeKeeper(address)":{"notice":"set SharpeKeeper Used to set the strategy contract that determines the position ranges and calls rebalance(). Must be called after this vault is deployed."},"sweep(address,uint256,address)":{"notice":"Removes tokens accidentally sent to this vault."},"symbol()":{"details":"Returns the symbol of the token, usually a shorter version of the name."},"totalSupply()":{"details":"See {IERC20-totalSupply}."},"transfer(address,uint256)":{"details":"See {IERC20-transfer}. Requirements: - `to` cannot be the zero address. - the caller must have a balance of at least `amount`."},"transferFrom(address,address,uint256)":{"details":"See {IERC20-transferFrom}. Emits an {Approval} event indicating the updated allowance. This is not required by the EIP. See the note at the beginning of {ERC20}. NOTE: Does not update the allowance if the current allowance is the maximum `uint256`. Requirements: - `from` and `to` cannot be the zero address. - `from` must have a balance of at least `amount`. - the caller must have allowance for ``from``'s tokens of at least `amount`."},"uniswapV3MintCallback(uint256,uint256,bytes)":{"details":"Callback for Uniswap V3 pool."},"uniswapV3SwapCallback(int256,int256,bytes)":{"details":"Callback for Uniswap V3 pool."},"withdraw(uint256,uint256,uint256,address)":{"notice":"Withdraws tokens in proportion to the vault's holdings.","params":{"amount0Min":"Revert if resulting `amount0` is smaller than this","amount1Min":"Revert if resulting `amount1` is smaller than this","shares":"Shares burned by sender","to":"Recipient of tokens"},"returns":{"amount0":"Amount of token0 sent to recipient","amount1":"Amount of token1 sent to recipient"}}},"version":1},"opcodes":"PUSH1 0x80 PUSH1 0x40 MSTORE CALLVALUE DUP1 ISZERO PUSH2 0x10 JUMPI PUSH1 0x0 DUP1 REVERT JUMPDEST POP PUSH1 0x4 CALLDATASIZE LT PUSH2 0x295 JUMPI PUSH1 0x0 CALLDATALOAD PUSH1 0xE0 SHR DUP1 PUSH4 0x87E5E083 GT PUSH2 0x167 JUMPI DUP1 PUSH4 0xD0C93A7C GT PUSH2 0xCE JUMPI DUP1 PUSH4 0xDD62ED3E GT PUSH2 0x87 JUMPI DUP1 PUSH4 0xDD62ED3E EQ PUSH2 0x51E JUMPI DUP1 PUSH4 0xEAE989A2 EQ PUSH2 0x531 JUMPI DUP1 PUSH4 0xF39C38A0 EQ PUSH2 0x539 JUMPI DUP1 PUSH4 0xF887EA40 EQ PUSH2 0x541 JUMPI DUP1 PUSH4 0xFA082743 EQ PUSH2 0x549 JUMPI DUP1 PUSH4 0xFA461E33 EQ PUSH2 0x551 JUMPI PUSH2 0x295 JUMP JUMPDEST DUP1 PUSH4 0xD0C93A7C EQ PUSH2 0x4CD JUMPI DUP1 PUSH4 0xD21220A7 EQ PUSH2 0x4D5 JUMPI DUP1 PUSH4 0xD331BEF7 EQ PUSH2 0x4DD JUMPI DUP1 PUSH4 0xD3487997 EQ PUSH2 0x4F0 JUMPI DUP1 PUSH4 0xD7CB416F EQ PUSH2 0x503 JUMPI DUP1 PUSH4 0xDC2C256F EQ PUSH2 0x50B JUMPI PUSH2 0x295 JUMP JUMPDEST DUP1 PUSH4 0xA91EF6EB GT PUSH2 0x120 JUMPI DUP1 PUSH4 0xA91EF6EB EQ PUSH2 0x463 JUMPI DUP1 PUSH4 0xAB033EA9 EQ PUSH2 0x484 JUMPI DUP1 PUSH4 0xABBFFCB9 EQ PUSH2 0x497 JUMPI DUP1 PUSH4 0xB0E21E8A EQ PUSH2 0x4AA JUMPI DUP1 PUSH4 0xB3A3D00C EQ PUSH2 0x4B2 JUMPI DUP1 PUSH4 0xC4A7761E EQ PUSH2 0x4C5 JUMPI PUSH2 0x295 JUMP JUMPDEST DUP1 PUSH4 0x87E5E083 EQ PUSH2 0x412 JUMPI DUP1 PUSH4 0x888A9134 EQ PUSH2 0x425 JUMPI DUP1 PUSH4 0x95D89B41 EQ PUSH2 0x42D JUMPI DUP1 PUSH4 0xA00FA77F EQ PUSH2 0x435 JUMPI DUP1 PUSH4 0xA457C2D7 EQ PUSH2 0x43D JUMPI DUP1 PUSH4 0xA9059CBB EQ PUSH2 0x450 JUMPI PUSH2 0x295 JUMP JUMPDEST DUP1 PUSH4 0x313CE567 GT PUSH2 0x20B JUMPI DUP1 PUSH4 0x51E87AF7 GT PUSH2 0x1C4 JUMPI DUP1 PUSH4 0x51E87AF7 EQ PUSH2 0x3CC JUMPI DUP1 PUSH4 0x5AA6E675 EQ PUSH2 0x3D4 JUMPI DUP1 PUSH4 0x629D9405 EQ PUSH2 0x3DC JUMPI DUP1 PUSH4 0x70A08231 EQ PUSH2 0x3E4 JUMPI DUP1 PUSH4 0x787DCE3D EQ PUSH2 0x3F7 JUMPI DUP1 PUSH4 0x7FF36FBE EQ PUSH2 0x40A JUMPI PUSH2 0x295 JUMP JUMPDEST DUP1 PUSH4 0x313CE567 EQ PUSH2 0x35F JUMPI DUP1 PUSH4 0x3268CC56 EQ PUSH2 0x374 JUMPI DUP1 PUSH4 0x365D0ED7 EQ PUSH2 0x37C JUMPI DUP1 PUSH4 0x39509351 EQ PUSH2 0x39E JUMPI DUP1 PUSH4 0x3F3E4C11 EQ PUSH2 0x3B1 JUMPI DUP1 PUSH4 0x41AEC538 EQ PUSH2 0x3C4 JUMPI PUSH2 0x295 JUMP JUMPDEST DUP1 PUSH4 0xF35BCAC GT PUSH2 0x25D JUMPI DUP1 PUSH4 0xF35BCAC EQ PUSH2 0x30A JUMPI DUP1 PUSH4 0x16F0115B EQ PUSH2 0x31F JUMPI DUP1 PUSH4 0x18160DDD EQ PUSH2 0x327 JUMPI DUP1 PUSH4 0x238EFCBC EQ PUSH2 0x33C JUMPI DUP1 PUSH4 0x23B872DD EQ PUSH2 0x344 JUMPI DUP1 PUSH4 0x2AB4D052 EQ PUSH2 0x357 JUMPI PUSH2 0x295 JUMP JUMPDEST DUP1 PUSH4 0x430C130 EQ PUSH2 0x29A JUMPI DUP1 PUSH4 0x6FDDE03 EQ PUSH2 0x2AF JUMPI DUP1 PUSH4 0x95EA7B3 EQ PUSH2 0x2CD JUMPI DUP1 PUSH4 0xC42383A EQ PUSH2 0x2ED JUMPI DUP1 PUSH4 0xDFE1681 EQ PUSH2 0x302 JUMPI JUMPDEST PUSH1 0x0 DUP1 REVERT JUMPDEST PUSH2 0x2AD PUSH2 0x2A8 CALLDATASIZE PUSH1 0x4 PUSH2 0x492F JUMP JUMPDEST PUSH2 0x564 JUMP JUMPDEST STOP JUMPDEST PUSH2 0x2B7 PUSH2 0x630 JUMP JUMPDEST PUSH1 0x40 MLOAD PUSH2 0x2C4 SWAP2 SWAP1 PUSH2 0x4BE0 JUMP JUMPDEST PUSH1 0x40 MLOAD DUP1 SWAP2 SUB SWAP1 RETURN JUMPDEST PUSH2 0x2E0 PUSH2 0x2DB CALLDATASIZE PUSH1 0x4 PUSH2 0x4520 JUMP JUMPDEST PUSH2 0x6C2 JUMP JUMPDEST PUSH1 0x40 MLOAD PUSH2 0x2C4 SWAP2 SWAP1 PUSH2 0x4B78 JUMP JUMPDEST PUSH2 0x2F5 PUSH2 0x6E4 JUMP JUMPDEST PUSH1 0x40 MLOAD PUSH2 0x2C4 SWAP2 SWAP1 PUSH2 0x4A6E JUMP JUMPDEST PUSH2 0x2F5 PUSH2 0x6F3 JUMP JUMPDEST PUSH2 0x312 PUSH2 0x717 JUMP JUMPDEST PUSH1 0x40 MLOAD PUSH2 0x2C4 SWAP2 SWAP1 PUSH2 0x4B8C JUMP JUMPDEST PUSH2 0x2F5 PUSH2 0x727 JUMP JUMPDEST PUSH2 0x32F PUSH2 0x74B JUMP JUMPDEST PUSH1 0x40 MLOAD PUSH2 0x2C4 SWAP2 SWAP1 PUSH2 0x4B83 JUMP JUMPDEST PUSH2 0x2AD PUSH2 0x751 JUMP JUMPDEST PUSH2 0x2E0 PUSH2 0x352 CALLDATASIZE PUSH1 0x4 PUSH2 0x44E0 JUMP JUMPDEST PUSH2 0x78F JUMP JUMPDEST PUSH2 0x32F PUSH2 0x7BF JUMP JUMPDEST PUSH2 0x367 PUSH2 0x7C5 JUMP JUMPDEST PUSH1 0x40 MLOAD PUSH2 0x2C4 SWAP2 SWAP1 PUSH2 0x53AA JUMP JUMPDEST PUSH2 0x2F5 PUSH2 0x7CA JUMP JUMPDEST PUSH2 0x38F PUSH2 0x38A CALLDATASIZE PUSH1 0x4 PUSH2 0x499C JUMP JUMPDEST PUSH2 0x7EE JUMP JUMPDEST PUSH1 0x40 MLOAD PUSH2 0x2C4 SWAP4 SWAP3 SWAP2 SWAP1 PUSH2 0x5379 JUMP JUMPDEST PUSH2 0x2E0 PUSH2 0x3AC CALLDATASIZE PUSH1 0x4 PUSH2 0x4520 JUMP JUMPDEST PUSH2 0x171E JUMP JUMPDEST PUSH2 0x2AD PUSH2 0x3BF CALLDATASIZE PUSH1 0x4 PUSH2 0x48FF JUMP JUMPDEST PUSH2 0x176A JUMP JUMPDEST PUSH2 0x32F PUSH2 0x1799 JUMP JUMPDEST PUSH2 0x312 PUSH2 0x1848 JUMP JUMPDEST PUSH2 0x2F5 PUSH2 0x1858 JUMP JUMPDEST PUSH2 0x32F PUSH2 0x1867 JUMP JUMPDEST PUSH2 0x32F PUSH2 0x3F2 CALLDATASIZE PUSH1 0x4 PUSH2 0x448C JUMP JUMPDEST PUSH2 0x18BB JUMP JUMPDEST PUSH2 0x2AD PUSH2 0x405 CALLDATASIZE PUSH1 0x4 PUSH2 0x48FF JUMP JUMPDEST PUSH2 0x18DA JUMP JUMPDEST PUSH2 0x2F5 PUSH2 0x192B JUMP JUMPDEST PUSH2 0x2AD PUSH2 0x420 CALLDATASIZE PUSH1 0x4 PUSH2 0x4740 JUMP JUMPDEST PUSH2 0x194F JUMP JUMPDEST PUSH2 0x312 PUSH2 0x1DD8 JUMP JUMPDEST PUSH2 0x2B7 PUSH2 0x1DE8 JUMP JUMPDEST PUSH2 0x32F PUSH2 0x1DF7 JUMP JUMPDEST PUSH2 0x2E0 PUSH2 0x44B CALLDATASIZE PUSH1 0x4 PUSH2 0x4520 JUMP JUMPDEST PUSH2 0x1DFD JUMP JUMPDEST PUSH2 0x2E0 PUSH2 0x45E CALLDATASIZE PUSH1 0x4 PUSH2 0x4520 JUMP JUMPDEST PUSH2 0x1E69 JUMP JUMPDEST PUSH2 0x476 PUSH2 0x471 CALLDATASIZE PUSH1 0x4 PUSH2 0x4660 JUMP JUMPDEST PUSH2 0x1E81 JUMP JUMPDEST PUSH1 0x40 MLOAD PUSH2 0x2C4 SWAP3 SWAP2 SWAP1 PUSH2 0x536B JUMP JUMPDEST PUSH2 0x2AD PUSH2 0x492 CALLDATASIZE PUSH1 0x4 PUSH2 0x448C JUMP JUMPDEST PUSH2 0x1F18 JUMP JUMPDEST PUSH2 0x2AD PUSH2 0x4A5 CALLDATASIZE PUSH1 0x4 PUSH2 0x468D JUMP JUMPDEST PUSH2 0x1F64 JUMP JUMPDEST PUSH2 0x32F PUSH2 0x20E4 JUMP JUMPDEST PUSH2 0x2AD PUSH2 0x4C0 CALLDATASIZE PUSH1 0x4 PUSH2 0x448C JUMP JUMPDEST PUSH2 0x20EA JUMP JUMPDEST PUSH2 0x476 PUSH2 0x2136 JUMP JUMPDEST PUSH2 0x312 PUSH2 0x21BD JUMP JUMPDEST PUSH2 0x2F5 PUSH2 0x21E1 JUMP JUMPDEST PUSH2 0x476 PUSH2 0x4EB CALLDATASIZE PUSH1 0x4 PUSH2 0x495C JUMP JUMPDEST PUSH2 0x2205 JUMP JUMPDEST PUSH2 0x2AD PUSH2 0x4FE CALLDATASIZE PUSH1 0x4 PUSH2 0x46EF JUMP JUMPDEST PUSH2 0x251D JUMP JUMPDEST PUSH2 0x2F5 PUSH2 0x25CC JUMP JUMPDEST PUSH2 0x2AD PUSH2 0x519 CALLDATASIZE PUSH1 0x4 PUSH2 0x461F JUMP JUMPDEST PUSH2 0x25F0 JUMP JUMPDEST PUSH2 0x32F PUSH2 0x52C CALLDATASIZE PUSH1 0x4 PUSH2 0x44A8 JUMP JUMPDEST PUSH2 0x26BE JUMP JUMPDEST PUSH2 0x32F PUSH2 0x26E9 JUMP JUMPDEST PUSH2 0x2F5 PUSH2 0x26EF JUMP JUMPDEST PUSH2 0x2F5 PUSH2 0x26FE JUMP JUMPDEST PUSH2 0x312 PUSH2 0x2722 JUMP JUMPDEST PUSH2 0x2AD PUSH2 0x55F CALLDATASIZE PUSH1 0x4 PUSH2 0x46EF JUMP JUMPDEST PUSH2 0x2732 JUMP JUMPDEST PUSH1 0x9 SLOAD PUSH1 0x1 PUSH1 0x1 PUSH1 0xA0 SHL SUB AND CALLER EQ PUSH2 0x597 JUMPI PUSH1 0x40 MLOAD PUSH3 0x461BCD PUSH1 0xE5 SHL DUP2 MSTORE PUSH1 0x4 ADD PUSH2 0x58E SWAP1 PUSH2 0x4FF0 JUMP JUMPDEST PUSH1 0x40 MLOAD DUP1 SWAP2 SUB SWAP1 REVERT JUMPDEST PUSH1 0xB SLOAD PUSH2 0x5A4 SWAP1 DUP5 PUSH2 0x27E1 JUMP JUMPDEST PUSH1 0xB SSTORE PUSH1 0xC SLOAD PUSH2 0x5B4 SWAP1 DUP4 PUSH2 0x27E1 JUMP JUMPDEST PUSH1 0xC SSTORE DUP3 ISZERO PUSH2 0x5F1 JUMPI PUSH2 0x5F1 PUSH1 0x1 PUSH1 0x1 PUSH1 0xA0 SHL SUB PUSH32 0x0 AND DUP3 DUP6 PUSH2 0x27ED JUMP JUMPDEST DUP2 ISZERO PUSH2 0x62B JUMPI PUSH2 0x62B PUSH1 0x1 PUSH1 0x1 PUSH1 0xA0 SHL SUB PUSH32 0x0 AND DUP3 DUP5 PUSH2 0x27ED JUMP JUMPDEST POP POP POP JUMP JUMPDEST PUSH1 0x60 PUSH1 0x3 DUP1 SLOAD PUSH2 0x63F SWAP1 PUSH2 0x546E JUMP JUMPDEST DUP1 PUSH1 0x1F ADD PUSH1 0x20 DUP1 SWAP2 DIV MUL PUSH1 0x20 ADD PUSH1 0x40 MLOAD SWAP1 DUP2 ADD PUSH1 0x40 MSTORE DUP1 SWAP3 SWAP2 SWAP1 DUP2 DUP2 MSTORE PUSH1 0x20 ADD DUP3 DUP1 SLOAD PUSH2 0x66B SWAP1 PUSH2 0x546E JUMP JUMPDEST DUP1 ISZERO PUSH2 0x6B8 JUMPI DUP1 PUSH1 0x1F LT PUSH2 0x68D JUMPI PUSH2 0x100 DUP1 DUP4 SLOAD DIV MUL DUP4 MSTORE SWAP2 PUSH1 0x20 ADD SWAP2 PUSH2 0x6B8 JUMP JUMPDEST DUP3 ADD SWAP2 SWAP1 PUSH1 0x0 MSTORE PUSH1 0x20 PUSH1 0x0 KECCAK256 SWAP1 JUMPDEST DUP2 SLOAD DUP2 MSTORE SWAP1 PUSH1 0x1 ADD SWAP1 PUSH1 0x20 ADD DUP1 DUP4 GT PUSH2 0x69B JUMPI DUP3 SWAP1 SUB PUSH1 0x1F AND DUP3 ADD SWAP2 JUMPDEST POP POP POP POP POP SWAP1 POP SWAP1 JUMP JUMPDEST PUSH1 0x0 DUP1 PUSH2 0x6CD PUSH2 0x2843 JUMP JUMPDEST SWAP1 POP PUSH2 0x6DA DUP2 DUP6 DUP6 PUSH2 0x2847 JUMP JUMPDEST POP PUSH1 0x1 SWAP4 SWAP3 POP POP POP JUMP JUMPDEST PUSH1 0x8 SLOAD PUSH1 0x1 PUSH1 0x1 PUSH1 0xA0 SHL SUB AND DUP2 JUMP JUMPDEST PUSH32 0x0 DUP2 JUMP JUMPDEST PUSH1 0xA SLOAD PUSH1 0x1 PUSH1 0xE8 SHL SWAP1 DIV PUSH1 0x2 SIGNEXTEND DUP2 JUMP JUMPDEST PUSH32 0x0 DUP2 JUMP JUMPDEST PUSH1 0x2 SLOAD SWAP1 JUMP JUMPDEST PUSH1 0xA SLOAD PUSH1 0x1 PUSH1 0x1 PUSH1 0xA0 SHL SUB AND CALLER EQ PUSH2 0x77B JUMPI PUSH1 0x40 MLOAD PUSH3 0x461BCD PUSH1 0xE5 SHL DUP2 MSTORE PUSH1 0x4 ADD PUSH2 0x58E SWAP1 PUSH2 0x4EF8 JUMP JUMPDEST PUSH1 0x9 DUP1 SLOAD PUSH1 0x1 PUSH1 0x1 PUSH1 0xA0 SHL SUB NOT AND CALLER OR SWAP1 SSTORE JUMP JUMPDEST PUSH1 0x0 DUP1 PUSH2 0x79A PUSH2 0x2843 JUMP JUMPDEST SWAP1 POP PUSH2 0x7A7 DUP6 DUP3 DUP6 PUSH2 0x28FB JUMP JUMPDEST PUSH2 0x7B2 DUP6 DUP6 DUP6 PUSH2 0x293F JUMP JUMPDEST PUSH1 0x1 SWAP2 POP POP JUMPDEST SWAP4 SWAP3 POP POP POP JUMP JUMPDEST PUSH1 0x7 SLOAD DUP2 JUMP JUMPDEST PUSH1 0x12 SWAP1 JUMP JUMPDEST PUSH32 0x0 DUP2 JUMP JUMPDEST PUSH1 0x0 DUP1 PUSH1 0x0 PUSH1 0x2 PUSH1 0x5 SLOAD EQ ISZERO PUSH2 0x816 JUMPI PUSH1 0x40 MLOAD PUSH3 0x461BCD PUSH1 0xE5 SHL DUP2 MSTORE PUSH1 0x4 ADD PUSH2 0x58E SWAP1 PUSH2 0x5263 JUMP JUMPDEST PUSH1 0x2 PUSH1 0x5 SSTORE DUP8 ISZERO ISZERO DUP1 PUSH2 0x829 JUMPI POP PUSH1 0x0 DUP8 GT JUMPDEST PUSH2 0x845 JUMPI PUSH1 0x40 MLOAD PUSH3 0x461BCD PUSH1 0xE5 SHL DUP2 MSTORE PUSH1 0x4 ADD PUSH2 0x58E SWAP1 PUSH2 0x4EC3 JUMP JUMPDEST PUSH1 0x1 PUSH1 0x1 PUSH1 0xA0 SHL SUB DUP5 AND ISZERO DUP1 ISZERO SWAP1 PUSH2 0x866 JUMPI POP PUSH1 0x1 PUSH1 0x1 PUSH1 0xA0 SHL SUB DUP5 AND ADDRESS EQ ISZERO JUMPDEST PUSH2 0x882 JUMPI PUSH1 0x40 MLOAD PUSH3 0x461BCD PUSH1 0xE5 SHL DUP2 MSTORE PUSH1 0x4 ADD PUSH2 0x58E SWAP1 PUSH2 0x4CBC JUMP JUMPDEST PUSH1 0xA SLOAD PUSH2 0x8A4 SWAP1 PUSH1 0x1 PUSH1 0xA0 SHL DUP2 DIV PUSH1 0x2 SWAP1 DUP2 SIGNEXTEND SWAP2 PUSH1 0x1 PUSH1 0xB8 SHL SWAP1 DIV SWAP1 SIGNEXTEND PUSH2 0x2A63 JUMP JUMPDEST PUSH1 0xA SLOAD PUSH2 0x8C6 SWAP1 PUSH1 0x1 PUSH1 0xD0 SHL DUP2 DIV PUSH1 0x2 SWAP1 DUP2 SIGNEXTEND SWAP2 PUSH1 0x1 PUSH1 0xE8 SHL SWAP1 DIV SWAP1 SIGNEXTEND PUSH2 0x2A63 JUMP JUMPDEST PUSH2 0x8D0 DUP9 DUP9 PUSH2 0x2B29 JUMP JUMPDEST SWAP2 SWAP5 POP SWAP3 POP SWAP1 POP DUP6 DUP3 LT ISZERO PUSH2 0x8F7 JUMPI PUSH1 0x40 MLOAD PUSH3 0x461BCD PUSH1 0xE5 SHL DUP2 MSTORE PUSH1 0x4 ADD PUSH2 0x58E SWAP1 PUSH2 0x4C56 JUMP JUMPDEST DUP5 DUP2 LT ISZERO PUSH2 0x917 JUMPI PUSH1 0x40 MLOAD PUSH3 0x461BCD PUSH1 0xE5 SHL DUP2 MSTORE PUSH1 0x4 ADD PUSH2 0x58E SWAP1 PUSH2 0x50D9 JUMP JUMPDEST DUP3 PUSH2 0x15F3 JUMPI PUSH1 0x0 DUP3 GT DUP1 ISZERO PUSH2 0x92A JUMPI POP DUP1 ISZERO JUMPDEST DUP1 PUSH2 0x93E JUMPI POP PUSH1 0x0 DUP2 GT DUP1 ISZERO PUSH2 0x93E JUMPI POP DUP2 ISZERO JUMPDEST PUSH2 0x95A JUMPI PUSH1 0x40 MLOAD PUSH3 0x461BCD PUSH1 0xE5 SHL DUP2 MSTORE PUSH1 0x4 ADD PUSH2 0x58E SWAP1 PUSH2 0x4F23 JUMP JUMPDEST PUSH1 0x0 PUSH2 0x964 PUSH2 0x74B JUMP JUMPDEST SWAP1 POP PUSH1 0x0 DUP1 PUSH2 0x971 PUSH2 0x2136 JUMP JUMPDEST SWAP2 POP SWAP2 POP PUSH1 0x0 DUP6 GT DUP1 ISZERO PUSH2 0x983 JUMPI POP DUP4 ISZERO JUMPDEST ISZERO PUSH2 0x100B JUMPI PUSH1 0x40 DUP1 MLOAD PUSH1 0x2 DUP1 DUP3 MSTORE PUSH1 0x60 DUP3 ADD DUP4 MSTORE PUSH1 0x0 SWAP3 PUSH1 0x20 DUP4 ADD SWAP1 DUP1 CALLDATASIZE DUP4 CALLDATACOPY ADD SWAP1 POP POP SWAP1 POP PUSH32 0x0 DUP2 PUSH1 0x0 DUP2 MLOAD DUP2 LT PUSH2 0x9EB JUMPI PUSH4 0x4E487B71 PUSH1 0xE0 SHL PUSH1 0x0 MSTORE PUSH1 0x32 PUSH1 0x4 MSTORE PUSH1 0x24 PUSH1 0x0 REVERT JUMPDEST PUSH1 0x20 MUL PUSH1 0x20 ADD ADD SWAP1 PUSH1 0x1 PUSH1 0x1 PUSH1 0xA0 SHL SUB AND SWAP1 DUP2 PUSH1 0x1 PUSH1 0x1 PUSH1 0xA0 SHL SUB AND DUP2 MSTORE POP POP PUSH32 0x0 DUP2 PUSH1 0x1 DUP2 MLOAD DUP2 LT PUSH2 0xA4D JUMPI PUSH4 0x4E487B71 PUSH1 0xE0 SHL PUSH1 0x0 MSTORE PUSH1 0x32 PUSH1 0x4 MSTORE PUSH1 0x24 PUSH1 0x0 REVERT JUMPDEST PUSH1 0x1 PUSH1 0x1 PUSH1 0xA0 SHL SUB SWAP3 DUP4 AND PUSH1 0x20 SWAP2 DUP3 MUL SWAP3 SWAP1 SWAP3 ADD ADD MSTORE PUSH1 0x40 MLOAD PUSH4 0xD06CA61F PUSH1 0xE0 SHL DUP2 MSTORE PUSH1 0x0 SWAP2 PUSH32 0x0 AND SWAP1 PUSH4 0xD06CA61F SWAP1 PUSH2 0xAAC SWAP1 DUP7 SWAP1 DUP7 SWAP1 PUSH1 0x4 ADD PUSH2 0x5316 JUMP JUMPDEST PUSH1 0x0 PUSH1 0x40 MLOAD DUP1 DUP4 SUB DUP2 DUP7 DUP1 EXTCODESIZE ISZERO DUP1 ISZERO PUSH2 0xAC4 JUMPI PUSH1 0x0 DUP1 REVERT JUMPDEST POP GAS STATICCALL ISZERO DUP1 ISZERO PUSH2 0xAD8 JUMPI RETURNDATASIZE PUSH1 0x0 DUP1 RETURNDATACOPY RETURNDATASIZE PUSH1 0x0 REVERT JUMPDEST POP POP POP POP PUSH1 0x40 MLOAD RETURNDATASIZE PUSH1 0x0 DUP3 RETURNDATACOPY PUSH1 0x1F RETURNDATASIZE SWAP1 DUP2 ADD PUSH1 0x1F NOT AND DUP3 ADD PUSH1 0x40 MSTORE PUSH2 0xB00 SWAP2 SWAP1 DUP2 ADD SWAP1 PUSH2 0x454B JUMP JUMPDEST SWAP1 POP PUSH1 0x0 PUSH2 0xB52 PUSH2 0xB42 DUP4 PUSH1 0x1 DUP2 MLOAD DUP2 LT PUSH2 0xB2B JUMPI PUSH4 0x4E487B71 PUSH1 0xE0 SHL PUSH1 0x0 MSTORE PUSH1 0x32 PUSH1 0x4 MSTORE PUSH1 0x24 PUSH1 0x0 REVERT JUMPDEST PUSH1 0x20 MUL PUSH1 0x20 ADD ADD MLOAD DUP8 PUSH2 0x2C87 SWAP1 SWAP2 SWAP1 PUSH4 0xFFFFFFFF AND JUMP JUMPDEST PUSH2 0xB4C DUP11 DUP9 PUSH2 0x2C93 JUMP JUMPDEST SWAP1 PUSH2 0x2C9F JUMP JUMPDEST SWAP1 POP PUSH1 0x0 PUSH2 0xB60 DUP10 DUP4 PUSH2 0x27E1 JUMP JUMPDEST SWAP1 POP PUSH2 0xB97 PUSH1 0x1 PUSH1 0x1 PUSH1 0xA0 SHL SUB PUSH32 0x0 AND CALLER ADDRESS DUP13 PUSH2 0x2CAB JUMP JUMPDEST PUSH1 0x40 MLOAD PUSH4 0x95EA7B3 PUSH1 0xE0 SHL DUP2 MSTORE PUSH1 0x1 PUSH1 0x1 PUSH1 0xA0 SHL SUB PUSH32 0x0 AND SWAP1 PUSH4 0x95EA7B3 SWAP1 PUSH2 0xC05 SWAP1 PUSH32 0x0 SWAP1 DUP6 SWAP1 PUSH1 0x4 ADD PUSH2 0x4B5F JUMP JUMPDEST PUSH1 0x20 PUSH1 0x40 MLOAD DUP1 DUP4 SUB DUP2 PUSH1 0x0 DUP8 DUP1 EXTCODESIZE ISZERO DUP1 ISZERO PUSH2 0xC1F JUMPI PUSH1 0x0 DUP1 REVERT JUMPDEST POP GAS CALL ISZERO DUP1 ISZERO PUSH2 0xC33 JUMPI RETURNDATASIZE PUSH1 0x0 DUP1 RETURNDATACOPY RETURNDATASIZE PUSH1 0x0 REVERT JUMPDEST POP POP POP POP PUSH1 0x40 MLOAD RETURNDATASIZE PUSH1 0x1F NOT PUSH1 0x1F DUP3 ADD AND DUP3 ADD DUP1 PUSH1 0x40 MSTORE POP DUP2 ADD SWAP1 PUSH2 0xC57 SWAP2 SWAP1 PUSH2 0x4605 JUMP JUMPDEST POP PUSH1 0x40 DUP1 MLOAD PUSH1 0x2 DUP1 DUP3 MSTORE PUSH1 0x60 DUP3 ADD DUP4 MSTORE PUSH1 0x0 SWAP3 PUSH1 0x20 DUP4 ADD SWAP1 DUP1 CALLDATASIZE DUP4 CALLDATACOPY ADD SWAP1 POP POP SWAP1 POP PUSH32 0x0 DUP2 PUSH1 0x0 DUP2 MLOAD DUP2 LT PUSH2 0xCBB JUMPI PUSH4 0x4E487B71 PUSH1 0xE0 SHL PUSH1 0x0 MSTORE PUSH1 0x32 PUSH1 0x4 MSTORE PUSH1 0x24 PUSH1 0x0 REVERT JUMPDEST PUSH1 0x20 MUL PUSH1 0x20 ADD ADD SWAP1 PUSH1 0x1 PUSH1 0x1 PUSH1 0xA0 SHL SUB AND SWAP1 DUP2 PUSH1 0x1 PUSH1 0x1 PUSH1 0xA0 SHL SUB AND DUP2 MSTORE POP POP PUSH32 0x0 DUP2 PUSH1 0x1 DUP2 MLOAD DUP2 LT PUSH2 0xD1D JUMPI PUSH4 0x4E487B71 PUSH1 0xE0 SHL PUSH1 0x0 MSTORE PUSH1 0x32 PUSH1 0x4 MSTORE PUSH1 0x24 PUSH1 0x0 REVERT JUMPDEST PUSH1 0x1 PUSH1 0x1 PUSH1 0xA0 SHL SUB SWAP3 DUP4 AND PUSH1 0x20 SWAP2 DUP3 MUL SWAP3 SWAP1 SWAP3 ADD ADD MSTORE PUSH1 0x40 MLOAD PUSH4 0x38ED1739 PUSH1 0xE0 SHL DUP2 MSTORE PUSH1 0x0 SWAP2 PUSH32 0x0 AND SWAP1 PUSH4 0x38ED1739 SWAP1 PUSH2 0xD82 SWAP1 DUP7 SWAP1 DUP6 SWAP1 DUP8 SWAP1 ADDRESS SWAP1 TIMESTAMP SWAP1 PUSH1 0x4 ADD PUSH2 0x532F JUMP JUMPDEST PUSH1 0x0 PUSH1 0x40 MLOAD DUP1 DUP4 SUB DUP2 PUSH1 0x0 DUP8 DUP1 EXTCODESIZE ISZERO DUP1 ISZERO PUSH2 0xD9C JUMPI PUSH1 0x0 DUP1 REVERT JUMPDEST POP GAS CALL ISZERO DUP1 ISZERO PUSH2 0xDB0 JUMPI RETURNDATASIZE PUSH1 0x0 DUP1 RETURNDATACOPY RETURNDATASIZE PUSH1 0x0 REVERT JUMPDEST POP POP POP POP PUSH1 0x40 MLOAD RETURNDATASIZE PUSH1 0x0 DUP3 RETURNDATACOPY PUSH1 0x1F RETURNDATASIZE SWAP1 DUP2 ADD PUSH1 0x1F NOT AND DUP3 ADD PUSH1 0x40 MSTORE PUSH2 0xDD8 SWAP2 SWAP1 DUP2 ADD SWAP1 PUSH2 0x454B JUMP JUMPDEST SWAP1 POP PUSH1 0x0 PUSH2 0xE29 PUSH2 0xDE9 DUP7 DUP11 PUSH2 0x2C93 JUMP JUMPDEST PUSH2 0xE24 DUP12 DUP6 PUSH1 0x1 DUP2 MLOAD DUP2 LT PUSH2 0xE0E JUMPI PUSH4 0x4E487B71 PUSH1 0xE0 SHL PUSH1 0x0 MSTORE PUSH1 0x32 PUSH1 0x4 MSTORE PUSH1 0x24 PUSH1 0x0 REVERT JUMPDEST PUSH1 0x20 MUL PUSH1 0x20 ADD ADD MLOAD PUSH2 0x2C93 SWAP1 SWAP2 SWAP1 PUSH4 0xFFFFFFFF AND JUMP JUMPDEST PUSH2 0x2CCC JUMP JUMPDEST SWAP1 POP PUSH2 0xE44 PUSH1 0x1 PUSH2 0xE3E DUP11 PUSH2 0xB4C DUP6 DUP5 PUSH2 0x27E1 JUMP JUMPDEST SWAP1 PUSH2 0x2C87 JUMP JUMPDEST SWAP12 POP PUSH2 0xE59 PUSH1 0x1 PUSH2 0xE3E DUP12 PUSH2 0xB4C DUP6 DUP5 PUSH2 0x27E1 JUMP JUMPDEST SWAP11 POP PUSH2 0xE6B DUP9 PUSH2 0xB4C DUP12 DUP2 DUP6 DUP16 PUSH2 0x2C93 JUMP JUMPDEST SWAP13 POP PUSH1 0x0 DUP14 GT PUSH2 0xE8D JUMPI PUSH1 0x40 MLOAD PUSH3 0x461BCD PUSH1 0xE5 SHL DUP2 MSTORE PUSH1 0x4 ADD PUSH2 0x58E SWAP1 PUSH2 0x4D80 JUMP JUMPDEST PUSH1 0x0 PUSH2 0xE99 DUP7 DUP15 PUSH2 0x27E1 JUMP JUMPDEST GT ISZERO PUSH2 0xEDE JUMPI PUSH2 0xEDE DUP15 PUSH2 0xEAD DUP8 DUP16 PUSH2 0x27E1 JUMP JUMPDEST PUSH1 0x1 PUSH1 0x1 PUSH1 0xA0 SHL SUB PUSH32 0x0 AND SWAP2 SWAP1 PUSH2 0x27ED JUMP JUMPDEST PUSH1 0x0 PUSH2 0xF1B DUP13 DUP5 PUSH1 0x1 DUP2 MLOAD DUP2 LT PUSH2 0xF05 JUMPI PUSH4 0x4E487B71 PUSH1 0xE0 SHL PUSH1 0x0 MSTORE PUSH1 0x32 PUSH1 0x4 MSTORE PUSH1 0x24 PUSH1 0x0 REVERT JUMPDEST PUSH1 0x20 MUL PUSH1 0x20 ADD ADD MLOAD PUSH2 0x27E1 SWAP1 SWAP2 SWAP1 PUSH4 0xFFFFFFFF AND JUMP JUMPDEST GT ISZERO PUSH2 0xF7B JUMPI PUSH2 0xF7B DUP15 PUSH2 0xF4A DUP14 DUP6 PUSH1 0x1 DUP2 MLOAD DUP2 LT PUSH2 0xF05 JUMPI PUSH4 0x4E487B71 PUSH1 0xE0 SHL PUSH1 0x0 MSTORE PUSH1 0x32 PUSH1 0x4 MSTORE PUSH1 0x24 PUSH1 0x0 REVERT JUMPDEST PUSH1 0x1 PUSH1 0x1 PUSH1 0xA0 SHL SUB PUSH32 0x0 AND SWAP2 SWAP1 PUSH2 0x27ED JUMP JUMPDEST PUSH2 0xF85 DUP15 DUP15 PUSH2 0x2CE2 JUMP JUMPDEST DUP14 PUSH1 0x1 PUSH1 0x1 PUSH1 0xA0 SHL SUB AND CALLER PUSH1 0x1 PUSH1 0x1 PUSH1 0xA0 SHL SUB AND PUSH32 0x4E2CA0515ED1AEF1395F66B5303BB5D6F1BF9D61A353FA53F73F8AC9973FA9F6 DUP16 DUP16 DUP16 PUSH1 0x40 MLOAD PUSH2 0xFCC SWAP4 SWAP3 SWAP2 SWAP1 PUSH2 0x5379 JUMP JUMPDEST PUSH1 0x40 MLOAD DUP1 SWAP2 SUB SWAP1 LOG3 PUSH1 0x7 SLOAD PUSH2 0xFE1 DUP12 DUP16 PUSH2 0x2C87 JUMP JUMPDEST GT ISZERO PUSH2 0xFFF JUMPI PUSH1 0x40 MLOAD PUSH3 0x461BCD PUSH1 0xE5 SHL DUP2 MSTORE PUSH1 0x4 ADD PUSH2 0x58E SWAP1 PUSH2 0x51F1 JUMP JUMPDEST POP POP POP POP POP POP POP PUSH2 0x15EB JUMP JUMPDEST PUSH1 0x40 DUP1 MLOAD PUSH1 0x2 DUP1 DUP3 MSTORE PUSH1 0x60 DUP3 ADD DUP4 MSTORE PUSH1 0x0 SWAP3 PUSH1 0x20 DUP4 ADD SWAP1 DUP1 CALLDATASIZE DUP4 CALLDATACOPY ADD SWAP1 POP POP SWAP1 POP PUSH32 0x0 DUP2 PUSH1 0x0 DUP2 MLOAD DUP2 LT PUSH2 0x106E JUMPI PUSH4 0x4E487B71 PUSH1 0xE0 SHL PUSH1 0x0 MSTORE PUSH1 0x32 PUSH1 0x4 MSTORE PUSH1 0x24 PUSH1 0x0 REVERT JUMPDEST PUSH1 0x20 MUL PUSH1 0x20 ADD ADD SWAP1 PUSH1 0x1 PUSH1 0x1 PUSH1 0xA0 SHL SUB AND SWAP1 DUP2 PUSH1 0x1 PUSH1 0x1 PUSH1 0xA0 SHL SUB AND DUP2 MSTORE POP POP PUSH32 0x0 DUP2 PUSH1 0x1 DUP2 MLOAD DUP2 LT PUSH2 0x10D0 JUMPI PUSH4 0x4E487B71 PUSH1 0xE0 SHL PUSH1 0x0 MSTORE PUSH1 0x32 PUSH1 0x4 MSTORE PUSH1 0x24 PUSH1 0x0 REVERT JUMPDEST PUSH1 0x1 PUSH1 0x1 PUSH1 0xA0 SHL SUB SWAP3 DUP4 AND PUSH1 0x20 SWAP2 DUP3 MUL SWAP3 SWAP1 SWAP3 ADD ADD MSTORE PUSH1 0x40 MLOAD PUSH4 0xD06CA61F PUSH1 0xE0 SHL DUP2 MSTORE PUSH1 0x0 SWAP2 PUSH32 0x0 AND SWAP1 PUSH4 0xD06CA61F SWAP1 PUSH2 0x112F SWAP1 DUP8 SWAP1 DUP7 SWAP1 PUSH1 0x4 ADD PUSH2 0x5316 JUMP JUMPDEST PUSH1 0x0 PUSH1 0x40 MLOAD DUP1 DUP4 SUB DUP2 DUP7 DUP1 EXTCODESIZE ISZERO DUP1 ISZERO PUSH2 0x1147 JUMPI PUSH1 0x0 DUP1 REVERT JUMPDEST POP GAS STATICCALL ISZERO DUP1 ISZERO PUSH2 0x115B JUMPI RETURNDATASIZE PUSH1 0x0 DUP1 RETURNDATACOPY RETURNDATASIZE PUSH1 0x0 REVERT JUMPDEST POP POP POP POP PUSH1 0x40 MLOAD RETURNDATASIZE PUSH1 0x0 DUP3 RETURNDATACOPY PUSH1 0x1F RETURNDATASIZE SWAP1 DUP2 ADD PUSH1 0x1F NOT AND DUP3 ADD PUSH1 0x40 MSTORE PUSH2 0x1183 SWAP2 SWAP1 DUP2 ADD SWAP1 PUSH2 0x454B JUMP JUMPDEST SWAP1 POP PUSH1 0x0 PUSH2 0x11CF PUSH2 0x11C5 DUP4 PUSH1 0x1 DUP2 MLOAD DUP2 LT PUSH2 0x11AE JUMPI PUSH4 0x4E487B71 PUSH1 0xE0 SHL PUSH1 0x0 MSTORE PUSH1 0x32 PUSH1 0x4 MSTORE PUSH1 0x24 PUSH1 0x0 REVERT JUMPDEST PUSH1 0x20 MUL PUSH1 0x20 ADD ADD MLOAD DUP7 PUSH2 0x2C87 SWAP1 SWAP2 SWAP1 PUSH4 0xFFFFFFFF AND JUMP JUMPDEST PUSH2 0xB4C DUP10 DUP8 PUSH2 0x2C93 JUMP JUMPDEST SWAP1 POP PUSH1 0x0 PUSH2 0x11DD DUP9 DUP4 PUSH2 0x27E1 JUMP JUMPDEST SWAP1 POP PUSH2 0x1214 PUSH1 0x1 PUSH1 0x1 PUSH1 0xA0 SHL SUB PUSH32 0x0 AND CALLER ADDRESS DUP12 PUSH2 0x2CAB JUMP JUMPDEST PUSH1 0x40 MLOAD PUSH4 0x95EA7B3 PUSH1 0xE0 SHL DUP2 MSTORE PUSH1 0x1 PUSH1 0x1 PUSH1 0xA0 SHL SUB PUSH32 0x0 AND SWAP1 PUSH4 0x95EA7B3 SWAP1 PUSH2 0x1282 SWAP1 PUSH32 0x0 SWAP1 DUP6 SWAP1 PUSH1 0x4 ADD PUSH2 0x4B5F JUMP JUMPDEST PUSH1 0x20 PUSH1 0x40 MLOAD DUP1 DUP4 SUB DUP2 PUSH1 0x0 DUP8 DUP1 EXTCODESIZE ISZERO DUP1 ISZERO PUSH2 0x129C JUMPI PUSH1 0x0 DUP1 REVERT JUMPDEST POP GAS CALL ISZERO DUP1 ISZERO PUSH2 0x12B0 JUMPI RETURNDATASIZE PUSH1 0x0 DUP1 RETURNDATACOPY RETURNDATASIZE PUSH1 0x0 REVERT JUMPDEST POP POP POP POP PUSH1 0x40 MLOAD RETURNDATASIZE PUSH1 0x1F NOT PUSH1 0x1F DUP3 ADD AND DUP3 ADD DUP1 PUSH1 0x40 MSTORE POP DUP2 ADD SWAP1 PUSH2 0x12D4 SWAP2 SWAP1 PUSH2 0x4605 JUMP JUMPDEST POP PUSH1 0x40 DUP1 MLOAD PUSH1 0x2 DUP1 DUP3 MSTORE PUSH1 0x60 DUP3 ADD DUP4 MSTORE PUSH1 0x0 SWAP3 PUSH1 0x20 DUP4 ADD SWAP1 DUP1 CALLDATASIZE DUP4 CALLDATACOPY ADD SWAP1 POP POP SWAP1 POP PUSH32 0x0 DUP2 PUSH1 0x0 DUP2 MLOAD DUP2 LT PUSH2 0x1338 JUMPI PUSH4 0x4E487B71 PUSH1 0xE0 SHL PUSH1 0x0 MSTORE PUSH1 0x32 PUSH1 0x4 MSTORE PUSH1 0x24 PUSH1 0x0 REVERT JUMPDEST PUSH1 0x20 MUL PUSH1 0x20 ADD ADD SWAP1 PUSH1 0x1 PUSH1 0x1 PUSH1 0xA0 SHL SUB AND SWAP1 DUP2 PUSH1 0x1 PUSH1 0x1 PUSH1 0xA0 SHL SUB AND DUP2 MSTORE POP POP PUSH32 0x0 DUP2 PUSH1 0x1 DUP2 MLOAD DUP2 LT PUSH2 0x139A JUMPI PUSH4 0x4E487B71 PUSH1 0xE0 SHL PUSH1 0x0 MSTORE PUSH1 0x32 PUSH1 0x4 MSTORE PUSH1 0x24 PUSH1 0x0 REVERT JUMPDEST PUSH1 0x1 PUSH1 0x1 PUSH1 0xA0 SHL SUB SWAP3 DUP4 AND PUSH1 0x20 SWAP2 DUP3 MUL SWAP3 SWAP1 SWAP3 ADD ADD MSTORE PUSH1 0x40 MLOAD PUSH4 0x38ED1739 PUSH1 0xE0 SHL DUP2 MSTORE PUSH1 0x0 SWAP2 PUSH32 0x0 AND SWAP1 PUSH4 0x38ED1739 SWAP1 PUSH2 0x13FF SWAP1 DUP7 SWAP1 DUP6 SWAP1 DUP8 SWAP1 ADDRESS SWAP1 TIMESTAMP SWAP1 PUSH1 0x4 ADD PUSH2 0x532F JUMP JUMPDEST PUSH1 0x0 PUSH1 0x40 MLOAD DUP1 DUP4 SUB DUP2 PUSH1 0x0 DUP8 DUP1 EXTCODESIZE ISZERO DUP1 ISZERO PUSH2 0x1419 JUMPI PUSH1 0x0 DUP1 REVERT JUMPDEST POP GAS CALL ISZERO DUP1 ISZERO PUSH2 0x142D JUMPI RETURNDATASIZE PUSH1 0x0 DUP1 RETURNDATACOPY RETURNDATASIZE PUSH1 0x0 REVERT JUMPDEST POP POP POP POP PUSH1 0x40 MLOAD RETURNDATASIZE PUSH1 0x0 DUP3 RETURNDATACOPY PUSH1 0x1F RETURNDATASIZE SWAP1 DUP2 ADD PUSH1 0x1F NOT AND DUP3 ADD PUSH1 0x40 MSTORE PUSH2 0x1455 SWAP2 SWAP1 DUP2 ADD SWAP1 PUSH2 0x454B JUMP JUMPDEST SWAP1 POP PUSH1 0x0 PUSH2 0x148B PUSH2 0x1481 DUP10 DUP5 PUSH1 0x1 DUP2 MLOAD DUP2 LT PUSH2 0xE0E JUMPI PUSH4 0x4E487B71 PUSH1 0xE0 SHL PUSH1 0x0 MSTORE PUSH1 0x32 PUSH1 0x4 MSTORE PUSH1 0x24 PUSH1 0x0 REVERT JUMPDEST PUSH2 0xE24 DUP8 DUP13 PUSH2 0x2C93 JUMP JUMPDEST SWAP1 POP PUSH2 0x14A0 PUSH1 0x1 PUSH2 0xE3E DUP11 PUSH2 0xB4C DUP6 DUP5 PUSH2 0x27E1 JUMP JUMPDEST SWAP12 POP PUSH2 0x14B5 PUSH1 0x1 PUSH2 0xE3E DUP12 PUSH2 0xB4C DUP6 DUP5 PUSH2 0x27E1 JUMP JUMPDEST SWAP11 POP PUSH2 0x14C7 DUP9 PUSH2 0xB4C DUP12 DUP2 DUP6 DUP16 PUSH2 0x2C93 JUMP JUMPDEST SWAP13 POP PUSH1 0x0 DUP14 GT PUSH2 0x14E9 JUMPI PUSH1 0x40 MLOAD PUSH3 0x461BCD PUSH1 0xE5 SHL DUP2 MSTORE PUSH1 0x4 ADD PUSH2 0x58E SWAP1 PUSH2 0x4D80 JUMP JUMPDEST PUSH1 0x0 PUSH2 0x1510 DUP14 DUP5 PUSH1 0x1 DUP2 MLOAD DUP2 LT PUSH2 0xF05 JUMPI PUSH4 0x4E487B71 PUSH1 0xE0 SHL PUSH1 0x0 MSTORE PUSH1 0x32 PUSH1 0x4 MSTORE PUSH1 0x24 PUSH1 0x0 REVERT JUMPDEST GT ISZERO PUSH2 0x153F JUMPI PUSH2 0x153F DUP15 PUSH2 0xEAD DUP15 DUP6 PUSH1 0x1 DUP2 MLOAD DUP2 LT PUSH2 0xF05 JUMPI PUSH4 0x4E487B71 PUSH1 0xE0 SHL PUSH1 0x0 MSTORE PUSH1 0x32 PUSH1 0x4 MSTORE PUSH1 0x24 PUSH1 0x0 REVERT JUMPDEST PUSH1 0x0 PUSH2 0x154B DUP7 DUP14 PUSH2 0x27E1 JUMP JUMPDEST GT ISZERO PUSH2 0x155F JUMPI PUSH2 0x155F DUP15 PUSH2 0xF4A DUP8 DUP15 PUSH2 0x27E1 JUMP JUMPDEST PUSH2 0x1569 DUP15 DUP15 PUSH2 0x2CE2 JUMP JUMPDEST DUP14 PUSH1 0x1 PUSH1 0x1 PUSH1 0xA0 SHL SUB AND CALLER PUSH1 0x1 PUSH1 0x1 PUSH1 0xA0 SHL SUB AND PUSH32 0x4E2CA0515ED1AEF1395F66B5303BB5D6F1BF9D61A353FA53F73F8AC9973FA9F6 DUP16 DUP16 DUP16 PUSH1 0x40 MLOAD PUSH2 0x15B0 SWAP4 SWAP3 SWAP2 SWAP1 PUSH2 0x5379 JUMP JUMPDEST PUSH1 0x40 MLOAD DUP1 SWAP2 SUB SWAP1 LOG3 PUSH1 0x7 SLOAD PUSH2 0x15C5 DUP12 DUP16 PUSH2 0x2C87 JUMP JUMPDEST GT ISZERO PUSH2 0x15E3 JUMPI PUSH1 0x40 MLOAD PUSH3 0x461BCD PUSH1 0xE5 SHL DUP2 MSTORE PUSH1 0x4 ADD PUSH2 0x58E SWAP1 PUSH2 0x51F1 JUMP JUMPDEST POP POP POP POP POP POP POP JUMPDEST POP POP POP PUSH2 0x170B JUMP JUMPDEST PUSH1 0x0 DUP4 GT PUSH2 0x1613 JUMPI PUSH1 0x40 MLOAD PUSH3 0x461BCD PUSH1 0xE5 SHL DUP2 MSTORE PUSH1 0x4 ADD PUSH2 0x58E SWAP1 PUSH2 0x5014 JUMP JUMPDEST DUP2 ISZERO PUSH2 0x164E JUMPI PUSH2 0x164E PUSH1 0x1 PUSH1 0x1 PUSH1 0xA0 SHL SUB PUSH32 0x0 AND CALLER ADDRESS DUP6 PUSH2 0x2CAB JUMP JUMPDEST DUP1 ISZERO PUSH2 0x1689 JUMPI PUSH2 0x1689 PUSH1 0x1 PUSH1 0x1 PUSH1 0xA0 SHL SUB PUSH32 0x0 AND CALLER ADDRESS DUP5 PUSH2 0x2CAB JUMP JUMPDEST PUSH2 0x1693 DUP5 DUP5 PUSH2 0x2CE2 JUMP JUMPDEST DUP4 PUSH1 0x1 PUSH1 0x1 PUSH1 0xA0 SHL SUB AND CALLER PUSH1 0x1 PUSH1 0x1 PUSH1 0xA0 SHL SUB AND PUSH32 0x4E2CA0515ED1AEF1395F66B5303BB5D6F1BF9D61A353FA53F73F8AC9973FA9F6 DUP6 DUP6 DUP6 PUSH1 0x40 MLOAD PUSH2 0x16DA SWAP4 SWAP3 SWAP2 SWAP1 PUSH2 0x5379 JUMP JUMPDEST PUSH1 0x40 MLOAD DUP1 SWAP2 SUB SWAP1 LOG3 PUSH1 0x7 SLOAD PUSH2 0x16ED PUSH2 0x74B JUMP JUMPDEST GT ISZERO PUSH2 0x170B JUMPI PUSH1 0x40 MLOAD PUSH3 0x461BCD PUSH1 0xE5 SHL DUP2 MSTORE PUSH1 0x4 ADD PUSH2 0x58E SWAP1 PUSH2 0x51F1 JUMP JUMPDEST PUSH1 0x1 PUSH1 0x5 DUP2 SWAP1 SSTORE POP SWAP6 POP SWAP6 POP SWAP6 SWAP3 POP POP POP JUMP JUMPDEST PUSH1 0x0 DUP1 PUSH2 0x1729 PUSH2 0x2843 JUMP JUMPDEST PUSH1 0x1 PUSH1 0x1 PUSH1 0xA0 SHL SUB DUP1 DUP3 AND PUSH1 0x0 SWAP1 DUP2 MSTORE PUSH1 0x1 PUSH1 0x20 SWAP1 DUP2 MSTORE PUSH1 0x40 DUP1 DUP4 KECCAK256 SWAP4 DUP10 AND DUP4 MSTORE SWAP3 SWAP1 MSTORE KECCAK256 SLOAD SWAP1 SWAP2 POP PUSH2 0x6DA SWAP1 DUP3 SWAP1 DUP7 SWAP1 PUSH2 0x1765 SWAP1 DUP8 SWAP1 PUSH2 0x53B8 JUMP JUMPDEST PUSH2 0x2847 JUMP JUMPDEST PUSH1 0x9 SLOAD PUSH1 0x1 PUSH1 0x1 PUSH1 0xA0 SHL SUB AND CALLER EQ PUSH2 0x1794 JUMPI PUSH1 0x40 MLOAD PUSH3 0x461BCD PUSH1 0xE5 SHL DUP2 MSTORE PUSH1 0x4 ADD PUSH2 0x58E SWAP1 PUSH2 0x4FF0 JUMP JUMPDEST PUSH1 0x7 SSTORE JUMP JUMPDEST PUSH1 0x0 PUSH2 0x1843 PUSH1 0xC SLOAD PUSH32 0x0 PUSH1 0x1 PUSH1 0x1 PUSH1 0xA0 SHL SUB AND PUSH4 0x70A08231 ADDRESS PUSH1 0x40 MLOAD DUP3 PUSH4 0xFFFFFFFF AND PUSH1 0xE0 SHL DUP2 MSTORE PUSH1 0x4 ADD PUSH2 0x17ED SWAP2 SWAP1 PUSH2 0x4A6E JUMP JUMPDEST PUSH1 0x20 PUSH1 0x40 MLOAD DUP1 DUP4 SUB DUP2 DUP7 DUP1 EXTCODESIZE ISZERO DUP1 ISZERO PUSH2 0x1805 JUMPI PUSH1 0x0 DUP1 REVERT JUMPDEST POP GAS STATICCALL ISZERO DUP1 ISZERO PUSH2 0x1819 JUMPI RETURNDATASIZE PUSH1 0x0 DUP1 RETURNDATACOPY RETURNDATASIZE PUSH1 0x0 REVERT JUMPDEST POP POP POP POP PUSH1 0x40 MLOAD RETURNDATASIZE PUSH1 0x1F NOT PUSH1 0x1F DUP3 ADD AND DUP3 ADD DUP1 PUSH1 0x40 MSTORE POP DUP2 ADD SWAP1 PUSH2 0x183D SWAP2 SWAP1 PUSH2 0x4917 JUMP JUMPDEST SWAP1 PUSH2 0x27E1 JUMP JUMPDEST SWAP1 POP SWAP1 JUMP JUMPDEST PUSH1 0xA SLOAD PUSH1 0x1 PUSH1 0xD0 SHL SWAP1 DIV PUSH1 0x2 SIGNEXTEND DUP2 JUMP JUMPDEST PUSH1 0x9 SLOAD PUSH1 0x1 PUSH1 0x1 PUSH1 0xA0 SHL SUB AND DUP2 JUMP JUMPDEST PUSH1 0x0 PUSH2 0x1843 PUSH1 0xB SLOAD PUSH32 0x0 PUSH1 0x1 PUSH1 0x1 PUSH1 0xA0 SHL SUB AND PUSH4 0x70A08231 ADDRESS PUSH1 0x40 MLOAD DUP3 PUSH4 0xFFFFFFFF AND PUSH1 0xE0 SHL DUP2 MSTORE PUSH1 0x4 ADD PUSH2 0x17ED SWAP2 SWAP1 PUSH2 0x4A6E JUMP JUMPDEST PUSH1 0x1 PUSH1 0x1 PUSH1 0xA0 SHL SUB DUP2 AND PUSH1 0x0 SWAP1 DUP2 MSTORE PUSH1 0x20 DUP2 SWAP1 MSTORE PUSH1 0x40 SWAP1 KECCAK256 SLOAD JUMPDEST SWAP2 SWAP1 POP JUMP JUMPDEST PUSH1 0x9 SLOAD PUSH1 0x1 PUSH1 0x1 PUSH1 0xA0 SHL SUB AND CALLER EQ PUSH2 0x1904 JUMPI PUSH1 0x40 MLOAD PUSH3 0x461BCD PUSH1 0xE5 SHL DUP2 MSTORE PUSH1 0x4 ADD PUSH2 0x58E SWAP1 PUSH2 0x4FF0 JUMP JUMPDEST PUSH3 0xF4240 DUP2 LT PUSH2 0x1926 JUMPI PUSH1 0x40 MLOAD PUSH3 0x461BCD PUSH1 0xE5 SHL DUP2 MSTORE PUSH1 0x4 ADD PUSH2 0x58E SWAP1 PUSH2 0x4F4F JUMP JUMPDEST PUSH1 0x6 SSTORE JUMP JUMPDEST PUSH32 0x0 DUP2 JUMP JUMPDEST PUSH1 0x2 PUSH1 0x5 SLOAD EQ ISZERO PUSH2 0x1972 JUMPI PUSH1 0x40 MLOAD PUSH3 0x461BCD PUSH1 0xE5 SHL DUP2 MSTORE PUSH1 0x4 ADD PUSH2 0x58E SWAP1 PUSH2 0x5263 JUMP JUMPDEST PUSH1 0x2 PUSH1 0x5 SSTORE PUSH1 0x8 SLOAD PUSH1 0x1 PUSH1 0x1 PUSH1 0xA0 SHL SUB AND CALLER EQ PUSH2 0x19A1 JUMPI PUSH1 0x40 MLOAD PUSH3 0x461BCD PUSH1 0xE5 SHL DUP2 MSTORE PUSH1 0x4 ADD PUSH2 0x58E SWAP1 PUSH2 0x4FCA JUMP JUMPDEST PUSH2 0x19AB DUP7 DUP7 PUSH2 0x2DAE JUMP JUMPDEST PUSH2 0x19B5 DUP5 DUP5 PUSH2 0x2DAE JUMP JUMPDEST PUSH2 0x19BF DUP3 DUP3 PUSH2 0x2DAE JUMP JUMPDEST PUSH1 0x0 PUSH32 0x0 PUSH1 0x1 PUSH1 0x1 PUSH1 0xA0 SHL SUB AND PUSH4 0x3850C7BD PUSH1 0x40 MLOAD DUP2 PUSH4 0xFFFFFFFF AND PUSH1 0xE0 SHL DUP2 MSTORE PUSH1 0x4 ADD PUSH1 0xE0 PUSH1 0x40 MLOAD DUP1 DUP4 SUB DUP2 DUP7 DUP1 EXTCODESIZE ISZERO DUP1 ISZERO PUSH2 0x1A1A JUMPI PUSH1 0x0 DUP1 REVERT JUMPDEST POP GAS STATICCALL ISZERO DUP1 ISZERO PUSH2 0x1A2E JUMPI RETURNDATASIZE PUSH1 0x0 DUP1 RETURNDATACOPY RETURNDATASIZE PUSH1 0x0 REVERT JUMPDEST POP POP POP POP PUSH1 0x40 MLOAD RETURNDATASIZE PUSH1 0x1F NOT PUSH1 0x1F DUP3 ADD AND DUP3 ADD DUP1 PUSH1 0x40 MSTORE POP DUP2 ADD SWAP1 PUSH2 0x1A52 SWAP2 SWAP1 PUSH2 0x486E JUMP JUMPDEST POP POP POP POP POP SWAP2 POP POP DUP1 PUSH1 0x2 SIGNEXTEND DUP5 PUSH1 0x2 SIGNEXTEND SGT ISZERO PUSH2 0x1A80 JUMPI PUSH1 0x40 MLOAD PUSH3 0x461BCD PUSH1 0xE5 SHL DUP2 MSTORE PUSH1 0x4 ADD PUSH2 0x58E SWAP1 PUSH2 0x4E5B JUMP JUMPDEST DUP1 PUSH1 0x2 SIGNEXTEND DUP4 PUSH1 0x2 SIGNEXTEND SGT PUSH2 0x1AA5 JUMPI PUSH1 0x40 MLOAD PUSH3 0x461BCD PUSH1 0xE5 SHL DUP2 MSTORE PUSH1 0x4 ADD PUSH2 0x58E SWAP1 PUSH2 0x50FD JUMP JUMPDEST PUSH1 0xA SLOAD PUSH1 0x0 SWAP1 PUSH2 0x1ACA SWAP1 PUSH1 0x1 PUSH1 0xA0 SHL DUP2 DIV PUSH1 0x2 SWAP1 DUP2 SIGNEXTEND SWAP2 PUSH1 0x1 PUSH1 0xB8 SHL SWAP1 DIV SWAP1 SIGNEXTEND PUSH2 0x2EA3 JUMP JUMPDEST POP POP PUSH1 0xA SLOAD SWAP3 SWAP4 POP PUSH1 0x0 SWAP3 PUSH2 0x1AF7 SWAP3 POP PUSH1 0x1 PUSH1 0xD0 SHL DUP2 DIV PUSH1 0x2 SWAP1 DUP2 SIGNEXTEND SWAP3 POP PUSH1 0x1 PUSH1 0xE8 SHL SWAP1 SWAP2 DIV SWAP1 SIGNEXTEND PUSH2 0x2EA3 JUMP JUMPDEST POP POP PUSH1 0xA SLOAD SWAP3 SWAP4 POP PUSH2 0x1B23 SWAP3 PUSH1 0x1 PUSH1 0xA0 SHL DUP2 DIV PUSH1 0x2 SWAP1 DUP2 SIGNEXTEND SWAP4 POP PUSH1 0x1 PUSH1 0xB8 SHL SWAP1 SWAP2 DIV SWAP1 SIGNEXTEND SWAP1 POP DUP5 PUSH2 0x2F6A JUMP JUMPDEST POP POP PUSH1 0xA SLOAD PUSH2 0x1B4B SWAP3 POP PUSH1 0x1 PUSH1 0xD0 SHL DUP2 DIV PUSH1 0x2 SWAP1 DUP2 SIGNEXTEND SWAP3 POP PUSH1 0x1 PUSH1 0xE8 SHL SWAP1 SWAP2 DIV SWAP1 SIGNEXTEND DUP4 PUSH2 0x2F6A JUMP JUMPDEST POP POP POP POP POP POP PUSH1 0x0 PUSH2 0x1B5B PUSH2 0x1867 JUMP JUMPDEST SWAP1 POP PUSH1 0x0 PUSH2 0x1B67 PUSH2 0x1799 JUMP JUMPDEST SWAP1 POP PUSH32 0x210F60ADF1DB7A02E9DB9A49EC7C2EB2060C516CBCFD01A0C05288144738EE5D DUP4 DUP4 DUP4 PUSH2 0x1B95 PUSH2 0x74B JUMP JUMPDEST PUSH1 0x40 MLOAD PUSH2 0x1BA5 SWAP5 SWAP4 SWAP3 SWAP2 SWAP1 PUSH2 0x4BC0 JUMP JUMPDEST PUSH1 0x40 MLOAD DUP1 SWAP2 SUB SWAP1 LOG1 DUP11 ISZERO PUSH2 0x1C84 JUMPI PUSH1 0x1 PUSH1 0x1 PUSH1 0xA0 SHL SUB PUSH32 0x0 AND PUSH4 0x128ACB08 ADDRESS PUSH1 0x0 DUP15 SGT DUP1 PUSH2 0x1BFA JUMPI PUSH2 0x1BF5 DUP16 PUSH2 0x5500 JUMP JUMPDEST PUSH2 0x1BFC JUMP JUMPDEST DUP15 JUMPDEST DUP15 PUSH1 0x40 MLOAD DUP6 PUSH4 0xFFFFFFFF AND PUSH1 0xE0 SHL DUP2 MSTORE PUSH1 0x4 ADD PUSH2 0x1C1C SWAP5 SWAP4 SWAP3 SWAP2 SWAP1 PUSH2 0x4AA6 JUMP JUMPDEST PUSH1 0x40 DUP1 MLOAD DUP1 DUP4 SUB DUP2 PUSH1 0x0 DUP8 DUP1 EXTCODESIZE ISZERO DUP1 ISZERO PUSH2 0x1C35 JUMPI PUSH1 0x0 DUP1 REVERT JUMPDEST POP GAS CALL ISZERO DUP1 ISZERO PUSH2 0x1C49 JUMPI RETURNDATASIZE PUSH1 0x0 DUP1 RETURNDATACOPY RETURNDATASIZE PUSH1 0x0 REVERT JUMPDEST POP POP POP POP PUSH1 0x40 MLOAD RETURNDATASIZE PUSH1 0x1F NOT PUSH1 0x1F DUP3 ADD AND DUP3 ADD DUP1 PUSH1 0x40 MSTORE POP DUP2 ADD SWAP1 PUSH2 0x1C6D SWAP2 SWAP1 PUSH2 0x46CC JUMP JUMPDEST POP POP PUSH2 0x1C77 PUSH2 0x1867 JUMP JUMPDEST SWAP2 POP PUSH2 0x1C81 PUSH2 0x1799 JUMP JUMPDEST SWAP1 POP JUMPDEST PUSH1 0x0 PUSH2 0x1C92 DUP11 DUP11 DUP6 DUP6 PUSH2 0x31B6 JUMP JUMPDEST SWAP1 POP PUSH2 0x1C9F DUP11 DUP11 DUP4 PUSH2 0x3279 JUMP JUMPDEST PUSH1 0xA DUP1 SLOAD PUSH1 0x2 DUP13 DUP2 SIGNEXTEND PUSH3 0xFFFFFF SWAP1 DUP2 AND PUSH1 0x1 PUSH1 0xA0 SHL MUL PUSH3 0xFFFFFF PUSH1 0xA0 SHL NOT SWAP3 DUP15 SWAP1 SIGNEXTEND SWAP1 SWAP2 AND PUSH1 0x1 PUSH1 0xB8 SHL MUL PUSH3 0xFFFFFF PUSH1 0xB8 SHL NOT SWAP1 SWAP4 AND SWAP3 SWAP1 SWAP3 OR AND OR SWAP1 SSTORE PUSH2 0x1CE5 PUSH2 0x1867 JUMP JUMPDEST SWAP3 POP PUSH2 0x1CEF PUSH2 0x1799 JUMP JUMPDEST SWAP2 POP PUSH1 0x0 PUSH2 0x1CFF DUP10 DUP10 DUP7 DUP7 PUSH2 0x31B6 JUMP JUMPDEST SWAP1 POP PUSH1 0x0 PUSH2 0x1D0F DUP9 DUP9 DUP8 DUP8 PUSH2 0x31B6 JUMP JUMPDEST SWAP1 POP DUP1 PUSH1 0x1 PUSH1 0x1 PUSH1 0x80 SHL SUB AND DUP3 PUSH1 0x1 PUSH1 0x1 PUSH1 0x80 SHL SUB AND GT ISZERO PUSH2 0x1D79 JUMPI PUSH2 0x1D36 DUP11 DUP11 DUP5 PUSH2 0x3279 JUMP JUMPDEST PUSH1 0xA DUP1 SLOAD PUSH1 0x2 DUP13 DUP2 SIGNEXTEND PUSH3 0xFFFFFF SWAP1 DUP2 AND PUSH1 0x1 PUSH1 0xD0 SHL MUL PUSH3 0xFFFFFF PUSH1 0xD0 SHL NOT SWAP3 DUP15 SWAP1 SIGNEXTEND SWAP1 SWAP2 AND PUSH1 0x1 PUSH1 0xE8 SHL MUL PUSH1 0x1 PUSH1 0x1 PUSH1 0xE8 SHL SUB SWAP1 SWAP4 AND SWAP3 SWAP1 SWAP3 OR AND OR SWAP1 SSTORE PUSH2 0x1DC3 JUMP JUMPDEST PUSH2 0x1D84 DUP9 DUP9 DUP4 PUSH2 0x3279 JUMP JUMPDEST PUSH1 0xA DUP1 SLOAD PUSH1 0x2 DUP11 DUP2 SIGNEXTEND PUSH3 0xFFFFFF SWAP1 DUP2 AND PUSH1 0x1 PUSH1 0xD0 SHL MUL PUSH3 0xFFFFFF PUSH1 0xD0 SHL NOT SWAP3 DUP13 SWAP1 SIGNEXTEND SWAP1 SWAP2 AND PUSH1 0x1 PUSH1 0xE8 SHL MUL PUSH1 0x1 PUSH1 0x1 PUSH1 0xE8 SHL SUB SWAP1 SWAP4 AND SWAP3 SWAP1 SWAP3 OR AND OR SWAP1 SSTORE JUMPDEST POP POP PUSH1 0x1 PUSH1 0x5 SSTORE POP POP POP POP POP POP POP POP POP POP POP POP JUMP JUMPDEST PUSH1 0xA SLOAD PUSH1 0x1 PUSH1 0xB8 SHL SWAP1 DIV PUSH1 0x2 SIGNEXTEND DUP2 JUMP JUMPDEST PUSH1 0x60 PUSH1 0x4 DUP1 SLOAD PUSH2 0x63F SWAP1 PUSH2 0x546E JUMP JUMPDEST PUSH1 0xC SLOAD DUP2 JUMP JUMPDEST PUSH1 0x0 DUP1 PUSH2 0x1E08 PUSH2 0x2843 JUMP JUMPDEST PUSH1 0x1 PUSH1 0x1 PUSH1 0xA0 SHL SUB DUP1 DUP3 AND PUSH1 0x0 SWAP1 DUP2 MSTORE PUSH1 0x1 PUSH1 0x20 SWAP1 DUP2 MSTORE PUSH1 0x40 DUP1 DUP4 KECCAK256 SWAP4 DUP10 AND DUP4 MSTORE SWAP3 SWAP1 MSTORE KECCAK256 SLOAD SWAP1 SWAP2 POP DUP4 DUP2 LT ISZERO PUSH2 0x1E51 JUMPI PUSH1 0x40 MLOAD PUSH3 0x461BCD PUSH1 0xE5 SHL DUP2 MSTORE PUSH1 0x4 ADD PUSH2 0x58E SWAP1 PUSH2 0x529A JUMP JUMPDEST PUSH2 0x1E5E DUP3 DUP7 DUP7 DUP5 SUB PUSH2 0x2847 JUMP JUMPDEST POP PUSH1 0x1 SWAP5 SWAP4 POP POP POP POP JUMP JUMPDEST PUSH1 0x0 DUP1 PUSH2 0x1E74 PUSH2 0x2843 JUMP JUMPDEST SWAP1 POP PUSH2 0x6DA DUP2 DUP6 DUP6 PUSH2 0x293F JUMP JUMPDEST PUSH1 0x0 DUP1 PUSH1 0x0 DUP1 PUSH1 0x0 PUSH2 0x1E93 DUP8 DUP8 PUSH2 0x2EA3 JUMP JUMPDEST SWAP5 POP SWAP5 POP POP POP SWAP3 POP PUSH2 0x1EA6 DUP8 DUP8 DUP6 PUSH2 0x32DA JUMP JUMPDEST PUSH1 0x6 SLOAD SWAP2 SWAP7 POP SWAP5 POP PUSH1 0x0 SWAP1 PUSH2 0x1EBF SWAP1 PUSH3 0xF4240 SWAP1 PUSH2 0x27E1 JUMP JUMPDEST SWAP1 POP PUSH2 0x1EE5 PUSH2 0x1EDE PUSH3 0xF4240 PUSH2 0xB4C PUSH1 0x1 PUSH1 0x1 PUSH1 0x80 SHL SUB DUP8 AND DUP6 PUSH2 0x2C93 JUMP JUMPDEST DUP8 SWAP1 PUSH2 0x2C87 JUMP JUMPDEST SWAP6 POP PUSH2 0x1F0B PUSH2 0x1F04 PUSH3 0xF4240 PUSH2 0xB4C PUSH1 0x1 PUSH1 0x1 PUSH1 0x80 SHL SUB DUP7 AND DUP6 PUSH2 0x2C93 JUMP JUMPDEST DUP7 SWAP1 PUSH2 0x2C87 JUMP JUMPDEST SWAP5 POP POP POP POP POP SWAP3 POP SWAP3 SWAP1 POP JUMP JUMPDEST PUSH1 0x9 SLOAD PUSH1 0x1 PUSH1 0x1 PUSH1 0xA0 SHL SUB AND CALLER EQ PUSH2 0x1F42 JUMPI PUSH1 0x40 MLOAD PUSH3 0x461BCD PUSH1 0xE5 SHL DUP2 MSTORE PUSH1 0x4 ADD PUSH2 0x58E SWAP1 PUSH2 0x4FF0 JUMP JUMPDEST PUSH1 0xA DUP1 SLOAD PUSH1 0x1 PUSH1 0x1 PUSH1 0xA0 SHL SUB NOT AND PUSH1 0x1 PUSH1 0x1 PUSH1 0xA0 SHL SUB SWAP3 SWAP1 SWAP3 AND SWAP2 SWAP1 SWAP2 OR SWAP1 SSTORE JUMP JUMPDEST PUSH1 0x9 SLOAD PUSH1 0x1 PUSH1 0x1 PUSH1 0xA0 SHL SUB AND CALLER EQ PUSH2 0x1F8E JUMPI PUSH1 0x40 MLOAD PUSH3 0x461BCD PUSH1 0xE5 SHL DUP2 MSTORE PUSH1 0x4 ADD PUSH2 0x58E SWAP1 PUSH2 0x4FF0 JUMP JUMPDEST PUSH1 0x40 MLOAD PUSH4 0xA34123A7 PUSH1 0xE0 SHL DUP2 MSTORE PUSH1 0x1 PUSH1 0x1 PUSH1 0xA0 SHL SUB PUSH32 0x0 AND SWAP1 PUSH4 0xA34123A7 SWAP1 PUSH2 0x1FDE SWAP1 DUP7 SWAP1 DUP7 SWAP1 DUP7 SWAP1 PUSH1 0x4 ADD PUSH2 0x4B9A JUMP JUMPDEST PUSH1 0x40 DUP1 MLOAD DUP1 DUP4 SUB DUP2 PUSH1 0x0 DUP8 DUP1 EXTCODESIZE ISZERO DUP1 ISZERO PUSH2 0x1FF7 JUMPI PUSH1 0x0 DUP1 REVERT JUMPDEST POP GAS CALL ISZERO DUP1 ISZERO PUSH2 0x200B JUMPI RETURNDATASIZE PUSH1 0x0 DUP1 RETURNDATACOPY RETURNDATASIZE PUSH1 0x0 REVERT JUMPDEST POP POP POP POP PUSH1 0x40 MLOAD RETURNDATASIZE PUSH1 0x1F NOT PUSH1 0x1F DUP3 ADD AND DUP3 ADD DUP1 PUSH1 0x40 MSTORE POP DUP2 ADD SWAP1 PUSH2 0x202F SWAP2 SWAP1 PUSH2 0x46CC JUMP JUMPDEST POP POP PUSH1 0x40 MLOAD PUSH4 0x9E3D67B PUSH1 0xE3 SHL DUP2 MSTORE PUSH1 0x1 PUSH1 0x1 PUSH1 0xA0 SHL SUB PUSH32 0x0 AND SWAP1 PUSH4 0x4F1EB3D8 SWAP1 PUSH2 0x208C SWAP1 ADDRESS SWAP1 DUP8 SWAP1 DUP8 SWAP1 PUSH1 0x1 PUSH1 0x1 PUSH1 0x80 SHL SUB SWAP1 DUP2 SWAP1 PUSH1 0x4 ADD PUSH2 0x4B22 JUMP JUMPDEST PUSH1 0x40 DUP1 MLOAD DUP1 DUP4 SUB DUP2 PUSH1 0x0 DUP8 DUP1 EXTCODESIZE ISZERO DUP1 ISZERO PUSH2 0x20A5 JUMPI PUSH1 0x0 DUP1 REVERT JUMPDEST POP GAS CALL ISZERO DUP1 ISZERO PUSH2 0x20B9 JUMPI RETURNDATASIZE PUSH1 0x0 DUP1 RETURNDATACOPY RETURNDATASIZE PUSH1 0x0 REVERT JUMPDEST POP POP POP POP PUSH1 0x40 MLOAD RETURNDATASIZE PUSH1 0x1F NOT PUSH1 0x1F DUP3 ADD AND DUP3 ADD DUP1 PUSH1 0x40 MSTORE POP DUP2 ADD SWAP1 PUSH2 0x20DD SWAP2 SWAP1 PUSH2 0x47DF JUMP JUMPDEST POP POP POP POP POP JUMP JUMPDEST PUSH1 0x6 SLOAD DUP2 JUMP JUMPDEST PUSH1 0x9 SLOAD PUSH1 0x1 PUSH1 0x1 PUSH1 0xA0 SHL SUB AND CALLER EQ PUSH2 0x2114 JUMPI PUSH1 0x40 MLOAD PUSH3 0x461BCD PUSH1 0xE5 SHL DUP2 MSTORE PUSH1 0x4 ADD PUSH2 0x58E SWAP1 PUSH2 0x4FF0 JUMP JUMPDEST PUSH1 0x8 DUP1 SLOAD PUSH1 0x1 PUSH1 0x1 PUSH1 0xA0 SHL SUB NOT AND PUSH1 0x1 PUSH1 0x1 PUSH1 0xA0 SHL SUB SWAP3 SWAP1 SWAP3 AND SWAP2 SWAP1 SWAP2 OR SWAP1 SSTORE JUMP JUMPDEST PUSH1 0xA SLOAD PUSH1 0x0 SWAP1 DUP2 SWAP1 DUP2 SWAP1 DUP2 SWAP1 PUSH2 0x2161 SWAP1 PUSH1 0x1 PUSH1 0xA0 SHL DUP2 DIV PUSH1 0x2 SWAP1 DUP2 SIGNEXTEND SWAP2 PUSH1 0x1 PUSH1 0xB8 SHL SWAP1 DIV SWAP1 SIGNEXTEND PUSH2 0x1E81 JUMP JUMPDEST PUSH1 0xA SLOAD SWAP2 SWAP4 POP SWAP2 POP PUSH1 0x0 SWAP1 DUP2 SWAP1 PUSH2 0x218D SWAP1 PUSH1 0x1 PUSH1 0xD0 SHL DUP2 DIV PUSH1 0x2 SWAP1 DUP2 SIGNEXTEND SWAP2 PUSH1 0x1 PUSH1 0xE8 SHL SWAP1 DIV SWAP1 SIGNEXTEND PUSH2 0x1E81 JUMP JUMPDEST SWAP2 POP SWAP2 POP PUSH2 0x21A1 DUP3 PUSH2 0xE3E DUP7 PUSH2 0xE3E PUSH2 0x1867 JUMP JUMPDEST SWAP6 POP PUSH2 0x21B3 DUP2 PUSH2 0xE3E DUP6 PUSH2 0xE3E PUSH2 0x1799 JUMP JUMPDEST SWAP5 POP POP POP POP POP SWAP1 SWAP2 JUMP JUMPDEST PUSH32 0x0 DUP2 JUMP JUMPDEST PUSH32 0x0 DUP2 JUMP JUMPDEST PUSH1 0x0 DUP1 PUSH1 0x2 PUSH1 0x5 SLOAD EQ ISZERO PUSH2 0x222B JUMPI PUSH1 0x40 MLOAD PUSH3 0x461BCD PUSH1 0xE5 SHL DUP2 MSTORE PUSH1 0x4 ADD PUSH2 0x58E SWAP1 PUSH2 0x5263 JUMP JUMPDEST PUSH1 0x2 PUSH1 0x5 SSTORE DUP6 PUSH2 0x224D JUMPI PUSH1 0x40 MLOAD PUSH3 0x461BCD PUSH1 0xE5 SHL DUP2 MSTORE PUSH1 0x4 ADD PUSH2 0x58E SWAP1 PUSH2 0x5014 JUMP JUMPDEST PUSH1 0x1 PUSH1 0x1 PUSH1 0xA0 SHL SUB DUP4 AND ISZERO DUP1 ISZERO SWAP1 PUSH2 0x226E JUMPI POP PUSH1 0x1 PUSH1 0x1 PUSH1 0xA0 SHL SUB DUP4 AND ADDRESS EQ ISZERO JUMPDEST PUSH2 0x228A JUMPI PUSH1 0x40 MLOAD PUSH3 0x461BCD PUSH1 0xE5 SHL DUP2 MSTORE PUSH1 0x4 ADD PUSH2 0x58E SWAP1 PUSH2 0x4CBC JUMP JUMPDEST PUSH1 0x0 PUSH2 0x2294 PUSH2 0x74B JUMP JUMPDEST SWAP1 POP PUSH2 0x22A0 CALLER DUP9 PUSH2 0x33A1 JUMP JUMPDEST PUSH1 0x0 PUSH2 0x22B8 DUP3 PUSH2 0xB4C DUP11 PUSH2 0x22B2 PUSH2 0x1867 JUMP JUMPDEST SWAP1 PUSH2 0x2C93 JUMP JUMPDEST SWAP1 POP PUSH1 0x0 PUSH2 0x22CC DUP4 PUSH2 0xB4C DUP12 PUSH2 0x22B2 PUSH2 0x1799 JUMP JUMPDEST PUSH1 0xA SLOAD SWAP1 SWAP2 POP PUSH1 0x0 SWAP1 DUP2 SWAP1 PUSH2 0x22F8 SWAP1 PUSH1 0x1 PUSH1 0xA0 SHL DUP2 DIV PUSH1 0x2 SWAP1 DUP2 SIGNEXTEND SWAP2 PUSH1 0x1 PUSH1 0xB8 SHL SWAP1 DIV SWAP1 SIGNEXTEND DUP14 DUP9 PUSH2 0x3492 JUMP JUMPDEST PUSH1 0xA SLOAD SWAP2 SWAP4 POP SWAP2 POP PUSH1 0x0 SWAP1 DUP2 SWAP1 PUSH2 0x2326 SWAP1 PUSH1 0x1 PUSH1 0xD0 SHL DUP2 DIV PUSH1 0x2 SWAP1 DUP2 SIGNEXTEND SWAP2 PUSH1 0x1 PUSH1 0xE8 SHL SWAP1 DIV SWAP1 SIGNEXTEND DUP16 DUP11 PUSH2 0x3492 JUMP JUMPDEST SWAP1 SWAP3 POP SWAP1 POP PUSH2 0x2339 DUP3 PUSH2 0xE3E DUP9 DUP8 PUSH2 0x2C87 JUMP JUMPDEST SWAP9 POP PUSH2 0x2349 DUP2 PUSH2 0xE3E DUP8 DUP7 PUSH2 0x2C87 JUMP JUMPDEST SWAP8 POP DUP12 DUP10 LT ISZERO PUSH2 0x236B JUMPI PUSH1 0x40 MLOAD PUSH3 0x461BCD PUSH1 0xE5 SHL DUP2 MSTORE PUSH1 0x4 ADD PUSH2 0x58E SWAP1 PUSH2 0x4C56 JUMP JUMPDEST DUP11 DUP9 LT ISZERO PUSH2 0x238B JUMPI PUSH1 0x40 MLOAD PUSH3 0x461BCD PUSH1 0xE5 SHL DUP2 MSTORE PUSH1 0x4 ADD PUSH2 0x58E SWAP1 PUSH2 0x50D9 JUMP JUMPDEST PUSH1 0x0 DUP13 GT DUP1 ISZERO PUSH2 0x2399 JUMPI POP DUP11 ISZERO JUMPDEST ISZERO PUSH2 0x23E9 JUMPI PUSH2 0x23AA DUP9 PUSH1 0x1 DUP13 PUSH2 0x3538 JUMP JUMPDEST DUP9 ISZERO PUSH2 0x23E4 JUMPI PUSH2 0x23E4 PUSH1 0x1 PUSH1 0x1 PUSH1 0xA0 SHL SUB PUSH32 0x0 AND DUP12 DUP12 PUSH2 0x27ED JUMP JUMPDEST PUSH2 0x24B6 JUMP JUMPDEST PUSH1 0x0 DUP12 GT DUP1 ISZERO PUSH2 0x23F7 JUMPI POP DUP12 ISZERO JUMPDEST ISZERO PUSH2 0x2442 JUMPI PUSH2 0x2408 DUP10 PUSH1 0x0 DUP13 PUSH2 0x3538 JUMP JUMPDEST DUP8 ISZERO PUSH2 0x23E4 JUMPI PUSH2 0x23E4 PUSH1 0x1 PUSH1 0x1 PUSH1 0xA0 SHL SUB PUSH32 0x0 AND DUP12 DUP11 PUSH2 0x27ED JUMP JUMPDEST DUP9 ISZERO PUSH2 0x247C JUMPI PUSH2 0x247C PUSH1 0x1 PUSH1 0x1 PUSH1 0xA0 SHL SUB PUSH32 0x0 AND DUP12 DUP12 PUSH2 0x27ED JUMP JUMPDEST DUP8 ISZERO PUSH2 0x24B6 JUMPI PUSH2 0x24B6 PUSH1 0x1 PUSH1 0x1 PUSH1 0xA0 SHL SUB PUSH32 0x0 AND DUP12 DUP11 PUSH2 0x27ED JUMP JUMPDEST DUP10 PUSH1 0x1 PUSH1 0x1 PUSH1 0xA0 SHL SUB AND CALLER PUSH1 0x1 PUSH1 0x1 PUSH1 0xA0 SHL SUB AND PUSH32 0xEBFF2602B3F468259E1E99F613FED6691F3A6526EFFE6EF3E768BA7AE7A36C4F DUP16 DUP13 DUP13 PUSH1 0x40 MLOAD PUSH2 0x24FD SWAP4 SWAP3 SWAP2 SWAP1 PUSH2 0x5379 JUMP JUMPDEST PUSH1 0x40 MLOAD DUP1 SWAP2 SUB SWAP1 LOG3 POP POP POP POP POP POP POP PUSH1 0x1 PUSH1 0x5 DUP2 SWAP1 SSTORE POP SWAP5 POP SWAP5 SWAP3 POP POP POP JUMP JUMPDEST CALLER PUSH1 0x1 PUSH1 0x1 PUSH1 0xA0 SHL SUB PUSH32 0x0 AND EQ PUSH2 0x2552 JUMPI PUSH1 0x0 DUP1 REVERT JUMPDEST DUP4 ISZERO PUSH2 0x258C JUMPI PUSH2 0x258C PUSH1 0x1 PUSH1 0x1 PUSH1 0xA0 SHL SUB PUSH32 0x0 AND CALLER DUP7 PUSH2 0x27ED JUMP JUMPDEST DUP3 ISZERO PUSH2 0x25C6 JUMPI PUSH2 0x25C6 PUSH1 0x1 PUSH1 0x1 PUSH1 0xA0 SHL SUB PUSH32 0x0 AND CALLER DUP6 PUSH2 0x27ED JUMP JUMPDEST POP POP POP POP JUMP JUMPDEST PUSH32 0x0 DUP2 JUMP JUMPDEST PUSH1 0x9 SLOAD PUSH1 0x1 PUSH1 0x1 PUSH1 0xA0 SHL SUB AND CALLER EQ PUSH2 0x261A JUMPI PUSH1 0x40 MLOAD PUSH3 0x461BCD PUSH1 0xE5 SHL DUP2 MSTORE PUSH1 0x4 ADD PUSH2 0x58E SWAP1 PUSH2 0x4FF0 JUMP JUMPDEST PUSH32 0x0 PUSH1 0x1 PUSH1 0x1 PUSH1 0xA0 SHL SUB AND DUP4 PUSH1 0x1 PUSH1 0x1 PUSH1 0xA0 SHL SUB AND EQ ISZERO DUP1 ISZERO PUSH2 0x268E JUMPI POP PUSH32 0x0 PUSH1 0x1 PUSH1 0x1 PUSH1 0xA0 SHL SUB AND DUP4 PUSH1 0x1 PUSH1 0x1 PUSH1 0xA0 SHL SUB AND EQ ISZERO JUMPDEST PUSH2 0x26AA JUMPI PUSH1 0x40 MLOAD PUSH3 0x461BCD PUSH1 0xE5 SHL DUP2 MSTORE PUSH1 0x4 ADD PUSH2 0x58E SWAP1 PUSH2 0x4F74 JUMP JUMPDEST PUSH2 0x62B PUSH1 0x1 PUSH1 0x1 PUSH1 0xA0 SHL SUB DUP5 AND DUP3 DUP5 PUSH2 0x27ED JUMP JUMPDEST PUSH1 0x1 PUSH1 0x1 PUSH1 0xA0 SHL SUB SWAP2 DUP3 AND PUSH1 0x0 SWAP1 DUP2 MSTORE PUSH1 0x1 PUSH1 0x20 SWAP1 DUP2 MSTORE PUSH1 0x40 DUP1 DUP4 KECCAK256 SWAP4 SWAP1 SWAP5 AND DUP3 MSTORE SWAP2 SWAP1 SWAP2 MSTORE KECCAK256 SLOAD SWAP1 JUMP JUMPDEST PUSH1 0xB SLOAD DUP2 JUMP JUMPDEST PUSH1 0xA SLOAD PUSH1 0x1 PUSH1 0x1 PUSH1 0xA0 SHL SUB AND DUP2 JUMP JUMPDEST PUSH32 0x0 DUP2 JUMP JUMPDEST PUSH1 0xA SLOAD PUSH1 0x1 PUSH1 0xA0 SHL SWAP1 DIV PUSH1 0x2 SIGNEXTEND DUP2 JUMP JUMPDEST CALLER PUSH1 0x1 PUSH1 0x1 PUSH1 0xA0 SHL SUB PUSH32 0x0 AND EQ PUSH2 0x2767 JUMPI PUSH1 0x0 DUP1 REVERT JUMPDEST PUSH1 0x0 DUP5 SGT ISZERO PUSH2 0x27A4 JUMPI PUSH2 0x27A4 PUSH1 0x1 PUSH1 0x1 PUSH1 0xA0 SHL SUB PUSH32 0x0 AND CALLER DUP7 PUSH2 0x27ED JUMP JUMPDEST PUSH1 0x0 DUP4 SGT ISZERO PUSH2 0x25C6 JUMPI PUSH2 0x25C6 PUSH1 0x1 PUSH1 0x1 PUSH1 0xA0 SHL SUB PUSH32 0x0 AND CALLER DUP6 PUSH2 0x27ED JUMP JUMPDEST PUSH1 0x0 PUSH2 0x7B8 DUP3 DUP5 PUSH2 0x542B JUMP JUMPDEST PUSH2 0x62B DUP4 PUSH4 0xA9059CBB PUSH1 0xE0 SHL DUP5 DUP5 PUSH1 0x40 MLOAD PUSH1 0x24 ADD PUSH2 0x280C SWAP3 SWAP2 SWAP1 PUSH2 0x4B5F JUMP JUMPDEST PUSH1 0x40 DUP1 MLOAD PUSH1 0x1F NOT DUP2 DUP5 SUB ADD DUP2 MSTORE SWAP2 SWAP1 MSTORE PUSH1 0x20 DUP2 ADD DUP1 MLOAD PUSH1 0x1 PUSH1 0x1 PUSH1 0xE0 SHL SUB AND PUSH1 0x1 PUSH1 0x1 PUSH1 0xE0 SHL SUB NOT SWAP1 SWAP4 AND SWAP3 SWAP1 SWAP3 OR SWAP1 SWAP2 MSTORE PUSH2 0x39C7 JUMP JUMPDEST CALLER SWAP1 JUMP JUMPDEST PUSH1 0x1 PUSH1 0x1 PUSH1 0xA0 SHL SUB DUP4 AND PUSH2 0x286D JUMPI PUSH1 0x40 MLOAD PUSH3 0x461BCD PUSH1 0xE5 SHL DUP2 MSTORE PUSH1 0x4 ADD PUSH2 0x58E SWAP1 PUSH2 0x514A JUMP JUMPDEST PUSH1 0x1 PUSH1 0x1 PUSH1 0xA0 SHL SUB DUP3 AND PUSH2 0x2893 JUMPI PUSH1 0x40 MLOAD PUSH3 0x461BCD PUSH1 0xE5 SHL DUP2 MSTORE PUSH1 0x4 ADD PUSH2 0x58E SWAP1 PUSH2 0x4D07 JUMP JUMPDEST PUSH1 0x1 PUSH1 0x1 PUSH1 0xA0 SHL SUB DUP1 DUP5 AND PUSH1 0x0 DUP2 DUP2 MSTORE PUSH1 0x1 PUSH1 0x20 SWAP1 DUP2 MSTORE PUSH1 0x40 DUP1 DUP4 KECCAK256 SWAP5 DUP8 AND DUP1 DUP5 MSTORE SWAP5 SWAP1 SWAP2 MSTORE SWAP1 DUP2 SWAP1 KECCAK256 DUP5 SWAP1 SSTORE MLOAD PUSH32 0x8C5BE1E5EBEC7D5BD14F71427D1E84F3DD0314C0F7B2291E5B200AC8C7C3B925 SWAP1 PUSH2 0x28EE SWAP1 DUP6 SWAP1 PUSH2 0x4B83 JUMP JUMPDEST PUSH1 0x40 MLOAD DUP1 SWAP2 SUB SWAP1 LOG3 POP POP POP JUMP JUMPDEST PUSH1 0x0 PUSH2 0x2907 DUP5 DUP5 PUSH2 0x26BE JUMP JUMPDEST SWAP1 POP PUSH1 0x0 NOT DUP2 EQ PUSH2 0x25C6 JUMPI DUP2 DUP2 LT ISZERO PUSH2 0x2932 JUMPI PUSH1 0x40 MLOAD PUSH3 0x461BCD PUSH1 0xE5 SHL DUP2 MSTORE PUSH1 0x4 ADD PUSH2 0x58E SWAP1 PUSH2 0x4DA7 JUMP JUMPDEST PUSH2 0x25C6 DUP5 DUP5 DUP5 DUP5 SUB PUSH2 0x2847 JUMP JUMPDEST PUSH1 0x1 PUSH1 0x1 PUSH1 0xA0 SHL SUB DUP4 AND PUSH2 0x2965 JUMPI PUSH1 0x40 MLOAD PUSH3 0x461BCD PUSH1 0xE5 SHL DUP2 MSTORE PUSH1 0x4 ADD PUSH2 0x58E SWAP1 PUSH2 0x5094 JUMP JUMPDEST PUSH1 0x1 PUSH1 0x1 PUSH1 0xA0 SHL SUB DUP3 AND PUSH2 0x298B JUMPI PUSH1 0x40 MLOAD PUSH3 0x461BCD PUSH1 0xE5 SHL DUP2 MSTORE PUSH1 0x4 ADD PUSH2 0x58E SWAP1 PUSH2 0x4C13 JUMP JUMPDEST PUSH2 0x2996 DUP4 DUP4 DUP4 PUSH2 0x62B JUMP JUMPDEST PUSH1 0x1 PUSH1 0x1 PUSH1 0xA0 SHL SUB DUP4 AND PUSH1 0x0 SWAP1 DUP2 MSTORE PUSH1 0x20 DUP2 SWAP1 MSTORE PUSH1 0x40 SWAP1 KECCAK256 SLOAD DUP2 DUP2 LT ISZERO PUSH2 0x29CF JUMPI PUSH1 0x40 MLOAD PUSH3 0x461BCD PUSH1 0xE5 SHL DUP2 MSTORE PUSH1 0x4 ADD PUSH2 0x58E SWAP1 PUSH2 0x4E15 JUMP JUMPDEST PUSH1 0x1 PUSH1 0x1 PUSH1 0xA0 SHL SUB DUP1 DUP6 AND PUSH1 0x0 SWAP1 DUP2 MSTORE PUSH1 0x20 DUP2 SWAP1 MSTORE PUSH1 0x40 DUP1 DUP3 KECCAK256 DUP6 DUP6 SUB SWAP1 SSTORE SWAP2 DUP6 AND DUP2 MSTORE SWAP1 DUP2 KECCAK256 DUP1 SLOAD DUP5 SWAP3 SWAP1 PUSH2 0x2A06 SWAP1 DUP5 SWAP1 PUSH2 0x53B8 JUMP JUMPDEST SWAP3 POP POP DUP2 SWAP1 SSTORE POP DUP3 PUSH1 0x1 PUSH1 0x1 PUSH1 0xA0 SHL SUB AND DUP5 PUSH1 0x1 PUSH1 0x1 PUSH1 0xA0 SHL SUB AND PUSH32 0xDDF252AD1BE2C89B69C2B068FC378DAA952BA7F163C4A11628F55A4DF523B3EF DUP5 PUSH1 0x40 MLOAD PUSH2 0x2A50 SWAP2 SWAP1 PUSH2 0x4B83 JUMP JUMPDEST PUSH1 0x40 MLOAD DUP1 SWAP2 SUB SWAP1 LOG3 PUSH2 0x25C6 DUP5 DUP5 DUP5 PUSH2 0x62B JUMP JUMPDEST PUSH1 0x0 PUSH2 0x2A6F DUP4 DUP4 PUSH2 0x2EA3 JUMP JUMPDEST POP POP POP POP SWAP1 POP PUSH1 0x0 DUP2 PUSH1 0x1 PUSH1 0x1 PUSH1 0x80 SHL SUB AND GT ISZERO PUSH2 0x62B JUMPI PUSH1 0x40 MLOAD PUSH4 0xA34123A7 PUSH1 0xE0 SHL DUP2 MSTORE PUSH1 0x1 PUSH1 0x1 PUSH1 0xA0 SHL SUB PUSH32 0x0 AND SWAP1 PUSH4 0xA34123A7 SWAP1 PUSH2 0x2AD8 SWAP1 DUP7 SWAP1 DUP7 SWAP1 PUSH1 0x0 SWAP1 PUSH1 0x4 ADD PUSH2 0x4B9A JUMP JUMPDEST PUSH1 0x40 DUP1 MLOAD DUP1 DUP4 SUB DUP2 PUSH1 0x0 DUP8 DUP1 EXTCODESIZE ISZERO DUP1 ISZERO PUSH2 0x2AF1 JUMPI PUSH1 0x0 DUP1 REVERT JUMPDEST POP GAS CALL ISZERO DUP1 ISZERO PUSH2 0x2B05 JUMPI RETURNDATASIZE PUSH1 0x0 DUP1 RETURNDATACOPY RETURNDATASIZE PUSH1 0x0 REVERT JUMPDEST POP POP POP POP PUSH1 0x40 MLOAD RETURNDATASIZE PUSH1 0x1F NOT PUSH1 0x1F DUP3 ADD AND DUP3 ADD DUP1 PUSH1 0x40 MSTORE POP DUP2 ADD SWAP1 PUSH2 0x20DD SWAP2 SWAP1 PUSH2 0x46CC JUMP JUMPDEST PUSH1 0x0 DUP1 PUSH1 0x0 DUP1 PUSH2 0x2B37 PUSH2 0x74B JUMP JUMPDEST SWAP1 POP PUSH1 0x0 DUP1 PUSH2 0x2B44 PUSH2 0x2136 JUMP JUMPDEST SWAP2 POP SWAP2 POP DUP3 PUSH1 0x0 EQ DUP1 PUSH2 0x2B57 JUMPI POP PUSH1 0x0 DUP3 GT JUMPDEST DUP1 PUSH2 0x2B62 JUMPI POP PUSH1 0x0 DUP2 GT JUMPDEST PUSH2 0x2B7C JUMPI PUSH4 0x4E487B71 PUSH1 0xE0 SHL PUSH1 0x0 MSTORE PUSH1 0x1 PUSH1 0x4 MSTORE PUSH1 0x24 PUSH1 0x0 REVERT JUMPDEST DUP3 PUSH2 0x2B98 JUMPI DUP8 SWAP5 POP DUP7 SWAP4 POP PUSH2 0x2B91 DUP6 DUP6 PUSH2 0x3A56 JUMP JUMPDEST SWAP6 POP PUSH2 0x2C7D JUMP JUMPDEST DUP2 PUSH2 0x2BAE JUMPI DUP7 SWAP4 POP PUSH2 0x2B91 DUP2 PUSH2 0xB4C DUP7 DUP7 PUSH2 0x2C93 JUMP JUMPDEST DUP1 PUSH2 0x2BC4 JUMPI DUP8 SWAP5 POP PUSH2 0x2B91 DUP3 PUSH2 0xB4C DUP8 DUP7 PUSH2 0x2C93 JUMP JUMPDEST PUSH1 0x0 DUP9 GT DUP1 PUSH2 0x2BD3 JUMPI POP PUSH1 0x0 DUP8 GT JUMPDEST PUSH2 0x2BEF JUMPI PUSH1 0x40 MLOAD PUSH3 0x461BCD PUSH1 0xE5 SHL DUP2 MSTORE PUSH1 0x4 ADD PUSH2 0x58E SWAP1 PUSH2 0x4F93 JUMP JUMPDEST PUSH1 0x0 PUSH2 0x2C08 PUSH2 0x2BFE DUP11 DUP5 PUSH2 0x2C93 JUMP JUMPDEST PUSH2 0xE24 DUP11 DUP7 PUSH2 0x2C93 JUMP JUMPDEST SWAP1 POP DUP1 PUSH2 0x2C1E JUMPI DUP9 SWAP6 POP DUP8 SWAP5 POP PUSH1 0x0 SWAP7 POP PUSH2 0x2C7B JUMP JUMPDEST PUSH1 0x0 DUP2 GT PUSH2 0x2C3E JUMPI PUSH1 0x40 MLOAD PUSH3 0x461BCD PUSH1 0xE5 SHL DUP2 MSTORE PUSH1 0x4 ADD PUSH2 0x58E SWAP1 PUSH2 0x5075 JUMP JUMPDEST PUSH2 0x2C51 PUSH1 0x1 PUSH2 0xE3E DUP5 PUSH2 0xB4C DUP6 DUP5 PUSH2 0x27E1 JUMP JUMPDEST SWAP6 POP PUSH2 0x2C66 PUSH1 0x1 PUSH2 0xE3E DUP6 PUSH2 0xB4C DUP6 DUP5 PUSH2 0x27E1 JUMP JUMPDEST SWAP5 POP PUSH2 0x2C78 DUP3 PUSH2 0xB4C DUP6 DUP2 DUP6 DUP10 PUSH2 0x2C93 JUMP JUMPDEST SWAP7 POP JUMPDEST POP JUMPDEST POP POP POP SWAP3 POP SWAP3 POP SWAP3 JUMP JUMPDEST PUSH1 0x0 PUSH2 0x7B8 DUP3 DUP5 PUSH2 0x53B8 JUMP JUMPDEST PUSH1 0x0 PUSH2 0x7B8 DUP3 DUP5 PUSH2 0x53E4 JUMP JUMPDEST PUSH1 0x0 PUSH2 0x7B8 DUP3 DUP5 PUSH2 0x53D0 JUMP JUMPDEST PUSH2 0x25C6 DUP5 PUSH4 0x23B872DD PUSH1 0xE0 SHL DUP6 DUP6 DUP6 PUSH1 0x40 MLOAD PUSH1 0x24 ADD PUSH2 0x280C SWAP4 SWAP3 SWAP2 SWAP1 PUSH2 0x4A82 JUMP JUMPDEST PUSH1 0x0 DUP2 DUP4 LT PUSH2 0x2CDB JUMPI DUP2 PUSH2 0x7B8 JUMP JUMPDEST POP SWAP1 SWAP2 SWAP1 POP JUMP JUMPDEST PUSH1 0x1 PUSH1 0x1 PUSH1 0xA0 SHL SUB DUP3 AND PUSH2 0x2D08 JUMPI PUSH1 0x40 MLOAD PUSH3 0x461BCD PUSH1 0xE5 SHL DUP2 MSTORE PUSH1 0x4 ADD PUSH2 0x58E SWAP1 PUSH2 0x52DF JUMP JUMPDEST PUSH2 0x2D14 PUSH1 0x0 DUP4 DUP4 PUSH2 0x62B JUMP JUMPDEST DUP1 PUSH1 0x2 PUSH1 0x0 DUP3 DUP3 SLOAD PUSH2 0x2D26 SWAP2 SWAP1 PUSH2 0x53B8 JUMP JUMPDEST SWAP1 SWAP2 SSTORE POP POP PUSH1 0x1 PUSH1 0x1 PUSH1 0xA0 SHL SUB DUP3 AND PUSH1 0x0 SWAP1 DUP2 MSTORE PUSH1 0x20 DUP2 SWAP1 MSTORE PUSH1 0x40 DUP2 KECCAK256 DUP1 SLOAD DUP4 SWAP3 SWAP1 PUSH2 0x2D53 SWAP1 DUP5 SWAP1 PUSH2 0x53B8 JUMP JUMPDEST SWAP1 SWAP2 SSTORE POP POP PUSH1 0x40 MLOAD PUSH1 0x1 PUSH1 0x1 PUSH1 0xA0 SHL SUB DUP4 AND SWAP1 PUSH1 0x0 SWAP1 PUSH32 0xDDF252AD1BE2C89B69C2B068FC378DAA952BA7F163C4A11628F55A4DF523B3EF SWAP1 PUSH2 0x2D96 SWAP1 DUP6 SWAP1 PUSH2 0x4B83 JUMP JUMPDEST PUSH1 0x40 MLOAD DUP1 SWAP2 SUB SWAP1 LOG3 PUSH2 0x2DAA PUSH1 0x0 DUP4 DUP4 PUSH2 0x62B JUMP JUMPDEST POP POP JUMP JUMPDEST PUSH32 0x0 PUSH1 0x2 DUP3 DUP2 SIGNEXTEND SWAP1 DUP5 SWAP1 SIGNEXTEND SLT PUSH2 0x2DF5 JUMPI PUSH1 0x40 MLOAD PUSH3 0x461BCD PUSH1 0xE5 SHL DUP2 MSTORE PUSH1 0x4 ADD PUSH2 0x58E SWAP1 PUSH2 0x4CD8 JUMP JUMPDEST PUSH3 0xD89E7 NOT PUSH1 0x2 DUP5 SWAP1 SIGNEXTEND SLT ISZERO PUSH2 0x2E1D JUMPI PUSH1 0x40 MLOAD PUSH3 0x461BCD PUSH1 0xE5 SHL DUP2 MSTORE PUSH1 0x4 ADD PUSH2 0x58E SWAP1 PUSH2 0x511F JUMP JUMPDEST PUSH2 0x2E2A PUSH3 0xD89E7 NOT PUSH2 0x54DF JUMP JUMPDEST PUSH1 0x2 SIGNEXTEND DUP3 PUSH1 0x2 SIGNEXTEND SGT ISZERO PUSH2 0x2E4F JUMPI PUSH1 0x40 MLOAD PUSH3 0x461BCD PUSH1 0xE5 SHL DUP2 MSTORE PUSH1 0x4 ADD PUSH2 0x58E SWAP1 PUSH2 0x518E JUMP JUMPDEST PUSH2 0x2E59 DUP2 DUP5 PUSH2 0x54A9 JUMP JUMPDEST PUSH1 0x2 SIGNEXTEND ISZERO PUSH2 0x2E79 JUMPI PUSH1 0x40 MLOAD PUSH3 0x461BCD PUSH1 0xE5 SHL DUP2 MSTORE PUSH1 0x4 ADD PUSH2 0x58E SWAP1 PUSH2 0x4D49 JUMP JUMPDEST PUSH2 0x2E83 DUP2 DUP4 PUSH2 0x54A9 JUMP JUMPDEST PUSH1 0x2 SIGNEXTEND ISZERO PUSH2 0x62B JUMPI PUSH1 0x40 MLOAD PUSH3 0x461BCD PUSH1 0xE5 SHL DUP2 MSTORE PUSH1 0x4 ADD PUSH2 0x58E SWAP1 PUSH2 0x4DDE JUMP JUMPDEST PUSH1 0x0 DUP1 PUSH1 0x0 DUP1 PUSH1 0x0 DUP1 PUSH2 0x2EB7 ADDRESS DUP10 DUP10 PUSH2 0x3A66 JUMP JUMPDEST PUSH1 0x40 MLOAD PUSH4 0x514EA4BF PUSH1 0xE0 SHL DUP2 MSTORE SWAP1 SWAP2 POP PUSH1 0x1 PUSH1 0x1 PUSH1 0xA0 SHL SUB PUSH32 0x0 AND SWAP1 PUSH4 0x514EA4BF SWAP1 PUSH2 0x2F06 SWAP1 DUP5 SWAP1 PUSH1 0x4 ADD PUSH2 0x4B83 JUMP JUMPDEST PUSH1 0xA0 PUSH1 0x40 MLOAD DUP1 DUP4 SUB DUP2 DUP7 DUP1 EXTCODESIZE ISZERO DUP1 ISZERO PUSH2 0x2F1E JUMPI PUSH1 0x0 DUP1 REVERT JUMPDEST POP GAS STATICCALL ISZERO DUP1 ISZERO PUSH2 0x2F32 JUMPI RETURNDATASIZE PUSH1 0x0 DUP1 RETURNDATACOPY RETURNDATASIZE PUSH1 0x0 REVERT JUMPDEST POP POP POP POP PUSH1 0x40 MLOAD RETURNDATASIZE PUSH1 0x1F NOT PUSH1 0x1F DUP3 ADD AND DUP3 ADD DUP1 PUSH1 0x40 MSTORE POP DUP2 ADD SWAP1 PUSH2 0x2F56 SWAP2 SWAP1 PUSH2 0x480D JUMP JUMPDEST SWAP4 SWAP13 SWAP3 SWAP12 POP SWAP1 SWAP10 POP SWAP8 POP SWAP1 SWAP6 POP SWAP4 POP POP POP POP JUMP JUMPDEST PUSH1 0x0 DUP1 DUP1 DUP1 PUSH1 0x1 PUSH1 0x1 PUSH1 0x80 SHL SUB DUP6 AND ISZERO PUSH2 0x3025 JUMPI PUSH1 0x40 MLOAD PUSH4 0xA34123A7 PUSH1 0xE0 SHL DUP2 MSTORE PUSH1 0x1 PUSH1 0x1 PUSH1 0xA0 SHL SUB PUSH32 0x0 AND SWAP1 PUSH4 0xA34123A7 SWAP1 PUSH2 0x2FCE SWAP1 DUP11 SWAP1 DUP11 SWAP1 DUP11 SWAP1 PUSH1 0x4 ADD PUSH2 0x4B9A JUMP JUMPDEST PUSH1 0x40 DUP1 MLOAD DUP1 DUP4 SUB DUP2 PUSH1 0x0 DUP8 DUP1 EXTCODESIZE ISZERO DUP1 ISZERO PUSH2 0x2FE7 JUMPI PUSH1 0x0 DUP1 REVERT JUMPDEST POP GAS CALL ISZERO DUP1 ISZERO PUSH2 0x2FFB JUMPI RETURNDATASIZE PUSH1 0x0 DUP1 RETURNDATACOPY RETURNDATASIZE PUSH1 0x0 REVERT JUMPDEST POP POP POP POP PUSH1 0x40 MLOAD RETURNDATASIZE PUSH1 0x1F NOT PUSH1 0x1F DUP3 ADD AND DUP3 ADD DUP1 PUSH1 0x40 MSTORE POP DUP2 ADD SWAP1 PUSH2 0x301F SWAP2 SWAP1 PUSH2 0x46CC JUMP JUMPDEST SWAP1 SWAP5 POP SWAP3 POP JUMPDEST PUSH1 0x0 DUP1 PUSH32 0x0 PUSH1 0x1 PUSH1 0x1 PUSH1 0xA0 SHL SUB AND PUSH4 0x4F1EB3D8 ADDRESS DUP12 DUP12 PUSH1 0x1 PUSH1 0x1 PUSH1 0x80 SHL SUB DUP1 PUSH1 0x40 MLOAD DUP7 PUSH4 0xFFFFFFFF AND PUSH1 0xE0 SHL DUP2 MSTORE PUSH1 0x4 ADD PUSH2 0x3083 SWAP6 SWAP5 SWAP4 SWAP3 SWAP2 SWAP1 PUSH2 0x4B22 JUMP JUMPDEST PUSH1 0x40 DUP1 MLOAD DUP1 DUP4 SUB DUP2 PUSH1 0x0 DUP8 DUP1 EXTCODESIZE ISZERO DUP1 ISZERO PUSH2 0x309C JUMPI PUSH1 0x0 DUP1 REVERT JUMPDEST POP GAS CALL ISZERO DUP1 ISZERO PUSH2 0x30B0 JUMPI RETURNDATASIZE PUSH1 0x0 DUP1 RETURNDATACOPY RETURNDATASIZE PUSH1 0x0 REVERT JUMPDEST POP POP POP POP PUSH1 0x40 MLOAD RETURNDATASIZE PUSH1 0x1F NOT PUSH1 0x1F DUP3 ADD AND DUP3 ADD DUP1 PUSH1 0x40 MSTORE POP DUP2 ADD SWAP1 PUSH2 0x30D4 SWAP2 SWAP1 PUSH2 0x47DF JUMP JUMPDEST PUSH1 0x1 PUSH1 0x1 PUSH1 0x80 SHL SUB SWAP2 DUP3 AND SWAP4 POP AND SWAP1 POP PUSH2 0x30EE DUP3 DUP8 PUSH2 0x27E1 JUMP JUMPDEST SWAP4 POP PUSH2 0x30FA DUP2 DUP7 PUSH2 0x27E1 JUMP JUMPDEST PUSH1 0x6 SLOAD SWAP1 SWAP4 POP PUSH1 0x0 SWAP1 DUP2 SWAP1 DUP1 ISZERO PUSH2 0x316B JUMPI PUSH2 0x311C PUSH3 0xF4240 PUSH2 0xB4C DUP10 DUP5 PUSH2 0x2C93 JUMP JUMPDEST SWAP3 POP PUSH2 0x312F PUSH3 0xF4240 PUSH2 0xB4C DUP9 DUP5 PUSH2 0x2C93 JUMP JUMPDEST SWAP2 POP PUSH2 0x313B DUP8 DUP5 PUSH2 0x27E1 JUMP JUMPDEST SWAP7 POP PUSH2 0x3147 DUP7 DUP4 PUSH2 0x27E1 JUMP JUMPDEST PUSH1 0xB SLOAD SWAP1 SWAP7 POP PUSH2 0x3157 SWAP1 DUP5 PUSH2 0x2C87 JUMP JUMPDEST PUSH1 0xB SSTORE PUSH1 0xC SLOAD PUSH2 0x3167 SWAP1 DUP4 PUSH2 0x2C87 JUMP JUMPDEST PUSH1 0xC SSTORE JUMPDEST PUSH32 0x1AC56D7E866E3F5EA9AA92AA11758EAD39A0A5F013F3FEFB0F47CB9D008EDD27 DUP8 DUP8 DUP6 DUP6 PUSH1 0x40 MLOAD PUSH2 0x31A0 SWAP5 SWAP4 SWAP3 SWAP2 SWAP1 PUSH2 0x538F JUMP JUMPDEST PUSH1 0x40 MLOAD DUP1 SWAP2 SUB SWAP1 LOG1 POP POP POP POP POP SWAP4 POP SWAP4 POP SWAP4 POP SWAP4 JUMP JUMPDEST PUSH1 0x0 DUP1 PUSH32 0x0 PUSH1 0x1 PUSH1 0x1 PUSH1 0xA0 SHL SUB AND PUSH4 0x3850C7BD PUSH1 0x40 MLOAD DUP2 PUSH4 0xFFFFFFFF AND PUSH1 0xE0 SHL DUP2 MSTORE PUSH1 0x4 ADD PUSH1 0xE0 PUSH1 0x40 MLOAD DUP1 DUP4 SUB DUP2 DUP7 DUP1 EXTCODESIZE ISZERO DUP1 ISZERO PUSH2 0x3212 JUMPI PUSH1 0x0 DUP1 REVERT JUMPDEST POP GAS STATICCALL ISZERO DUP1 ISZERO PUSH2 0x3226 JUMPI RETURNDATASIZE PUSH1 0x0 DUP1 RETURNDATACOPY RETURNDATASIZE PUSH1 0x0 REVERT JUMPDEST POP POP POP POP PUSH1 0x40 MLOAD RETURNDATASIZE PUSH1 0x1F NOT PUSH1 0x1F DUP3 ADD AND DUP3 ADD DUP1 PUSH1 0x40 MSTORE POP DUP2 ADD SWAP1 PUSH2 0x324A SWAP2 SWAP1 PUSH2 0x486E JUMP JUMPDEST POP POP POP POP POP POP SWAP1 POP PUSH2 0x326F DUP2 PUSH2 0x325F DUP9 PUSH2 0x3A9C JUMP JUMPDEST PUSH2 0x3268 DUP9 PUSH2 0x3A9C JUMP JUMPDEST DUP8 DUP8 PUSH2 0x3E76 JUMP JUMPDEST SWAP7 SWAP6 POP POP POP POP POP POP JUMP JUMPDEST PUSH1 0x1 PUSH1 0x1 PUSH1 0x80 SHL SUB DUP2 AND ISZERO PUSH2 0x62B JUMPI PUSH1 0x40 MLOAD PUSH4 0x3C8A7D8D PUSH1 0xE0 SHL DUP2 MSTORE PUSH1 0x1 PUSH1 0x1 PUSH1 0xA0 SHL SUB PUSH32 0x0 AND SWAP1 PUSH4 0x3C8A7D8D SWAP1 PUSH2 0x2AD8 SWAP1 ADDRESS SWAP1 DUP8 SWAP1 DUP8 SWAP1 DUP8 SWAP1 PUSH1 0x4 ADD PUSH2 0x4AE0 JUMP JUMPDEST PUSH1 0x0 DUP1 PUSH1 0x0 PUSH32 0x0 PUSH1 0x1 PUSH1 0x1 PUSH1 0xA0 SHL SUB AND PUSH4 0x3850C7BD PUSH1 0x40 MLOAD DUP2 PUSH4 0xFFFFFFFF AND PUSH1 0xE0 SHL DUP2 MSTORE PUSH1 0x4 ADD PUSH1 0xE0 PUSH1 0x40 MLOAD DUP1 DUP4 SUB DUP2 DUP7 DUP1 EXTCODESIZE ISZERO DUP1 ISZERO PUSH2 0x3338 JUMPI PUSH1 0x0 DUP1 REVERT JUMPDEST POP GAS STATICCALL ISZERO DUP1 ISZERO PUSH2 0x334C JUMPI RETURNDATASIZE PUSH1 0x0 DUP1 RETURNDATACOPY RETURNDATASIZE PUSH1 0x0 REVERT JUMPDEST POP POP POP POP PUSH1 0x40 MLOAD RETURNDATASIZE PUSH1 0x1F NOT PUSH1 0x1F DUP3 ADD AND DUP3 ADD DUP1 PUSH1 0x40 MSTORE POP DUP2 ADD SWAP1 PUSH2 0x3370 SWAP2 SWAP1 PUSH2 0x486E JUMP JUMPDEST POP POP POP POP POP POP SWAP1 POP PUSH2 0x3394 DUP2 PUSH2 0x3385 DUP9 PUSH2 0x3A9C JUMP JUMPDEST PUSH2 0x338E DUP9 PUSH2 0x3A9C JUMP JUMPDEST DUP8 PUSH2 0x3F3A JUMP JUMPDEST SWAP3 POP SWAP3 POP POP SWAP4 POP SWAP4 SWAP2 POP POP JUMP JUMPDEST PUSH1 0x1 PUSH1 0x1 PUSH1 0xA0 SHL SUB DUP3 AND PUSH2 0x33C7 JUMPI PUSH1 0x40 MLOAD PUSH3 0x461BCD PUSH1 0xE5 SHL DUP2 MSTORE PUSH1 0x4 ADD PUSH2 0x58E SWAP1 PUSH2 0x5034 JUMP JUMPDEST PUSH2 0x33D3 DUP3 PUSH1 0x0 DUP4 PUSH2 0x62B JUMP JUMPDEST PUSH1 0x1 PUSH1 0x1 PUSH1 0xA0 SHL SUB DUP3 AND PUSH1 0x0 SWAP1 DUP2 MSTORE PUSH1 0x20 DUP2 SWAP1 MSTORE PUSH1 0x40 SWAP1 KECCAK256 SLOAD DUP2 DUP2 LT ISZERO PUSH2 0x340C JUMPI PUSH1 0x40 MLOAD PUSH3 0x461BCD PUSH1 0xE5 SHL DUP2 MSTORE PUSH1 0x4 ADD PUSH2 0x58E SWAP1 PUSH2 0x4C7A JUMP JUMPDEST PUSH1 0x1 PUSH1 0x1 PUSH1 0xA0 SHL SUB DUP4 AND PUSH1 0x0 SWAP1 DUP2 MSTORE PUSH1 0x20 DUP2 SWAP1 MSTORE PUSH1 0x40 DUP2 KECCAK256 DUP4 DUP4 SUB SWAP1 SSTORE PUSH1 0x2 DUP1 SLOAD DUP5 SWAP3 SWAP1 PUSH2 0x343B SWAP1 DUP5 SWAP1 PUSH2 0x542B JUMP JUMPDEST SWAP1 SWAP2 SSTORE POP POP PUSH1 0x40 MLOAD PUSH1 0x0 SWAP1 PUSH1 0x1 PUSH1 0x1 PUSH1 0xA0 SHL SUB DUP6 AND SWAP1 PUSH32 0xDDF252AD1BE2C89B69C2B068FC378DAA952BA7F163C4A11628F55A4DF523B3EF SWAP1 PUSH2 0x347E SWAP1 DUP7 SWAP1 PUSH2 0x4B83 JUMP JUMPDEST PUSH1 0x40 MLOAD DUP1 SWAP2 SUB SWAP1 LOG3 PUSH2 0x62B DUP4 PUSH1 0x0 DUP5 PUSH2 0x62B JUMP JUMPDEST PUSH1 0x0 DUP1 PUSH1 0x0 PUSH2 0x34A1 DUP8 DUP8 PUSH2 0x2EA3 JUMP JUMPDEST POP POP POP POP SWAP1 POP PUSH1 0x0 PUSH2 0x34C9 DUP6 PUSH2 0xB4C DUP9 DUP6 PUSH1 0x1 PUSH1 0x1 PUSH1 0x80 SHL SUB AND PUSH2 0x2C93 SWAP1 SWAP2 SWAP1 PUSH4 0xFFFFFFFF AND JUMP JUMPDEST SWAP1 POP DUP1 ISZERO PUSH2 0x352D JUMPI PUSH1 0x0 DUP1 PUSH1 0x0 DUP1 PUSH2 0x34EA DUP13 DUP13 PUSH2 0x34E5 DUP9 PUSH2 0x3FD6 JUMP JUMPDEST PUSH2 0x2F6A JUMP JUMPDEST SWAP3 SWAP7 POP SWAP1 SWAP5 POP SWAP3 POP SWAP1 POP PUSH2 0x350C PUSH2 0x3505 DUP11 PUSH2 0xB4C DUP6 DUP15 PUSH2 0x2C93 JUMP JUMPDEST DUP6 SWAP1 PUSH2 0x2C87 JUMP JUMPDEST SWAP8 POP PUSH2 0x3526 PUSH2 0x351F DUP11 PUSH2 0xB4C DUP5 DUP15 PUSH2 0x2C93 JUMP JUMPDEST DUP5 SWAP1 PUSH2 0x2C87 JUMP JUMPDEST SWAP7 POP POP POP POP POP JUMPDEST POP POP SWAP5 POP SWAP5 SWAP3 POP POP POP JUMP JUMPDEST DUP2 ISZERO PUSH2 0x3786 JUMPI PUSH1 0x40 MLOAD PUSH4 0x95EA7B3 PUSH1 0xE0 SHL DUP2 MSTORE PUSH1 0x1 PUSH1 0x1 PUSH1 0xA0 SHL SUB PUSH32 0x0 AND SWAP1 PUSH4 0x95EA7B3 SWAP1 PUSH2 0x35AC SWAP1 PUSH32 0x0 SWAP1 DUP8 SWAP1 PUSH1 0x4 ADD PUSH2 0x4B5F JUMP JUMPDEST PUSH1 0x20 PUSH1 0x40 MLOAD DUP1 DUP4 SUB DUP2 PUSH1 0x0 DUP8 DUP1 EXTCODESIZE ISZERO DUP1 ISZERO PUSH2 0x35C6 JUMPI PUSH1 0x0 DUP1 REVERT JUMPDEST POP GAS CALL ISZERO DUP1 ISZERO PUSH2 0x35DA JUMPI RETURNDATASIZE PUSH1 0x0 DUP1 RETURNDATACOPY RETURNDATASIZE PUSH1 0x0 REVERT JUMPDEST POP POP POP POP PUSH1 0x40 MLOAD RETURNDATASIZE PUSH1 0x1F NOT PUSH1 0x1F DUP3 ADD AND DUP3 ADD DUP1 PUSH1 0x40 MSTORE POP DUP2 ADD SWAP1 PUSH2 0x35FE SWAP2 SWAP1 PUSH2 0x4605 JUMP JUMPDEST POP PUSH1 0x40 DUP1 MLOAD PUSH1 0x2 DUP1 DUP3 MSTORE PUSH1 0x60 DUP3 ADD DUP4 MSTORE PUSH1 0x0 SWAP3 PUSH1 0x20 DUP4 ADD SWAP1 DUP1 CALLDATASIZE DUP4 CALLDATACOPY ADD SWAP1 POP POP SWAP1 POP PUSH32 0x0 DUP2 PUSH1 0x0 DUP2 MLOAD DUP2 LT PUSH2 0x3662 JUMPI PUSH4 0x4E487B71 PUSH1 0xE0 SHL PUSH1 0x0 MSTORE PUSH1 0x32 PUSH1 0x4 MSTORE PUSH1 0x24 PUSH1 0x0 REVERT JUMPDEST PUSH1 0x20 MUL PUSH1 0x20 ADD ADD SWAP1 PUSH1 0x1 PUSH1 0x1 PUSH1 0xA0 SHL SUB AND SWAP1 DUP2 PUSH1 0x1 PUSH1 0x1 PUSH1 0xA0 SHL SUB AND DUP2 MSTORE POP POP PUSH32 0x0 DUP2 PUSH1 0x1 DUP2 MLOAD DUP2 LT PUSH2 0x36C4 JUMPI PUSH4 0x4E487B71 PUSH1 0xE0 SHL PUSH1 0x0 MSTORE PUSH1 0x32 PUSH1 0x4 MSTORE PUSH1 0x24 PUSH1 0x0 REVERT JUMPDEST PUSH1 0x1 PUSH1 0x1 PUSH1 0xA0 SHL SUB SWAP3 DUP4 AND PUSH1 0x20 SWAP2 DUP3 MUL SWAP3 SWAP1 SWAP3 ADD ADD MSTORE PUSH1 0x40 MLOAD PUSH4 0x38ED1739 PUSH1 0xE0 SHL DUP2 MSTORE PUSH32 0x0 SWAP1 SWAP2 AND SWAP1 PUSH4 0x38ED1739 SWAP1 PUSH2 0x3729 SWAP1 DUP8 SWAP1 PUSH1 0x0 SWAP1 DUP7 SWAP1 DUP9 SWAP1 TIMESTAMP SWAP1 PUSH1 0x4 ADD PUSH2 0x532F JUMP JUMPDEST PUSH1 0x0 PUSH1 0x40 MLOAD DUP1 DUP4 SUB DUP2 PUSH1 0x0 DUP8 DUP1 EXTCODESIZE ISZERO DUP1 ISZERO PUSH2 0x3743 JUMPI PUSH1 0x0 DUP1 REVERT JUMPDEST POP GAS CALL ISZERO DUP1 ISZERO PUSH2 0x3757 JUMPI RETURNDATASIZE PUSH1 0x0 DUP1 RETURNDATACOPY RETURNDATASIZE PUSH1 0x0 REVERT JUMPDEST POP POP POP POP PUSH1 0x40 MLOAD RETURNDATASIZE PUSH1 0x0 DUP3 RETURNDATACOPY PUSH1 0x1F RETURNDATASIZE SWAP1 DUP2 ADD PUSH1 0x1F NOT AND DUP3 ADD PUSH1 0x40 MSTORE PUSH2 0x377F SWAP2 SWAP1 DUP2 ADD SWAP1 PUSH2 0x454B JUMP JUMPDEST POP POP PUSH2 0x62B JUMP JUMPDEST PUSH1 0x40 MLOAD PUSH4 0x95EA7B3 PUSH1 0xE0 SHL DUP2 MSTORE PUSH1 0x1 PUSH1 0x1 PUSH1 0xA0 SHL SUB PUSH32 0x0 AND SWAP1 PUSH4 0x95EA7B3 SWAP1 PUSH2 0x37F4 SWAP1 PUSH32 0x0 SWAP1 DUP8 SWAP1 PUSH1 0x4 ADD PUSH2 0x4B5F JUMP JUMPDEST PUSH1 0x20 PUSH1 0x40 MLOAD DUP1 DUP4 SUB DUP2 PUSH1 0x0 DUP8 DUP1 EXTCODESIZE ISZERO DUP1 ISZERO PUSH2 0x380E JUMPI PUSH1 0x0 DUP1 REVERT JUMPDEST POP GAS CALL ISZERO DUP1 ISZERO PUSH2 0x3822 JUMPI RETURNDATASIZE PUSH1 0x0 DUP1 RETURNDATACOPY RETURNDATASIZE PUSH1 0x0 REVERT JUMPDEST POP POP POP POP PUSH1 0x40 MLOAD RETURNDATASIZE PUSH1 0x1F NOT PUSH1 0x1F DUP3 ADD AND DUP3 ADD DUP1 PUSH1 0x40 MSTORE POP DUP2 ADD SWAP1 PUSH2 0x3846 SWAP2 SWAP1 PUSH2 0x4605 JUMP JUMPDEST POP PUSH1 0x40 DUP1 MLOAD PUSH1 0x2 DUP1 DUP3 MSTORE PUSH1 0x60 DUP3 ADD DUP4 MSTORE PUSH1 0x0 SWAP3 PUSH1 0x20 DUP4 ADD SWAP1 DUP1 CALLDATASIZE DUP4 CALLDATACOPY ADD SWAP1 POP POP SWAP1 POP PUSH32 0x0 DUP2 PUSH1 0x0 DUP2 MLOAD DUP2 LT PUSH2 0x38AA JUMPI PUSH4 0x4E487B71 PUSH1 0xE0 SHL PUSH1 0x0 MSTORE PUSH1 0x32 PUSH1 0x4 MSTORE PUSH1 0x24 PUSH1 0x0 REVERT JUMPDEST PUSH1 0x20 MUL PUSH1 0x20 ADD ADD SWAP1 PUSH1 0x1 PUSH1 0x1 PUSH1 0xA0 SHL SUB AND SWAP1 DUP2 PUSH1 0x1 PUSH1 0x1 PUSH1 0xA0 SHL SUB AND DUP2 MSTORE POP POP PUSH32 0x0 DUP2 PUSH1 0x1 DUP2 MLOAD DUP2 LT PUSH2 0x390C JUMPI PUSH4 0x4E487B71 PUSH1 0xE0 SHL PUSH1 0x0 MSTORE PUSH1 0x32 PUSH1 0x4 MSTORE PUSH1 0x24 PUSH1 0x0 REVERT JUMPDEST PUSH1 0x1 PUSH1 0x1 PUSH1 0xA0 SHL SUB SWAP3 DUP4 AND PUSH1 0x20 SWAP2 DUP3 MUL SWAP3 SWAP1 SWAP3 ADD ADD MSTORE PUSH1 0x40 MLOAD PUSH4 0x38ED1739 PUSH1 0xE0 SHL DUP2 MSTORE PUSH32 0x0 SWAP1 SWAP2 AND SWAP1 PUSH4 0x38ED1739 SWAP1 PUSH2 0x3971 SWAP1 DUP8 SWAP1 PUSH1 0x0 SWAP1 DUP7 SWAP1 DUP9 SWAP1 TIMESTAMP SWAP1 PUSH1 0x4 ADD PUSH2 0x532F JUMP JUMPDEST PUSH1 0x0 PUSH1 0x40 MLOAD DUP1 DUP4 SUB DUP2 PUSH1 0x0 DUP8 DUP1 EXTCODESIZE ISZERO DUP1 ISZERO PUSH2 0x398B JUMPI PUSH1 0x0 DUP1 REVERT JUMPDEST POP GAS CALL ISZERO DUP1 ISZERO PUSH2 0x399F JUMPI RETURNDATASIZE PUSH1 0x0 DUP1 RETURNDATACOPY RETURNDATASIZE PUSH1 0x0 REVERT JUMPDEST POP POP POP POP PUSH1 0x40 MLOAD RETURNDATASIZE PUSH1 0x0 DUP3 RETURNDATACOPY PUSH1 0x1F RETURNDATASIZE SWAP1 DUP2 ADD PUSH1 0x1F NOT AND DUP3 ADD PUSH1 0x40 MSTORE PUSH2 0x20DD SWAP2 SWAP1 DUP2 ADD SWAP1 PUSH2 0x454B JUMP JUMPDEST PUSH1 0x0 PUSH2 0x3A1C DUP3 PUSH1 0x40 MLOAD DUP1 PUSH1 0x40 ADD PUSH1 0x40 MSTORE DUP1 PUSH1 0x20 DUP2 MSTORE PUSH1 0x20 ADD PUSH32 0x5361666545524332303A206C6F772D6C6576656C2063616C6C206661696C6564 DUP2 MSTORE POP DUP6 PUSH1 0x1 PUSH1 0x1 PUSH1 0xA0 SHL SUB AND PUSH2 0x4001 SWAP1 SWAP3 SWAP2 SWAP1 PUSH4 0xFFFFFFFF AND JUMP JUMPDEST DUP1 MLOAD SWAP1 SWAP2 POP ISZERO PUSH2 0x62B JUMPI DUP1 DUP1 PUSH1 0x20 ADD SWAP1 MLOAD DUP2 ADD SWAP1 PUSH2 0x3A3A SWAP2 SWAP1 PUSH2 0x4605 JUMP JUMPDEST PUSH2 0x62B JUMPI PUSH1 0x40 MLOAD PUSH3 0x461BCD PUSH1 0xE5 SHL DUP2 MSTORE PUSH1 0x4 ADD PUSH2 0x58E SWAP1 PUSH2 0x5219 JUMP JUMPDEST PUSH1 0x0 DUP2 DUP4 LT ISZERO PUSH2 0x2CDB JUMPI DUP2 PUSH2 0x7B8 JUMP JUMPDEST PUSH1 0x0 DUP4 DUP4 DUP4 PUSH1 0x40 MLOAD PUSH1 0x20 ADD PUSH2 0x3A7D SWAP4 SWAP3 SWAP2 SWAP1 PUSH2 0x4A1D JUMP JUMPDEST PUSH1 0x40 MLOAD PUSH1 0x20 DUP2 DUP4 SUB SUB DUP2 MSTORE SWAP1 PUSH1 0x40 MSTORE DUP1 MLOAD SWAP1 PUSH1 0x20 ADD KECCAK256 SWAP1 POP SWAP4 SWAP3 POP POP POP JUMP JUMPDEST PUSH1 0x0 DUP1 PUSH1 0x0 DUP4 PUSH1 0x2 SIGNEXTEND SLT PUSH2 0x3AB3 JUMPI DUP3 PUSH1 0x2 SIGNEXTEND PUSH2 0x3AC0 JUMP JUMPDEST DUP3 PUSH1 0x2 SIGNEXTEND PUSH2 0x3AC0 SWAP1 PUSH2 0x5500 JUMP JUMPDEST SWAP1 POP PUSH1 0x0 PUSH1 0x1 DUP3 AND PUSH2 0x3AD6 JUMPI PUSH1 0x1 PUSH1 0x80 SHL PUSH2 0x3AE8 JUMP JUMPDEST PUSH16 0xFFFCB933BD6FAD37AA2D162D1A594001 JUMPDEST PUSH17 0xFFFFFFFFFFFFFFFFFFFFFFFFFFFFFFFFFF AND SWAP1 POP PUSH1 0x2 DUP3 AND ISZERO PUSH2 0x3B27 JUMPI PUSH1 0x80 PUSH2 0x3B22 DUP3 PUSH16 0xFFF97272373D413259A46990580E213A PUSH2 0x53E4 JUMP JUMPDEST SWAP1 SHR SWAP1 POP JUMPDEST PUSH1 0x4 DUP3 AND ISZERO PUSH2 0x3B51 JUMPI PUSH1 0x80 PUSH2 0x3B4C DUP3 PUSH16 0xFFF2E50F5F656932EF12357CF3C7FDCC PUSH2 0x53E4 JUMP JUMPDEST SWAP1 SHR SWAP1 POP JUMPDEST PUSH1 0x8 DUP3 AND ISZERO PUSH2 0x3B7B JUMPI PUSH1 0x80 PUSH2 0x3B76 DUP3 PUSH16 0xFFE5CACA7E10E4E61C3624EAA0941CD0 PUSH2 0x53E4 JUMP JUMPDEST SWAP1 SHR SWAP1 POP JUMPDEST PUSH1 0x10 DUP3 AND ISZERO PUSH2 0x3BA5 JUMPI PUSH1 0x80 PUSH2 0x3BA0 DUP3 PUSH16 0xFFCB9843D60F6159C9DB58835C926644 PUSH2 0x53E4 JUMP JUMPDEST SWAP1 SHR SWAP1 POP JUMPDEST PUSH1 0x20 DUP3 AND ISZERO PUSH2 0x3BCF JUMPI PUSH1 0x80 PUSH2 0x3BCA DUP3 PUSH16 0xFF973B41FA98C081472E6896DFB254C0 PUSH2 0x53E4 JUMP JUMPDEST SWAP1 SHR SWAP1 POP JUMPDEST PUSH1 0x40 DUP3 AND ISZERO PUSH2 0x3BF9 JUMPI PUSH1 0x80 PUSH2 0x3BF4 DUP3 PUSH16 0xFF2EA16466C96A3843EC78B326B52861 PUSH2 0x53E4 JUMP JUMPDEST SWAP1 SHR SWAP1 POP JUMPDEST PUSH1 0x80 DUP3 AND ISZERO PUSH2 0x3C23 JUMPI PUSH1 0x80 PUSH2 0x3C1E DUP3 PUSH16 0xFE5DEE046A99A2A811C461F1969C3053 PUSH2 0x53E4 JUMP JUMPDEST SWAP1 SHR SWAP1 POP JUMPDEST PUSH2 0x100 DUP3 AND ISZERO PUSH2 0x3C4E JUMPI PUSH1 0x80 PUSH2 0x3C49 DUP3 PUSH16 0xFCBE86C7900A88AEDCFFC83B479AA3A4 PUSH2 0x53E4 JUMP JUMPDEST SWAP1 SHR SWAP1 POP JUMPDEST PUSH2 0x200 DUP3 AND ISZERO PUSH2 0x3C79 JUMPI PUSH1 0x80 PUSH2 0x3C74 DUP3 PUSH16 0xF987A7253AC413176F2B074CF7815E54 PUSH2 0x53E4 JUMP JUMPDEST SWAP1 SHR SWAP1 POP JUMPDEST PUSH2 0x400 DUP3 AND ISZERO PUSH2 0x3CA4 JUMPI PUSH1 0x80 PUSH2 0x3C9F DUP3 PUSH16 0xF3392B0822B70005940C7A398E4B70F3 PUSH2 0x53E4 JUMP JUMPDEST SWAP1 SHR SWAP1 POP JUMPDEST PUSH2 0x800 DUP3 AND ISZERO PUSH2 0x3CCF JUMPI PUSH1 0x80 PUSH2 0x3CCA DUP3 PUSH16 0xE7159475A2C29B7443B29C7FA6E889D9 PUSH2 0x53E4 JUMP JUMPDEST SWAP1 SHR SWAP1 POP JUMPDEST PUSH2 0x1000 DUP3 AND ISZERO PUSH2 0x3CFA JUMPI PUSH1 0x80 PUSH2 0x3CF5 DUP3 PUSH16 0xD097F3BDFD2022B8845AD8F792AA5825 PUSH2 0x53E4 JUMP JUMPDEST SWAP1 SHR SWAP1 POP JUMPDEST PUSH2 0x2000 DUP3 AND ISZERO PUSH2 0x3D25 JUMPI PUSH1 0x80 PUSH2 0x3D20 DUP3 PUSH16 0xA9F746462D870FDF8A65DC1F90E061E5 PUSH2 0x53E4 JUMP JUMPDEST SWAP1 SHR SWAP1 POP JUMPDEST PUSH2 0x4000 DUP3 AND ISZERO PUSH2 0x3D50 JUMPI PUSH1 0x80 PUSH2 0x3D4B DUP3 PUSH16 0x70D869A156D2A1B890BB3DF62BAF32F7 PUSH2 0x53E4 JUMP JUMPDEST SWAP1 SHR SWAP1 POP JUMPDEST PUSH2 0x8000 DUP3 AND ISZERO PUSH2 0x3D7B JUMPI PUSH1 0x80 PUSH2 0x3D76 DUP3 PUSH16 0x31BE135F97D08FD981231505542FCFA6 PUSH2 0x53E4 JUMP JUMPDEST SWAP1 SHR SWAP1 POP JUMPDEST PUSH3 0x10000 DUP3 AND ISZERO PUSH2 0x3DA7 JUMPI PUSH1 0x80 PUSH2 0x3DA2 DUP3 PUSH16 0x9AA508B5B7A84E1C677DE54F3E99BC9 PUSH2 0x53E4 JUMP JUMPDEST SWAP1 SHR SWAP1 POP JUMPDEST PUSH3 0x20000 DUP3 AND ISZERO PUSH2 0x3DD2 JUMPI PUSH1 0x80 PUSH2 0x3DCD DUP3 PUSH15 0x5D6AF8DEDB81196699C329225EE604 PUSH2 0x53E4 JUMP JUMPDEST SWAP1 SHR SWAP1 POP JUMPDEST PUSH3 0x40000 DUP3 AND ISZERO PUSH2 0x3DFC JUMPI PUSH1 0x80 PUSH2 0x3DF7 DUP3 PUSH14 0x2216E584F5FA1EA926041BEDFE98 PUSH2 0x53E4 JUMP JUMPDEST SWAP1 SHR SWAP1 POP JUMPDEST PUSH3 0x80000 DUP3 AND ISZERO PUSH2 0x3E24 JUMPI PUSH1 0x80 PUSH2 0x3E1F DUP3 PUSH12 0x48A170391F7DC42444E8FA2 PUSH2 0x53E4 JUMP JUMPDEST SWAP1 SHR SWAP1 POP JUMPDEST PUSH1 0x0 DUP5 PUSH1 0x2 SIGNEXTEND SGT ISZERO PUSH2 0x3E3F JUMPI PUSH2 0x3E3C DUP2 PUSH1 0x0 NOT PUSH2 0x53D0 JUMP JUMPDEST SWAP1 POP JUMPDEST PUSH2 0x3E4E PUSH5 0x100000000 DUP3 PUSH2 0x54CB JUMP JUMPDEST ISZERO PUSH2 0x3E5A JUMPI PUSH1 0x1 PUSH2 0x3E5D JUMP JUMPDEST PUSH1 0x0 JUMPDEST PUSH2 0x3E6E SWAP1 PUSH1 0xFF AND PUSH1 0x20 DUP4 SWAP1 SHR PUSH2 0x53B8 JUMP JUMPDEST SWAP5 SWAP4 POP POP POP POP JUMP JUMPDEST PUSH1 0x0 DUP4 PUSH1 0x1 PUSH1 0x1 PUSH1 0xA0 SHL SUB AND DUP6 PUSH1 0x1 PUSH1 0x1 PUSH1 0xA0 SHL SUB AND GT ISZERO PUSH2 0x3E96 JUMPI SWAP3 SWAP4 SWAP3 JUMPDEST DUP5 PUSH1 0x1 PUSH1 0x1 PUSH1 0xA0 SHL SUB AND DUP7 PUSH1 0x1 PUSH1 0x1 PUSH1 0xA0 SHL SUB AND GT PUSH2 0x3EC1 JUMPI PUSH2 0x3EBA DUP6 DUP6 DUP6 PUSH2 0x4010 JUMP JUMPDEST SWAP1 POP PUSH2 0x3F31 JUMP JUMPDEST DUP4 PUSH1 0x1 PUSH1 0x1 PUSH1 0xA0 SHL SUB AND DUP7 PUSH1 0x1 PUSH1 0x1 PUSH1 0xA0 SHL SUB AND LT ISZERO PUSH2 0x3F23 JUMPI PUSH1 0x0 PUSH2 0x3EE8 DUP8 DUP7 DUP7 PUSH2 0x4010 JUMP JUMPDEST SWAP1 POP PUSH1 0x0 PUSH2 0x3EF7 DUP8 DUP10 DUP7 PUSH2 0x407A JUMP JUMPDEST SWAP1 POP DUP1 PUSH1 0x1 PUSH1 0x1 PUSH1 0x80 SHL SUB AND DUP3 PUSH1 0x1 PUSH1 0x1 PUSH1 0x80 SHL SUB AND LT PUSH2 0x3F18 JUMPI DUP1 PUSH2 0x3F1A JUMP JUMPDEST DUP2 JUMPDEST SWAP3 POP POP POP PUSH2 0x3F31 JUMP JUMPDEST PUSH2 0x3F2E DUP6 DUP6 DUP5 PUSH2 0x407A JUMP JUMPDEST SWAP1 POP JUMPDEST SWAP6 SWAP5 POP POP POP POP POP JUMP JUMPDEST PUSH1 0x0 DUP1 DUP4 PUSH1 0x1 PUSH1 0x1 PUSH1 0xA0 SHL SUB AND DUP6 PUSH1 0x1 PUSH1 0x1 PUSH1 0xA0 SHL SUB AND GT ISZERO PUSH2 0x3F5B JUMPI SWAP3 SWAP4 SWAP3 JUMPDEST DUP5 PUSH1 0x1 PUSH1 0x1 PUSH1 0xA0 SHL SUB AND DUP7 PUSH1 0x1 PUSH1 0x1 PUSH1 0xA0 SHL SUB AND GT PUSH2 0x3F86 JUMPI PUSH2 0x3F7F DUP6 DUP6 DUP6 PUSH2 0x40B0 JUMP JUMPDEST SWAP2 POP PUSH2 0x3FCD JUMP JUMPDEST DUP4 PUSH1 0x1 PUSH1 0x1 PUSH1 0xA0 SHL SUB AND DUP7 PUSH1 0x1 PUSH1 0x1 PUSH1 0xA0 SHL SUB AND LT ISZERO PUSH2 0x3FBF JUMPI PUSH2 0x3FAB DUP7 DUP6 DUP6 PUSH2 0x40B0 JUMP JUMPDEST SWAP2 POP PUSH2 0x3FB8 DUP6 DUP8 DUP6 PUSH2 0x4123 JUMP JUMPDEST SWAP1 POP PUSH2 0x3FCD JUMP JUMPDEST PUSH2 0x3FCA DUP6 DUP6 DUP6 PUSH2 0x4123 JUMP JUMPDEST SWAP1 POP JUMPDEST SWAP5 POP SWAP5 SWAP3 POP POP POP JUMP JUMPDEST PUSH1 0x0 PUSH1 0x1 PUSH1 0x1 PUSH1 0x80 SHL SUB DUP3 GT ISZERO PUSH2 0x3FFD JUMPI PUSH4 0x4E487B71 PUSH1 0xE0 SHL PUSH1 0x0 MSTORE PUSH1 0x1 PUSH1 0x4 MSTORE PUSH1 0x24 PUSH1 0x0 REVERT JUMPDEST POP SWAP1 JUMP JUMPDEST PUSH1 0x60 PUSH2 0x3E6E DUP5 DUP5 PUSH1 0x0 DUP6 PUSH2 0x416D JUMP JUMPDEST PUSH1 0x0 DUP3 PUSH1 0x1 PUSH1 0x1 PUSH1 0xA0 SHL SUB AND DUP5 PUSH1 0x1 PUSH1 0x1 PUSH1 0xA0 SHL SUB AND GT ISZERO PUSH2 0x4030 JUMPI SWAP2 SWAP3 SWAP2 JUMPDEST PUSH1 0x0 PUSH2 0x4053 DUP6 PUSH1 0x1 PUSH1 0x1 PUSH1 0xA0 SHL SUB AND DUP6 PUSH1 0x1 PUSH1 0x1 PUSH1 0xA0 SHL SUB AND PUSH1 0x1 PUSH1 0x60 SHL PUSH2 0x422D JUMP JUMPDEST SWAP1 POP PUSH2 0x3F31 PUSH2 0x4075 DUP5 DUP4 PUSH2 0x4067 DUP10 DUP10 PUSH2 0x5403 JUMP JUMPDEST PUSH1 0x1 PUSH1 0x1 PUSH1 0xA0 SHL SUB AND PUSH2 0x422D JUMP JUMPDEST PUSH2 0x43A3 JUMP JUMPDEST PUSH1 0x0 DUP3 PUSH1 0x1 PUSH1 0x1 PUSH1 0xA0 SHL SUB AND DUP5 PUSH1 0x1 PUSH1 0x1 PUSH1 0xA0 SHL SUB AND GT ISZERO PUSH2 0x409A JUMPI SWAP2 SWAP3 SWAP2 JUMPDEST PUSH2 0x3E6E PUSH2 0x4075 DUP4 PUSH1 0x1 PUSH1 0x60 SHL PUSH2 0x4067 DUP9 DUP9 PUSH2 0x5403 JUMP JUMPDEST PUSH1 0x0 DUP3 PUSH1 0x1 PUSH1 0x1 PUSH1 0xA0 SHL SUB AND DUP5 PUSH1 0x1 PUSH1 0x1 PUSH1 0xA0 SHL SUB AND GT ISZERO PUSH2 0x40D0 JUMPI SWAP2 SWAP3 SWAP2 JUMPDEST PUSH1 0x1 PUSH1 0x1 PUSH1 0xA0 SHL SUB DUP5 AND PUSH2 0x4119 PUSH16 0xFFFFFFFFFFFFFFFFFFFFFFFFFFFFFFFF PUSH1 0x60 SHL PUSH1 0x60 DUP6 SWAP1 SHL AND PUSH2 0x4101 DUP8 DUP8 PUSH2 0x5403 JUMP JUMPDEST PUSH1 0x1 PUSH1 0x1 PUSH1 0xA0 SHL SUB AND DUP7 PUSH1 0x1 PUSH1 0x1 PUSH1 0xA0 SHL SUB AND PUSH2 0x422D JUMP JUMPDEST PUSH2 0x3E6E SWAP2 SWAP1 PUSH2 0x53D0 JUMP JUMPDEST PUSH1 0x0 DUP3 PUSH1 0x1 PUSH1 0x1 PUSH1 0xA0 SHL SUB AND DUP5 PUSH1 0x1 PUSH1 0x1 PUSH1 0xA0 SHL SUB AND GT ISZERO PUSH2 0x4143 JUMPI SWAP2 SWAP3 SWAP2 JUMPDEST PUSH2 0x3E6E PUSH1 0x1 PUSH1 0x1 PUSH1 0x80 SHL SUB DUP4 AND PUSH2 0x415A DUP7 DUP7 PUSH2 0x5403 JUMP JUMPDEST PUSH1 0x1 PUSH1 0x1 PUSH1 0xA0 SHL SUB AND PUSH1 0x1 PUSH1 0x60 SHL PUSH2 0x422D JUMP JUMPDEST PUSH1 0x60 DUP3 SELFBALANCE LT ISZERO PUSH2 0x418F JUMPI PUSH1 0x40 MLOAD PUSH3 0x461BCD PUSH1 0xE5 SHL DUP2 MSTORE PUSH1 0x4 ADD PUSH2 0x58E SWAP1 PUSH2 0x4E7D JUMP JUMPDEST PUSH2 0x4198 DUP6 PUSH2 0x43B9 JUMP JUMPDEST PUSH2 0x41B4 JUMPI PUSH1 0x40 MLOAD PUSH3 0x461BCD PUSH1 0xE5 SHL DUP2 MSTORE PUSH1 0x4 ADD PUSH2 0x58E SWAP1 PUSH2 0x51BA JUMP JUMPDEST PUSH1 0x0 DUP1 DUP7 PUSH1 0x1 PUSH1 0x1 PUSH1 0xA0 SHL SUB AND DUP6 DUP8 PUSH1 0x40 MLOAD PUSH2 0x41D0 SWAP2 SWAP1 PUSH2 0x4A52 JUMP JUMPDEST PUSH1 0x0 PUSH1 0x40 MLOAD DUP1 DUP4 SUB DUP2 DUP6 DUP8 GAS CALL SWAP3 POP POP POP RETURNDATASIZE DUP1 PUSH1 0x0 DUP2 EQ PUSH2 0x420D JUMPI PUSH1 0x40 MLOAD SWAP2 POP PUSH1 0x1F NOT PUSH1 0x3F RETURNDATASIZE ADD AND DUP3 ADD PUSH1 0x40 MSTORE RETURNDATASIZE DUP3 MSTORE RETURNDATASIZE PUSH1 0x0 PUSH1 0x20 DUP5 ADD RETURNDATACOPY PUSH2 0x4212 JUMP JUMPDEST PUSH1 0x60 SWAP2 POP JUMPDEST POP SWAP2 POP SWAP2 POP PUSH2 0x4222 DUP3 DUP3 DUP7 PUSH2 0x43EA JUMP JUMPDEST SWAP8 SWAP7 POP POP POP POP POP POP POP JUMP JUMPDEST PUSH1 0x0 DUP1 DUP1 PUSH1 0x0 NOT DUP6 DUP8 MULMOD DUP7 DUP7 MUL SWAP3 POP DUP3 DUP2 LT SWAP1 DUP4 SWAP1 SUB SUB SWAP1 POP DUP1 PUSH2 0x4263 JUMPI PUSH1 0x0 DUP5 GT PUSH2 0x4258 JUMPI PUSH1 0x0 DUP1 REVERT JUMPDEST POP DUP3 SWAP1 DIV SWAP1 POP PUSH2 0x7B8 JUMP JUMPDEST DUP1 DUP5 GT PUSH2 0x426F JUMPI PUSH1 0x0 DUP1 REVERT JUMPDEST PUSH1 0x0 DUP5 DUP7 DUP9 MULMOD DUP1 DUP5 SUB SWAP4 DUP2 GT SWAP1 SWAP3 SUB SWAP2 SWAP1 POP PUSH1 0x0 PUSH2 0x428F DUP7 NOT PUSH1 0x1 PUSH2 0x53B8 JUMP JUMPDEST DUP7 AND SWAP6 DUP7 SWAP1 DIV SWAP6 SWAP4 DUP5 SWAP1 DIV SWAP4 PUSH1 0x0 DUP2 SWAP1 SUB DIV PUSH1 0x1 ADD SWAP1 POP PUSH2 0x42B0 DUP2 DUP5 PUSH2 0x53E4 JUMP JUMPDEST SWAP1 SWAP4 OR SWAP3 PUSH1 0x0 PUSH2 0x42C1 DUP8 PUSH1 0x3 PUSH2 0x53E4 JUMP JUMPDEST PUSH1 0x2 XOR SWAP1 POP PUSH2 0x42D0 DUP2 DUP9 PUSH2 0x53E4 JUMP JUMPDEST PUSH2 0x42DB SWAP1 PUSH1 0x2 PUSH2 0x542B JUMP JUMPDEST PUSH2 0x42E5 SWAP1 DUP3 PUSH2 0x53E4 JUMP JUMPDEST SWAP1 POP PUSH2 0x42F1 DUP2 DUP9 PUSH2 0x53E4 JUMP JUMPDEST PUSH2 0x42FC SWAP1 PUSH1 0x2 PUSH2 0x542B JUMP JUMPDEST PUSH2 0x4306 SWAP1 DUP3 PUSH2 0x53E4 JUMP JUMPDEST SWAP1 POP PUSH2 0x4312 DUP2 DUP9 PUSH2 0x53E4 JUMP JUMPDEST PUSH2 0x431D SWAP1 PUSH1 0x2 PUSH2 0x542B JUMP JUMPDEST PUSH2 0x4327 SWAP1 DUP3 PUSH2 0x53E4 JUMP JUMPDEST SWAP1 POP PUSH2 0x4333 DUP2 DUP9 PUSH2 0x53E4 JUMP JUMPDEST PUSH2 0x433E SWAP1 PUSH1 0x2 PUSH2 0x542B JUMP JUMPDEST PUSH2 0x4348 SWAP1 DUP3 PUSH2 0x53E4 JUMP JUMPDEST SWAP1 POP PUSH2 0x4354 DUP2 DUP9 PUSH2 0x53E4 JUMP JUMPDEST PUSH2 0x435F SWAP1 PUSH1 0x2 PUSH2 0x542B JUMP JUMPDEST PUSH2 0x4369 SWAP1 DUP3 PUSH2 0x53E4 JUMP JUMPDEST SWAP1 POP PUSH2 0x4375 DUP2 DUP9 PUSH2 0x53E4 JUMP JUMPDEST PUSH2 0x4380 SWAP1 PUSH1 0x2 PUSH2 0x542B JUMP JUMPDEST PUSH2 0x438A SWAP1 DUP3 PUSH2 0x53E4 JUMP JUMPDEST SWAP1 POP PUSH2 0x4396 DUP2 DUP7 PUSH2 0x53E4 JUMP JUMPDEST SWAP10 SWAP9 POP POP POP POP POP POP POP POP POP JUMP JUMPDEST DUP1 PUSH1 0x1 PUSH1 0x1 PUSH1 0x80 SHL SUB DUP2 AND DUP2 EQ PUSH2 0x18D5 JUMPI PUSH1 0x0 DUP1 REVERT JUMPDEST PUSH1 0x0 DUP1 DUP3 PUSH1 0x1 PUSH1 0x1 PUSH1 0xA0 SHL SUB AND DUP1 EXTCODESIZE DUP1 PUSH1 0x20 ADD PUSH1 0x40 MLOAD SWAP1 DUP2 ADD PUSH1 0x40 MSTORE DUP2 DUP2 MSTORE PUSH1 0x0 SWAP1 DUP1 PUSH1 0x20 ADD SWAP1 SWAP4 EXTCODECOPY MLOAD GT SWAP3 SWAP2 POP POP JUMP JUMPDEST PUSH1 0x60 DUP4 ISZERO PUSH2 0x43F9 JUMPI POP DUP2 PUSH2 0x7B8 JUMP JUMPDEST DUP3 MLOAD ISZERO PUSH2 0x4409 JUMPI DUP3 MLOAD DUP1 DUP5 PUSH1 0x20 ADD REVERT JUMPDEST DUP2 PUSH1 0x40 MLOAD PUSH3 0x461BCD PUSH1 0xE5 SHL DUP2 MSTORE PUSH1 0x4 ADD PUSH2 0x58E SWAP2 SWAP1 PUSH2 0x4BE0 JUMP JUMPDEST DUP1 MLOAD DUP1 ISZERO ISZERO DUP2 EQ PUSH2 0x18D5 JUMPI PUSH1 0x0 DUP1 REVERT JUMPDEST PUSH1 0x0 DUP1 DUP4 PUSH1 0x1F DUP5 ADD SLT PUSH2 0x4444 JUMPI DUP2 DUP3 REVERT JUMPDEST POP DUP2 CALLDATALOAD PUSH8 0xFFFFFFFFFFFFFFFF DUP2 GT ISZERO PUSH2 0x445B JUMPI DUP2 DUP3 REVERT JUMPDEST PUSH1 0x20 DUP4 ADD SWAP2 POP DUP4 PUSH1 0x20 DUP3 DUP6 ADD ADD GT ISZERO PUSH2 0x4473 JUMPI PUSH1 0x0 DUP1 REVERT JUMPDEST SWAP3 POP SWAP3 SWAP1 POP JUMP JUMPDEST DUP1 MLOAD PUSH2 0xFFFF DUP2 AND DUP2 EQ PUSH2 0x18D5 JUMPI PUSH1 0x0 DUP1 REVERT JUMPDEST PUSH1 0x0 PUSH1 0x20 DUP3 DUP5 SUB SLT ISZERO PUSH2 0x449D JUMPI DUP1 DUP2 REVERT JUMPDEST DUP2 CALLDATALOAD PUSH2 0x7B8 DUP2 PUSH2 0x555C JUMP JUMPDEST PUSH1 0x0 DUP1 PUSH1 0x40 DUP4 DUP6 SUB SLT ISZERO PUSH2 0x44BA JUMPI DUP1 DUP2 REVERT JUMPDEST DUP3 CALLDATALOAD PUSH2 0x44C5 DUP2 PUSH2 0x555C JUMP JUMPDEST SWAP2 POP PUSH1 0x20 DUP4 ADD CALLDATALOAD PUSH2 0x44D5 DUP2 PUSH2 0x555C JUMP JUMPDEST DUP1 SWAP2 POP POP SWAP3 POP SWAP3 SWAP1 POP JUMP JUMPDEST PUSH1 0x0 DUP1 PUSH1 0x0 PUSH1 0x60 DUP5 DUP7 SUB SLT ISZERO PUSH2 0x44F4 JUMPI DUP1 DUP2 REVERT JUMPDEST DUP4 CALLDATALOAD PUSH2 0x44FF DUP2 PUSH2 0x555C JUMP JUMPDEST SWAP3 POP PUSH1 0x20 DUP5 ADD CALLDATALOAD PUSH2 0x450F DUP2 PUSH2 0x555C JUMP JUMPDEST SWAP3 SWAP6 SWAP3 SWAP5 POP POP POP PUSH1 0x40 SWAP2 SWAP1 SWAP2 ADD CALLDATALOAD SWAP1 JUMP JUMPDEST PUSH1 0x0 DUP1 PUSH1 0x40 DUP4 DUP6 SUB SLT ISZERO PUSH2 0x4532 JUMPI DUP2 DUP3 REVERT JUMPDEST DUP3 CALLDATALOAD PUSH2 0x453D DUP2 PUSH2 0x555C JUMP JUMPDEST SWAP5 PUSH1 0x20 SWAP4 SWAP1 SWAP4 ADD CALLDATALOAD SWAP4 POP POP POP JUMP JUMPDEST PUSH1 0x0 PUSH1 0x20 DUP1 DUP4 DUP6 SUB SLT ISZERO PUSH2 0x455D JUMPI DUP2 DUP3 REVERT JUMPDEST DUP3 MLOAD PUSH8 0xFFFFFFFFFFFFFFFF DUP1 DUP3 GT ISZERO PUSH2 0x4574 JUMPI DUP4 DUP5 REVERT JUMPDEST DUP2 DUP6 ADD SWAP2 POP DUP6 PUSH1 0x1F DUP4 ADD SLT PUSH2 0x4587 JUMPI DUP4 DUP5 REVERT JUMPDEST DUP2 MLOAD DUP2 DUP2 GT ISZERO PUSH2 0x4599 JUMPI PUSH2 0x4599 PUSH2 0x5546 JUMP JUMPDEST DUP4 DUP2 MUL PUSH1 0x40 MLOAD DUP6 DUP3 DUP3 ADD ADD DUP2 DUP2 LT DUP6 DUP3 GT OR ISZERO PUSH2 0x45B8 JUMPI PUSH2 0x45B8 PUSH2 0x5546 JUMP JUMPDEST PUSH1 0x40 MSTORE DUP3 DUP2 MSTORE DUP6 DUP2 ADD SWAP4 POP DUP5 DUP7 ADD DUP3 DUP7 ADD DUP8 ADD DUP11 LT ISZERO PUSH2 0x45D6 JUMPI DUP8 DUP9 REVERT JUMPDEST DUP8 SWAP6 POP JUMPDEST DUP4 DUP7 LT ISZERO PUSH2 0x45F8 JUMPI DUP1 MLOAD DUP6 MSTORE PUSH1 0x1 SWAP6 SWAP1 SWAP6 ADD SWAP5 SWAP4 DUP7 ADD SWAP4 DUP7 ADD PUSH2 0x45DA JUMP JUMPDEST POP SWAP9 SWAP8 POP POP POP POP POP POP POP POP JUMP JUMPDEST PUSH1 0x0 PUSH1 0x20 DUP3 DUP5 SUB SLT ISZERO PUSH2 0x4616 JUMPI DUP1 DUP2 REVERT JUMPDEST PUSH2 0x7B8 DUP3 PUSH2 0x4423 JUMP JUMPDEST PUSH1 0x0 DUP1 PUSH1 0x0 PUSH1 0x60 DUP5 DUP7 SUB SLT ISZERO PUSH2 0x4633 JUMPI DUP3 DUP4 REVERT JUMPDEST DUP4 CALLDATALOAD PUSH2 0x463E DUP2 PUSH2 0x555C JUMP JUMPDEST SWAP3 POP PUSH1 0x20 DUP5 ADD CALLDATALOAD SWAP2 POP PUSH1 0x40 DUP5 ADD CALLDATALOAD PUSH2 0x4655 DUP2 PUSH2 0x555C JUMP JUMPDEST DUP1 SWAP2 POP POP SWAP3 POP SWAP3 POP SWAP3 JUMP JUMPDEST PUSH1 0x0 DUP1 PUSH1 0x40 DUP4 DUP6 SUB SLT ISZERO PUSH2 0x4672 JUMPI DUP2 DUP3 REVERT JUMPDEST DUP3 CALLDATALOAD PUSH2 0x467D DUP2 PUSH2 0x5574 JUMP JUMPDEST SWAP2 POP PUSH1 0x20 DUP4 ADD CALLDATALOAD PUSH2 0x44D5 DUP2 PUSH2 0x5574 JUMP JUMPDEST PUSH1 0x0 DUP1 PUSH1 0x0 PUSH1 0x60 DUP5 DUP7 SUB SLT ISZERO PUSH2 0x46A1 JUMPI DUP3 DUP4 REVERT JUMPDEST DUP4 CALLDATALOAD PUSH2 0x46AC DUP2 PUSH2 0x5574 JUMP JUMPDEST SWAP3 POP PUSH1 0x20 DUP5 ADD CALLDATALOAD PUSH2 0x46BC DUP2 PUSH2 0x5574 JUMP JUMPDEST SWAP2 POP PUSH1 0x40 DUP5 ADD CALLDATALOAD PUSH2 0x4655 DUP2 PUSH2 0x5583 JUMP JUMPDEST PUSH1 0x0 DUP1 PUSH1 0x40 DUP4 DUP6 SUB SLT ISZERO PUSH2 0x46DE JUMPI DUP2 DUP3 REVERT JUMPDEST POP POP DUP1 MLOAD PUSH1 0x20 SWAP1 SWAP2 ADD MLOAD SWAP1 SWAP3 SWAP1 SWAP2 POP JUMP JUMPDEST PUSH1 0x0 DUP1 PUSH1 0x0 DUP1 PUSH1 0x60 DUP6 DUP8 SUB SLT ISZERO PUSH2 0x4704 JUMPI DUP2 DUP3 REVERT JUMPDEST DUP5 CALLDATALOAD SWAP4 POP PUSH1 0x20 DUP6 ADD CALLDATALOAD SWAP3 POP PUSH1 0x40 DUP6 ADD CALLDATALOAD PUSH8 0xFFFFFFFFFFFFFFFF DUP2 GT ISZERO PUSH2 0x4728 JUMPI DUP3 DUP4 REVERT JUMPDEST PUSH2 0x4734 DUP8 DUP3 DUP9 ADD PUSH2 0x4433 JUMP JUMPDEST SWAP6 SWAP9 SWAP5 SWAP8 POP SWAP6 POP POP POP POP JUMP JUMPDEST PUSH1 0x0 DUP1 PUSH1 0x0 DUP1 PUSH1 0x0 DUP1 PUSH1 0x0 DUP1 PUSH2 0x100 DUP10 DUP12 SUB SLT ISZERO PUSH2 0x475C JUMPI DUP6 DUP7 REVERT JUMPDEST DUP9 CALLDATALOAD SWAP8 POP PUSH1 0x20 DUP10 ADD CALLDATALOAD PUSH2 0x476E DUP2 PUSH2 0x555C JUMP JUMPDEST SWAP7 POP PUSH1 0x40 DUP10 ADD CALLDATALOAD PUSH2 0x477E DUP2 PUSH2 0x5574 JUMP JUMPDEST SWAP6 POP PUSH1 0x60 DUP10 ADD CALLDATALOAD PUSH2 0x478E DUP2 PUSH2 0x5574 JUMP JUMPDEST SWAP5 POP PUSH1 0x80 DUP10 ADD CALLDATALOAD PUSH2 0x479E DUP2 PUSH2 0x5574 JUMP JUMPDEST SWAP4 POP PUSH1 0xA0 DUP10 ADD CALLDATALOAD PUSH2 0x47AE DUP2 PUSH2 0x5574 JUMP JUMPDEST SWAP3 POP PUSH1 0xC0 DUP10 ADD CALLDATALOAD PUSH2 0x47BE DUP2 PUSH2 0x5574 JUMP JUMPDEST SWAP2 POP PUSH1 0xE0 DUP10 ADD CALLDATALOAD PUSH2 0x47CE DUP2 PUSH2 0x5574 JUMP JUMPDEST DUP1 SWAP2 POP POP SWAP3 SWAP6 SWAP9 POP SWAP3 SWAP6 SWAP9 SWAP1 SWAP4 SWAP7 POP JUMP JUMPDEST PUSH1 0x0 DUP1 PUSH1 0x40 DUP4 DUP6 SUB SLT ISZERO PUSH2 0x47F1 JUMPI DUP2 DUP3 REVERT JUMPDEST DUP3 MLOAD PUSH2 0x47FC DUP2 PUSH2 0x5583 JUMP JUMPDEST PUSH1 0x20 DUP5 ADD MLOAD SWAP1 SWAP3 POP PUSH2 0x44D5 DUP2 PUSH2 0x5583 JUMP JUMPDEST PUSH1 0x0 DUP1 PUSH1 0x0 DUP1 PUSH1 0x0 PUSH1 0xA0 DUP7 DUP9 SUB SLT ISZERO PUSH2 0x4824 JUMPI DUP3 DUP4 REVERT JUMPDEST DUP6 MLOAD PUSH2 0x482F DUP2 PUSH2 0x5583 JUMP JUMPDEST DUP1 SWAP6 POP POP PUSH1 0x20 DUP7 ADD MLOAD SWAP4 POP PUSH1 0x40 DUP7 ADD MLOAD SWAP3 POP PUSH1 0x60 DUP7 ADD MLOAD PUSH2 0x484F DUP2 PUSH2 0x5583 JUMP JUMPDEST PUSH1 0x80 DUP8 ADD MLOAD SWAP1 SWAP3 POP PUSH2 0x4860 DUP2 PUSH2 0x5583 JUMP JUMPDEST DUP1 SWAP2 POP POP SWAP3 SWAP6 POP SWAP3 SWAP6 SWAP1 SWAP4 POP JUMP JUMPDEST PUSH1 0x0 DUP1 PUSH1 0x0 DUP1 PUSH1 0x0 DUP1 PUSH1 0x0 PUSH1 0xE0 DUP9 DUP11 SUB SLT ISZERO PUSH2 0x4888 JUMPI DUP1 DUP2 REVERT JUMPDEST DUP8 MLOAD PUSH2 0x4893 DUP2 PUSH2 0x555C JUMP JUMPDEST PUSH1 0x20 DUP10 ADD MLOAD SWAP1 SWAP8 POP PUSH2 0x48A4 DUP2 PUSH2 0x5574 JUMP JUMPDEST SWAP6 POP PUSH2 0x48B2 PUSH1 0x40 DUP10 ADD PUSH2 0x447A JUMP JUMPDEST SWAP5 POP PUSH2 0x48C0 PUSH1 0x60 DUP10 ADD PUSH2 0x447A JUMP JUMPDEST SWAP4 POP PUSH2 0x48CE PUSH1 0x80 DUP10 ADD PUSH2 0x447A JUMP JUMPDEST SWAP3 POP PUSH1 0xA0 DUP9 ADD MLOAD PUSH1 0xFF DUP2 AND DUP2 EQ PUSH2 0x48E3 JUMPI DUP2 DUP3 REVERT JUMPDEST SWAP2 POP PUSH2 0x48F1 PUSH1 0xC0 DUP10 ADD PUSH2 0x4423 JUMP JUMPDEST SWAP1 POP SWAP3 SWAP6 SWAP9 SWAP2 SWAP5 SWAP8 POP SWAP3 SWAP6 POP JUMP JUMPDEST PUSH1 0x0 PUSH1 0x20 DUP3 DUP5 SUB SLT ISZERO PUSH2 0x4910 JUMPI DUP1 DUP2 REVERT JUMPDEST POP CALLDATALOAD SWAP2 SWAP1 POP JUMP JUMPDEST PUSH1 0x0 PUSH1 0x20 DUP3 DUP5 SUB SLT ISZERO PUSH2 0x4928 JUMPI DUP1 DUP2 REVERT JUMPDEST POP MLOAD SWAP2 SWAP1 POP JUMP JUMPDEST PUSH1 0x0 DUP1 PUSH1 0x0 PUSH1 0x60 DUP5 DUP7 SUB SLT ISZERO PUSH2 0x4943 JUMPI DUP1 DUP2 REVERT JUMPDEST DUP4 CALLDATALOAD SWAP3 POP PUSH1 0x20 DUP5 ADD CALLDATALOAD SWAP2 POP PUSH1 0x40 DUP5 ADD CALLDATALOAD PUSH2 0x4655 DUP2 PUSH2 0x555C JUMP JUMPDEST PUSH1 0x0 DUP1 PUSH1 0x0 DUP1 PUSH1 0x80 DUP6 DUP8 SUB SLT ISZERO PUSH2 0x4971 JUMPI DUP2 DUP3 REVERT JUMPDEST DUP5 CALLDATALOAD SWAP4 POP PUSH1 0x20 DUP6 ADD CALLDATALOAD SWAP3 POP PUSH1 0x40 DUP6 ADD CALLDATALOAD SWAP2 POP PUSH1 0x60 DUP6 ADD CALLDATALOAD PUSH2 0x4991 DUP2 PUSH2 0x555C JUMP JUMPDEST SWAP4 SWAP7 SWAP3 SWAP6 POP SWAP1 SWAP4 POP POP JUMP JUMPDEST PUSH1 0x0 DUP1 PUSH1 0x0 DUP1 PUSH1 0x0 PUSH1 0xA0 DUP7 DUP9 SUB SLT ISZERO PUSH2 0x49B3 JUMPI DUP3 DUP4 REVERT JUMPDEST DUP6 CALLDATALOAD SWAP5 POP PUSH1 0x20 DUP7 ADD CALLDATALOAD SWAP4 POP PUSH1 0x40 DUP7 ADD CALLDATALOAD SWAP3 POP PUSH1 0x60 DUP7 ADD CALLDATALOAD SWAP2 POP PUSH1 0x80 DUP7 ADD CALLDATALOAD PUSH2 0x4860 DUP2 PUSH2 0x555C JUMP JUMPDEST PUSH1 0x0 DUP2 MLOAD DUP1 DUP5 MSTORE PUSH1 0x20 DUP1 DUP6 ADD SWAP5 POP DUP1 DUP5 ADD DUP4 JUMPDEST DUP4 DUP2 LT ISZERO PUSH2 0x4A12 JUMPI DUP2 MLOAD PUSH1 0x1 PUSH1 0x1 PUSH1 0xA0 SHL SUB AND DUP8 MSTORE SWAP6 DUP3 ADD SWAP6 SWAP1 DUP3 ADD SWAP1 PUSH1 0x1 ADD PUSH2 0x49ED JUMP JUMPDEST POP SWAP5 SWAP6 SWAP5 POP POP POP POP POP JUMP JUMPDEST PUSH1 0x60 SWAP4 SWAP1 SWAP4 SHL PUSH12 0xFFFFFFFFFFFFFFFFFFFFFFFF NOT AND DUP4 MSTORE PUSH1 0x2 SWAP2 DUP3 SIGNEXTEND PUSH1 0xE8 SWAP1 DUP2 SHL PUSH1 0x14 DUP6 ADD MSTORE SWAP2 SIGNEXTEND SWAP1 SHL PUSH1 0x17 DUP3 ADD MSTORE PUSH1 0x1A ADD SWAP1 JUMP JUMPDEST PUSH1 0x0 DUP3 MLOAD PUSH2 0x4A64 DUP2 DUP5 PUSH1 0x20 DUP8 ADD PUSH2 0x5442 JUMP JUMPDEST SWAP2 SWAP1 SWAP2 ADD SWAP3 SWAP2 POP POP JUMP JUMPDEST PUSH1 0x1 PUSH1 0x1 PUSH1 0xA0 SHL SUB SWAP2 SWAP1 SWAP2 AND DUP2 MSTORE PUSH1 0x20 ADD SWAP1 JUMP JUMPDEST PUSH1 0x1 PUSH1 0x1 PUSH1 0xA0 SHL SUB SWAP4 DUP5 AND DUP2 MSTORE SWAP2 SWAP1 SWAP3 AND PUSH1 0x20 DUP3 ADD MSTORE PUSH1 0x40 DUP2 ADD SWAP2 SWAP1 SWAP2 MSTORE PUSH1 0x60 ADD SWAP1 JUMP JUMPDEST PUSH1 0x1 PUSH1 0x1 PUSH1 0xA0 SHL SUB SWAP5 DUP6 AND DUP2 MSTORE SWAP3 ISZERO ISZERO PUSH1 0x20 DUP5 ADD MSTORE PUSH1 0x40 DUP4 ADD SWAP2 SWAP1 SWAP2 MSTORE SWAP1 SWAP2 AND PUSH1 0x60 DUP3 ADD MSTORE PUSH1 0xA0 PUSH1 0x80 DUP3 ADD DUP2 SWAP1 MSTORE PUSH1 0x0 SWAP1 DUP3 ADD MSTORE PUSH1 0xC0 ADD SWAP1 JUMP JUMPDEST PUSH1 0x1 PUSH1 0x1 PUSH1 0xA0 SHL SUB SWAP5 SWAP1 SWAP5 AND DUP5 MSTORE PUSH1 0x2 SWAP3 DUP4 SIGNEXTEND PUSH1 0x20 DUP6 ADD MSTORE SWAP2 SIGNEXTEND PUSH1 0x40 DUP4 ADD MSTORE PUSH1 0x1 PUSH1 0x1 PUSH1 0x80 SHL SUB AND PUSH1 0x60 DUP3 ADD MSTORE PUSH1 0xA0 PUSH1 0x80 DUP3 ADD DUP2 SWAP1 MSTORE PUSH1 0x0 SWAP1 DUP3 ADD MSTORE PUSH1 0xC0 ADD SWAP1 JUMP JUMPDEST PUSH1 0x1 PUSH1 0x1 PUSH1 0xA0 SHL SUB SWAP6 SWAP1 SWAP6 AND DUP6 MSTORE PUSH1 0x2 SWAP4 DUP5 SIGNEXTEND PUSH1 0x20 DUP7 ADD MSTORE SWAP2 SWAP1 SWAP3 SIGNEXTEND PUSH1 0x40 DUP5 ADD MSTORE PUSH1 0x1 PUSH1 0x1 PUSH1 0x80 SHL SUB SWAP2 DUP3 AND PUSH1 0x60 DUP5 ADD MSTORE AND PUSH1 0x80 DUP3 ADD MSTORE PUSH1 0xA0 ADD SWAP1 JUMP JUMPDEST PUSH1 0x1 PUSH1 0x1 PUSH1 0xA0 SHL SUB SWAP3 SWAP1 SWAP3 AND DUP3 MSTORE PUSH1 0x20 DUP3 ADD MSTORE PUSH1 0x40 ADD SWAP1 JUMP JUMPDEST SWAP1 ISZERO ISZERO DUP2 MSTORE PUSH1 0x20 ADD SWAP1 JUMP JUMPDEST SWAP1 DUP2 MSTORE PUSH1 0x20 ADD SWAP1 JUMP JUMPDEST PUSH1 0x2 SWAP2 SWAP1 SWAP2 SIGNEXTEND DUP2 MSTORE PUSH1 0x20 ADD SWAP1 JUMP JUMPDEST PUSH1 0x2 SWAP4 DUP5 SIGNEXTEND DUP2 MSTORE SWAP2 SWAP1 SWAP3 SIGNEXTEND PUSH1 0x20 DUP3 ADD MSTORE PUSH1 0x1 PUSH1 0x1 PUSH1 0x80 SHL SUB SWAP1 SWAP2 AND PUSH1 0x40 DUP3 ADD MSTORE PUSH1 0x60 ADD SWAP1 JUMP JUMPDEST PUSH1 0x2 SWAP5 SWAP1 SWAP5 SIGNEXTEND DUP5 MSTORE PUSH1 0x20 DUP5 ADD SWAP3 SWAP1 SWAP3 MSTORE PUSH1 0x40 DUP4 ADD MSTORE PUSH1 0x60 DUP3 ADD MSTORE PUSH1 0x80 ADD SWAP1 JUMP JUMPDEST PUSH1 0x0 PUSH1 0x20 DUP3 MSTORE DUP3 MLOAD DUP1 PUSH1 0x20 DUP5 ADD MSTORE PUSH2 0x4BFF DUP2 PUSH1 0x40 DUP6 ADD PUSH1 0x20 DUP8 ADD PUSH2 0x5442 JUMP JUMPDEST PUSH1 0x1F ADD PUSH1 0x1F NOT AND SWAP2 SWAP1 SWAP2 ADD PUSH1 0x40 ADD SWAP3 SWAP2 POP POP JUMP JUMPDEST PUSH1 0x20 DUP1 DUP3 MSTORE PUSH1 0x23 SWAP1 DUP3 ADD MSTORE PUSH32 0x45524332303A207472616E7366657220746F20746865207A65726F2061646472 PUSH1 0x40 DUP3 ADD MSTORE PUSH3 0x657373 PUSH1 0xE8 SHL PUSH1 0x60 DUP3 ADD MSTORE PUSH1 0x80 ADD SWAP1 JUMP JUMPDEST PUSH1 0x20 DUP1 DUP3 MSTORE PUSH1 0xA SWAP1 DUP3 ADD MSTORE PUSH10 0x30B6B7BAB73A1826B4B7 PUSH1 0xB1 SHL PUSH1 0x40 DUP3 ADD MSTORE PUSH1 0x60 ADD SWAP1 JUMP JUMPDEST PUSH1 0x20 DUP1 DUP3 MSTORE PUSH1 0x22 SWAP1 DUP3 ADD MSTORE PUSH32 0x45524332303A206275726E20616D6F756E7420657863656564732062616C616E PUSH1 0x40 DUP3 ADD MSTORE PUSH2 0x6365 PUSH1 0xF0 SHL PUSH1 0x60 DUP3 ADD MSTORE PUSH1 0x80 ADD SWAP1 JUMP JUMPDEST PUSH1 0x20 DUP1 DUP3 MSTORE PUSH1 0x2 SWAP1 DUP3 ADD MSTORE PUSH2 0x746F PUSH1 0xF0 SHL PUSH1 0x40 DUP3 ADD MSTORE PUSH1 0x60 ADD SWAP1 JUMP JUMPDEST PUSH1 0x20 DUP1 DUP3 MSTORE PUSH1 0x15 SWAP1 DUP3 ADD MSTORE PUSH21 0x3A34B1B5A637BBB2B9101E103A34B1B5AAB83832B9 PUSH1 0x59 SHL PUSH1 0x40 DUP3 ADD MSTORE PUSH1 0x60 ADD SWAP1 JUMP JUMPDEST PUSH1 0x20 DUP1 DUP3 MSTORE PUSH1 0x22 SWAP1 DUP3 ADD MSTORE PUSH32 0x45524332303A20617070726F766520746F20746865207A65726F206164647265 PUSH1 0x40 DUP3 ADD MSTORE PUSH2 0x7373 PUSH1 0xF0 SHL PUSH1 0x60 DUP3 ADD MSTORE PUSH1 0x80 ADD SWAP1 JUMP JUMPDEST PUSH1 0x20 DUP1 DUP3 MSTORE PUSH1 0x17 SWAP1 DUP3 ADD MSTORE PUSH32 0x7469636B4C6F7765722025207469636B53706163696E67000000000000000000 PUSH1 0x40 DUP3 ADD MSTORE PUSH1 0x60 ADD SWAP1 JUMP JUMPDEST PUSH1 0x20 DUP1 DUP3 MSTORE PUSH1 0xD SWAP1 DUP3 ADD MSTORE PUSH13 0x73776170706564536861726573 PUSH1 0x98 SHL PUSH1 0x40 DUP3 ADD MSTORE PUSH1 0x60 ADD SWAP1 JUMP JUMPDEST PUSH1 0x20 DUP1 DUP3 MSTORE PUSH1 0x1D SWAP1 DUP3 ADD MSTORE PUSH32 0x45524332303A20696E73756666696369656E7420616C6C6F77616E6365000000 PUSH1 0x40 DUP3 ADD MSTORE PUSH1 0x60 ADD SWAP1 JUMP JUMPDEST PUSH1 0x20 DUP1 DUP3 MSTORE PUSH1 0x17 SWAP1 DUP3 ADD MSTORE PUSH32 0x7469636B55707065722025207469636B53706163696E67000000000000000000 PUSH1 0x40 DUP3 ADD MSTORE PUSH1 0x60 ADD SWAP1 JUMP JUMPDEST PUSH1 0x20 DUP1 DUP3 MSTORE PUSH1 0x26 SWAP1 DUP3 ADD MSTORE PUSH32 0x45524332303A207472616E7366657220616D6F756E7420657863656564732062 PUSH1 0x40 DUP3 ADD MSTORE PUSH6 0x616C616E6365 PUSH1 0xD0 SHL PUSH1 0x60 DUP3 ADD MSTORE PUSH1 0x80 ADD SWAP1 JUMP JUMPDEST PUSH1 0x20 DUP1 DUP3 MSTORE PUSH1 0x8 SWAP1 DUP3 ADD MSTORE PUSH8 0x3134B22AB83832B9 PUSH1 0xC1 SHL PUSH1 0x40 DUP3 ADD MSTORE PUSH1 0x60 ADD SWAP1 JUMP JUMPDEST PUSH1 0x20 DUP1 DUP3 MSTORE PUSH1 0x26 SWAP1 DUP3 ADD MSTORE PUSH32 0x416464726573733A20696E73756666696369656E742062616C616E636520666F PUSH1 0x40 DUP3 ADD MSTORE PUSH6 0x1C8818D85B1B PUSH1 0xD2 SHL PUSH1 0x60 DUP3 ADD MSTORE PUSH1 0x80 ADD SWAP1 JUMP JUMPDEST PUSH1 0x20 DUP1 DUP3 MSTORE DUP2 DUP2 ADD MSTORE PUSH32 0x616D6F756E743044657369726564206F7220616D6F756E743144657369726564 PUSH1 0x40 DUP3 ADD MSTORE PUSH1 0x60 ADD SWAP1 JUMP JUMPDEST PUSH1 0x20 DUP1 DUP3 MSTORE PUSH1 0x11 SWAP1 DUP3 ADD MSTORE PUSH17 0x70656E64696E67476F7665726E616E6365 PUSH1 0x78 SHL PUSH1 0x40 DUP3 ADD MSTORE PUSH1 0x60 ADD SWAP1 JUMP JUMPDEST PUSH1 0x20 DUP1 DUP3 MSTORE PUSH1 0x12 SWAP1 DUP3 ADD MSTORE PUSH18 0x616D6F756E7430206F7220616D6F756E7431 PUSH1 0x70 SHL PUSH1 0x40 DUP3 ADD MSTORE PUSH1 0x60 ADD SWAP1 JUMP JUMPDEST PUSH1 0x20 DUP1 DUP3 MSTORE PUSH1 0xB SWAP1 DUP3 ADD MSTORE PUSH11 0x70726F746F636F6C466565 PUSH1 0xA8 SHL PUSH1 0x40 DUP3 ADD MSTORE PUSH1 0x60 ADD SWAP1 JUMP JUMPDEST PUSH1 0x20 DUP1 DUP3 MSTORE PUSH1 0x5 SWAP1 DUP3 ADD MSTORE PUSH5 0x3A37B5B2B7 PUSH1 0xD9 SHL PUSH1 0x40 DUP3 ADD MSTORE PUSH1 0x60 ADD SWAP1 JUMP JUMPDEST PUSH1 0x20 DUP1 DUP3 MSTORE PUSH1 0x1B SWAP1 DUP3 ADD MSTORE PUSH32 0x61746C65617374206F6E6520746F6B656E206973206E65656465640000000000 PUSH1 0x40 DUP3 ADD MSTORE PUSH1 0x60 ADD SWAP1 JUMP JUMPDEST PUSH1 0x20 DUP1 DUP3 MSTORE PUSH1 0xC SWAP1 DUP3 ADD MSTORE PUSH12 0x29B430B93832A5B2B2B832B9 PUSH1 0xA1 SHL PUSH1 0x40 DUP3 ADD MSTORE PUSH1 0x60 ADD SWAP1 JUMP JUMPDEST PUSH1 0x20 DUP1 DUP3 MSTORE PUSH1 0xA SWAP1 DUP3 ADD MSTORE PUSH10 0x676F7665726E616E6365 PUSH1 0xB0 SHL PUSH1 0x40 DUP3 ADD MSTORE PUSH1 0x60 ADD SWAP1 JUMP JUMPDEST PUSH1 0x20 DUP1 DUP3 MSTORE PUSH1 0x6 SWAP1 DUP3 ADD MSTORE PUSH6 0x736861726573 PUSH1 0xD0 SHL PUSH1 0x40 DUP3 ADD MSTORE PUSH1 0x60 ADD SWAP1 JUMP JUMPDEST PUSH1 0x20 DUP1 DUP3 MSTORE PUSH1 0x21 SWAP1 DUP3 ADD MSTORE PUSH32 0x45524332303A206275726E2066726F6D20746865207A65726F20616464726573 PUSH1 0x40 DUP3 ADD MSTORE PUSH1 0x73 PUSH1 0xF8 SHL PUSH1 0x60 DUP3 ADD MSTORE PUSH1 0x80 ADD SWAP1 JUMP JUMPDEST PUSH1 0x20 DUP1 DUP3 MSTORE PUSH1 0x5 SWAP1 DUP3 ADD MSTORE PUSH5 0x63726F7373 PUSH1 0xD8 SHL PUSH1 0x40 DUP3 ADD MSTORE PUSH1 0x60 ADD SWAP1 JUMP JUMPDEST PUSH1 0x20 DUP1 DUP3 MSTORE PUSH1 0x25 SWAP1 DUP3 ADD MSTORE PUSH32 0x45524332303A207472616E736665722066726F6D20746865207A65726F206164 PUSH1 0x40 DUP3 ADD MSTORE PUSH5 0x6472657373 PUSH1 0xD8 SHL PUSH1 0x60 DUP3 ADD MSTORE PUSH1 0x80 ADD SWAP1 JUMP JUMPDEST PUSH1 0x20 DUP1 DUP3 MSTORE PUSH1 0xA SWAP1 DUP3 ADD MSTORE PUSH10 0x30B6B7BAB73A18A6B4B7 PUSH1 0xB1 SHL PUSH1 0x40 DUP3 ADD MSTORE PUSH1 0x60 ADD SWAP1 JUMP JUMPDEST PUSH1 0x20 DUP1 DUP3 MSTORE PUSH1 0x8 SWAP1 DUP3 ADD MSTORE PUSH8 0x30B9B5A637BBB2B9 PUSH1 0xC1 SHL PUSH1 0x40 DUP3 ADD MSTORE PUSH1 0x60 ADD SWAP1 JUMP JUMPDEST PUSH1 0x20 DUP1 DUP3 MSTORE PUSH1 0x11 SWAP1 DUP3 ADD MSTORE PUSH17 0x7469636B4C6F77657220746F6F206C6F77 PUSH1 0x78 SHL PUSH1 0x40 DUP3 ADD MSTORE PUSH1 0x60 ADD SWAP1 JUMP JUMPDEST PUSH1 0x20 DUP1 DUP3 MSTORE PUSH1 0x24 SWAP1 DUP3 ADD MSTORE PUSH32 0x45524332303A20617070726F76652066726F6D20746865207A65726F20616464 PUSH1 0x40 DUP3 ADD MSTORE PUSH4 0x72657373 PUSH1 0xE0 SHL PUSH1 0x60 DUP3 ADD MSTORE PUSH1 0x80 ADD SWAP1 JUMP JUMPDEST PUSH1 0x20 DUP1 DUP3 MSTORE PUSH1 0x12 SWAP1 DUP3 ADD MSTORE PUSH18 0xE8D2C6D6AAE0E0CAE440E8DEDE40D0D2CED PUSH1 0x73 SHL PUSH1 0x40 DUP3 ADD MSTORE PUSH1 0x60 ADD SWAP1 JUMP JUMPDEST PUSH1 0x20 DUP1 DUP3 MSTORE PUSH1 0x1D SWAP1 DUP3 ADD MSTORE PUSH32 0x416464726573733A2063616C6C20746F206E6F6E2D636F6E7472616374000000 PUSH1 0x40 DUP3 ADD MSTORE PUSH1 0x60 ADD SWAP1 JUMP JUMPDEST PUSH1 0x20 DUP1 DUP3 MSTORE PUSH1 0xE SWAP1 DUP3 ADD MSTORE PUSH14 0x6D6178546F74616C537570706C79 PUSH1 0x90 SHL PUSH1 0x40 DUP3 ADD MSTORE PUSH1 0x60 ADD SWAP1 JUMP JUMPDEST PUSH1 0x20 DUP1 DUP3 MSTORE PUSH1 0x2A SWAP1 DUP3 ADD MSTORE PUSH32 0x5361666545524332303A204552433230206F7065726174696F6E20646964206E PUSH1 0x40 DUP3 ADD MSTORE PUSH10 0x1BDD081CDD58D8D95959 PUSH1 0xB2 SHL PUSH1 0x60 DUP3 ADD MSTORE PUSH1 0x80 ADD SWAP1 JUMP JUMPDEST PUSH1 0x20 DUP1 DUP3 MSTORE PUSH1 0x1F SWAP1 DUP3 ADD MSTORE PUSH32 0x5265656E7472616E637947756172643A207265656E7472616E742063616C6C00 PUSH1 0x40 DUP3 ADD MSTORE PUSH1 0x60 ADD SWAP1 JUMP JUMPDEST PUSH1 0x20 DUP1 DUP3 MSTORE PUSH1 0x25 SWAP1 DUP3 ADD MSTORE PUSH32 0x45524332303A2064656372656173656420616C6C6F77616E63652062656C6F77 PUSH1 0x40 DUP3 ADD MSTORE PUSH5 0x207A65726F PUSH1 0xD8 SHL PUSH1 0x60 DUP3 ADD MSTORE PUSH1 0x80 ADD SWAP1 JUMP JUMPDEST PUSH1 0x20 DUP1 DUP3 MSTORE PUSH1 0x1F SWAP1 DUP3 ADD MSTORE PUSH32 0x45524332303A206D696E7420746F20746865207A65726F206164647265737300 PUSH1 0x40 DUP3 ADD MSTORE PUSH1 0x60 ADD SWAP1 JUMP JUMPDEST PUSH1 0x0 DUP4 DUP3 MSTORE PUSH1 0x40 PUSH1 0x20 DUP4 ADD MSTORE PUSH2 0x3E6E PUSH1 0x40 DUP4 ADD DUP5 PUSH2 0x49DA JUMP JUMPDEST PUSH1 0x0 DUP7 DUP3 MSTORE DUP6 PUSH1 0x20 DUP4 ADD MSTORE PUSH1 0xA0 PUSH1 0x40 DUP4 ADD MSTORE PUSH2 0x534E PUSH1 0xA0 DUP4 ADD DUP7 PUSH2 0x49DA JUMP JUMPDEST PUSH1 0x1 PUSH1 0x1 PUSH1 0xA0 SHL SUB SWAP5 SWAP1 SWAP5 AND PUSH1 0x60 DUP4 ADD MSTORE POP PUSH1 0x80 ADD MSTORE SWAP4 SWAP3 POP POP POP JUMP JUMPDEST SWAP2 DUP3 MSTORE PUSH1 0x20 DUP3 ADD MSTORE PUSH1 0x40 ADD SWAP1 JUMP JUMPDEST SWAP3 DUP4 MSTORE PUSH1 0x20 DUP4 ADD SWAP2 SWAP1 SWAP2 MSTORE PUSH1 0x40 DUP3 ADD MSTORE PUSH1 0x60 ADD SWAP1 JUMP JUMPDEST SWAP4 DUP5 MSTORE PUSH1 0x20 DUP5 ADD SWAP3 SWAP1 SWAP3 MSTORE PUSH1 0x40 DUP4 ADD MSTORE PUSH1 0x60 DUP3 ADD MSTORE PUSH1 0x80 ADD SWAP1 JUMP JUMPDEST PUSH1 0xFF SWAP2 SWAP1 SWAP2 AND DUP2 MSTORE PUSH1 0x20 ADD SWAP1 JUMP JUMPDEST PUSH1 0x0 DUP3 NOT DUP3 GT ISZERO PUSH2 0x53CB JUMPI PUSH2 0x53CB PUSH2 0x551A JUMP JUMPDEST POP ADD SWAP1 JUMP JUMPDEST PUSH1 0x0 DUP3 PUSH2 0x53DF JUMPI PUSH2 0x53DF PUSH2 0x5530 JUMP JUMPDEST POP DIV SWAP1 JUMP JUMPDEST PUSH1 0x0 DUP2 PUSH1 0x0 NOT DIV DUP4 GT DUP3 ISZERO ISZERO AND ISZERO PUSH2 0x53FE JUMPI PUSH2 0x53FE PUSH2 0x551A JUMP JUMPDEST POP MUL SWAP1 JUMP JUMPDEST PUSH1 0x0 PUSH1 0x1 PUSH1 0x1 PUSH1 0xA0 SHL SUB DUP4 DUP2 AND SWAP1 DUP4 AND DUP2 DUP2 LT ISZERO PUSH2 0x5423 JUMPI PUSH2 0x5423 PUSH2 0x551A JUMP JUMPDEST SUB SWAP4 SWAP3 POP POP POP JUMP JUMPDEST PUSH1 0x0 DUP3 DUP3 LT ISZERO PUSH2 0x543D JUMPI PUSH2 0x543D PUSH2 0x551A JUMP JUMPDEST POP SUB SWAP1 JUMP JUMPDEST PUSH1 0x0 JUMPDEST DUP4 DUP2 LT ISZERO PUSH2 0x545D JUMPI DUP2 DUP2 ADD MLOAD DUP4 DUP3 ADD MSTORE PUSH1 0x20 ADD PUSH2 0x5445 JUMP JUMPDEST DUP4 DUP2 GT ISZERO PUSH2 0x25C6 JUMPI POP POP PUSH1 0x0 SWAP2 ADD MSTORE JUMP JUMPDEST PUSH1 0x2 DUP2 DIV PUSH1 0x1 DUP3 AND DUP1 PUSH2 0x5482 JUMPI PUSH1 0x7F DUP3 AND SWAP2 POP JUMPDEST PUSH1 0x20 DUP3 LT DUP2 EQ ISZERO PUSH2 0x54A3 JUMPI PUSH4 0x4E487B71 PUSH1 0xE0 SHL PUSH1 0x0 MSTORE PUSH1 0x22 PUSH1 0x4 MSTORE PUSH1 0x24 PUSH1 0x0 REVERT JUMPDEST POP SWAP2 SWAP1 POP JUMP JUMPDEST PUSH1 0x0 DUP3 PUSH1 0x2 SIGNEXTEND DUP1 PUSH2 0x54BC JUMPI PUSH2 0x54BC PUSH2 0x5530 JUMP JUMPDEST DUP1 DUP4 PUSH1 0x2 SIGNEXTEND SMOD SWAP2 POP POP SWAP3 SWAP2 POP POP JUMP JUMPDEST PUSH1 0x0 DUP3 PUSH2 0x54DA JUMPI PUSH2 0x54DA PUSH2 0x5530 JUMP JUMPDEST POP MOD SWAP1 JUMP JUMPDEST PUSH1 0x0 DUP2 PUSH1 0x2 SIGNEXTEND PUSH3 0x7FFFFF NOT DUP2 EQ ISZERO PUSH2 0x54F9 JUMPI PUSH2 0x54F9 PUSH2 0x551A JUMP JUMPDEST SWAP1 SUB SWAP2 SWAP1 POP JUMP JUMPDEST PUSH1 0x0 PUSH1 0x1 PUSH1 0xFF SHL DUP3 EQ ISZERO PUSH2 0x5516 JUMPI PUSH2 0x5516 PUSH2 0x551A JUMP JUMPDEST SUB SWAP1 JUMP JUMPDEST PUSH4 0x4E487B71 PUSH1 0xE0 SHL PUSH1 0x0 MSTORE PUSH1 0x11 PUSH1 0x4 MSTORE PUSH1 0x24 PUSH1 0x0 REVERT JUMPDEST PUSH4 0x4E487B71 PUSH1 0xE0 SHL PUSH1 0x0 MSTORE PUSH1 0x12 PUSH1 0x4 MSTORE PUSH1 0x24 PUSH1 0x0 REVERT JUMPDEST PUSH4 0x4E487B71 PUSH1 0xE0 SHL PUSH1 0x0 MSTORE PUSH1 0x41 PUSH1 0x4 MSTORE PUSH1 0x24 PUSH1 0x0 REVERT JUMPDEST PUSH1 0x1 PUSH1 0x1 PUSH1 0xA0 SHL SUB DUP2 AND DUP2 EQ PUSH2 0x5571 JUMPI PUSH1 0x0 DUP1 REVERT JUMPDEST POP JUMP JUMPDEST DUP1 PUSH1 0x2 SIGNEXTEND DUP2 EQ PUSH2 0x5571 JUMPI PUSH1 0x0 DUP1 REVERT JUMPDEST PUSH1 0x1 PUSH1 0x1 PUSH1 0x80 SHL SUB DUP2 AND DUP2 EQ PUSH2 0x5571 JUMPI PUSH1 0x0 DUP1 REVERT INVALID LOG2 PUSH5 0x6970667358 0x22 SLT KECCAK256 0xE6 LOG3 NUMBER CHAINID MSTORE8 0x29 0xAC DUP6 SUB LOG2 0xBA SWAP8 PUSH9 0xAB8F60BD2EEFF7A428 PUSH2 0x9350 PC MOD PUSH25 0xCC210D2C64736F6C6343000800003300000000000000000000 ","sha1":"44274cb8664ff45e8a071a8cda79471fe165a83d","source":"// SPDX-License-Identifier: Unlicense\npragma solidity ^0.8.0;\nimport \"@openzeppelin/contracts/security/ReentrancyGuard.sol\";\nimport \"@uniswap/v3-core/contracts/interfaces/callback/IUniswapV3MintCallback.sol\";\nimport \"@uniswap/v3-core/contracts/interfaces/callback/IUniswapV3SwapCallback.sol\";\nimport \"@openzeppelin/contracts/token/ERC20/ERC20.sol\";\nimport \"@openzeppelin/contracts/token/ERC20/IERC20.sol\";\nimport \"@openzeppelin/contracts/token/ERC20/utils/SafeERC20.sol\";\nimport \"@openzeppelin/contracts/utils/math/SafeMath.sol\";\nimport \"@uniswap/v3-core/contracts/interfaces/IUniswapV3Pool.sol\";\nimport \"@openzeppelin/contracts/utils/math/Math.sol\";\nimport \"@uniswap/v3-core/contracts/libraries/TickMath.sol\";\nimport \"@openzeppelin/contracts/token/ERC20/extensions/IERC20Metadata.sol\";\nimport \"@openzeppelin/contracts/utils/Context.sol\";\nimport \"@openzeppelin/contracts/utils/Address.sol\";\nimport \"@openzeppelin/contracts/token/ERC20/utils/SafeERC20.sol\";\nimport \"@uniswap/v3-core/contracts/interfaces/pool/IUniswapV3PoolImmutables.sol\";\nimport \"@uniswap/v3-core/contracts/interfaces/pool/IUniswapV3PoolState.sol\";\nimport \"@uniswap/v3-core/contracts/interfaces/pool/IUniswapV3PoolDerivedState.sol\";\nimport \"@uniswap/v3-core/contracts/interfaces/pool/IUniswapV3PoolActions.sol\";\nimport \"@uniswap/v3-core/contracts/interfaces/pool/IUniswapV3PoolOwnerActions.sol\";\nimport \"@uniswap/v3-core/contracts/interfaces/pool/IUniswapV3PoolEvents.sol\";\nimport \"@uniswap/v3-periphery/contracts/libraries/LiquidityAmounts.sol\";\nimport \"@uniswap/v3-periphery/contracts/libraries/PositionKey.sol\";\nimport \"../interfaces/IVault.sol\";\nimport \"../interfaces/IUniswapV2Router02.sol\";\n\ncontract Sharpe is IVault,IUniswapV3MintCallback,IUniswapV3SwapCallback,ERC20,ReentrancyGuard{\n    using SafeERC20 for IERC20;\n    using SafeMath for uint256;\n    event Deposit(address indexed sender,address indexed to,uint256 shares,uint256 amount0,uint256 amount1);\n    event Withdraw(address indexed sender,address indexed to,uint256 shares,uint256 amount0,uint256 amount1);\n    event CollectFees(uint256 feesToVault0,uint256 feesToVault1,uint256 feesToProtocol0,uint256 feesToProtocol1);\n    event Snapshot(int24 tick, uint256 totalAmount0, uint256 totalAmount1, uint256 totalSupply);\n    IUniswapV3Pool public immutable pool;\n    IUniswapV2Router02 public immutable router;\n    IERC20 public immutable token0;\n    IERC20 public immutable token1;\n    int24 public immutable tickSpacing;\n    uint256 public protocolFee;\n    uint256 public maxTotalSupply;\n    address public SharpeKeeper;\n    address public governance;\n    address public pendingGovernance;\n    address public immutable token0Address;\n    address public immutable token1Address;\n    address public immutable routerAddress;\n    int24 public baseLower;\n    int24 public baseUpper;\n    int24 public limitLower;\n    int24 public limitUpper;\n    uint256 public accruedProtocolFees0;\n    uint256 public accruedProtocolFees1;\n    /**\n     * This vault is mainly for stablecoin pairs\n     * dev After deploying, strategy needs to be set by offchain devs\n     * param _pool Underlying Uniswap V3 pool\n     * param _router Underlying Uniswap V2 router\n     * param _protocolFee Protocol fee expressed as multiple of 1e-6\n     * param _maxTotalSupply Cap on total supply\n     */\n    constructor(\n        address _pool,\n        address _router,\n        uint256 _protocolFee,\n        uint256 _maxTotalSupply\n    ) ERC20(\"Sharpe\", \"SHRP\") {\n        pool = IUniswapV3Pool(_pool);\n        router = IUniswapV2Router02(_router);\n        token0 = IERC20(IUniswapV3Pool(_pool).token0());\n        token1 = IERC20(IUniswapV3Pool(_pool).token1());\n        token0Address = IUniswapV3Pool(_pool).token0();\n        token1Address = IUniswapV3Pool(_pool).token1();\n        routerAddress = _router;\n        tickSpacing = IUniswapV3Pool(_pool).tickSpacing();\n        protocolFee = _protocolFee;\n        maxTotalSupply = _maxTotalSupply;\n        governance = msg.sender;\n        require(_protocolFee < 1e6, \"protocolFee\");\n    }\n    /**\n     * @notice Deposits tokens in proportion to the vault's current holdings.\n     * @dev These tokens sit in the vault and are not used for liquidity on Uniswap until the next rebalance.\n     * Also note it's not necessary to check if user manipulated price to deposit cheaper, as the value of range\n     * orders can only by manipulated higher.\n     * In a scenario where user has only one of each tokens the vault performs\n     * a swap on their behalf at point of deposit.\n     * @param amount0Desired Max amount of token0 to deposit\n     * @param amount1Desired Max amount of token1 to deposit\n     * @param amount0Min Revert if resulting `amount0` is less than this\n     * @param amount1Min Revert if resulting `amount1` is less than this\n     * @param to Recipient of shares\n     * @return shares Number of shares minted\n     * @return amount0 Amount of token0 deposited\n     * @return amount1 Amount of token1 deposited\n     */\n    function deposit(uint256 amount0Desired,uint256 amount1Desired,uint256 amount0Min,uint256 amount1Min, address to)\n        external override nonReentrant\n        returns (uint256 shares,uint256 amount0,uint256 amount1)\n    {\n        require(amount0Desired > 0 || amount1Desired > 0, \"amount0Desired or amount1Desired\");\n        require(to != address(0) && to != address(this), \"to\");\n        // Poke positions so vault's current holdings are up-to-date\n        _poke(baseLower, baseUpper);\n        _poke(limitLower, limitUpper);\n        // Calculate amounts proportional to vault's holdings\n        (shares, amount0, amount1) = _calcSharesAndAmounts(amount0Desired, amount1Desired);\n        require(amount0 >= amount0Min, \"amount0Min\");\n        require(amount1 >= amount1Min, \"amount1Min\");\n        if (shares == 0){ //when only amount1 or amount2 available splits the amount in two and performs a swap\n            require((amount0 > 0 && amount1 == 0) || (amount1 > 0 && amount0 == 0), \"amount0 or amount1\");\n            uint256 totalSupply = totalSupply();\n            (uint256 total0, uint256 total1) = getTotalAmounts();\n            // Single Asset Deposit\n            if (amount0 > 0 && amount1 == 0){\n\n                //1. View amounts of total0 the vault would have if it were to swap all of total1 \n                //to get the vault's total holdings in the amounts of total0 alone.\n                address[] memory path0 = new address[](2);\n                path0[0] = token1Address;\n                path0[1] = token0Address;\n                uint[] memory total1ToTotal0 = router.getAmountsOut(total1, path0);\n\n                //2. Subtract from amount0 in proportion to vault's total holding and send difference for swap.\n                uint256 amount0ToStore = amount0.mul(total0).div(total0.add(total1ToTotal0[1]));\n                uint256 difference = amount0.sub(amount0ToStore); \n                token0.safeTransferFrom(msg.sender, address(this), amount0); //pulls in single token from recipient\n                token0.approve(routerAddress, difference); //approves router to perform the swap\n                address[] memory path1 = new address[](2);\n                path1[0] = token0Address;\n                path1[1] = token1Address;\n                uint[] memory amount1ToStore = router.swapExactTokensForTokens(difference,0,path1,address(this), block.timestamp); //swaps the difference\n                \n                //3. calculate shares according to amount0 stored and amount1 just received\n                uint256 cross = Math.min(amount0ToStore.mul(total1), amount1ToStore[1].mul(total0));\n                amount0 = cross.sub(1).div(total1).add(1);\n                amount1 = cross.sub(1).div(total0).add(1);\n                shares = cross.mul(totalSupply).div(total0).div(total1);\n                require(shares > 0, \"swappedShares\");\n                \n                // 4. Send back all dust after getting the actual amount0 and amount1 for vault to store proportional to its holdings\n                if (amount0ToStore.sub(amount0) > 0) token0.safeTransfer(to, amount0ToStore.sub(amount0));\n                if (amount1ToStore[1].sub(amount1) > 0) token1.safeTransfer(to, amount1ToStore[1].sub(amount1));\n                \n                // 5. Mint shares to recipient\n                _mint(to, shares);\n                emit Deposit(msg.sender, to, shares, amount0, amount1);\n                require(totalSupply.add(shares) <= maxTotalSupply, \"maxTotalSupply\");\n            }\n            else {\n                //opposite of the first logic\n                address[] memory path0 = new address[](2);\n                path0[0] = token0Address;\n                path0[1] = token1Address;\n                uint[] memory total0ToTotal1 = router.getAmountsOut(total0, path0);\n                uint256 amount1ToStore = amount1.mul(total1).div(total1.add(total0ToTotal1[1]));\n                uint256 difference = amount1.sub(amount1ToStore);\n                token1.safeTransferFrom(msg.sender, address(this), amount1);\n                token1.approve(routerAddress, difference);\n                address[] memory path1 = new address[](2);\n                path1[0] = token1Address;\n                path1[1] = token0Address;\n                uint[] memory amount0ToStore = router.swapExactTokensForTokens(difference,0,path1,address(this), block.timestamp);                uint256 cross = Math.min(amount0ToStore[1].mul(total1), amount1ToStore.mul(total0));\n                amount0 = cross.sub(1).div(total1).add(1);\n                amount1 = cross.sub(1).div(total0).add(1);\n                shares = cross.mul(totalSupply).div(total0).div(total1);\n                require(shares > 0, \"swappedShares\");\n                if (amount0ToStore[1].sub(amount0) > 0) token0.safeTransfer(to, amount0ToStore[1].sub(amount0));\n                if (amount1ToStore.sub(amount1) > 0) token1.safeTransfer(to, amount1ToStore.sub(amount1));\n                _mint(to, shares);\n                emit Deposit(msg.sender, to, shares, amount0, amount1);\n                require(totalSupply.add(shares) <= maxTotalSupply, \"maxTotalSupply\");\n            }\n        }\n        else { //when both tokens are already available\n            require(shares > 0, \"shares\");\n            // Pull in tokens from sender\n            if (amount0 > 0) token0.safeTransferFrom(msg.sender, address(this), amount0);\n            if (amount1 > 0) token1.safeTransferFrom(msg.sender, address(this), amount1);\n            // Mint shares to recipient\n            _mint(to, shares);\n            emit Deposit(msg.sender, to, shares, amount0, amount1);\n            require(totalSupply() <= maxTotalSupply, \"maxTotalSupply\");\n            }\n    }\n    /// @dev Do zero-burns to poke a position on Uniswap so earned fees are\n    /// updated. Should be called if total amounts needs to include up-to-date fees.\n    function _poke(int24 tickLower, int24 tickUpper) internal {\n        (uint128 liquidity, , , , ) = _position(tickLower, tickUpper);\n        if (liquidity > 0) {\n            pool.burn(tickLower, tickUpper, 0);\n        }\n    }\n    /// @dev Calculates the largest possible `amount0` and `amount1` such that\n    /// they're in the same proportion as total amounts, but not greater than\n    /// `amount0Desired` and `amount1Desired` respectively.\n    function _calcSharesAndAmounts(uint256 amount0Desired, uint256 amount1Desired) internal view\n        returns (uint256 shares,uint256 amount0,uint256 amount1)\n    {\n        uint256 totalSupply = totalSupply();\n        (uint256 total0, uint256 total1) = getTotalAmounts();\n\n        // If total supply > 0, vault can't be empty\n        assert(totalSupply == 0 || total0 > 0 || total1 > 0);\n        if (totalSupply == 0) {\n            // For first deposit, just use the amounts desired\n            amount0 = amount0Desired;\n            amount1 = amount1Desired;\n            shares = Math.max(amount0, amount1);\n        } else if (total0 == 0) {\n            amount1 = amount1Desired;\n            shares = amount1.mul(totalSupply).div(total1);\n        } else if (total1 == 0) {\n            amount0 = amount0Desired;\n            shares = amount0.mul(totalSupply).div(total0);\n        } else {\n            require(amount0Desired > 0 || amount1Desired > 0, \"atleast one token is needed\");\n            uint256 cross = Math.min(amount0Desired.mul(total1), amount1Desired.mul(total0));\n            if (cross == 0){ //prepares contract to perform a swap with the single token amount given by setting shares to zero\n                amount0 = amount0Desired;\n                amount1 = amount1Desired;\n                shares = 0;\n            }\n            else { //at this point both tokens are available for deposit and the shares are calculated\n                require(cross > 0, \"cross\");\n                // Round up amounts\n                amount0 = cross.sub(1).div(total1).add(1);\n                amount1 = cross.sub(1).div(total0).add(1);\n                shares = cross.mul(totalSupply).div(total0).div(total1);\n            }\n        }\n    }\n    /**\n     * @notice Withdraws tokens in proportion to the vault's holdings.\n     * @param shares Shares burned by sender\n     * @param amount0Min Revert if resulting `amount0` is smaller than this\n     * @param amount1Min Revert if resulting `amount1` is smaller than this\n     * @param to Recipient of tokens\n     * @return amount0 Amount of token0 sent to recipient\n     * @return amount1 Amount of token1 sent to recipient\n     */\n    function withdraw(uint256 shares,uint256 amount0Min,uint256 amount1Min,address to\n) external override nonReentrant returns (uint256 amount0, uint256 amount1) {\n        require(shares > 0, \"shares\");\n        require(to != address(0) && to != address(this), \"to\");\n        uint256 totalSupply = totalSupply();\n\n        // Burn shares\n        _burn(msg.sender, shares);\n\n        // Calculate token amounts proportional to unused balances\n        uint256 unusedAmount0 = getBalance0().mul(shares).div(totalSupply);\n        uint256 unusedAmount1 = getBalance1().mul(shares).div(totalSupply);\n        // Withdraw proportion of liquidity from Uniswap pool\n        (uint256 baseAmount0, uint256 baseAmount1) =\n            _burnLiquidityShare(baseLower, baseUpper, shares, totalSupply);\n        (uint256 limitAmount0, uint256 limitAmount1) =\n            _burnLiquidityShare(limitLower, limitUpper, shares, totalSupply);\n        // Sum up total amounts owed to recipient\n        amount0 = unusedAmount0.add(baseAmount0).add(limitAmount0);\n        amount1 = unusedAmount1.add(baseAmount1).add(limitAmount1);\n        require(amount0 >= amount0Min, \"amount0Min\");\n        require(amount1 >= amount1Min, \"amount1Min\");\n        // Push tokens to recipient\n        if (amount0Min > 0 && amount1Min == 0){\n            _zappTokens(amount1, true, to);\n            if (amount0 > 0) token0.safeTransfer(to, amount0);\n        }\n        else if (amount1Min > 0 && amount0Min == 0){\n            _zappTokens(amount0, false, to);\n            if (amount1 > 0) token1.safeTransfer(to, amount1);\n        }\n        else{\n            if (amount0 > 0) token0.safeTransfer(to, amount0);\n            if (amount1 > 0) token1.safeTransfer(to, amount1);\n        }\n        emit Withdraw(msg.sender, to, shares, amount0, amount1);\n    }\n    function _zappTokens(uint256 amount, bool output, address receiver) internal{\n        if (output){\n            token1.approve(routerAddress, amount);\n            address[] memory path = new address[](2);\n            path[0] = token1Address;\n            path[1] = token0Address;\n            router.swapExactTokensForTokens(amount,0,path,receiver, block.timestamp);\n        }\n        else{\n            token0.approve(routerAddress, amount);\n            address [] memory path = new address[](2);\n            path[0] = token0Address;\n            path[1] = token1Address;\n            router.swapExactTokensForTokens(amount, 0, path, receiver, block.timestamp);\n        }\n    }\n    /// @dev Withdraws share of liquidity in a range from Uniswap pool.\n    function _burnLiquidityShare(int24 tickLower,int24 tickUpper,uint256 shares,uint256 totalSupply\n    ) internal returns (uint256 amount0, uint256 amount1) {\n        (uint128 totalLiquidity, , , , ) = _position(tickLower, tickUpper);\n        uint256 liquidity = uint256(totalLiquidity).mul(shares).div(totalSupply);\n        if (liquidity > 0) {\n            (uint256 burned0, uint256 burned1, uint256 fees0, uint256 fees1) = _burnAndCollect(tickLower, tickUpper, _toUint128(liquidity));\n            // Add share of fees\n            amount0 = burned0.add(fees0.mul(shares).div(totalSupply));\n            amount1 = burned1.add(fees1.mul(shares).div(totalSupply));\n        }\n    }\n    /**\n     * @notice Updates vault's positions. Can only be called by the strategy/sharpeKeeper.\n     * @dev Two orders are placed - a base order and a limit order. The base\n     * order is placed first with as much liquidity as possible. This order\n     * should use up all of one token, leaving only the other one. This excess\n     * amount is then placed as a single-sided bid or ask order.\n     */\n    function rebalance(int256 swapAmount,uint160 sqrtPriceLimitX96,int24 _baseLower,int24 _baseUpper,\n        int24 _bidLower,int24 _bidUpper,int24 _askLower,int24 _askUpper\n    ) external nonReentrant{\n        require(msg.sender == SharpeKeeper, \"SharpeKeeper\");\n        _checkRange(_baseLower, _baseUpper);\n        _checkRange(_bidLower, _bidUpper);\n        _checkRange(_askLower, _askUpper);\n        (, int24 tick, , , , , ) = pool.slot0();\n        require(_bidUpper <= tick, \"bidUpper\");\n        require(_askLower > tick, \"askLower\"); // inequality is strict as tick is rounded down\n        // Withdraw all current liquidity from Uniswap pool\n        {\n            (uint128 baseLiquidity, , , , ) = _position(baseLower, baseUpper);\n            (uint128 limitLiquidity, , , , ) = _position(limitLower, limitUpper);\n            _burnAndCollect(baseLower, baseUpper, baseLiquidity);\n            _burnAndCollect(limitLower, limitUpper, limitLiquidity);\n        }\n        // Emit snapshot to record balances and supply\n        uint256 balance0 = getBalance0();\n        uint256 balance1 = getBalance1();\n        emit Snapshot(tick, balance0, balance1, totalSupply());\n        if (swapAmount != 0) {\n            pool.swap(\n                address(this),swapAmount > 0,swapAmount > 0 ? swapAmount : -swapAmount,sqrtPriceLimitX96,\"\");\n            balance0 = getBalance0();\n            balance1 = getBalance1();\n        }\n        // Place base order on Uniswap\n        uint128 liquidity = _liquidityForAmounts(_baseLower, _baseUpper, balance0, balance1);\n        _mintLiquidity(_baseLower, _baseUpper, liquidity);\n        (baseLower, baseUpper) = (_baseLower, _baseUpper);\n        balance0 = getBalance0();\n        balance1 = getBalance1();\n        // Place bid or ask order on Uniswap depending on which token is left\n        uint128 bidLiquidity = _liquidityForAmounts(_bidLower, _bidUpper, balance0, balance1);\n        uint128 askLiquidity = _liquidityForAmounts(_askLower, _askUpper, balance0, balance1);\n        if (bidLiquidity > askLiquidity) {\n            _mintLiquidity(_bidLower, _bidUpper, bidLiquidity);\n            (limitLower, limitUpper) = (_bidLower, _bidUpper);\n        } else {\n            _mintLiquidity(_askLower, _askUpper, askLiquidity);\n            (limitLower, limitUpper) = (_askLower, _askUpper);\n        }\n    }\n    function _checkRange(int24 tickLower, int24 tickUpper) internal view {\n        int24 _tickSpacing = tickSpacing;\n        require(tickLower < tickUpper, \"tickLower < tickUpper\");\n        require(tickLower >= TickMath.MIN_TICK, \"tickLower too low\");\n        require(tickUpper <= TickMath.MAX_TICK, \"tickUpper too high\");\n        require(tickLower % _tickSpacing == 0, \"tickLower % tickSpacing\");\n        require(tickUpper % _tickSpacing == 0, \"tickUpper % tickSpacing\");\n    }\n    /// @dev Withdraws liquidity from a range and collects all fees in the\n    /// process.\n    function _burnAndCollect(int24 tickLower,int24 tickUpper,uint128 liquidity)\n        internal\n        returns (uint256 burned0,uint256 burned1,uint256 feesToVault0,uint256 feesToVault1)\n    {\n        if (liquidity > 0) {\n            (burned0, burned1) = pool.burn(tickLower, tickUpper, liquidity);\n        }\n        // Collect all owed tokens including earned fees\n        (uint256 collect0, uint256 collect1) = pool.collect(address(this),tickLower,tickUpper,type(uint128).max,type(uint128).max);\n        feesToVault0 = collect0.sub(burned0);\n        feesToVault1 = collect1.sub(burned1);\n        uint256 feesToProtocol0;\n        uint256 feesToProtocol1;\n        // Update accrued protocol fees\n        uint256 _protocolFee = protocolFee;\n        if (_protocolFee > 0) {\n            feesToProtocol0 = feesToVault0.mul(_protocolFee).div(1e6);\n            feesToProtocol1 = feesToVault1.mul(_protocolFee).div(1e6);\n            feesToVault0 = feesToVault0.sub(feesToProtocol0);\n            feesToVault1 = feesToVault1.sub(feesToProtocol1);\n            accruedProtocolFees0 = accruedProtocolFees0.add(feesToProtocol0);\n            accruedProtocolFees1 = accruedProtocolFees1.add(feesToProtocol1);\n        }\n        emit CollectFees(feesToVault0, feesToVault1, feesToProtocol0, feesToProtocol1);\n    }\n    /// @dev Deposits liquidity in a range on the Uniswap pool.\n    function _mintLiquidity(int24 tickLower,int24 tickUpper,uint128 liquidity) internal {\n        if (liquidity > 0) {\n            pool.mint(address(this), tickLower, tickUpper, liquidity, \"\");\n        }\n    }\n    /**\n     * @notice Calculates the vault's total holdings of token0 and token1 - in\n     * other words, how much of each token the vault would hold if it withdrew\n     * all its liquidity from Uniswap.\n     */\n    function getTotalAmounts() public view override returns (uint256 total0, uint256 total1) {\n        (uint256 baseAmount0, uint256 baseAmount1) = getPositionAmounts(baseLower, baseUpper);\n        (uint256 limitAmount0, uint256 limitAmount1) =\n            getPositionAmounts(limitLower, limitUpper);\n        total0 = getBalance0().add(baseAmount0).add(limitAmount0);\n        total1 = getBalance1().add(baseAmount1).add(limitAmount1);\n    }\n    /**\n     * @notice Amounts of token0 and token1 held in vault's position. Includes\n     * owed fees but excludes the proportion of fees that will be paid to the\n     * protocol. Doesn't include fees accrued since last poke.\n     */\n    function getPositionAmounts(int24 tickLower, int24 tickUpper) public view returns (uint256 amount0, uint256 amount1) {\n        (uint128 liquidity, , , uint128 tokensOwed0, uint128 tokensOwed1) = _position(tickLower, tickUpper);\n        (amount0, amount1) = _amountsForLiquidity(tickLower, tickUpper, liquidity);\n        // Subtract protocol fees\n        uint256 oneMinusFee = uint256(1e6).sub(protocolFee);\n        amount0 = amount0.add(uint256(tokensOwed0).mul(oneMinusFee).div(1e6));\n        amount1 = amount1.add(uint256(tokensOwed1).mul(oneMinusFee).div(1e6));\n    }\n    /**\n     * @notice Balance of token0 in vault not used in any position.\n     */\n    function getBalance0() public view returns (uint256) {\n        return token0.balanceOf(address(this)).sub(accruedProtocolFees0);\n    }\n    /**\n     * @notice Balance of token1 in vault not used in any position.\n     */\n    function getBalance1() public view returns (uint256) {\n        return token1.balanceOf(address(this)).sub(accruedProtocolFees1);\n    }\n    /// @dev Wrapper around `IUniswapV3Pool.positions()`.\n    function _position(int24 tickLower, int24 tickUpper)\n        internal\n        view\n        returns (uint128,uint256,uint256,uint128,uint128)\n    {\n        bytes32 positionKey = PositionKey.compute(address(this), tickLower, tickUpper);\n        return pool.positions(positionKey);\n    }\n    /// @dev Wrapper around `LiquidityAmounts.getAmountsForLiquidity()`.\n    function _amountsForLiquidity(int24 tickLower,int24 tickUpper,uint128 liquidity\n    ) internal view returns (uint256, uint256) {\n        (uint160 sqrtRatioX96, , , , , , ) = pool.slot0();\n        return\n            LiquidityAmounts.getAmountsForLiquidity(\n                sqrtRatioX96,\n                TickMath.getSqrtRatioAtTick(tickLower),\n                TickMath.getSqrtRatioAtTick(tickUpper),\n                liquidity\n            );\n    }\n    /// @dev Wrapper around `LiquidityAmounts.getLiquidityForAmounts()`.\n    function _liquidityForAmounts(int24 tickLower,int24 tickUpper,uint256 amount0,uint256 amount1\n    ) internal view returns (uint128) {\n        (uint160 sqrtRatioX96, , , , , , ) = pool.slot0();\n        return\n            LiquidityAmounts.getLiquidityForAmounts(sqrtRatioX96,TickMath.getSqrtRatioAtTick(tickLower),\n                TickMath.getSqrtRatioAtTick(tickUpper),amount0,amount1);\n    }\n    /// @dev Casts uint256 to uint128 with overflow check.\n    function _toUint128(uint256 x) internal pure returns (uint128) {\n        assert(x <= type(uint128).max);\n        return uint128(x);\n    }\n    /// @dev Callback for Uniswap V3 pool.\n    function uniswapV3MintCallback(uint256 amount0,uint256 amount1,bytes calldata data) external override {\n        require(msg.sender == address(pool));\n        if (amount0 > 0) token0.safeTransfer(msg.sender, amount0);\n        if (amount1 > 0) token1.safeTransfer(msg.sender, amount1);\n    }\n    /// @dev Callback for Uniswap V3 pool.\n    function uniswapV3SwapCallback(int256 amount0Delta,int256 amount1Delta,bytes calldata data) external override {\n        require(msg.sender == address(pool));\n        if (amount0Delta > 0) token0.safeTransfer(msg.sender, uint256(amount0Delta));\n        if (amount1Delta > 0) token1.safeTransfer(msg.sender, uint256(amount1Delta));\n    }\n    /**\n     * @notice Used to collect accumulated protocol fees.\n     */\n    function collectProtocol(uint256 amount0,uint256 amount1,address to) external onlyGovernance {\n        accruedProtocolFees0 = accruedProtocolFees0.sub(amount0);\n        accruedProtocolFees1 = accruedProtocolFees1.sub(amount1);\n        if (amount0 > 0) token0.safeTransfer(to, amount0);\n        if (amount1 > 0) token1.safeTransfer(to, amount1);\n    }\n    /**\n     * @notice Removes tokens accidentally sent to this vault.\n     */\n    function sweep(IERC20 token,uint256 amount,address to) external onlyGovernance {\n        require(token != token0 && token != token1, \"token\");\n        token.safeTransfer(to, amount);\n    }\n    /**\n     * @notice set SharpeKeeper Used to set the strategy contract that determines the position ranges and calls rebalance().\n     * Must be called after this vault is deployed.\n     */\n    function setSharpeKeeper(address _SharpeKeeper) external onlyGovernance {SharpeKeeper = _SharpeKeeper;}\n    /**\n     * @notice Used to change the protocol fee charged on pool fees earned from\n     * Uniswap, expressed as multiple of 1e-6.\n     */\n    function setProtocolFee(uint256 _protocolFee) external onlyGovernance {\n        require(_protocolFee < 1e6, \"protocolFee\");\n        protocolFee = _protocolFee;\n    }\n    /**\n     * @notice Used to change deposit cap for a guarded launch or to ensure vault doesn't \n     * grow too large relative to the pool. Cap is on total supply rather than amounts \n     * of token0 and token1 as those amounts fluctuate naturally over time.\n     */\n    function setMaxTotalSupply(uint256 _maxTotalSupply) external onlyGovernance { maxTotalSupply = _maxTotalSupply;}\n    /**\n     * @notice Removes liquidity in case of emergency.\n     */\n    function emergencyBurn(int24 tickLower,int24 tickUpper,uint128 liquidity) external onlyGovernance {\n        pool.burn(tickLower, tickUpper, liquidity);\n        pool.collect(address(this), tickLower, tickUpper, type(uint128).max, type(uint128).max);\n    }\n    /**\n     * @notice Governance address is not updated until the new governance\n     * address has called `acceptGovernance()` to accept this responsibility.\n     */\n    function setGovernance(address _governance) external onlyGovernance { pendingGovernance = _governance;}\n    /**\n     * @notice `setGovernance()` should be called by the existing governance address prior to calling this function.\n     */\n    function acceptGovernance() external {\n        require(msg.sender == pendingGovernance, \"pendingGovernance\");\n        governance = msg.sender;\n    }\n    modifier onlyGovernance {\n        require(msg.sender == governance, \"governance\");\n        _;\n    }\n}","sourcePath":"contracts/Sharpe.sol","type":"contract","deployment":{"address":"0x2f1A893f4b42D49bE8C98AAF2EF61532A10Ec1Cf","chainid":"137","blockHeight":32424080}}